{
  "contractName": "Bid",
  "abi": [
    {
      "inputs": [
        {
          "internalType": "bytes32",
          "name": "_cipherBid",
          "type": "bytes32"
        },
        {
          "internalType": "address",
          "name": "_tenderer",
          "type": "address"
        }
      ],
      "payable": false,
      "stateMutability": "nonpayable",
      "type": "constructor"
    },
    {
      "anonymous": false,
      "inputs": [
        {
          "indexed": true,
          "internalType": "address",
          "name": "previousOwner",
          "type": "address"
        },
        {
          "indexed": true,
          "internalType": "address",
          "name": "newOwner",
          "type": "address"
        }
      ],
      "name": "OwnershipTransferred",
      "type": "event"
    },
    {
      "constant": true,
      "inputs": [],
      "name": "isOwner",
      "outputs": [
        {
          "internalType": "bool",
          "name": "",
          "type": "bool"
        }
      ],
      "payable": false,
      "stateMutability": "view",
      "type": "function"
    },
    {
      "constant": true,
      "inputs": [
        {
          "internalType": "uint256",
          "name": "",
          "type": "uint256"
        }
      ],
      "name": "observations",
      "outputs": [
        {
          "internalType": "string",
          "name": "plain",
          "type": "string"
        },
        {
          "internalType": "string",
          "name": "hash",
          "type": "string"
        },
        {
          "internalType": "string",
          "name": "resPlain",
          "type": "string"
        },
        {
          "internalType": "string",
          "name": "resHash",
          "type": "string"
        }
      ],
      "payable": false,
      "stateMutability": "view",
      "type": "function"
    },
    {
      "constant": true,
      "inputs": [],
      "name": "owner",
      "outputs": [
        {
          "internalType": "address",
          "name": "",
          "type": "address"
        }
      ],
      "payable": false,
      "stateMutability": "view",
      "type": "function"
    },
    {
      "constant": true,
      "inputs": [],
      "name": "plainBid",
      "outputs": [
        {
          "internalType": "bytes32",
          "name": "",
          "type": "bytes32"
        }
      ],
      "payable": false,
      "stateMutability": "view",
      "type": "function"
    },
    {
      "constant": false,
      "inputs": [],
      "name": "renounceOwnership",
      "outputs": [],
      "payable": false,
      "stateMutability": "nonpayable",
      "type": "function"
    },
    {
      "constant": true,
      "inputs": [
        {
          "internalType": "uint256",
          "name": "",
          "type": "uint256"
        }
      ],
      "name": "scoreObservations",
      "outputs": [
        {
          "internalType": "string",
          "name": "plain",
          "type": "string"
        },
        {
          "internalType": "string",
          "name": "hash",
          "type": "string"
        },
        {
          "internalType": "string",
          "name": "resPlain",
          "type": "string"
        },
        {
          "internalType": "string",
          "name": "resHash",
          "type": "string"
        }
      ],
      "payable": false,
      "stateMutability": "view",
      "type": "function"
    },
    {
      "constant": true,
      "inputs": [],
      "name": "tenderer",
      "outputs": [
        {
          "internalType": "address",
          "name": "",
          "type": "address"
        }
      ],
      "payable": false,
      "stateMutability": "view",
      "type": "function"
    },
    {
      "constant": false,
      "inputs": [
        {
          "internalType": "address",
          "name": "newOwner",
          "type": "address"
        }
      ],
      "name": "transferOwnership",
      "outputs": [],
      "payable": false,
      "stateMutability": "nonpayable",
      "type": "function"
    },
    {
      "constant": false,
      "inputs": [
        {
          "internalType": "string",
          "name": "_plain",
          "type": "string"
        },
        {
          "internalType": "string",
          "name": "_hash",
          "type": "string"
        }
      ],
      "name": "submitObservation",
      "outputs": [],
      "payable": false,
      "stateMutability": "nonpayable",
      "type": "function"
    },
    {
      "constant": false,
      "inputs": [
        {
          "internalType": "string",
          "name": "_plain",
          "type": "string"
        }
      ],
      "name": "submitObservation",
      "outputs": [],
      "payable": false,
      "stateMutability": "nonpayable",
      "type": "function"
    },
    {
      "constant": true,
      "inputs": [],
      "name": "getObservationsLength",
      "outputs": [
        {
          "internalType": "uint256",
          "name": "",
          "type": "uint256"
        }
      ],
      "payable": false,
      "stateMutability": "view",
      "type": "function"
    },
    {
      "constant": false,
      "inputs": [
        {
          "internalType": "uint256",
          "name": "_idx",
          "type": "uint256"
        },
        {
          "internalType": "string",
          "name": "_plain",
          "type": "string"
        },
        {
          "internalType": "string",
          "name": "_hash",
          "type": "string"
        }
      ],
      "name": "respondObservation",
      "outputs": [],
      "payable": false,
      "stateMutability": "nonpayable",
      "type": "function"
    },
    {
      "constant": false,
      "inputs": [
        {
          "internalType": "string",
          "name": "_plain",
          "type": "string"
        }
      ],
      "name": "submitScoreObservation",
      "outputs": [],
      "payable": false,
      "stateMutability": "nonpayable",
      "type": "function"
    },
    {
      "constant": false,
      "inputs": [
        {
          "internalType": "string",
          "name": "_plain",
          "type": "string"
        },
        {
          "internalType": "string",
          "name": "_hash",
          "type": "string"
        }
      ],
      "name": "submitScoreObservation",
      "outputs": [],
      "payable": false,
      "stateMutability": "nonpayable",
      "type": "function"
    },
    {
      "constant": true,
      "inputs": [],
      "name": "getScoreObservationsLength",
      "outputs": [
        {
          "internalType": "uint256",
          "name": "",
          "type": "uint256"
        }
      ],
      "payable": false,
      "stateMutability": "view",
      "type": "function"
    },
    {
      "constant": false,
      "inputs": [
        {
          "internalType": "uint256",
          "name": "_idx",
          "type": "uint256"
        },
        {
          "internalType": "string",
          "name": "_plain",
          "type": "string"
        },
        {
          "internalType": "string",
          "name": "_hash",
          "type": "string"
        }
      ],
      "name": "respondScoreObservation",
      "outputs": [],
      "payable": false,
      "stateMutability": "nonpayable",
      "type": "function"
    },
    {
      "constant": false,
      "inputs": [
        {
          "internalType": "bytes32",
          "name": "_plainBid",
          "type": "bytes32"
        }
      ],
      "name": "setPlainBid",
      "outputs": [],
      "payable": false,
      "stateMutability": "nonpayable",
      "type": "function"
    }
  ],
  "bytecode": "0x608060405234801561001057600080fd5b50604051611ef1380380611ef18339818101604052604081101561003357600080fd5b81019080805190602001909291908051906020019092919050505061005c61016660201b60201c565b6000806101000a81548173ffffffffffffffffffffffffffffffffffffffff021916908373ffffffffffffffffffffffffffffffffffffffff1602179055506000809054906101000a900473ffffffffffffffffffffffffffffffffffffffff1673ffffffffffffffffffffffffffffffffffffffff16600073ffffffffffffffffffffffffffffffffffffffff167f8be0079c531659141344cd1fd0a4f28419497f9722a3daafe3b4186f6b6457e060405160405180910390a38160028190555080600160006101000a81548173ffffffffffffffffffffffffffffffffffffffff021916908373ffffffffffffffffffffffffffffffffffffffff160217905550505061016e565b600033905090565b611d748061017d6000396000f3fe608060405234801561001057600080fd5b506004361061010b5760003560e01c8063a058aa2d116100a2578063f07ee22511610071578063f07ee22514610979578063f132617514610acb578063f211128314610c27578063f288f50514610ce2578063f2fde38b14610d005761010b565b8063a058aa2d146108c5578063cc83d2fa146108e3578063d715018014610911578063e7974fef1461092f5761010b565b8063715018a6116100de578063715018a6146106645780638da5cb5b1461066e5780638f32d59b146106b85780639986ab94146106da5761010b565b8063252c09d7146101105780632c519bc4146102fb5780632ca5f37f146104575780633b02a26814610512575b600080fd5b61013c6004803603602081101561012657600080fd5b8101908080359060200190929190505050610d44565b6040518080602001806020018060200180602001858103855289818151815260200191508051906020019080838360005b8381101561018857808201518184015260208101905061016d565b50505050905090810190601f1680156101b55780820380516001836020036101000a031916815260200191505b50858103845288818151815260200191508051906020019080838360005b838110156101ee5780820151818401526020810190506101d3565b50505050905090810190601f16801561021b5780820380516001836020036101000a031916815260200191505b50858103835287818151815260200191508051906020019080838360005b83811015610254578082015181840152602081019050610239565b50505050905090810190601f1680156102815780820380516001836020036101000a031916815260200191505b50858103825286818151815260200191508051906020019080838360005b838110156102ba57808201518184015260208101905061029f565b50505050905090810190601f1680156102e75780820380516001836020036101000a031916815260200191505b509850505050505050505060405180910390f35b6104556004803603606081101561031157600080fd5b81019080803590602001909291908035906020019064010000000081111561033857600080fd5b82018360208201111561034a57600080fd5b8035906020019184600183028401116401000000008311171561036c57600080fd5b91908080601f016020809104026020016040519081016040528093929190818152602001838380828437600081840152601f19601f820116905080830192505050505050509192919290803590602001906401000000008111156103cf57600080fd5b8201836020820111156103e157600080fd5b8035906020019184600183028401116401000000008311171561040357600080fd5b91908080601f016020809104026020016040519081016040528093929190818152602001838380828437600081840152601f19601f820116905080830192505050505050509192919290505050610fe1565b005b6105106004803603602081101561046d57600080fd5b810190808035906020019064010000000081111561048a57600080fd5b82018360208201111561049c57600080fd5b803590602001918460018302840111640100000000831117156104be57600080fd5b91908080601f016020809104026020016040519081016040528093929190818152602001838380828437600081840152601f19601f8201169050808301925050505050505091929192905050506110b2565b005b6106626004803603604081101561052857600080fd5b810190808035906020019064010000000081111561054557600080fd5b82018360208201111561055757600080fd5b8035906020019184600183028401116401000000008311171561057957600080fd5b91908080601f016020809104026020016040519081016040528093929190818152602001838380828437600081840152601f19601f820116905080830192505050505050509192919290803590602001906401000000008111156105dc57600080fd5b8201836020820111156105ee57600080fd5b8035906020019184600183028401116401000000008311171561061057600080fd5b91908080601f016020809104026020016040519081016040528093929190818152602001838380828437600081840152601f19601f8201169050808301925050505050505091929192905050506111a7565b005b61066c61128e565b005b6106766113c7565b604051808273ffffffffffffffffffffffffffffffffffffffff1673ffffffffffffffffffffffffffffffffffffffff16815260200191505060405180910390f35b6106c06113f0565b604051808215151515815260200191505060405180910390f35b610706600480360360208110156106f057600080fd5b810190808035906020019092919050505061144e565b6040518080602001806020018060200180602001858103855289818151815260200191508051906020019080838360005b83811015610752578082015181840152602081019050610737565b50505050905090810190601f16801561077f5780820380516001836020036101000a031916815260200191505b50858103845288818151815260200191508051906020019080838360005b838110156107b857808201518184015260208101905061079d565b50505050905090810190601f1680156107e55780820380516001836020036101000a031916815260200191505b50858103835287818151815260200191508051906020019080838360005b8381101561081e578082015181840152602081019050610803565b50505050905090810190601f16801561084b5780820380516001836020036101000a031916815260200191505b50858103825286818151815260200191508051906020019080838360005b83811015610884578082015181840152602081019050610869565b50505050905090810190601f1680156108b15780820380516001836020036101000a031916815260200191505b509850505050505050505060405180910390f35b6108cd6116eb565b6040518082815260200191505060405180910390f35b61090f600480360360208110156108f957600080fd5b81019080803590602001909291905050506116f1565b005b610919611755565b6040518082815260200191505060405180910390f35b610937611762565b604051808273ffffffffffffffffffffffffffffffffffffffff1673ffffffffffffffffffffffffffffffffffffffff16815260200191505060405180910390f35b610ac96004803603604081101561098f57600080fd5b81019080803590602001906401000000008111156109ac57600080fd5b8201836020820111156109be57600080fd5b803590602001918460018302840111640100000000831117156109e057600080fd5b91908080601f016020809104026020016040519081016040528093929190818152602001838380828437600081840152601f19601f82011690508083019250505050505050919291929080359060200190640100000000811115610a4357600080fd5b820183602082011115610a5557600080fd5b80359060200191846001830284011164010000000083111715610a7757600080fd5b91908080601f016020809104026020016040519081016040528093929190818152602001838380828437600081840152601f19601f820116905080830192505050505050509192919290505050611788565b005b610c2560048036036060811015610ae157600080fd5b810190808035906020019092919080359060200190640100000000811115610b0857600080fd5b820183602082011115610b1a57600080fd5b80359060200191846001830284011164010000000083111715610b3c57600080fd5b91908080601f016020809104026020016040519081016040528093929190818152602001838380828437600081840152601f19601f82011690508083019250505050505050919291929080359060200190640100000000811115610b9f57600080fd5b820183602082011115610bb157600080fd5b80359060200191846001830284011164010000000083111715610bd357600080fd5b91908080601f016020809104026020016040519081016040528093929190818152602001838380828437600081840152601f19601f82011690508083019250505050505050919291929050505061186f565b005b610ce060048036036020811015610c3d57600080fd5b8101908080359060200190640100000000811115610c5a57600080fd5b820183602082011115610c6c57600080fd5b80359060200191846001830284011164010000000083111715610c8e57600080fd5b91908080601f016020809104026020016040519081016040528093929190818152602001838380828437600081840152601f19601f820116905080830192505050505050509192919290505050611920565b005b610cea611a15565b6040518082815260200191505060405180910390f35b610d4260048036036020811015610d1657600080fd5b81019080803573ffffffffffffffffffffffffffffffffffffffff169060200190929190505050611a22565b005b60048181548110610d5157fe5b9060005260206000209060040201600091509050806000018054600181600116156101000203166002900480601f016020809104026020016040519081016040528092919081815260200182805460018160011615610100020316600290048015610dfd5780601f10610dd257610100808354040283529160200191610dfd565b820191906000526020600020905b815481529060010190602001808311610de057829003601f168201915b505050505090806001018054600181600116156101000203166002900480601f016020809104026020016040519081016040528092919081815260200182805460018160011615610100020316600290048015610e9b5780601f10610e7057610100808354040283529160200191610e9b565b820191906000526020600020905b815481529060010190602001808311610e7e57829003601f168201915b505050505090806002018054600181600116156101000203166002900480601f016020809104026020016040519081016040528092919081815260200182805460018160011615610100020316600290048015610f395780601f10610f0e57610100808354040283529160200191610f39565b820191906000526020600020905b815481529060010190602001808311610f1c57829003601f168201915b505050505090806003018054600181600116156101000203166002900480601f016020809104026020016040519081016040528092919081815260200182805460018160011615610100020316600290048015610fd75780601f10610fac57610100808354040283529160200191610fd7565b820191906000526020600020905b815481529060010190602001808311610fba57829003601f168201915b5050505050905084565b610fe96113f0565b61105b576040517f08c379a00000000000000000000000000000000000000000000000000000000081526004018080602001828103825260208152602001807f4f776e61626c653a2063616c6c6572206973206e6f7420746865206f776e657281525060200191505060405180910390fd5b60006004848154811061106a57fe5b9060005260206000209060040201905082816002019080519060200190611092929190611bf4565b50818160030190805190602001906110ab929190611bf4565b5050505050565b6005604051806080016040528083815260200160405180602001604052806000815250815260200160405180602001604052806000815250815260200160405180602001604052806000815250815250908060018154018082558091505090600182039060005260206000209060040201600090919290919091506000820151816000019080519060200190611149929190611c74565b506020820151816001019080519060200190611166929190611c74565b506040820151816002019080519060200190611183929190611c74565b5060608201518160030190805190602001906111a0929190611c74565b5050505050565b600460405180608001604052808481526020018381526020016040518060200160405280600081525081526020016040518060200160405280600081525081525090806001815401808255809150509060018203906000526020600020906004020160009091929091909150600082015181600001908051906020019061122f929190611c74565b50602082015181600101908051906020019061124c929190611c74565b506040820151816002019080519060200190611269929190611c74565b506060820151816003019080519060200190611286929190611c74565b505050505050565b6112966113f0565b611308576040517f08c379a00000000000000000000000000000000000000000000000000000000081526004018080602001828103825260208152602001807f4f776e61626c653a2063616c6c6572206973206e6f7420746865206f776e657281525060200191505060405180910390fd5b600073ffffffffffffffffffffffffffffffffffffffff166000809054906101000a900473ffffffffffffffffffffffffffffffffffffffff1673ffffffffffffffffffffffffffffffffffffffff167f8be0079c531659141344cd1fd0a4f28419497f9722a3daafe3b4186f6b6457e060405160405180910390a360008060006101000a81548173ffffffffffffffffffffffffffffffffffffffff021916908373ffffffffffffffffffffffffffffffffffffffff160217905550565b60008060009054906101000a900473ffffffffffffffffffffffffffffffffffffffff16905090565b60008060009054906101000a900473ffffffffffffffffffffffffffffffffffffffff1673ffffffffffffffffffffffffffffffffffffffff16611432611aa8565b73ffffffffffffffffffffffffffffffffffffffff1614905090565b6005818154811061145b57fe5b9060005260206000209060040201600091509050806000018054600181600116156101000203166002900480601f0160208091040260200160405190810160405280929190818152602001828054600181600116156101000203166002900480156115075780601f106114dc57610100808354040283529160200191611507565b820191906000526020600020905b8154815290600101906020018083116114ea57829003601f168201915b505050505090806001018054600181600116156101000203166002900480601f0160208091040260200160405190810160405280929190818152602001828054600181600116156101000203166002900480156115a55780601f1061157a576101008083540402835291602001916115a5565b820191906000526020600020905b81548152906001019060200180831161158857829003601f168201915b505050505090806002018054600181600116156101000203166002900480601f0160208091040260200160405190810160405280929190818152602001828054600181600116156101000203166002900480156116435780601f1061161857610100808354040283529160200191611643565b820191906000526020600020905b81548152906001019060200180831161162657829003601f168201915b505050505090806003018054600181600116156101000203166002900480601f0160208091040260200160405190810160405280929190818152602001828054600181600116156101000203166002900480156116e15780601f106116b6576101008083540402835291602001916116e1565b820191906000526020600020905b8154815290600101906020018083116116c457829003601f168201915b5050505050905084565b60035481565b600160009054906101000a900473ffffffffffffffffffffffffffffffffffffffff1673ffffffffffffffffffffffffffffffffffffffff163373ffffffffffffffffffffffffffffffffffffffff161461174b57600080fd5b8060038190555050565b6000600480549050905090565b600160009054906101000a900473ffffffffffffffffffffffffffffffffffffffff1681565b6005604051806080016040528084815260200183815260200160405180602001604052806000815250815260200160405180602001604052806000815250815250908060018154018082558091505090600182039060005260206000209060040201600090919290919091506000820151816000019080519060200190611810929190611c74565b50602082015181600101908051906020019061182d929190611c74565b50604082015181600201908051906020019061184a929190611c74565b506060820151816003019080519060200190611867929190611c74565b505050505050565b600160009054906101000a900473ffffffffffffffffffffffffffffffffffffffff1673ffffffffffffffffffffffffffffffffffffffff163373ffffffffffffffffffffffffffffffffffffffff16146118c957600080fd5b6000600584815481106118d857fe5b9060005260206000209060040201905082816002019080519060200190611900929190611bf4565b5081816003019080519060200190611919929190611bf4565b5050505050565b60046040518060800160405280838152602001604051806020016040528060008152508152602001604051806020016040528060008152508152602001604051806020016040528060008152508152509080600181540180825580915050906001820390600052602060002090600402016000909192909190915060008201518160000190805190602001906119b7929190611c74565b5060208201518160010190805190602001906119d4929190611c74565b5060408201518160020190805190602001906119f1929190611c74565b506060820151816003019080519060200190611a0e929190611c74565b5050505050565b6000600580549050905090565b611a2a6113f0565b611a9c576040517f08c379a00000000000000000000000000000000000000000000000000000000081526004018080602001828103825260208152602001807f4f776e61626c653a2063616c6c6572206973206e6f7420746865206f776e657281525060200191505060405180910390fd5b611aa581611ab0565b50565b600033905090565b600073ffffffffffffffffffffffffffffffffffffffff168173ffffffffffffffffffffffffffffffffffffffff161415611b36576040517f08c379a0000000000000000000000000000000000000000000000000000000008152600401808060200182810382526026815260200180611d1a6026913960400191505060405180910390fd5b8073ffffffffffffffffffffffffffffffffffffffff166000809054906101000a900473ffffffffffffffffffffffffffffffffffffffff1673ffffffffffffffffffffffffffffffffffffffff167f8be0079c531659141344cd1fd0a4f28419497f9722a3daafe3b4186f6b6457e060405160405180910390a3806000806101000a81548173ffffffffffffffffffffffffffffffffffffffff021916908373ffffffffffffffffffffffffffffffffffffffff16021790555050565b828054600181600116156101000203166002900490600052602060002090601f016020900481019282601f10611c3557805160ff1916838001178555611c63565b82800160010185558215611c63579182015b82811115611c62578251825591602001919060010190611c47565b5b509050611c709190611cf4565b5090565b828054600181600116156101000203166002900490600052602060002090601f016020900481019282601f10611cb557805160ff1916838001178555611ce3565b82800160010185558215611ce3579182015b82811115611ce2578251825591602001919060010190611cc7565b5b509050611cf09190611cf4565b5090565b611d1691905b80821115611d12576000816000905550600101611cfa565b5090565b9056fe4f776e61626c653a206e6577206f776e657220697320746865207a65726f2061646472657373a265627a7a7231582007186aed24137b09fd9f53cb5eecd9860fe2e90ad7541eec2f8787443e6d887c64736f6c634300050c0032",
  "source": "pragma solidity >=0.4.23 <0.6.0;\n\nimport 'openzeppelin-solidity/contracts/ownership/Ownable.sol';\n\ncontract Bid is Ownable {\n  address public tenderer;\n  bytes32 cipherBid;\n  bytes32 public plainBid;\n  Observation[] public observations;\n  Observation[] public scoreObservations;\n\n  struct Observation {\n    string plain;\n    string hash;\n    string resPlain;\n    string resHash;\n  }\n\n  constructor(\n    bytes32 _cipherBid,\n    address _tenderer\n  ) public {\n    cipherBid = _cipherBid;\n    tenderer = _tenderer;\n  }\n\n  modifier onlyTenderer() {\n    require(msg.sender == tenderer);\n    _;\n  }\n\n  function submitObservation(string memory _plain) public {\n    observations.push(Observation({plain: _plain, hash: \"\", resPlain: \"\", resHash: \"\"}));\n  }\n\n  function submitObservation(string memory _plain, string memory _hash) public {\n    observations.push(Observation({plain: _plain, hash: _hash, resPlain: \"\", resHash: \"\"}));\n  }\n\n  function getObservationsLength() public view returns(uint) {\n    return observations.length;\n  }\n\n  function respondObservation(uint _idx, string memory _plain, string memory _hash) public onlyOwner {\n    Observation storage obs = observations[_idx];\n    obs.resPlain = _plain;\n    obs.resHash = _hash;\n  }\n\n  function submitScoreObservation(string memory _plain) public {\n    scoreObservations.push(Observation({plain: _plain, hash: \"\", resPlain: \"\", resHash: \"\"}));\n  }\n\n  function submitScoreObservation(string memory _plain, string memory _hash) public {\n    scoreObservations.push(Observation({plain: _plain, hash: _hash, resPlain: \"\", resHash: \"\"}));\n  }\n\n  function getScoreObservationsLength() public view returns(uint) {\n    return scoreObservations.length;\n  }\n\n  function respondScoreObservation(uint _idx, string memory _plain, string memory _hash) public onlyTenderer {\n    Observation storage obs = scoreObservations[_idx];\n    obs.resPlain = _plain;\n    obs.resHash = _hash;\n  }\n\n  function setPlainBid(bytes32 _plainBid) public onlyTenderer {\n    plainBid = _plainBid;\n  }\n}\n",
  "sourcePath": "/home/luis/Documents/BlockchainStuff/Proyecto/contracts/contracts/Bid.sol",
  "compiler": {
    "name": "solc",
    "version": "0.5.12+commit.7709ece9.Emscripten.clang"
  },
  "schemaVersion": "3.0.19",
  "updatedAt": "2019-12-05T18:40:57.796Z",
  "devdoc": {
    "methods": {
      "isOwner()": {
        "details": "Returns true if the caller is the current owner."
      },
      "owner()": {
        "details": "Returns the address of the current owner."
      },
      "renounceOwnership()": {
        "details": "Leaves the contract without owner. It will not be possible to call `onlyOwner` functions anymore. Can only be called by the current owner.     * NOTE: Renouncing ownership will leave the contract without an owner, thereby removing any functionality that is only available to the owner."
      },
      "transferOwnership(address)": {
        "details": "Transfers ownership of the contract to a new account (`newOwner`). Can only be called by the current owner."
      }
    }
  },
  "userdoc": {
    "methods": {}
  }
}