{
  "contractName": "Bid",
  "abi": [
    {
      "constant": true,
      "inputs": [
        {
          "name": "",
          "type": "uint256"
        }
      ],
      "name": "observations",
      "outputs": [
        {
          "name": "plain",
          "type": "string"
        },
        {
          "name": "hash",
          "type": "string"
        },
        {
          "name": "numResponses",
          "type": "uint256"
        }
      ],
      "payable": false,
      "stateMutability": "view",
      "type": "function"
    },
    {
      "constant": false,
      "inputs": [],
      "name": "renounceOwnership",
      "outputs": [],
      "payable": false,
      "stateMutability": "nonpayable",
      "type": "function"
    },
    {
      "constant": true,
      "inputs": [],
      "name": "owner",
      "outputs": [
        {
          "name": "",
          "type": "address"
        }
      ],
      "payable": false,
      "stateMutability": "view",
      "type": "function"
    },
    {
      "constant": true,
      "inputs": [],
      "name": "isOwner",
      "outputs": [
        {
          "name": "",
          "type": "bool"
        }
      ],
      "payable": false,
      "stateMutability": "view",
      "type": "function"
    },
    {
      "constant": true,
      "inputs": [
        {
          "name": "",
          "type": "uint256"
        }
      ],
      "name": "scoreObservations",
      "outputs": [
        {
          "name": "plain",
          "type": "string"
        },
        {
          "name": "hash",
          "type": "string"
        },
        {
          "name": "numResponses",
          "type": "uint256"
        }
      ],
      "payable": false,
      "stateMutability": "view",
      "type": "function"
    },
    {
      "constant": true,
      "inputs": [],
      "name": "tenderer",
      "outputs": [
        {
          "name": "",
          "type": "address"
        }
      ],
      "payable": false,
      "stateMutability": "view",
      "type": "function"
    },
    {
      "constant": true,
      "inputs": [],
      "name": "score",
      "outputs": [
        {
          "name": "",
          "type": "int256"
        }
      ],
      "payable": false,
      "stateMutability": "view",
      "type": "function"
    },
    {
      "constant": false,
      "inputs": [
        {
          "name": "newOwner",
          "type": "address"
        }
      ],
      "name": "transferOwnership",
      "outputs": [],
      "payable": false,
      "stateMutability": "nonpayable",
      "type": "function"
    },
    {
      "inputs": [
        {
          "name": "_tenderer",
          "type": "address"
        }
      ],
      "payable": false,
      "stateMutability": "nonpayable",
      "type": "constructor"
    },
    {
      "anonymous": false,
      "inputs": [
        {
          "indexed": true,
          "name": "previousOwner",
          "type": "address"
        },
        {
          "indexed": true,
          "name": "newOwner",
          "type": "address"
        }
      ],
      "name": "OwnershipTransferred",
      "type": "event"
    },
    {
      "constant": false,
      "inputs": [
        {
          "name": "_plain",
          "type": "string"
        },
        {
          "name": "_hash",
          "type": "string"
        }
      ],
      "name": "submitObservation",
      "outputs": [],
      "payable": false,
      "stateMutability": "nonpayable",
      "type": "function"
    },
    {
      "constant": false,
      "inputs": [
        {
          "name": "_plain",
          "type": "string"
        }
      ],
      "name": "submitObservation",
      "outputs": [],
      "payable": false,
      "stateMutability": "nonpayable",
      "type": "function"
    },
    {
      "constant": true,
      "inputs": [],
      "name": "getObservationsLength",
      "outputs": [
        {
          "name": "",
          "type": "uint256"
        }
      ],
      "payable": false,
      "stateMutability": "view",
      "type": "function"
    },
    {
      "constant": false,
      "inputs": [
        {
          "name": "_idx",
          "type": "uint256"
        },
        {
          "name": "_plain",
          "type": "string"
        },
        {
          "name": "_hash",
          "type": "string"
        }
      ],
      "name": "respondObservation",
      "outputs": [],
      "payable": false,
      "stateMutability": "nonpayable",
      "type": "function"
    },
    {
      "constant": false,
      "inputs": [
        {
          "name": "_plain",
          "type": "string"
        }
      ],
      "name": "submitScoreObservation",
      "outputs": [],
      "payable": false,
      "stateMutability": "nonpayable",
      "type": "function"
    },
    {
      "constant": false,
      "inputs": [
        {
          "name": "_plain",
          "type": "string"
        },
        {
          "name": "_hash",
          "type": "string"
        }
      ],
      "name": "submitScoreObservation",
      "outputs": [],
      "payable": false,
      "stateMutability": "nonpayable",
      "type": "function"
    },
    {
      "constant": true,
      "inputs": [],
      "name": "getScoreObservationsLength",
      "outputs": [
        {
          "name": "",
          "type": "uint256"
        }
      ],
      "payable": false,
      "stateMutability": "view",
      "type": "function"
    },
    {
      "constant": false,
      "inputs": [
        {
          "name": "_idx",
          "type": "uint256"
        },
        {
          "name": "_plain",
          "type": "string"
        },
        {
          "name": "_hash",
          "type": "string"
        }
      ],
      "name": "respondScoreObservation",
      "outputs": [],
      "payable": false,
      "stateMutability": "nonpayable",
      "type": "function"
    },
    {
      "constant": false,
      "inputs": [
        {
          "name": "_score",
          "type": "int256"
        }
      ],
      "name": "setScore",
      "outputs": [],
      "payable": false,
      "stateMutability": "nonpayable",
      "type": "function"
    },
    {
      "constant": true,
      "inputs": [
        {
          "name": "_obsIdx",
          "type": "uint256"
        },
        {
          "name": "_resIdx",
          "type": "uint256"
        }
      ],
      "name": "getResponseAt",
      "outputs": [
        {
          "name": "_plain",
          "type": "string"
        },
        {
          "name": "_hash",
          "type": "string"
        }
      ],
      "payable": false,
      "stateMutability": "view",
      "type": "function"
    },
    {
      "constant": true,
      "inputs": [
        {
          "name": "_obsIdx",
          "type": "uint256"
        },
        {
          "name": "_resIdx",
          "type": "uint256"
        }
      ],
      "name": "getScoreObservationResponseAt",
      "outputs": [
        {
          "name": "_plain",
          "type": "string"
        },
        {
          "name": "_hash",
          "type": "string"
        }
      ],
      "payable": false,
      "stateMutability": "view",
      "type": "function"
    }
  ],
  "bytecode": "0x608060405234801561001057600080fd5b506040516020806120128339810180604052602081101561003057600080fd5b8101908080519060200190929190505050336000806101000a81548173ffffffffffffffffffffffffffffffffffffffff021916908373ffffffffffffffffffffffffffffffffffffffff1602179055506000809054906101000a900473ffffffffffffffffffffffffffffffffffffffff1673ffffffffffffffffffffffffffffffffffffffff16600073ffffffffffffffffffffffffffffffffffffffff167f8be0079c531659141344cd1fd0a4f28419497f9722a3daafe3b4186f6b6457e060405160405180910390a380600160006101000a81548173ffffffffffffffffffffffffffffffffffffffff021916908373ffffffffffffffffffffffffffffffffffffffff16021790555050611ec48061014e6000396000f3fe608060405260043610610107576000357c0100000000000000000000000000000000000000000000000000000000900463ffffffff1680631e17032b1461010c578063252c09d7146102365780632c519bc41461035d5780632ca5f37f146104c65780633b02a2681461058e57806348d28514146106ed578063715018a6146108175780638da5cb5b1461082e5780638f32d59b146108855780639986ab94146108b4578063cae017d2146109db578063d715018014610a16578063e7974fef14610a41578063efedc66914610a98578063f07ee22514610ac3578063f132617514610c22578063f211128314610d8b578063f288f50514610e53578063f2fde38b14610e7e575b600080fd5b34801561011857600080fd5b5061014f6004803603604081101561012f57600080fd5b810190808035906020019092919080359060200190929190505050610ecf565b604051808060200180602001838103835285818151815260200191508051906020019080838360005b83811015610193578082015181840152602081019050610178565b50505050905090810190601f1680156101c05780820380516001836020036101000a031916815260200191505b50838103825284818151815260200191508051906020019080838360005b838110156101f95780820151818401526020810190506101de565b50505050905090810190601f1680156102265780820380516001836020036101000a031916815260200191505b5094505050505060405180910390f35b34801561024257600080fd5b5061026f6004803603602081101561025957600080fd5b8101908080359060200190929190505050611077565b604051808060200180602001848152602001838103835286818151815260200191508051906020019080838360005b838110156102b957808201518184015260208101905061029e565b50505050905090810190601f1680156102e65780820380516001836020036101000a031916815260200191505b50838103825285818151815260200191508051906020019080838360005b8381101561031f578082015181840152602081019050610304565b50505050905090810190601f16801561034c5780820380516001836020036101000a031916815260200191505b509550505050505060405180910390f35b34801561036957600080fd5b506104c46004803603606081101561038057600080fd5b8101908080359060200190929190803590602001906401000000008111156103a757600080fd5b8201836020820111156103b957600080fd5b803590602001918460018302840111640100000000831117156103db57600080fd5b91908080601f016020809104026020016040519081016040528093929190818152602001838380828437600081840152601f19601f8201169050808301925050505050505091929192908035906020019064010000000081111561043e57600080fd5b82018360208201111561045057600080fd5b8035906020019184600183028401116401000000008311171561047257600080fd5b91908080601f016020809104026020016040519081016040528093929190818152602001838380828437600081840152601f19601f8201169050808301925050505050505091929192905050506111e0565b005b3480156104d257600080fd5b5061058c600480360360208110156104e957600080fd5b810190808035906020019064010000000081111561050657600080fd5b82018360208201111561051857600080fd5b8035906020019184600183028401116401000000008311171561053a57600080fd5b91908080601f016020809104026020016040519081016040528093929190818152602001838380828437600081840152601f19601f8201169050808301925050505050505091929192905050506112fc565b005b34801561059a57600080fd5b506106eb600480360360408110156105b157600080fd5b81019080803590602001906401000000008111156105ce57600080fd5b8201836020820111156105e057600080fd5b8035906020019184600183028401116401000000008311171561060257600080fd5b91908080601f016020809104026020016040519081016040528093929190818152602001838380828437600081840152601f19601f8201169050808301925050505050505091929192908035906020019064010000000081111561066557600080fd5b82018360208201111561067757600080fd5b8035906020019184600183028401116401000000008311171561069957600080fd5b91908080601f016020809104026020016040519081016040528093929190818152602001838380828437600081840152601f19601f8201169050808301925050505050505091929192905050506113a0565b005b3480156106f957600080fd5b506107306004803603604081101561071057600080fd5b810190808035906020019092919080359060200190929190505050611435565b604051808060200180602001838103835285818151815260200191508051906020019080838360005b83811015610774578082015181840152602081019050610759565b50505050905090810190601f1680156107a15780820380516001836020036101000a031916815260200191505b50838103825284818151815260200191508051906020019080838360005b838110156107da5780820151818401526020810190506107bf565b50505050905090810190601f1680156108075780820380516001836020036101000a031916815260200191505b5094505050505060405180910390f35b34801561082357600080fd5b5061082c6115dd565b005b34801561083a57600080fd5b50610843611718565b604051808273ffffffffffffffffffffffffffffffffffffffff1673ffffffffffffffffffffffffffffffffffffffff16815260200191505060405180910390f35b34801561089157600080fd5b5061089a611741565b604051808215151515815260200191505060405180910390f35b3480156108c057600080fd5b506108ed600480360360208110156108d757600080fd5b8101908080359060200190929190505050611798565b604051808060200180602001848152602001838103835286818151815260200191508051906020019080838360005b8381101561093757808201518184015260208101905061091c565b50505050905090810190601f1680156109645780820380516001836020036101000a031916815260200191505b50838103825285818151815260200191508051906020019080838360005b8381101561099d578082015181840152602081019050610982565b50505050905090810190601f1680156109ca5780820380516001836020036101000a031916815260200191505b509550505050505060405180910390f35b3480156109e757600080fd5b50610a14600480360360208110156109fe57600080fd5b8101908080359060200190929190505050611901565b005b348015610a2257600080fd5b50610a2b611967565b6040518082815260200191505060405180910390f35b348015610a4d57600080fd5b50610a56611974565b604051808273ffffffffffffffffffffffffffffffffffffffff1673ffffffffffffffffffffffffffffffffffffffff16815260200191505060405180910390f35b348015610aa457600080fd5b50610aad61199a565b6040518082815260200191505060405180910390f35b348015610acf57600080fd5b50610c2060048036036040811015610ae657600080fd5b8101908080359060200190640100000000811115610b0357600080fd5b820183602082011115610b1557600080fd5b80359060200191846001830284011164010000000083111715610b3757600080fd5b91908080601f016020809104026020016040519081016040528093929190818152602001838380828437600081840152601f19601f82011690508083019250505050505050919291929080359060200190640100000000811115610b9a57600080fd5b820183602082011115610bac57600080fd5b80359060200191846001830284011164010000000083111715610bce57600080fd5b91908080601f016020809104026020016040519081016040528093929190818152602001838380828437600081840152601f19601f8201169050808301925050505050505091929192905050506119a0565b005b348015610c2e57600080fd5b50610d8960048036036060811015610c4557600080fd5b810190808035906020019092919080359060200190640100000000811115610c6c57600080fd5b820183602082011115610c7e57600080fd5b80359060200191846001830284011164010000000083111715610ca057600080fd5b91908080601f016020809104026020016040519081016040528093929190818152602001838380828437600081840152601f19601f82011690508083019250505050505050919291929080359060200190640100000000811115610d0357600080fd5b820183602082011115610d1557600080fd5b80359060200191846001830284011164010000000083111715610d3757600080fd5b91908080601f016020809104026020016040519081016040528093929190818152602001838380828437600081840152601f19601f820116905080830192505050505050509192919290505050611a35565b005b348015610d9757600080fd5b50610e5160048036036020811015610dae57600080fd5b8101908080359060200190640100000000811115610dcb57600080fd5b820183602082011115610ddd57600080fd5b80359060200191846001830284011164010000000083111715610dff57600080fd5b91908080601f016020809104026020016040519081016040528093929190818152602001838380828437600081840152601f19601f820116905080830192505050505050509192919290505050611b31565b005b348015610e5f57600080fd5b50610e68611bd5565b6040518082815260200191505060405180910390f35b348015610e8a57600080fd5b50610ecd60048036036020811015610ea157600080fd5b81019080803573ffffffffffffffffffffffffffffffffffffffff169060200190929190505050611be2565b005b606080600384815481101515610ee157fe5b906000526020600020906004020160030160008481526020019081526020016000206000018054600181600116156101000203166002900480601f016020809104026020016040519081016040528092919081815260200182805460018160011615610100020316600290048015610f9a5780601f10610f6f57610100808354040283529160200191610f9a565b820191906000526020600020905b815481529060010190602001808311610f7d57829003601f168201915b50505050509150600384815481101515610fb057fe5b906000526020600020906004020160030160008481526020019081526020016000206001018054600181600116156101000203166002900480601f0160208091040260200160405190810160405280929190818152602001828054600181600116156101000203166002900480156110695780601f1061103e57610100808354040283529160200191611069565b820191906000526020600020905b81548152906001019060200180831161104c57829003601f168201915b505050505090509250929050565b60038181548110151561108657fe5b9060005260206000209060040201600091509050806000018054600181600116156101000203166002900480601f0160208091040260200160405190810160405280929190818152602001828054600181600116156101000203166002900480156111325780601f1061110757610100808354040283529160200191611132565b820191906000526020600020905b81548152906001019060200180831161111557829003601f168201915b505050505090806001018054600181600116156101000203166002900480601f0160208091040260200160405190810160405280929190818152602001828054600181600116156101000203166002900480156111d05780601f106111a5576101008083540402835291602001916111d0565b820191906000526020600020905b8154815290600101906020018083116111b357829003601f168201915b5050505050908060020154905083565b6111e8611741565b151561125c576040517f08c379a00000000000000000000000000000000000000000000000000000000081526004018080602001828103825260208152602001807f4f776e61626c653a2063616c6c6572206973206e6f7420746865206f776e657281525060200191505060405180910390fd5b600060038481548110151561126d57fe5b9060005260206000209060040201905060408051908101604052808481526020018381525081600301600083600201600081548092919060010191905055815260200190815260200160002060008201518160000190805190602001906112d5929190611df3565b5060208201518160010190805190602001906112f2929190611df3565b5090505050505050565b6004606060405190810160405280838152602001602060405190810160405280600081525081526020016000815250908060018154018082558091505090600182039060005260206000209060040201600090919290919091506000820151816000019080519060200190611372929190611df3565b50602082015181600101908051906020019061138f929190611df3565b506040820151816002015550505050565b60036060604051908101604052808481526020018381526020016000815250908060018154018082558091505090600182039060005260206000209060040201600090919290919091506000820151816000019080519060200190611406929190611df3565b506020820151816001019080519060200190611423929190611df3565b50604082015181600201555050505050565b60608060048481548110151561144757fe5b906000526020600020906004020160030160008481526020019081526020016000206000018054600181600116156101000203166002900480601f0160208091040260200160405190810160405280929190818152602001828054600181600116156101000203166002900480156115005780601f106114d557610100808354040283529160200191611500565b820191906000526020600020905b8154815290600101906020018083116114e357829003601f168201915b5050505050915060048481548110151561151657fe5b906000526020600020906004020160030160008481526020019081526020016000206001018054600181600116156101000203166002900480601f0160208091040260200160405190810160405280929190818152602001828054600181600116156101000203166002900480156115cf5780601f106115a4576101008083540402835291602001916115cf565b820191906000526020600020905b8154815290600101906020018083116115b257829003601f168201915b505050505090509250929050565b6115e5611741565b1515611659576040517f08c379a00000000000000000000000000000000000000000000000000000000081526004018080602001828103825260208152602001807f4f776e61626c653a2063616c6c6572206973206e6f7420746865206f776e657281525060200191505060405180910390fd5b600073ffffffffffffffffffffffffffffffffffffffff166000809054906101000a900473ffffffffffffffffffffffffffffffffffffffff1673ffffffffffffffffffffffffffffffffffffffff167f8be0079c531659141344cd1fd0a4f28419497f9722a3daafe3b4186f6b6457e060405160405180910390a360008060006101000a81548173ffffffffffffffffffffffffffffffffffffffff021916908373ffffffffffffffffffffffffffffffffffffffff160217905550565b60008060009054906101000a900473ffffffffffffffffffffffffffffffffffffffff16905090565b60008060009054906101000a900473ffffffffffffffffffffffffffffffffffffffff1673ffffffffffffffffffffffffffffffffffffffff163373ffffffffffffffffffffffffffffffffffffffff1614905090565b6004818154811015156117a757fe5b9060005260206000209060040201600091509050806000018054600181600116156101000203166002900480601f0160208091040260200160405190810160405280929190818152602001828054600181600116156101000203166002900480156118535780601f1061182857610100808354040283529160200191611853565b820191906000526020600020905b81548152906001019060200180831161183657829003601f168201915b505050505090806001018054600181600116156101000203166002900480601f0160208091040260200160405190810160405280929190818152602001828054600181600116156101000203166002900480156118f15780601f106118c6576101008083540402835291602001916118f1565b820191906000526020600020905b8154815290600101906020018083116118d457829003601f168201915b5050505050908060020154905083565b600160009054906101000a900473ffffffffffffffffffffffffffffffffffffffff1673ffffffffffffffffffffffffffffffffffffffff163373ffffffffffffffffffffffffffffffffffffffff1614151561195d57600080fd5b8060028190555050565b6000600380549050905090565b600160009054906101000a900473ffffffffffffffffffffffffffffffffffffffff1681565b60025481565b60046060604051908101604052808481526020018381526020016000815250908060018154018082558091505090600182039060005260206000209060040201600090919290919091506000820151816000019080519060200190611a06929190611df3565b506020820151816001019080519060200190611a23929190611df3565b50604082015181600201555050505050565b600160009054906101000a900473ffffffffffffffffffffffffffffffffffffffff1673ffffffffffffffffffffffffffffffffffffffff163373ffffffffffffffffffffffffffffffffffffffff16141515611a9157600080fd5b6000600484815481101515611aa257fe5b906000526020600020906004020190506040805190810160405280848152602001838152508160030160008360020160008154809291906001019190505581526020019081526020016000206000820151816000019080519060200190611b0a929190611df3565b506020820151816001019080519060200190611b27929190611df3565b5090505050505050565b6003606060405190810160405280838152602001602060405190810160405280600081525081526020016000815250908060018154018082558091505090600182039060005260206000209060040201600090919290919091506000820151816000019080519060200190611ba7929190611df3565b506020820151816001019080519060200190611bc4929190611df3565b506040820151816002015550505050565b6000600480549050905090565b611bea611741565b1515611c5e576040517f08c379a00000000000000000000000000000000000000000000000000000000081526004018080602001828103825260208152602001807f4f776e61626c653a2063616c6c6572206973206e6f7420746865206f776e657281525060200191505060405180910390fd5b611c6781611c6a565b50565b600073ffffffffffffffffffffffffffffffffffffffff168173ffffffffffffffffffffffffffffffffffffffff1614151515611d35576040517f08c379a00000000000000000000000000000000000000000000000000000000081526004018080602001828103825260268152602001807f4f776e61626c653a206e6577206f776e657220697320746865207a65726f206181526020017f646472657373000000000000000000000000000000000000000000000000000081525060400191505060405180910390fd5b8073ffffffffffffffffffffffffffffffffffffffff166000809054906101000a900473ffffffffffffffffffffffffffffffffffffffff1673ffffffffffffffffffffffffffffffffffffffff167f8be0079c531659141344cd1fd0a4f28419497f9722a3daafe3b4186f6b6457e060405160405180910390a3806000806101000a81548173ffffffffffffffffffffffffffffffffffffffff021916908373ffffffffffffffffffffffffffffffffffffffff16021790555050565b828054600181600116156101000203166002900490600052602060002090601f016020900481019282601f10611e3457805160ff1916838001178555611e62565b82800160010185558215611e62579182015b82811115611e61578251825591602001919060010190611e46565b5b509050611e6f9190611e73565b5090565b611e9591905b80821115611e91576000816000905550600101611e79565b5090565b9056fea165627a7a72305820fab408d2e87878b2c6d0d755015b6b2948c273a8f5be544a451c74c9334314ff0029",
  "source": "pragma solidity >=0.4.23 <0.6.0;\n\nimport 'openzeppelin-solidity/contracts/ownership/Ownable.sol';\n\ncontract Bid is Ownable {\n  address public tenderer;\n  int public score;\n  Observation[] public observations;\n  Observation[] public scoreObservations;\n\n  struct Observation {\n    string plain;\n    string hash;\n    uint numResponses;\n    mapping (uint => Response) responses;\n  }\n\n  struct Response {\n    string plain;\n    string hash;\n  }\n\n  constructor(address _tenderer) public {\n    tenderer = _tenderer;\n  }\n\n  modifier onlyTenderer() {\n    require(msg.sender == tenderer);\n    _;\n  }\n\n  function submitObservation(string memory _plain) public {\n    observations.push(Observation({plain: _plain, hash: \"\", numResponses: 0}));\n  }\n\n  function submitObservation(string memory _plain, string memory _hash) public {\n    observations.push(Observation({plain: _plain, hash: _hash, numResponses: 0}));\n  }\n\n  function getObservationsLength() public view returns(uint) {\n    return observations.length;\n  }\n\n  function respondObservation(uint _idx, string memory _plain, string memory _hash) public onlyOwner {\n    Observation storage obs = observations[_idx];\n    obs.responses[obs.numResponses++] = Response({plain: _plain, hash: _hash});\n  }\n\n  function submitScoreObservation(string memory _plain) public {\n    scoreObservations.push(Observation({plain: _plain, hash: \"\", numResponses: 0}));\n  }\n\n  function submitScoreObservation(string memory _plain, string memory _hash) public {\n    scoreObservations.push(Observation({plain: _plain, hash: _hash, numResponses: 0}));\n  }\n\n  function getScoreObservationsLength() public view returns(uint) {\n    return scoreObservations.length;\n  }\n\n  function respondScoreObservation(uint _idx, string memory _plain, string memory _hash) public onlyTenderer {\n    Observation storage obs = scoreObservations[_idx];\n    obs.responses[obs.numResponses++] = Response({plain: _plain, hash: _hash});\n  }\n\n  function setScore(int _score) public onlyTenderer {\n    score = _score;\n  }\n\n  function getResponseAt(uint _obsIdx, uint _resIdx) public view returns (string memory _plain, string memory _hash) {\n    _plain = observations[_obsIdx].responses[_resIdx].plain;\n    _hash = observations[_obsIdx].responses[_resIdx].hash;\n  }\n\n  function getScoreObservationResponseAt(uint _obsIdx, uint _resIdx) public view returns (string memory _plain, string memory _hash) {\n    _plain = scoreObservations[_obsIdx].responses[_resIdx].plain;\n    _hash = scoreObservations[_obsIdx].responses[_resIdx].hash;\n  }\n\n}\n",
  "sourcePath": "/home/luis/Documents/BlockchainStuff/Proyecto/contracts/contracts/Bid.sol",
  "compiler": {
    "name": "solc",
    "version": "0.5.0+commit.1d4f565a.Emscripten.clang"
  },
  "schemaVersion": "3.0.5",
  "updatedAt": "2019-11-06T21:08:17.307Z",
  "devdoc": {
    "methods": {
      "isOwner()": {
        "details": "Returns true if the caller is the current owner."
      },
      "owner()": {
        "details": "Returns the address of the current owner."
      },
      "renounceOwnership()": {
        "details": "Leaves the contract without owner. It will not be possible to call `onlyOwner` functions anymore. Can only be called by the current owner.     * > Note: Renouncing ownership will leave the contract without an owner, thereby removing any functionality that is only available to the owner."
      },
      "transferOwnership(address)": {
        "details": "Transfers ownership of the contract to a new account (`newOwner`). Can only be called by the current owner."
      }
    }
  },
  "userdoc": {
    "methods": {}
  }
}