{
  "contractName": "Bid",
  "abi": [
    {
      "inputs": [
        {
          "internalType": "bytes32",
          "name": "_cipherBid",
          "type": "bytes32"
        },
        {
          "internalType": "address",
          "name": "_tenderer",
          "type": "address"
        }
      ],
      "payable": false,
      "stateMutability": "nonpayable",
      "type": "constructor"
    },
    {
      "anonymous": false,
      "inputs": [
        {
          "indexed": true,
          "internalType": "address",
          "name": "previousOwner",
          "type": "address"
        },
        {
          "indexed": true,
          "internalType": "address",
          "name": "newOwner",
          "type": "address"
        }
      ],
      "name": "OwnershipTransferred",
      "type": "event"
    },
    {
      "constant": true,
      "inputs": [],
      "name": "cipherBid",
      "outputs": [
        {
          "internalType": "bytes32",
          "name": "",
          "type": "bytes32"
        }
      ],
      "payable": false,
      "stateMutability": "view",
      "type": "function"
    },
    {
      "constant": true,
      "inputs": [],
      "name": "isOwner",
      "outputs": [
        {
          "internalType": "bool",
          "name": "",
          "type": "bool"
        }
      ],
      "payable": false,
      "stateMutability": "view",
      "type": "function"
    },
    {
      "constant": true,
      "inputs": [
        {
          "internalType": "uint256",
          "name": "",
          "type": "uint256"
        }
      ],
      "name": "observations",
      "outputs": [
        {
          "internalType": "string",
          "name": "plain",
          "type": "string"
        },
        {
          "internalType": "string",
          "name": "hash",
          "type": "string"
        },
        {
          "internalType": "string",
          "name": "resPlain",
          "type": "string"
        },
        {
          "internalType": "string",
          "name": "resHash",
          "type": "string"
        }
      ],
      "payable": false,
      "stateMutability": "view",
      "type": "function"
    },
    {
      "constant": true,
      "inputs": [],
      "name": "owner",
      "outputs": [
        {
          "internalType": "address",
          "name": "",
          "type": "address"
        }
      ],
      "payable": false,
      "stateMutability": "view",
      "type": "function"
    },
    {
      "constant": true,
      "inputs": [],
      "name": "plainBid",
      "outputs": [
        {
          "internalType": "bytes32",
          "name": "",
          "type": "bytes32"
        }
      ],
      "payable": false,
      "stateMutability": "view",
      "type": "function"
    },
    {
      "constant": true,
      "inputs": [],
      "name": "privateKey",
      "outputs": [
        {
          "internalType": "bytes32",
          "name": "",
          "type": "bytes32"
        }
      ],
      "payable": false,
      "stateMutability": "view",
      "type": "function"
    },
    {
      "constant": false,
      "inputs": [],
      "name": "renounceOwnership",
      "outputs": [],
      "payable": false,
      "stateMutability": "nonpayable",
      "type": "function"
    },
    {
      "constant": true,
      "inputs": [
        {
          "internalType": "uint256",
          "name": "",
          "type": "uint256"
        }
      ],
      "name": "scoreObservations",
      "outputs": [
        {
          "internalType": "string",
          "name": "plain",
          "type": "string"
        },
        {
          "internalType": "string",
          "name": "hash",
          "type": "string"
        },
        {
          "internalType": "string",
          "name": "resPlain",
          "type": "string"
        },
        {
          "internalType": "string",
          "name": "resHash",
          "type": "string"
        }
      ],
      "payable": false,
      "stateMutability": "view",
      "type": "function"
    },
    {
      "constant": true,
      "inputs": [],
      "name": "tenderer",
      "outputs": [
        {
          "internalType": "address",
          "name": "",
          "type": "address"
        }
      ],
      "payable": false,
      "stateMutability": "view",
      "type": "function"
    },
    {
      "constant": false,
      "inputs": [
        {
          "internalType": "address",
          "name": "newOwner",
          "type": "address"
        }
      ],
      "name": "transferOwnership",
      "outputs": [],
      "payable": false,
      "stateMutability": "nonpayable",
      "type": "function"
    },
    {
      "constant": false,
      "inputs": [
        {
          "internalType": "string",
          "name": "_plain",
          "type": "string"
        },
        {
          "internalType": "string",
          "name": "_hash",
          "type": "string"
        }
      ],
      "name": "submitObservation",
      "outputs": [],
      "payable": false,
      "stateMutability": "nonpayable",
      "type": "function"
    },
    {
      "constant": false,
      "inputs": [
        {
          "internalType": "string",
          "name": "_plain",
          "type": "string"
        }
      ],
      "name": "submitObservation",
      "outputs": [],
      "payable": false,
      "stateMutability": "nonpayable",
      "type": "function"
    },
    {
      "constant": true,
      "inputs": [],
      "name": "getObservationsLength",
      "outputs": [
        {
          "internalType": "uint256",
          "name": "",
          "type": "uint256"
        }
      ],
      "payable": false,
      "stateMutability": "view",
      "type": "function"
    },
    {
      "constant": false,
      "inputs": [
        {
          "internalType": "uint256",
          "name": "_idx",
          "type": "uint256"
        },
        {
          "internalType": "string",
          "name": "_plain",
          "type": "string"
        },
        {
          "internalType": "string",
          "name": "_hash",
          "type": "string"
        }
      ],
      "name": "respondObservation",
      "outputs": [],
      "payable": false,
      "stateMutability": "nonpayable",
      "type": "function"
    },
    {
      "constant": false,
      "inputs": [
        {
          "internalType": "string",
          "name": "_plain",
          "type": "string"
        }
      ],
      "name": "submitScoreObservation",
      "outputs": [],
      "payable": false,
      "stateMutability": "nonpayable",
      "type": "function"
    },
    {
      "constant": false,
      "inputs": [
        {
          "internalType": "string",
          "name": "_plain",
          "type": "string"
        },
        {
          "internalType": "string",
          "name": "_hash",
          "type": "string"
        }
      ],
      "name": "submitScoreObservation",
      "outputs": [],
      "payable": false,
      "stateMutability": "nonpayable",
      "type": "function"
    },
    {
      "constant": true,
      "inputs": [],
      "name": "getScoreObservationsLength",
      "outputs": [
        {
          "internalType": "uint256",
          "name": "",
          "type": "uint256"
        }
      ],
      "payable": false,
      "stateMutability": "view",
      "type": "function"
    },
    {
      "constant": false,
      "inputs": [
        {
          "internalType": "uint256",
          "name": "_idx",
          "type": "uint256"
        },
        {
          "internalType": "string",
          "name": "_plain",
          "type": "string"
        },
        {
          "internalType": "string",
          "name": "_hash",
          "type": "string"
        }
      ],
      "name": "respondScoreObservation",
      "outputs": [],
      "payable": false,
      "stateMutability": "nonpayable",
      "type": "function"
    },
    {
      "constant": false,
      "inputs": [
        {
          "internalType": "bytes32",
          "name": "_plainBid",
          "type": "bytes32"
        }
      ],
      "name": "setPlainBid",
      "outputs": [],
      "payable": false,
      "stateMutability": "nonpayable",
      "type": "function"
    },
    {
      "constant": false,
      "inputs": [
        {
          "internalType": "bytes32",
          "name": "_privateKey",
          "type": "bytes32"
        }
      ],
      "name": "setPrivateKey",
      "outputs": [],
      "payable": false,
      "stateMutability": "nonpayable",
      "type": "function"
    }
  ],
  "bytecode": "0x608060405234801561001057600080fd5b506040516120003803806120008339818101604052604081101561003357600080fd5b810190808051906020019092919080519060200190929190505050336000806101000a81548173ffffffffffffffffffffffffffffffffffffffff021916908373ffffffffffffffffffffffffffffffffffffffff1602179055506000809054906101000a900473ffffffffffffffffffffffffffffffffffffffff1673ffffffffffffffffffffffffffffffffffffffff16600073ffffffffffffffffffffffffffffffffffffffff167f8be0079c531659141344cd1fd0a4f28419497f9722a3daafe3b4186f6b6457e060405160405180910390a38160028190555080600160006101000a81548173ffffffffffffffffffffffffffffffffffffffff021916908373ffffffffffffffffffffffffffffffffffffffff1602179055505050611e9d806101636000396000f3fe608060405234801561001057600080fd5b506004361061012c5760003560e01c8063cc83d2fa116100ad578063f07ee22511610071578063f07ee22514610a04578063f132617514610b56578063f211128314610cb2578063f288f50514610d6d578063f2fde38b14610d8b5761012c565b8063cc83d2fa14610922578063d715018014610950578063d9f4dd8f1461096e578063e502914c1461099c578063e7974fef146109ba5761012c565b8063715018a6116100f4578063715018a6146106a35780638da5cb5b146106ad5780638f32d59b146106f75780639986ab9414610719578063a058aa2d146109045761012c565b8063252c09d7146101315780632c519bc41461031c5780632ca5f37f146104785780633b02a2681461053357806349da5a0f14610685575b600080fd5b61015d6004803603602081101561014757600080fd5b8101908080359060200190929190505050610dcf565b6040518080602001806020018060200180602001858103855289818151815260200191508051906020019080838360005b838110156101a957808201518184015260208101905061018e565b50505050905090810190601f1680156101d65780820380516001836020036101000a031916815260200191505b50858103845288818151815260200191508051906020019080838360005b8381101561020f5780820151818401526020810190506101f4565b50505050905090810190601f16801561023c5780820380516001836020036101000a031916815260200191505b50858103835287818151815260200191508051906020019080838360005b8381101561027557808201518184015260208101905061025a565b50505050905090810190601f1680156102a25780820380516001836020036101000a031916815260200191505b50858103825286818151815260200191508051906020019080838360005b838110156102db5780820151818401526020810190506102c0565b50505050905090810190601f1680156103085780820380516001836020036101000a031916815260200191505b509850505050505050505060405180910390f35b6104766004803603606081101561033257600080fd5b81019080803590602001909291908035906020019064010000000081111561035957600080fd5b82018360208201111561036b57600080fd5b8035906020019184600183028401116401000000008311171561038d57600080fd5b91908080601f016020809104026020016040519081016040528093929190818152602001838380828437600081840152601f19601f820116905080830192505050505050509192919290803590602001906401000000008111156103f057600080fd5b82018360208201111561040257600080fd5b8035906020019184600183028401116401000000008311171561042457600080fd5b91908080601f016020809104026020016040519081016040528093929190818152602001838380828437600081840152601f19601f82011690508083019250505050505050919291929050505061106c565b005b6105316004803603602081101561048e57600080fd5b81019080803590602001906401000000008111156104ab57600080fd5b8201836020820111156104bd57600080fd5b803590602001918460018302840111640100000000831117156104df57600080fd5b91908080601f016020809104026020016040519081016040528093929190818152602001838380828437600081840152601f19601f82011690508083019250505050505050919291929050505061113d565b005b6106836004803603604081101561054957600080fd5b810190808035906020019064010000000081111561056657600080fd5b82018360208201111561057857600080fd5b8035906020019184600183028401116401000000008311171561059a57600080fd5b91908080601f016020809104026020016040519081016040528093929190818152602001838380828437600081840152601f19601f820116905080830192505050505050509192919290803590602001906401000000008111156105fd57600080fd5b82018360208201111561060f57600080fd5b8035906020019184600183028401116401000000008311171561063157600080fd5b91908080601f016020809104026020016040519081016040528093929190818152602001838380828437600081840152601f19601f820116905080830192505050505050509192919290505050611232565b005b61068d611319565b6040518082815260200191505060405180910390f35b6106ab61131f565b005b6106b5611458565b604051808273ffffffffffffffffffffffffffffffffffffffff1673ffffffffffffffffffffffffffffffffffffffff16815260200191505060405180910390f35b6106ff611481565b604051808215151515815260200191505060405180910390f35b6107456004803603602081101561072f57600080fd5b81019080803590602001909291905050506114d8565b6040518080602001806020018060200180602001858103855289818151815260200191508051906020019080838360005b83811015610791578082015181840152602081019050610776565b50505050905090810190601f1680156107be5780820380516001836020036101000a031916815260200191505b50858103845288818151815260200191508051906020019080838360005b838110156107f75780820151818401526020810190506107dc565b50505050905090810190601f1680156108245780820380516001836020036101000a031916815260200191505b50858103835287818151815260200191508051906020019080838360005b8381101561085d578082015181840152602081019050610842565b50505050905090810190601f16801561088a5780820380516001836020036101000a031916815260200191505b50858103825286818151815260200191508051906020019080838360005b838110156108c35780820151818401526020810190506108a8565b50505050905090810190601f1680156108f05780820380516001836020036101000a031916815260200191505b509850505050505050505060405180910390f35b61090c611775565b6040518082815260200191505060405180910390f35b61094e6004803603602081101561093857600080fd5b810190808035906020019092919050505061177b565b005b6109586117df565b6040518082815260200191505060405180910390f35b61099a6004803603602081101561098457600080fd5b81019080803590602001909291905050506117ec565b005b6109a461188d565b6040518082815260200191505060405180910390f35b6109c2611893565b604051808273ffffffffffffffffffffffffffffffffffffffff1673ffffffffffffffffffffffffffffffffffffffff16815260200191505060405180910390f35b610b5460048036036040811015610a1a57600080fd5b8101908080359060200190640100000000811115610a3757600080fd5b820183602082011115610a4957600080fd5b80359060200191846001830284011164010000000083111715610a6b57600080fd5b91908080601f016020809104026020016040519081016040528093929190818152602001838380828437600081840152601f19601f82011690508083019250505050505050919291929080359060200190640100000000811115610ace57600080fd5b820183602082011115610ae057600080fd5b80359060200191846001830284011164010000000083111715610b0257600080fd5b91908080601f016020809104026020016040519081016040528093929190818152602001838380828437600081840152601f19601f8201169050808301925050505050505091929192905050506118b9565b005b610cb060048036036060811015610b6c57600080fd5b810190808035906020019092919080359060200190640100000000811115610b9357600080fd5b820183602082011115610ba557600080fd5b80359060200191846001830284011164010000000083111715610bc757600080fd5b91908080601f016020809104026020016040519081016040528093929190818152602001838380828437600081840152601f19601f82011690508083019250505050505050919291929080359060200190640100000000811115610c2a57600080fd5b820183602082011115610c3c57600080fd5b80359060200191846001830284011164010000000083111715610c5e57600080fd5b91908080601f016020809104026020016040519081016040528093929190818152602001838380828437600081840152601f19601f8201169050808301925050505050505091929192905050506119a0565b005b610d6b60048036036020811015610cc857600080fd5b8101908080359060200190640100000000811115610ce557600080fd5b820183602082011115610cf757600080fd5b80359060200191846001830284011164010000000083111715610d1957600080fd5b91908080601f016020809104026020016040519081016040528093929190818152602001838380828437600081840152601f19601f820116905080830192505050505050509192919290505050611a51565b005b610d75611b46565b6040518082815260200191505060405180910390f35b610dcd60048036036020811015610da157600080fd5b81019080803573ffffffffffffffffffffffffffffffffffffffff169060200190929190505050611b53565b005b60058181548110610ddc57fe5b9060005260206000209060040201600091509050806000018054600181600116156101000203166002900480601f016020809104026020016040519081016040528092919081815260200182805460018160011615610100020316600290048015610e885780601f10610e5d57610100808354040283529160200191610e88565b820191906000526020600020905b815481529060010190602001808311610e6b57829003601f168201915b505050505090806001018054600181600116156101000203166002900480601f016020809104026020016040519081016040528092919081815260200182805460018160011615610100020316600290048015610f265780601f10610efb57610100808354040283529160200191610f26565b820191906000526020600020905b815481529060010190602001808311610f0957829003601f168201915b505050505090806002018054600181600116156101000203166002900480601f016020809104026020016040519081016040528092919081815260200182805460018160011615610100020316600290048015610fc45780601f10610f9957610100808354040283529160200191610fc4565b820191906000526020600020905b815481529060010190602001808311610fa757829003601f168201915b505050505090806003018054600181600116156101000203166002900480601f0160208091040260200160405190810160405280929190818152602001828054600181600116156101000203166002900480156110625780601f1061103757610100808354040283529160200191611062565b820191906000526020600020905b81548152906001019060200180831161104557829003601f168201915b5050505050905084565b611074611481565b6110e6576040517f08c379a00000000000000000000000000000000000000000000000000000000081526004018080602001828103825260208152602001807f4f776e61626c653a2063616c6c6572206973206e6f7420746865206f776e657281525060200191505060405180910390fd5b6000600584815481106110f557fe5b906000526020600020906004020190508281600201908051906020019061111d929190611d1d565b5081816003019080519060200190611136929190611d1d565b5050505050565b60066040518060800160405280838152602001604051806020016040528060008152508152602001604051806020016040528060008152508152602001604051806020016040528060008152508152509080600181540180825580915050906001820390600052602060002090600402016000909192909190915060008201518160000190805190602001906111d4929190611d9d565b5060208201518160010190805190602001906111f1929190611d9d565b50604082015181600201908051906020019061120e929190611d9d565b50606082015181600301908051906020019061122b929190611d9d565b5050505050565b60056040518060800160405280848152602001838152602001604051806020016040528060008152508152602001604051806020016040528060008152508152509080600181540180825580915050906001820390600052602060002090600402016000909192909190915060008201518160000190805190602001906112ba929190611d9d565b5060208201518160010190805190602001906112d7929190611d9d565b5060408201518160020190805190602001906112f4929190611d9d565b506060820151816003019080519060200190611311929190611d9d565b505050505050565b60045481565b611327611481565b611399576040517f08c379a00000000000000000000000000000000000000000000000000000000081526004018080602001828103825260208152602001807f4f776e61626c653a2063616c6c6572206973206e6f7420746865206f776e657281525060200191505060405180910390fd5b600073ffffffffffffffffffffffffffffffffffffffff166000809054906101000a900473ffffffffffffffffffffffffffffffffffffffff1673ffffffffffffffffffffffffffffffffffffffff167f8be0079c531659141344cd1fd0a4f28419497f9722a3daafe3b4186f6b6457e060405160405180910390a360008060006101000a81548173ffffffffffffffffffffffffffffffffffffffff021916908373ffffffffffffffffffffffffffffffffffffffff160217905550565b60008060009054906101000a900473ffffffffffffffffffffffffffffffffffffffff16905090565b60008060009054906101000a900473ffffffffffffffffffffffffffffffffffffffff1673ffffffffffffffffffffffffffffffffffffffff163373ffffffffffffffffffffffffffffffffffffffff1614905090565b600681815481106114e557fe5b9060005260206000209060040201600091509050806000018054600181600116156101000203166002900480601f0160208091040260200160405190810160405280929190818152602001828054600181600116156101000203166002900480156115915780601f1061156657610100808354040283529160200191611591565b820191906000526020600020905b81548152906001019060200180831161157457829003601f168201915b505050505090806001018054600181600116156101000203166002900480601f01602080910402602001604051908101604052809291908181526020018280546001816001161561010002031660029004801561162f5780601f106116045761010080835404028352916020019161162f565b820191906000526020600020905b81548152906001019060200180831161161257829003601f168201915b505050505090806002018054600181600116156101000203166002900480601f0160208091040260200160405190810160405280929190818152602001828054600181600116156101000203166002900480156116cd5780601f106116a2576101008083540402835291602001916116cd565b820191906000526020600020905b8154815290600101906020018083116116b057829003601f168201915b505050505090806003018054600181600116156101000203166002900480601f01602080910402602001604051908101604052809291908181526020018280546001816001161561010002031660029004801561176b5780601f106117405761010080835404028352916020019161176b565b820191906000526020600020905b81548152906001019060200180831161174e57829003601f168201915b5050505050905084565b60035481565b600160009054906101000a900473ffffffffffffffffffffffffffffffffffffffff1673ffffffffffffffffffffffffffffffffffffffff163373ffffffffffffffffffffffffffffffffffffffff16146117d557600080fd5b8060038190555050565b6000600580549050905090565b600160009054906101000a900473ffffffffffffffffffffffffffffffffffffffff1673ffffffffffffffffffffffffffffffffffffffff163373ffffffffffffffffffffffffffffffffffffffff16148061187a575061184b611458565b73ffffffffffffffffffffffffffffffffffffffff163373ffffffffffffffffffffffffffffffffffffffff16145b61188357600080fd5b8060048190555050565b60025481565b600160009054906101000a900473ffffffffffffffffffffffffffffffffffffffff1681565b6006604051806080016040528084815260200183815260200160405180602001604052806000815250815260200160405180602001604052806000815250815250908060018154018082558091505090600182039060005260206000209060040201600090919290919091506000820151816000019080519060200190611941929190611d9d565b50602082015181600101908051906020019061195e929190611d9d565b50604082015181600201908051906020019061197b929190611d9d565b506060820151816003019080519060200190611998929190611d9d565b505050505050565b600160009054906101000a900473ffffffffffffffffffffffffffffffffffffffff1673ffffffffffffffffffffffffffffffffffffffff163373ffffffffffffffffffffffffffffffffffffffff16146119fa57600080fd5b600060068481548110611a0957fe5b9060005260206000209060040201905082816002019080519060200190611a31929190611d1d565b5081816003019080519060200190611a4a929190611d1d565b5050505050565b6005604051806080016040528083815260200160405180602001604052806000815250815260200160405180602001604052806000815250815260200160405180602001604052806000815250815250908060018154018082558091505090600182039060005260206000209060040201600090919290919091506000820151816000019080519060200190611ae8929190611d9d565b506020820151816001019080519060200190611b05929190611d9d565b506040820151816002019080519060200190611b22929190611d9d565b506060820151816003019080519060200190611b3f929190611d9d565b5050505050565b6000600680549050905090565b611b5b611481565b611bcd576040517f08c379a00000000000000000000000000000000000000000000000000000000081526004018080602001828103825260208152602001807f4f776e61626c653a2063616c6c6572206973206e6f7420746865206f776e657281525060200191505060405180910390fd5b611bd681611bd9565b50565b600073ffffffffffffffffffffffffffffffffffffffff168173ffffffffffffffffffffffffffffffffffffffff161415611c5f576040517f08c379a0000000000000000000000000000000000000000000000000000000008152600401808060200182810382526026815260200180611e436026913960400191505060405180910390fd5b8073ffffffffffffffffffffffffffffffffffffffff166000809054906101000a900473ffffffffffffffffffffffffffffffffffffffff1673ffffffffffffffffffffffffffffffffffffffff167f8be0079c531659141344cd1fd0a4f28419497f9722a3daafe3b4186f6b6457e060405160405180910390a3806000806101000a81548173ffffffffffffffffffffffffffffffffffffffff021916908373ffffffffffffffffffffffffffffffffffffffff16021790555050565b828054600181600116156101000203166002900490600052602060002090601f016020900481019282601f10611d5e57805160ff1916838001178555611d8c565b82800160010185558215611d8c579182015b82811115611d8b578251825591602001919060010190611d70565b5b509050611d999190611e1d565b5090565b828054600181600116156101000203166002900490600052602060002090601f016020900481019282601f10611dde57805160ff1916838001178555611e0c565b82800160010185558215611e0c579182015b82811115611e0b578251825591602001919060010190611df0565b5b509050611e199190611e1d565b5090565b611e3f91905b80821115611e3b576000816000905550600101611e23565b5090565b9056fe4f776e61626c653a206e6577206f776e657220697320746865207a65726f2061646472657373a265627a7a72315820c8c580444530ae0a7f29108a7936bbe2d708940dc03d627e9d790a8619416b6364736f6c634300050c0032",
  "source": "pragma solidity >=0.4.23 <0.6.0;\n\nimport 'openzeppelin-solidity/contracts/ownership/Ownable.sol';\n\ncontract Bid is Ownable {\n  address public tenderer;\n  bytes32 public cipherBid;\n  bytes32 public plainBid;\n  bytes32 public privateKey;\n  Observation[] public observations;\n  Observation[] public scoreObservations;\n\n  struct Observation {\n    string plain;\n    string hash;\n    string resPlain;\n    string resHash;\n  }\n\n  constructor(\n    bytes32 _cipherBid,\n    address _tenderer\n  ) public {\n    cipherBid = _cipherBid;\n    tenderer = _tenderer;\n  }\n\n  modifier onlyTenderer() {\n    require(msg.sender == tenderer);\n    _;\n  }\n\n  modifier onlyTendererAndOwner() {\n    require(msg.sender == tenderer || msg.sender == owner());\n    _;\n  }\n\n  function submitObservation(string memory _plain) public {\n    observations.push(Observation({plain: _plain, hash: \"\", resPlain: \"\", resHash: \"\"}));\n  }\n\n  function submitObservation(string memory _plain, string memory _hash) public {\n    observations.push(Observation({plain: _plain, hash: _hash, resPlain: \"\", resHash: \"\"}));\n  }\n\n  function getObservationsLength() public view returns(uint) {\n    return observations.length;\n  }\n\n  function respondObservation(uint _idx, string memory _plain, string memory _hash) public onlyOwner {\n    Observation storage obs = observations[_idx];\n    obs.resPlain = _plain;\n    obs.resHash = _hash;\n  }\n\n  function submitScoreObservation(string memory _plain) public {\n    scoreObservations.push(Observation({plain: _plain, hash: \"\", resPlain: \"\", resHash: \"\"}));\n  }\n\n  function submitScoreObservation(string memory _plain, string memory _hash) public {\n    scoreObservations.push(Observation({plain: _plain, hash: _hash, resPlain: \"\", resHash: \"\"}));\n  }\n\n  function getScoreObservationsLength() public view returns(uint) {\n    return scoreObservations.length;\n  }\n\n  function respondScoreObservation(uint _idx, string memory _plain, string memory _hash) public onlyTenderer {\n    Observation storage obs = scoreObservations[_idx];\n    obs.resPlain = _plain;\n    obs.resHash = _hash;\n  }\n\n  function setPlainBid(bytes32 _plainBid) public onlyTenderer {\n    plainBid = _plainBid;\n  }\n\n  function setPrivateKey(bytes32 _privateKey) public onlyTendererAndOwner {\n    privateKey = _privateKey;\n  }\n}\n",
  "sourcePath": "/home/mesi/Projects/ViveLab/IGNWEF/contracts/contracts/Bid.sol",
  "compiler": {
    "name": "solc",
    "version": "0.5.12+commit.7709ece9.Emscripten.clang"
  },
  "schemaVersion": "3.0.19",
  "updatedAt": "2020-01-09T02:28:05.995Z",
  "devdoc": {
    "methods": {
      "isOwner()": {
        "details": "Returns true if the caller is the current owner."
      },
      "owner()": {
        "details": "Returns the address of the current owner."
      },
      "renounceOwnership()": {
        "details": "Leaves the contract without owner. It will not be possible to call `onlyOwner` functions anymore. Can only be called by the current owner.     * > Note: Renouncing ownership will leave the contract without an owner, thereby removing any functionality that is only available to the owner."
      },
      "transferOwnership(address)": {
        "details": "Transfers ownership of the contract to a new account (`newOwner`). Can only be called by the current owner."
      }
    }
  },
  "userdoc": {
    "methods": {}
  }
}