{
  "contractName": "Bid",
  "abi": [
    {
      "constant": true,
      "inputs": [
        {
          "name": "",
          "type": "uint256"
        }
      ],
      "name": "observations",
      "outputs": [
        {
          "name": "plain",
          "type": "string"
        },
        {
          "name": "hash",
          "type": "string"
        },
        {
          "name": "numResponses",
          "type": "uint256"
        }
      ],
      "payable": false,
      "stateMutability": "view",
      "type": "function"
    },
    {
      "constant": false,
      "inputs": [],
      "name": "renounceOwnership",
      "outputs": [],
      "payable": false,
      "stateMutability": "nonpayable",
      "type": "function"
    },
    {
      "constant": true,
      "inputs": [],
      "name": "owner",
      "outputs": [
        {
          "name": "",
          "type": "address"
        }
      ],
      "payable": false,
      "stateMutability": "view",
      "type": "function"
    },
    {
      "constant": true,
      "inputs": [],
      "name": "isOwner",
      "outputs": [
        {
          "name": "",
          "type": "bool"
        }
      ],
      "payable": false,
      "stateMutability": "view",
      "type": "function"
    },
    {
      "constant": true,
      "inputs": [
        {
          "name": "",
          "type": "uint256"
        }
      ],
      "name": "scoreObservations",
      "outputs": [
        {
          "name": "plain",
          "type": "string"
        },
        {
          "name": "hash",
          "type": "string"
        },
        {
          "name": "numResponses",
          "type": "uint256"
        }
      ],
      "payable": false,
      "stateMutability": "view",
      "type": "function"
    },
    {
      "constant": true,
      "inputs": [],
      "name": "tenderer",
      "outputs": [
        {
          "name": "",
          "type": "address"
        }
      ],
      "payable": false,
      "stateMutability": "view",
      "type": "function"
    },
    {
      "constant": true,
      "inputs": [],
      "name": "score",
      "outputs": [
        {
          "name": "",
          "type": "int256"
        }
      ],
      "payable": false,
      "stateMutability": "view",
      "type": "function"
    },
    {
      "constant": false,
      "inputs": [
        {
          "name": "newOwner",
          "type": "address"
        }
      ],
      "name": "transferOwnership",
      "outputs": [],
      "payable": false,
      "stateMutability": "nonpayable",
      "type": "function"
    },
    {
      "inputs": [
        {
          "name": "_tenderer",
          "type": "address"
        }
      ],
      "payable": false,
      "stateMutability": "nonpayable",
      "type": "constructor"
    },
    {
      "anonymous": false,
      "inputs": [
        {
          "indexed": true,
          "name": "previousOwner",
          "type": "address"
        },
        {
          "indexed": true,
          "name": "newOwner",
          "type": "address"
        }
      ],
      "name": "OwnershipTransferred",
      "type": "event"
    },
    {
      "constant": false,
      "inputs": [
        {
          "name": "_plain",
          "type": "string"
        },
        {
          "name": "_hash",
          "type": "string"
        }
      ],
      "name": "submitObservation",
      "outputs": [],
      "payable": false,
      "stateMutability": "nonpayable",
      "type": "function"
    },
    {
      "constant": false,
      "inputs": [
        {
          "name": "_plain",
          "type": "string"
        }
      ],
      "name": "submitObservation",
      "outputs": [],
      "payable": false,
      "stateMutability": "nonpayable",
      "type": "function"
    },
    {
      "constant": true,
      "inputs": [],
      "name": "getObservationsLength",
      "outputs": [
        {
          "name": "",
          "type": "uint256"
        }
      ],
      "payable": false,
      "stateMutability": "view",
      "type": "function"
    },
    {
      "constant": false,
      "inputs": [
        {
          "name": "_idx",
          "type": "uint256"
        },
        {
          "name": "_plain",
          "type": "string"
        },
        {
          "name": "_hash",
          "type": "string"
        }
      ],
      "name": "respondObservation",
      "outputs": [],
      "payable": false,
      "stateMutability": "nonpayable",
      "type": "function"
    },
    {
      "constant": false,
      "inputs": [
        {
          "name": "_plain",
          "type": "string"
        }
      ],
      "name": "submitScoreObservation",
      "outputs": [],
      "payable": false,
      "stateMutability": "nonpayable",
      "type": "function"
    },
    {
      "constant": false,
      "inputs": [
        {
          "name": "_plain",
          "type": "string"
        },
        {
          "name": "_hash",
          "type": "string"
        }
      ],
      "name": "submitScoreObservation",
      "outputs": [],
      "payable": false,
      "stateMutability": "nonpayable",
      "type": "function"
    },
    {
      "constant": true,
      "inputs": [],
      "name": "getScoreObservationsLength",
      "outputs": [
        {
          "name": "",
          "type": "uint256"
        }
      ],
      "payable": false,
      "stateMutability": "view",
      "type": "function"
    },
    {
      "constant": false,
      "inputs": [
        {
          "name": "_idx",
          "type": "uint256"
        },
        {
          "name": "_plain",
          "type": "string"
        },
        {
          "name": "_hash",
          "type": "string"
        }
      ],
      "name": "respondScoreObservation",
      "outputs": [],
      "payable": false,
      "stateMutability": "nonpayable",
      "type": "function"
    },
    {
      "constant": false,
      "inputs": [
        {
          "name": "_score",
          "type": "int256"
        }
      ],
      "name": "setScore",
      "outputs": [],
      "payable": false,
      "stateMutability": "nonpayable",
      "type": "function"
    },
    {
      "constant": true,
      "inputs": [
        {
          "name": "_obsIdx",
          "type": "uint256"
        },
        {
          "name": "_resIdx",
          "type": "uint256"
        }
      ],
      "name": "getResponseAt",
      "outputs": [
        {
          "name": "_plain",
          "type": "string"
        },
        {
          "name": "_hash",
          "type": "string"
        }
      ],
      "payable": false,
      "stateMutability": "view",
      "type": "function"
    },
    {
      "constant": true,
      "inputs": [
        {
          "name": "_obsIdx",
          "type": "uint256"
        },
        {
          "name": "_resIdx",
          "type": "uint256"
        }
      ],
      "name": "getScoreObservationResponseAt",
      "outputs": [
        {
          "name": "_plain",
          "type": "string"
        },
        {
          "name": "_hash",
          "type": "string"
        }
      ],
      "payable": false,
      "stateMutability": "view",
      "type": "function"
    }
  ],
  "bytecode": "0x608060405234801561001057600080fd5b50604051602080611ef68339810180604052602081101561003057600080fd5b8101908080519060200190929190505050336000806101000a81548173ffffffffffffffffffffffffffffffffffffffff021916908373ffffffffffffffffffffffffffffffffffffffff1602179055506000809054906101000a900473ffffffffffffffffffffffffffffffffffffffff1673ffffffffffffffffffffffffffffffffffffffff16600073ffffffffffffffffffffffffffffffffffffffff167f8be0079c531659141344cd1fd0a4f28419497f9722a3daafe3b4186f6b6457e060405160405180910390a380600160006101000a81548173ffffffffffffffffffffffffffffffffffffffff021916908373ffffffffffffffffffffffffffffffffffffffff16021790555050611da88061014e6000396000f3fe608060405234801561001057600080fd5b50600436106101215760003560e01c80639986ab94116100ad578063f07ee22511610071578063f07ee22514610a27578063f132617514610b79578063f211128314610cd5578063f288f50514610d90578063f2fde38b14610dae57610121565b80639986ab9414610859578063cae017d214610973578063d7150180146109a1578063e7974fef146109bf578063efedc66914610a0957610121565b80633b02a268116100f45780633b02a2681461057457806348d28514146106c6578063715018a6146107e35780638da5cb5b146107ed5780638f32d59b1461083757610121565b80631e17032b14610126578063252c09d7146102435780632c519bc41461035d5780632ca5f37f146104b9575b600080fd5b61015c6004803603604081101561013c57600080fd5b810190808035906020019092919080359060200190929190505050610df2565b604051808060200180602001838103835285818151815260200191508051906020019080838360005b838110156101a0578082015181840152602081019050610185565b50505050905090810190601f1680156101cd5780820380516001836020036101000a031916815260200191505b50838103825284818151815260200191508051906020019080838360005b838110156102065780820151818401526020810190506101eb565b50505050905090810190601f1680156102335780820380516001836020036101000a031916815260200191505b5094505050505060405180910390f35b61026f6004803603602081101561025957600080fd5b8101908080359060200190929190505050610f96565b604051808060200180602001848152602001838103835286818151815260200191508051906020019080838360005b838110156102b957808201518184015260208101905061029e565b50505050905090810190601f1680156102e65780820380516001836020036101000a031916815260200191505b50838103825285818151815260200191508051906020019080838360005b8381101561031f578082015181840152602081019050610304565b50505050905090810190601f16801561034c5780820380516001836020036101000a031916815260200191505b509550505050505060405180910390f35b6104b76004803603606081101561037357600080fd5b81019080803590602001909291908035906020019064010000000081111561039a57600080fd5b8201836020820111156103ac57600080fd5b803590602001918460018302840111640100000000831117156103ce57600080fd5b91908080601f016020809104026020016040519081016040528093929190818152602001838380828437600081840152601f19601f8201169050808301925050505050505091929192908035906020019064010000000081111561043157600080fd5b82018360208201111561044357600080fd5b8035906020019184600183028401116401000000008311171561046557600080fd5b91908080601f016020809104026020016040519081016040528093929190818152602001838380828437600081840152601f19601f8201169050808301925050505050505091929192905050506110fd565b005b610572600480360360208110156104cf57600080fd5b81019080803590602001906401000000008111156104ec57600080fd5b8201836020820111156104fe57600080fd5b8035906020019184600183028401116401000000008311171561052057600080fd5b91908080601f016020809104026020016040519081016040528093929190818152602001838380828437600081840152601f19601f820116905080830192505050505050509192919290505050611215565b005b6106c46004803603604081101561058a57600080fd5b81019080803590602001906401000000008111156105a757600080fd5b8201836020820111156105b957600080fd5b803590602001918460018302840111640100000000831117156105db57600080fd5b91908080601f016020809104026020016040519081016040528093929190818152602001838380828437600081840152601f19601f8201169050808301925050505050505091929192908035906020019064010000000081111561063e57600080fd5b82018360208201111561065057600080fd5b8035906020019184600183028401116401000000008311171561067257600080fd5b91908080601f016020809104026020016040519081016040528093929190818152602001838380828437600081840152601f19601f8201169050808301925050505050505091929192905050506112b7565b005b6106fc600480360360408110156106dc57600080fd5b81019080803590602001909291908035906020019092919050505061134b565b604051808060200180602001838103835285818151815260200191508051906020019080838360005b83811015610740578082015181840152602081019050610725565b50505050905090810190601f16801561076d5780820380516001836020036101000a031916815260200191505b50838103825284818151815260200191508051906020019080838360005b838110156107a657808201518184015260208101905061078b565b50505050905090810190601f1680156107d35780820380516001836020036101000a031916815260200191505b5094505050505060405180910390f35b6107eb6114ef565b005b6107f5611628565b604051808273ffffffffffffffffffffffffffffffffffffffff1673ffffffffffffffffffffffffffffffffffffffff16815260200191505060405180910390f35b61083f611651565b604051808215151515815260200191505060405180910390f35b6108856004803603602081101561086f57600080fd5b81019080803590602001909291905050506116a8565b604051808060200180602001848152602001838103835286818151815260200191508051906020019080838360005b838110156108cf5780820151818401526020810190506108b4565b50505050905090810190601f1680156108fc5780820380516001836020036101000a031916815260200191505b50838103825285818151815260200191508051906020019080838360005b8381101561093557808201518184015260208101905061091a565b50505050905090810190601f1680156109625780820380516001836020036101000a031916815260200191505b509550505050505060405180910390f35b61099f6004803603602081101561098957600080fd5b810190808035906020019092919050505061180f565b005b6109a9611873565b6040518082815260200191505060405180910390f35b6109c7611880565b604051808273ffffffffffffffffffffffffffffffffffffffff1673ffffffffffffffffffffffffffffffffffffffff16815260200191505060405180910390f35b610a116118a6565b6040518082815260200191505060405180910390f35b610b7760048036036040811015610a3d57600080fd5b8101908080359060200190640100000000811115610a5a57600080fd5b820183602082011115610a6c57600080fd5b80359060200191846001830284011164010000000083111715610a8e57600080fd5b91908080601f016020809104026020016040519081016040528093929190818152602001838380828437600081840152601f19601f82011690508083019250505050505050919291929080359060200190640100000000811115610af157600080fd5b820183602082011115610b0357600080fd5b80359060200191846001830284011164010000000083111715610b2557600080fd5b91908080601f016020809104026020016040519081016040528093929190818152602001838380828437600081840152601f19601f8201169050808301925050505050505091929192905050506118ac565b005b610cd360048036036060811015610b8f57600080fd5b810190808035906020019092919080359060200190640100000000811115610bb657600080fd5b820183602082011115610bc857600080fd5b80359060200191846001830284011164010000000083111715610bea57600080fd5b91908080601f016020809104026020016040519081016040528093929190818152602001838380828437600081840152601f19601f82011690508083019250505050505050919291929080359060200190640100000000811115610c4d57600080fd5b820183602082011115610c5f57600080fd5b80359060200191846001830284011164010000000083111715610c8157600080fd5b91908080601f016020809104026020016040519081016040528093929190818152602001838380828437600081840152601f19601f820116905080830192505050505050509192919290505050611940565b005b610d8e60048036036020811015610ceb57600080fd5b8101908080359060200190640100000000811115610d0857600080fd5b820183602082011115610d1a57600080fd5b80359060200191846001830284011164010000000083111715610d3c57600080fd5b91908080601f016020809104026020016040519081016040528093929190818152602001838380828437600081840152601f19601f820116905080830192505050505050509192919290505050611a38565b005b610d98611ada565b6040518082815260200191505060405180910390f35b610df060048036036020811015610dc457600080fd5b81019080803573ffffffffffffffffffffffffffffffffffffffff169060200190929190505050611ae7565b005b60608060038481548110610e0257fe5b906000526020600020906004020160030160008481526020019081526020016000206000018054600181600116156101000203166002900480601f016020809104026020016040519081016040528092919081815260200182805460018160011615610100020316600290048015610ebb5780601f10610e9057610100808354040283529160200191610ebb565b820191906000526020600020905b815481529060010190602001808311610e9e57829003601f168201915b5050505050915060038481548110610ecf57fe5b906000526020600020906004020160030160008481526020019081526020016000206001018054600181600116156101000203166002900480601f016020809104026020016040519081016040528092919081815260200182805460018160011615610100020316600290048015610f885780601f10610f5d57610100808354040283529160200191610f88565b820191906000526020600020905b815481529060010190602001808311610f6b57829003601f168201915b505050505090509250929050565b60038181548110610fa357fe5b9060005260206000209060040201600091509050806000018054600181600116156101000203166002900480601f01602080910402602001604051908101604052809291908181526020018280546001816001161561010002031660029004801561104f5780601f106110245761010080835404028352916020019161104f565b820191906000526020600020905b81548152906001019060200180831161103257829003601f168201915b505050505090806001018054600181600116156101000203166002900480601f0160208091040260200160405190810160405280929190818152602001828054600181600116156101000203166002900480156110ed5780601f106110c2576101008083540402835291602001916110ed565b820191906000526020600020905b8154815290600101906020018083116110d057829003601f168201915b5050505050908060020154905083565b611105611651565b611177576040517f08c379a00000000000000000000000000000000000000000000000000000000081526004018080602001828103825260208152602001807f4f776e61626c653a2063616c6c6572206973206e6f7420746865206f776e657281525060200191505060405180910390fd5b60006003848154811061118657fe5b9060005260206000209060040201905060405180604001604052808481526020018381525081600301600083600201600081548092919060010191905055815260200190815260200160002060008201518160000190805190602001906111ee929190611cb1565b50602082015181600101908051906020019061120b929190611cb1565b5090505050505050565b600460405180606001604052808381526020016040518060200160405280600081525081526020016000815250908060018154018082558091505090600182039060005260206000209060040201600090919290919091506000820151816000019080519060200190611289929190611cb1565b5060208201518160010190805190602001906112a6929190611cb1565b506040820151816002015550505050565b60036040518060600160405280848152602001838152602001600081525090806001815401808255809150509060018203906000526020600020906004020160009091929091909150600082015181600001908051906020019061131c929190611cb1565b506020820151816001019080519060200190611339929190611cb1565b50604082015181600201555050505050565b6060806004848154811061135b57fe5b906000526020600020906004020160030160008481526020019081526020016000206000018054600181600116156101000203166002900480601f0160208091040260200160405190810160405280929190818152602001828054600181600116156101000203166002900480156114145780601f106113e957610100808354040283529160200191611414565b820191906000526020600020905b8154815290600101906020018083116113f757829003601f168201915b505050505091506004848154811061142857fe5b906000526020600020906004020160030160008481526020019081526020016000206001018054600181600116156101000203166002900480601f0160208091040260200160405190810160405280929190818152602001828054600181600116156101000203166002900480156114e15780601f106114b6576101008083540402835291602001916114e1565b820191906000526020600020905b8154815290600101906020018083116114c457829003601f168201915b505050505090509250929050565b6114f7611651565b611569576040517f08c379a00000000000000000000000000000000000000000000000000000000081526004018080602001828103825260208152602001807f4f776e61626c653a2063616c6c6572206973206e6f7420746865206f776e657281525060200191505060405180910390fd5b600073ffffffffffffffffffffffffffffffffffffffff166000809054906101000a900473ffffffffffffffffffffffffffffffffffffffff1673ffffffffffffffffffffffffffffffffffffffff167f8be0079c531659141344cd1fd0a4f28419497f9722a3daafe3b4186f6b6457e060405160405180910390a360008060006101000a81548173ffffffffffffffffffffffffffffffffffffffff021916908373ffffffffffffffffffffffffffffffffffffffff160217905550565b60008060009054906101000a900473ffffffffffffffffffffffffffffffffffffffff16905090565b60008060009054906101000a900473ffffffffffffffffffffffffffffffffffffffff1673ffffffffffffffffffffffffffffffffffffffff163373ffffffffffffffffffffffffffffffffffffffff1614905090565b600481815481106116b557fe5b9060005260206000209060040201600091509050806000018054600181600116156101000203166002900480601f0160208091040260200160405190810160405280929190818152602001828054600181600116156101000203166002900480156117615780601f1061173657610100808354040283529160200191611761565b820191906000526020600020905b81548152906001019060200180831161174457829003601f168201915b505050505090806001018054600181600116156101000203166002900480601f0160208091040260200160405190810160405280929190818152602001828054600181600116156101000203166002900480156117ff5780601f106117d4576101008083540402835291602001916117ff565b820191906000526020600020905b8154815290600101906020018083116117e257829003601f168201915b5050505050908060020154905083565b600160009054906101000a900473ffffffffffffffffffffffffffffffffffffffff1673ffffffffffffffffffffffffffffffffffffffff163373ffffffffffffffffffffffffffffffffffffffff161461186957600080fd5b8060028190555050565b6000600380549050905090565b600160009054906101000a900473ffffffffffffffffffffffffffffffffffffffff1681565b60025481565b600460405180606001604052808481526020018381526020016000815250908060018154018082558091505090600182039060005260206000209060040201600090919290919091506000820151816000019080519060200190611911929190611cb1565b50602082015181600101908051906020019061192e929190611cb1565b50604082015181600201555050505050565b600160009054906101000a900473ffffffffffffffffffffffffffffffffffffffff1673ffffffffffffffffffffffffffffffffffffffff163373ffffffffffffffffffffffffffffffffffffffff161461199a57600080fd5b6000600484815481106119a957fe5b906000526020600020906004020190506040518060400160405280848152602001838152508160030160008360020160008154809291906001019190505581526020019081526020016000206000820151816000019080519060200190611a11929190611cb1565b506020820151816001019080519060200190611a2e929190611cb1565b5090505050505050565b600360405180606001604052808381526020016040518060200160405280600081525081526020016000815250908060018154018082558091505090600182039060005260206000209060040201600090919290919091506000820151816000019080519060200190611aac929190611cb1565b506020820151816001019080519060200190611ac9929190611cb1565b506040820151816002015550505050565b6000600480549050905090565b611aef611651565b611b61576040517f08c379a00000000000000000000000000000000000000000000000000000000081526004018080602001828103825260208152602001807f4f776e61626c653a2063616c6c6572206973206e6f7420746865206f776e657281525060200191505060405180910390fd5b611b6a81611b6d565b50565b600073ffffffffffffffffffffffffffffffffffffffff168173ffffffffffffffffffffffffffffffffffffffff161415611bf3576040517f08c379a0000000000000000000000000000000000000000000000000000000008152600401808060200182810382526026815260200180611d576026913960400191505060405180910390fd5b8073ffffffffffffffffffffffffffffffffffffffff166000809054906101000a900473ffffffffffffffffffffffffffffffffffffffff1673ffffffffffffffffffffffffffffffffffffffff167f8be0079c531659141344cd1fd0a4f28419497f9722a3daafe3b4186f6b6457e060405160405180910390a3806000806101000a81548173ffffffffffffffffffffffffffffffffffffffff021916908373ffffffffffffffffffffffffffffffffffffffff16021790555050565b828054600181600116156101000203166002900490600052602060002090601f016020900481019282601f10611cf257805160ff1916838001178555611d20565b82800160010185558215611d20579182015b82811115611d1f578251825591602001919060010190611d04565b5b509050611d2d9190611d31565b5090565b611d5391905b80821115611d4f576000816000905550600101611d37565b5090565b9056fe4f776e61626c653a206e6577206f776e657220697320746865207a65726f2061646472657373a165627a7a72305820d3c1b20ec2c0a608dd1b94886223d5a6b70d2b5f9aa6d187aa8457da4d56c0f60029",
  "source": "pragma solidity >=0.4.23 <0.6.0;\n\nimport 'openzeppelin-solidity/contracts/ownership/Ownable.sol';\n\ncontract Bid is Ownable {\n  address public tenderer;\n  int public score;\n  Observation[] public observations;\n  Observation[] public scoreObservations;\n\n  struct Observation {\n    string plain;\n    string hash;\n    uint numResponses;\n    mapping (uint => Response) responses;\n  }\n\n  struct Response {\n    string plain;\n    string hash;\n  }\n\n  constructor(address _tenderer) public {\n    tenderer = _tenderer;\n  }\n\n  modifier onlyTenderer() {\n    require(msg.sender == tenderer);\n    _;\n  }\n\n  function submitObservation(string memory _plain) public {\n    observations.push(Observation({plain: _plain, hash: \"\", numResponses: 0}));\n  }\n\n  function submitObservation(string memory _plain, string memory _hash) public {\n    observations.push(Observation({plain: _plain, hash: _hash, numResponses: 0}));\n  }\n\n  function getObservationsLength() public view returns(uint) {\n    return observations.length;\n  }\n\n  function respondObservation(uint _idx, string memory _plain, string memory _hash) public onlyOwner {\n    Observation storage obs = observations[_idx];\n    obs.responses[obs.numResponses++] = Response({plain: _plain, hash: _hash});\n  }\n\n  function submitScoreObservation(string memory _plain) public {\n    scoreObservations.push(Observation({plain: _plain, hash: \"\", numResponses: 0}));\n  }\n\n  function submitScoreObservation(string memory _plain, string memory _hash) public {\n    scoreObservations.push(Observation({plain: _plain, hash: _hash, numResponses: 0}));\n  }\n\n  function getScoreObservationsLength() public view returns(uint) {\n    return scoreObservations.length;\n  }\n\n  function respondScoreObservation(uint _idx, string memory _plain, string memory _hash) public onlyTenderer {\n    Observation storage obs = scoreObservations[_idx];\n    obs.responses[obs.numResponses++] = Response({plain: _plain, hash: _hash});\n  }\n\n  function setScore(int _score) public onlyTenderer {\n    score = _score;\n  }\n\n  function getResponseAt(uint _obsIdx, uint _resIdx) public view returns (string memory _plain, string memory _hash) {\n    _plain = observations[_obsIdx].responses[_resIdx].plain;\n    _hash = observations[_obsIdx].responses[_resIdx].hash;\n  }\n\n  function getScoreObservationResponseAt(uint _obsIdx, uint _resIdx) public view returns (string memory _plain, string memory _hash) {\n    _plain = scoreObservations[_obsIdx].responses[_resIdx].plain;\n    _hash = scoreObservations[_obsIdx].responses[_resIdx].hash;\n  }\n\n}\n",
  "sourcePath": "/home/mesi/Projects/ViveLab/IGNWEF/contracts/contracts/Bid.sol",
  "compiler": {
    "name": "solc",
    "version": "0.5.8+commit.23d335f2.Emscripten.clang"
  },
  "schemaVersion": "3.0.12",
  "updatedAt": "2019-09-30T20:05:10.237Z",
  "devdoc": {
    "methods": {
      "isOwner()": {
        "details": "Returns true if the caller is the current owner."
      },
      "owner()": {
        "details": "Returns the address of the current owner."
      },
      "renounceOwnership()": {
        "details": "Leaves the contract without owner. It will not be possible to call `onlyOwner` functions anymore. Can only be called by the current owner.     * > Note: Renouncing ownership will leave the contract without an owner, thereby removing any functionality that is only available to the owner."
      },
      "transferOwnership(address)": {
        "details": "Transfers ownership of the contract to a new account (`newOwner`). Can only be called by the current owner."
      }
    }
  },
  "userdoc": {
    "methods": {}
  }
}