{
  "contractName": "Bid",
  "abi": [
    {
      "constant": true,
      "inputs": [
        {
          "name": "",
          "type": "uint256"
        }
      ],
      "name": "observations",
      "outputs": [
        {
          "name": "plain",
          "type": "string"
        },
        {
          "name": "hash",
          "type": "string"
        },
        {
          "name": "resPlain",
          "type": "string"
        },
        {
          "name": "resHash",
          "type": "string"
        }
      ],
      "payable": false,
      "stateMutability": "view",
      "type": "function"
    },
    {
      "constant": false,
      "inputs": [],
      "name": "renounceOwnership",
      "outputs": [],
      "payable": false,
      "stateMutability": "nonpayable",
      "type": "function"
    },
    {
      "constant": true,
      "inputs": [],
      "name": "owner",
      "outputs": [
        {
          "name": "",
          "type": "address"
        }
      ],
      "payable": false,
      "stateMutability": "view",
      "type": "function"
    },
    {
      "constant": true,
      "inputs": [],
      "name": "isOwner",
      "outputs": [
        {
          "name": "",
          "type": "bool"
        }
      ],
      "payable": false,
      "stateMutability": "view",
      "type": "function"
    },
    {
      "constant": true,
      "inputs": [
        {
          "name": "",
          "type": "uint256"
        }
      ],
      "name": "scoreObservations",
      "outputs": [
        {
          "name": "plain",
          "type": "string"
        },
        {
          "name": "hash",
          "type": "string"
        },
        {
          "name": "resPlain",
          "type": "string"
        },
        {
          "name": "resHash",
          "type": "string"
        }
      ],
      "payable": false,
      "stateMutability": "view",
      "type": "function"
    },
    {
      "constant": true,
      "inputs": [],
      "name": "tenderer",
      "outputs": [
        {
          "name": "",
          "type": "address"
        }
      ],
      "payable": false,
      "stateMutability": "view",
      "type": "function"
    },
    {
      "constant": true,
      "inputs": [],
      "name": "score",
      "outputs": [
        {
          "name": "",
          "type": "int256"
        }
      ],
      "payable": false,
      "stateMutability": "view",
      "type": "function"
    },
    {
      "constant": false,
      "inputs": [
        {
          "name": "newOwner",
          "type": "address"
        }
      ],
      "name": "transferOwnership",
      "outputs": [],
      "payable": false,
      "stateMutability": "nonpayable",
      "type": "function"
    },
    {
      "inputs": [
        {
          "name": "_tenderer",
          "type": "address"
        }
      ],
      "payable": false,
      "stateMutability": "nonpayable",
      "type": "constructor"
    },
    {
      "anonymous": false,
      "inputs": [
        {
          "indexed": true,
          "name": "previousOwner",
          "type": "address"
        },
        {
          "indexed": true,
          "name": "newOwner",
          "type": "address"
        }
      ],
      "name": "OwnershipTransferred",
      "type": "event"
    },
    {
      "constant": false,
      "inputs": [
        {
          "name": "_plain",
          "type": "string"
        },
        {
          "name": "_hash",
          "type": "string"
        }
      ],
      "name": "submitObservation",
      "outputs": [],
      "payable": false,
      "stateMutability": "nonpayable",
      "type": "function"
    },
    {
      "constant": false,
      "inputs": [
        {
          "name": "_plain",
          "type": "string"
        }
      ],
      "name": "submitObservation",
      "outputs": [],
      "payable": false,
      "stateMutability": "nonpayable",
      "type": "function"
    },
    {
      "constant": true,
      "inputs": [],
      "name": "getObservationsLength",
      "outputs": [
        {
          "name": "",
          "type": "uint256"
        }
      ],
      "payable": false,
      "stateMutability": "view",
      "type": "function"
    },
    {
      "constant": false,
      "inputs": [
        {
          "name": "_idx",
          "type": "uint256"
        },
        {
          "name": "_plain",
          "type": "string"
        },
        {
          "name": "_hash",
          "type": "string"
        }
      ],
      "name": "respondObservation",
      "outputs": [],
      "payable": false,
      "stateMutability": "nonpayable",
      "type": "function"
    },
    {
      "constant": false,
      "inputs": [
        {
          "name": "_plain",
          "type": "string"
        }
      ],
      "name": "submitScoreObservation",
      "outputs": [],
      "payable": false,
      "stateMutability": "nonpayable",
      "type": "function"
    },
    {
      "constant": false,
      "inputs": [
        {
          "name": "_plain",
          "type": "string"
        },
        {
          "name": "_hash",
          "type": "string"
        }
      ],
      "name": "submitScoreObservation",
      "outputs": [],
      "payable": false,
      "stateMutability": "nonpayable",
      "type": "function"
    },
    {
      "constant": true,
      "inputs": [],
      "name": "getScoreObservationsLength",
      "outputs": [
        {
          "name": "",
          "type": "uint256"
        }
      ],
      "payable": false,
      "stateMutability": "view",
      "type": "function"
    },
    {
      "constant": false,
      "inputs": [
        {
          "name": "_idx",
          "type": "uint256"
        },
        {
          "name": "_plain",
          "type": "string"
        },
        {
          "name": "_hash",
          "type": "string"
        }
      ],
      "name": "respondScoreObservation",
      "outputs": [],
      "payable": false,
      "stateMutability": "nonpayable",
      "type": "function"
    },
    {
      "constant": false,
      "inputs": [
        {
          "name": "_score",
          "type": "int256"
        }
      ],
      "name": "setScore",
      "outputs": [],
      "payable": false,
      "stateMutability": "nonpayable",
      "type": "function"
    }
  ],
  "bytecode": "0x608060405234801561001057600080fd5b50604051602080611fac8339810180604052602081101561003057600080fd5b8101908080519060200190929190505050336000806101000a81548173ffffffffffffffffffffffffffffffffffffffff021916908373ffffffffffffffffffffffffffffffffffffffff1602179055506000809054906101000a900473ffffffffffffffffffffffffffffffffffffffff1673ffffffffffffffffffffffffffffffffffffffff16600073ffffffffffffffffffffffffffffffffffffffff167f8be0079c531659141344cd1fd0a4f28419497f9722a3daafe3b4186f6b6457e060405160405180910390a380600160006101000a81548173ffffffffffffffffffffffffffffffffffffffff021916908373ffffffffffffffffffffffffffffffffffffffff16021790555050611e5e8061014e6000396000f3fe6080604052600436106100f1576000357c0100000000000000000000000000000000000000000000000000000000900463ffffffff168063252c09d7146100f65780632c519bc4146102ee5780632ca5f37f146104575780633b02a2681461051f578063715018a61461067e5780638da5cb5b146106955780638f32d59b146106ec5780639986ab941461071b578063cae017d214610913578063d71501801461094e578063e7974fef14610979578063efedc669146109d0578063f07ee225146109fb578063f132617514610b5a578063f211128314610cc3578063f288f50514610d8b578063f2fde38b14610db6575b600080fd5b34801561010257600080fd5b5061012f6004803603602081101561011957600080fd5b8101908080359060200190929190505050610e07565b6040518080602001806020018060200180602001858103855289818151815260200191508051906020019080838360005b8381101561017b578082015181840152602081019050610160565b50505050905090810190601f1680156101a85780820380516001836020036101000a031916815260200191505b50858103845288818151815260200191508051906020019080838360005b838110156101e15780820151818401526020810190506101c6565b50505050905090810190601f16801561020e5780820380516001836020036101000a031916815260200191505b50858103835287818151815260200191508051906020019080838360005b8381101561024757808201518184015260208101905061022c565b50505050905090810190601f1680156102745780820380516001836020036101000a031916815260200191505b50858103825286818151815260200191508051906020019080838360005b838110156102ad578082015181840152602081019050610292565b50505050905090810190601f1680156102da5780820380516001836020036101000a031916815260200191505b509850505050505050505060405180910390f35b3480156102fa57600080fd5b506104556004803603606081101561031157600080fd5b81019080803590602001909291908035906020019064010000000081111561033857600080fd5b82018360208201111561034a57600080fd5b8035906020019184600183028401116401000000008311171561036c57600080fd5b91908080601f016020809104026020016040519081016040528093929190818152602001838380828437600081840152601f19601f820116905080830192505050505050509192919290803590602001906401000000008111156103cf57600080fd5b8201836020820111156103e157600080fd5b8035906020019184600183028401116401000000008311171561040357600080fd5b91908080601f016020809104026020016040519081016040528093929190818152602001838380828437600081840152601f19601f8201169050808301925050505050505091929192905050506110a6565b005b34801561046357600080fd5b5061051d6004803603602081101561047a57600080fd5b810190808035906020019064010000000081111561049757600080fd5b8201836020820111156104a957600080fd5b803590602001918460018302840111640100000000831117156104cb57600080fd5b91908080601f016020809104026020016040519081016040528093929190818152602001838380828437600081840152601f19601f82011690508083019250505050505050919291929050505061117b565b005b34801561052b57600080fd5b5061067c6004803603604081101561054257600080fd5b810190808035906020019064010000000081111561055f57600080fd5b82018360208201111561057157600080fd5b8035906020019184600183028401116401000000008311171561059357600080fd5b91908080601f016020809104026020016040519081016040528093929190818152602001838380828437600081840152601f19601f820116905080830192505050505050509192919290803590602001906401000000008111156105f657600080fd5b82018360208201111561060857600080fd5b8035906020019184600183028401116401000000008311171561062a57600080fd5b91908080601f016020809104026020016040519081016040528093929190818152602001838380828437600081840152601f19601f820116905080830192505050505050509192919290505050611274565b005b34801561068a57600080fd5b5061069361135e565b005b3480156106a157600080fd5b506106aa611499565b604051808273ffffffffffffffffffffffffffffffffffffffff1673ffffffffffffffffffffffffffffffffffffffff16815260200191505060405180910390f35b3480156106f857600080fd5b506107016114c2565b604051808215151515815260200191505060405180910390f35b34801561072757600080fd5b506107546004803603602081101561073e57600080fd5b8101908080359060200190929190505050611519565b6040518080602001806020018060200180602001858103855289818151815260200191508051906020019080838360005b838110156107a0578082015181840152602081019050610785565b50505050905090810190601f1680156107cd5780820380516001836020036101000a031916815260200191505b50858103845288818151815260200191508051906020019080838360005b838110156108065780820151818401526020810190506107eb565b50505050905090810190601f1680156108335780820380516001836020036101000a031916815260200191505b50858103835287818151815260200191508051906020019080838360005b8381101561086c578082015181840152602081019050610851565b50505050905090810190601f1680156108995780820380516001836020036101000a031916815260200191505b50858103825286818151815260200191508051906020019080838360005b838110156108d25780820151818401526020810190506108b7565b50505050905090810190601f1680156108ff5780820380516001836020036101000a031916815260200191505b509850505050505050505060405180910390f35b34801561091f57600080fd5b5061094c6004803603602081101561093657600080fd5b81019080803590602001909291905050506117b8565b005b34801561095a57600080fd5b5061096361181e565b6040518082815260200191505060405180910390f35b34801561098557600080fd5b5061098e61182b565b604051808273ffffffffffffffffffffffffffffffffffffffff1673ffffffffffffffffffffffffffffffffffffffff16815260200191505060405180910390f35b3480156109dc57600080fd5b506109e5611851565b6040518082815260200191505060405180910390f35b348015610a0757600080fd5b50610b5860048036036040811015610a1e57600080fd5b8101908080359060200190640100000000811115610a3b57600080fd5b820183602082011115610a4d57600080fd5b80359060200191846001830284011164010000000083111715610a6f57600080fd5b91908080601f016020809104026020016040519081016040528093929190818152602001838380828437600081840152601f19601f82011690508083019250505050505050919291929080359060200190640100000000811115610ad257600080fd5b820183602082011115610ae457600080fd5b80359060200191846001830284011164010000000083111715610b0657600080fd5b91908080601f016020809104026020016040519081016040528093929190818152602001838380828437600081840152601f19601f820116905080830192505050505050509192919290505050611857565b005b348015610b6657600080fd5b50610cc160048036036060811015610b7d57600080fd5b810190808035906020019092919080359060200190640100000000811115610ba457600080fd5b820183602082011115610bb657600080fd5b80359060200191846001830284011164010000000083111715610bd857600080fd5b91908080601f016020809104026020016040519081016040528093929190818152602001838380828437600081840152601f19601f82011690508083019250505050505050919291929080359060200190640100000000811115610c3b57600080fd5b820183602082011115610c4d57600080fd5b80359060200191846001830284011164010000000083111715610c6f57600080fd5b91908080601f016020809104026020016040519081016040528093929190818152602001838380828437600081840152601f19601f820116905080830192505050505050509192919290505050611941565b005b348015610ccf57600080fd5b50610d8960048036036020811015610ce657600080fd5b8101908080359060200190640100000000811115610d0357600080fd5b820183602082011115610d1557600080fd5b80359060200191846001830284011164010000000083111715610d3757600080fd5b91908080601f016020809104026020016040519081016040528093929190818152602001838380828437600081840152601f19601f8201169050808301925050505050505091929192905050506119f6565b005b348015610d9757600080fd5b50610da0611aef565b6040518082815260200191505060405180910390f35b348015610dc257600080fd5b50610e0560048036036020811015610dd957600080fd5b81019080803573ffffffffffffffffffffffffffffffffffffffff169060200190929190505050611afc565b005b600381815481101515610e1657fe5b9060005260206000209060040201600091509050806000018054600181600116156101000203166002900480601f016020809104026020016040519081016040528092919081815260200182805460018160011615610100020316600290048015610ec25780601f10610e9757610100808354040283529160200191610ec2565b820191906000526020600020905b815481529060010190602001808311610ea557829003601f168201915b505050505090806001018054600181600116156101000203166002900480601f016020809104026020016040519081016040528092919081815260200182805460018160011615610100020316600290048015610f605780601f10610f3557610100808354040283529160200191610f60565b820191906000526020600020905b815481529060010190602001808311610f4357829003601f168201915b505050505090806002018054600181600116156101000203166002900480601f016020809104026020016040519081016040528092919081815260200182805460018160011615610100020316600290048015610ffe5780601f10610fd357610100808354040283529160200191610ffe565b820191906000526020600020905b815481529060010190602001808311610fe157829003601f168201915b505050505090806003018054600181600116156101000203166002900480601f01602080910402602001604051908101604052809291908181526020018280546001816001161561010002031660029004801561109c5780601f106110715761010080835404028352916020019161109c565b820191906000526020600020905b81548152906001019060200180831161107f57829003601f168201915b5050505050905084565b6110ae6114c2565b1515611122576040517f08c379a00000000000000000000000000000000000000000000000000000000081526004018080602001828103825260208152602001807f4f776e61626c653a2063616c6c6572206973206e6f7420746865206f776e657281525060200191505060405180910390fd5b600060038481548110151561113357fe5b906000526020600020906004020190508281600201908051906020019061115b929190611d0d565b5081816003019080519060200190611174929190611d0d565b5050505050565b600460806040519081016040528083815260200160206040519081016040528060008152508152602001602060405190810160405280600081525081526020016020604051908101604052806000815250815250908060018154018082558091505090600182039060005260206000209060040201600090919290919091506000820151816000019080519060200190611216929190611d8d565b506020820151816001019080519060200190611233929190611d8d565b506040820151816002019080519060200190611250929190611d8d565b50606082015181600301908051906020019061126d929190611d8d565b5050505050565b60036080604051908101604052808481526020018381526020016020604051908101604052806000815250815260200160206040519081016040528060008152508152509080600181540180825580915050906001820390600052602060002090600402016000909192909190915060008201518160000190805190602001906112ff929190611d8d565b50602082015181600101908051906020019061131c929190611d8d565b506040820151816002019080519060200190611339929190611d8d565b506060820151816003019080519060200190611356929190611d8d565b505050505050565b6113666114c2565b15156113da576040517f08c379a00000000000000000000000000000000000000000000000000000000081526004018080602001828103825260208152602001807f4f776e61626c653a2063616c6c6572206973206e6f7420746865206f776e657281525060200191505060405180910390fd5b600073ffffffffffffffffffffffffffffffffffffffff166000809054906101000a900473ffffffffffffffffffffffffffffffffffffffff1673ffffffffffffffffffffffffffffffffffffffff167f8be0079c531659141344cd1fd0a4f28419497f9722a3daafe3b4186f6b6457e060405160405180910390a360008060006101000a81548173ffffffffffffffffffffffffffffffffffffffff021916908373ffffffffffffffffffffffffffffffffffffffff160217905550565b60008060009054906101000a900473ffffffffffffffffffffffffffffffffffffffff16905090565b60008060009054906101000a900473ffffffffffffffffffffffffffffffffffffffff1673ffffffffffffffffffffffffffffffffffffffff163373ffffffffffffffffffffffffffffffffffffffff1614905090565b60048181548110151561152857fe5b9060005260206000209060040201600091509050806000018054600181600116156101000203166002900480601f0160208091040260200160405190810160405280929190818152602001828054600181600116156101000203166002900480156115d45780601f106115a9576101008083540402835291602001916115d4565b820191906000526020600020905b8154815290600101906020018083116115b757829003601f168201915b505050505090806001018054600181600116156101000203166002900480601f0160208091040260200160405190810160405280929190818152602001828054600181600116156101000203166002900480156116725780601f1061164757610100808354040283529160200191611672565b820191906000526020600020905b81548152906001019060200180831161165557829003601f168201915b505050505090806002018054600181600116156101000203166002900480601f0160208091040260200160405190810160405280929190818152602001828054600181600116156101000203166002900480156117105780601f106116e557610100808354040283529160200191611710565b820191906000526020600020905b8154815290600101906020018083116116f357829003601f168201915b505050505090806003018054600181600116156101000203166002900480601f0160208091040260200160405190810160405280929190818152602001828054600181600116156101000203166002900480156117ae5780601f10611783576101008083540402835291602001916117ae565b820191906000526020600020905b81548152906001019060200180831161179157829003601f168201915b5050505050905084565b600160009054906101000a900473ffffffffffffffffffffffffffffffffffffffff1673ffffffffffffffffffffffffffffffffffffffff163373ffffffffffffffffffffffffffffffffffffffff1614151561181457600080fd5b8060028190555050565b6000600380549050905090565b600160009054906101000a900473ffffffffffffffffffffffffffffffffffffffff1681565b60025481565b60046080604051908101604052808481526020018381526020016020604051908101604052806000815250815260200160206040519081016040528060008152508152509080600181540180825580915050906001820390600052602060002090600402016000909192909190915060008201518160000190805190602001906118e2929190611d8d565b5060208201518160010190805190602001906118ff929190611d8d565b50604082015181600201908051906020019061191c929190611d8d565b506060820151816003019080519060200190611939929190611d8d565b505050505050565b600160009054906101000a900473ffffffffffffffffffffffffffffffffffffffff1673ffffffffffffffffffffffffffffffffffffffff163373ffffffffffffffffffffffffffffffffffffffff1614151561199d57600080fd5b60006004848154811015156119ae57fe5b90600052602060002090600402019050828160020190805190602001906119d6929190611d0d565b50818160030190805190602001906119ef929190611d0d565b5050505050565b600360806040519081016040528083815260200160206040519081016040528060008152508152602001602060405190810160405280600081525081526020016020604051908101604052806000815250815250908060018154018082558091505090600182039060005260206000209060040201600090919290919091506000820151816000019080519060200190611a91929190611d8d565b506020820151816001019080519060200190611aae929190611d8d565b506040820151816002019080519060200190611acb929190611d8d565b506060820151816003019080519060200190611ae8929190611d8d565b5050505050565b6000600480549050905090565b611b046114c2565b1515611b78576040517f08c379a00000000000000000000000000000000000000000000000000000000081526004018080602001828103825260208152602001807f4f776e61626c653a2063616c6c6572206973206e6f7420746865206f776e657281525060200191505060405180910390fd5b611b8181611b84565b50565b600073ffffffffffffffffffffffffffffffffffffffff168173ffffffffffffffffffffffffffffffffffffffff1614151515611c4f576040517f08c379a00000000000000000000000000000000000000000000000000000000081526004018080602001828103825260268152602001807f4f776e61626c653a206e6577206f776e657220697320746865207a65726f206181526020017f646472657373000000000000000000000000000000000000000000000000000081525060400191505060405180910390fd5b8073ffffffffffffffffffffffffffffffffffffffff166000809054906101000a900473ffffffffffffffffffffffffffffffffffffffff1673ffffffffffffffffffffffffffffffffffffffff167f8be0079c531659141344cd1fd0a4f28419497f9722a3daafe3b4186f6b6457e060405160405180910390a3806000806101000a81548173ffffffffffffffffffffffffffffffffffffffff021916908373ffffffffffffffffffffffffffffffffffffffff16021790555050565b828054600181600116156101000203166002900490600052602060002090601f016020900481019282601f10611d4e57805160ff1916838001178555611d7c565b82800160010185558215611d7c579182015b82811115611d7b578251825591602001919060010190611d60565b5b509050611d899190611e0d565b5090565b828054600181600116156101000203166002900490600052602060002090601f016020900481019282601f10611dce57805160ff1916838001178555611dfc565b82800160010185558215611dfc579182015b82811115611dfb578251825591602001919060010190611de0565b5b509050611e099190611e0d565b5090565b611e2f91905b80821115611e2b576000816000905550600101611e13565b5090565b9056fea165627a7a723058206c422a166f236f339d24a6941ed003fd131b3e1add5ac04fa985aaf2d5a600320029",
  "source": "pragma solidity >=0.4.23 <0.6.0;\n\nimport 'openzeppelin-solidity/contracts/ownership/Ownable.sol';\n\ncontract Bid is Ownable {\n  address public tenderer;\n  int public score;\n  Observation[] public observations;\n  Observation[] public scoreObservations;\n\n  struct Observation {\n    string plain;\n    string hash;\n    string resPlain;\n    string resHash;\n  }\n\n  constructor(address _tenderer) public {\n    tenderer = _tenderer;\n  }\n\n  modifier onlyTenderer() {\n    require(msg.sender == tenderer);\n    _;\n  }\n\n  function submitObservation(string memory _plain) public {\n    observations.push(Observation({plain: _plain, hash: \"\", resPlain: \"\", resHash: \"\"}));\n  }\n\n  function submitObservation(string memory _plain, string memory _hash) public {\n    observations.push(Observation({plain: _plain, hash: _hash, resPlain: \"\", resHash: \"\"}));\n  }\n\n  function getObservationsLength() public view returns(uint) {\n    return observations.length;\n  }\n\n  function respondObservation(uint _idx, string memory _plain, string memory _hash) public onlyOwner {\n    Observation storage obs = observations[_idx];\n    obs.resPlain = _plain;\n    obs.resHash = _hash;\n  }\n\n  function submitScoreObservation(string memory _plain) public {\n    scoreObservations.push(Observation({plain: _plain, hash: \"\", resPlain: \"\", resHash: \"\"}));\n  }\n\n  function submitScoreObservation(string memory _plain, string memory _hash) public {\n    scoreObservations.push(Observation({plain: _plain, hash: _hash, resPlain: \"\", resHash: \"\"}));\n  }\n\n  function getScoreObservationsLength() public view returns(uint) {\n    return scoreObservations.length;\n  }\n\n  function respondScoreObservation(uint _idx, string memory _plain, string memory _hash) public onlyTenderer {\n    Observation storage obs = scoreObservations[_idx];\n    obs.resPlain = _plain;\n    obs.resHash = _hash;\n  }\n\n  function setScore(int _score) public onlyTenderer {\n    score = _score;\n  }\n}\n",
  "sourcePath": "/home/lemartinp/Documents/contracts/contracts/Bid.sol",
  "compiler": {
    "name": "solc",
    "version": "0.5.0+commit.1d4f565a.Emscripten.clang"
  },
  "schemaVersion": "3.0.5",
  "updatedAt": "2019-10-22T17:00:51.320Z",
  "devdoc": {
    "methods": {
      "isOwner()": {
        "details": "Returns true if the caller is the current owner."
      },
      "owner()": {
        "details": "Returns the address of the current owner."
      },
      "renounceOwnership()": {
        "details": "Leaves the contract without owner. It will not be possible to call `onlyOwner` functions anymore. Can only be called by the current owner.     * > Note: Renouncing ownership will leave the contract without an owner, thereby removing any functionality that is only available to the owner."
      },
      "transferOwnership(address)": {
        "details": "Transfers ownership of the contract to a new account (`newOwner`). Can only be called by the current owner."
      }
    }
  },
  "userdoc": {
    "methods": {}
  }
}