{
  "contractName": "Tender",
  "abi": [
    {
      "constant": true,
      "inputs": [
        {
          "name": "",
          "type": "uint256"
        }
      ],
      "name": "messages",
      "outputs": [
        {
          "name": "",
          "type": "string"
        }
      ],
      "payable": false,
      "stateMutability": "view",
      "type": "function"
    },
    {
      "constant": true,
      "inputs": [
        {
          "name": "",
          "type": "uint256"
        }
      ],
      "name": "observations",
      "outputs": [
        {
          "name": "plain",
          "type": "string"
        },
        {
          "name": "hash",
          "type": "string"
        },
        {
          "name": "resPlain",
          "type": "string"
        },
        {
          "name": "resHash",
          "type": "string"
        }
      ],
      "payable": false,
      "stateMutability": "view",
      "type": "function"
    },
    {
      "constant": true,
      "inputs": [
        {
          "name": "",
          "type": "uint256"
        }
      ],
      "name": "bids",
      "outputs": [
        {
          "name": "",
          "type": "address"
        }
      ],
      "payable": false,
      "stateMutability": "view",
      "type": "function"
    },
    {
      "constant": true,
      "inputs": [
        {
          "name": "",
          "type": "uint256"
        }
      ],
      "name": "winnerObservations",
      "outputs": [
        {
          "name": "plain",
          "type": "string"
        },
        {
          "name": "hash",
          "type": "string"
        },
        {
          "name": "resPlain",
          "type": "string"
        },
        {
          "name": "resHash",
          "type": "string"
        }
      ],
      "payable": false,
      "stateMutability": "view",
      "type": "function"
    },
    {
      "constant": true,
      "inputs": [],
      "name": "biddingPeriod",
      "outputs": [
        {
          "name": "",
          "type": "bool"
        }
      ],
      "payable": false,
      "stateMutability": "view",
      "type": "function"
    },
    {
      "constant": false,
      "inputs": [],
      "name": "renounceOwnership",
      "outputs": [],
      "payable": false,
      "stateMutability": "nonpayable",
      "type": "function"
    },
    {
      "constant": true,
      "inputs": [],
      "name": "description",
      "outputs": [
        {
          "name": "",
          "type": "string"
        }
      ],
      "payable": false,
      "stateMutability": "view",
      "type": "function"
    },
    {
      "constant": true,
      "inputs": [],
      "name": "owner",
      "outputs": [
        {
          "name": "",
          "type": "address"
        }
      ],
      "payable": false,
      "stateMutability": "view",
      "type": "function"
    },
    {
      "constant": true,
      "inputs": [],
      "name": "isOwner",
      "outputs": [
        {
          "name": "",
          "type": "bool"
        }
      ],
      "payable": false,
      "stateMutability": "view",
      "type": "function"
    },
    {
      "constant": false,
      "inputs": [
        {
          "name": "newOwner",
          "type": "address"
        }
      ],
      "name": "transferOwnership",
      "outputs": [],
      "payable": false,
      "stateMutability": "nonpayable",
      "type": "function"
    },
    {
      "constant": true,
      "inputs": [],
      "name": "winningVendor",
      "outputs": [
        {
          "name": "",
          "type": "address"
        }
      ],
      "payable": false,
      "stateMutability": "view",
      "type": "function"
    },
    {
      "inputs": [],
      "payable": false,
      "stateMutability": "nonpayable",
      "type": "constructor"
    },
    {
      "anonymous": false,
      "inputs": [
        {
          "indexed": true,
          "name": "_owner",
          "type": "address"
        },
        {
          "indexed": false,
          "name": "_description",
          "type": "string"
        }
      ],
      "name": "TenderCreated",
      "type": "event"
    },
    {
      "anonymous": false,
      "inputs": [
        {
          "indexed": true,
          "name": "previousOwner",
          "type": "address"
        },
        {
          "indexed": true,
          "name": "newOwner",
          "type": "address"
        }
      ],
      "name": "OwnershipTransferred",
      "type": "event"
    },
    {
      "constant": false,
      "inputs": [
        {
          "name": "_plain",
          "type": "string"
        }
      ],
      "name": "submitObservation",
      "outputs": [],
      "payable": false,
      "stateMutability": "nonpayable",
      "type": "function"
    },
    {
      "constant": false,
      "inputs": [
        {
          "name": "_plain",
          "type": "string"
        },
        {
          "name": "_hash",
          "type": "string"
        }
      ],
      "name": "submitObservation",
      "outputs": [],
      "payable": false,
      "stateMutability": "nonpayable",
      "type": "function"
    },
    {
      "constant": false,
      "inputs": [
        {
          "name": "_idx",
          "type": "uint256"
        },
        {
          "name": "_plain",
          "type": "string"
        },
        {
          "name": "_hash",
          "type": "string"
        }
      ],
      "name": "respondObservation",
      "outputs": [],
      "payable": false,
      "stateMutability": "nonpayable",
      "type": "function"
    },
    {
      "constant": false,
      "inputs": [
        {
          "name": "_plain",
          "type": "string"
        }
      ],
      "name": "submitWinnerObservation",
      "outputs": [],
      "payable": false,
      "stateMutability": "nonpayable",
      "type": "function"
    },
    {
      "constant": false,
      "inputs": [
        {
          "name": "_plain",
          "type": "string"
        },
        {
          "name": "_hash",
          "type": "string"
        }
      ],
      "name": "submitWinnerObservation",
      "outputs": [],
      "payable": false,
      "stateMutability": "nonpayable",
      "type": "function"
    },
    {
      "constant": false,
      "inputs": [
        {
          "name": "_idx",
          "type": "uint256"
        },
        {
          "name": "_plain",
          "type": "string"
        },
        {
          "name": "_hash",
          "type": "string"
        }
      ],
      "name": "respondWinnerObservation",
      "outputs": [],
      "payable": false,
      "stateMutability": "nonpayable",
      "type": "function"
    },
    {
      "constant": true,
      "inputs": [],
      "name": "getObservationsLength",
      "outputs": [
        {
          "name": "",
          "type": "uint256"
        }
      ],
      "payable": false,
      "stateMutability": "view",
      "type": "function"
    },
    {
      "constant": false,
      "inputs": [
        {
          "name": "_message",
          "type": "string"
        }
      ],
      "name": "submitMessage",
      "outputs": [],
      "payable": false,
      "stateMutability": "nonpayable",
      "type": "function"
    },
    {
      "constant": true,
      "inputs": [],
      "name": "getMessagesLength",
      "outputs": [
        {
          "name": "",
          "type": "uint256"
        }
      ],
      "payable": false,
      "stateMutability": "view",
      "type": "function"
    },
    {
      "constant": true,
      "inputs": [],
      "name": "getWinnerObservationsLength",
      "outputs": [
        {
          "name": "",
          "type": "uint256"
        }
      ],
      "payable": false,
      "stateMutability": "view",
      "type": "function"
    },
    {
      "constant": false,
      "inputs": [],
      "name": "createBid",
      "outputs": [],
      "payable": false,
      "stateMutability": "nonpayable",
      "type": "function"
    },
    {
      "constant": true,
      "inputs": [],
      "name": "getBidsLength",
      "outputs": [
        {
          "name": "",
          "type": "uint256"
        }
      ],
      "payable": false,
      "stateMutability": "view",
      "type": "function"
    },
    {
      "constant": false,
      "inputs": [],
      "name": "startAuction",
      "outputs": [],
      "payable": false,
      "stateMutability": "nonpayable",
      "type": "function"
    },
    {
      "constant": false,
      "inputs": [],
      "name": "setWinningVendor",
      "outputs": [],
      "payable": false,
      "stateMutability": "nonpayable",
      "type": "function"
    }
  ],
  "bytecode": "0x60806040523480156200001157600080fd5b50336000806101000a81548173ffffffffffffffffffffffffffffffffffffffff021916908373ffffffffffffffffffffffffffffffffffffffff1602179055506000809054906101000a900473ffffffffffffffffffffffffffffffffffffffff1673ffffffffffffffffffffffffffffffffffffffff16600073ffffffffffffffffffffffffffffffffffffffff167f8be0079c531659141344cd1fd0a4f28419497f9722a3daafe3b4186f6b6457e060405160405180910390a36040805190810160405280600f81526020017f54656e64657220636f6e74726163740000000000000000000000000000000000815250600290805190602001906200011b92919062000212565b506000600360006101000a81548160ff0219169083151502179055503373ffffffffffffffffffffffffffffffffffffffff167f6bef222ff9e3d6c66b6a6430c3a81f86b81bd1c855771b79c71998c4765785f560026040518080602001828103825283818154600181600116156101000203166002900481526020019150805460018160011615610100020316600290048015620001fe5780601f10620001d257610100808354040283529160200191620001fe565b820191906000526020600020905b815481529060010190602001808311620001e057829003601f168201915b50509250505060405180910390a2620002c1565b828054600181600116156101000203166002900490600052602060002090601f016020900481019282601f106200025557805160ff191683800117855562000286565b8280016001018555821562000286579182015b828111156200028557825182559160200191906001019062000268565b5b50905062000295919062000299565b5090565b620002be91905b80821115620002ba576000816000905550600101620002a0565b5090565b90565b614ab280620002d16000396000f3fe608060405260043610610149576000357c0100000000000000000000000000000000000000000000000000000000900463ffffffff1680630d80fefd1461014e578063252c09d7146102025780632c519bc4146103fa5780633b02a268146105635780633bb32d54146106c25780634423c5f1146106ed57806345c02d5214610768578063486c968d146109605780635f8909bd14610ac957806361fd308514610af85780636b64c76914610c57578063708b34fe14610c6e578063715018a614610d365780637284e41614610d4d5780638362407414610ddd5780638da5cb5b14610df45780638f32d59b14610e4b578063acb79a2b14610e7a578063d715018014610e91578063d879914a14610ebc578063de32172e14610ee7578063de5dd4da14610f12578063f211128314610fda578063f2fde38b146110a2578063f5eecce2146110f3575b600080fd5b34801561015a57600080fd5b506101876004803603602081101561017157600080fd5b810190808035906020019092919050505061114a565b6040518080602001828103825283818151815260200191508051906020019080838360005b838110156101c75780820151818401526020810190506101ac565b50505050905090810190601f1680156101f45780820380516001836020036101000a031916815260200191505b509250505060405180910390f35b34801561020e57600080fd5b5061023b6004803603602081101561022557600080fd5b8101908080359060200190929190505050611205565b6040518080602001806020018060200180602001858103855289818151815260200191508051906020019080838360005b8381101561028757808201518184015260208101905061026c565b50505050905090810190601f1680156102b45780820380516001836020036101000a031916815260200191505b50858103845288818151815260200191508051906020019080838360005b838110156102ed5780820151818401526020810190506102d2565b50505050905090810190601f16801561031a5780820380516001836020036101000a031916815260200191505b50858103835287818151815260200191508051906020019080838360005b83811015610353578082015181840152602081019050610338565b50505050905090810190601f1680156103805780820380516001836020036101000a031916815260200191505b50858103825286818151815260200191508051906020019080838360005b838110156103b957808201518184015260208101905061039e565b50505050905090810190601f1680156103e65780820380516001836020036101000a031916815260200191505b509850505050505050505060405180910390f35b34801561040657600080fd5b506105616004803603606081101561041d57600080fd5b81019080803590602001909291908035906020019064010000000081111561044457600080fd5b82018360208201111561045657600080fd5b8035906020019184600183028401116401000000008311171561047857600080fd5b91908080601f016020809104026020016040519081016040528093929190818152602001838380828437600081840152601f19601f820116905080830192505050505050509192919290803590602001906401000000008111156104db57600080fd5b8201836020820111156104ed57600080fd5b8035906020019184600183028401116401000000008311171561050f57600080fd5b91908080601f016020809104026020016040519081016040528093929190818152602001838380828437600081840152601f19601f8201169050808301925050505050505091929192905050506114a4565b005b34801561056f57600080fd5b506106c06004803603604081101561058657600080fd5b81019080803590602001906401000000008111156105a357600080fd5b8201836020820111156105b557600080fd5b803590602001918460018302840111640100000000831117156105d757600080fd5b91908080601f016020809104026020016040519081016040528093929190818152602001838380828437600081840152601f19601f8201169050808301925050505050505091929192908035906020019064010000000081111561063a57600080fd5b82018360208201111561064c57600080fd5b8035906020019184600183028401116401000000008311171561066e57600080fd5b91908080601f016020809104026020016040519081016040528093929190818152602001838380828437600081840152601f19601f820116905080830192505050505050509192919290505050611579565b005b3480156106ce57600080fd5b506106d7611663565b6040518082815260200191505060405180910390f35b3480156106f957600080fd5b506107266004803603602081101561071057600080fd5b8101908080359060200190929190505050611670565b604051808273ffffffffffffffffffffffffffffffffffffffff1673ffffffffffffffffffffffffffffffffffffffff16815260200191505060405180910390f35b34801561077457600080fd5b506107a16004803603602081101561078b57600080fd5b81019080803590602001909291905050506116ae565b6040518080602001806020018060200180602001858103855289818151815260200191508051906020019080838360005b838110156107ed5780820151818401526020810190506107d2565b50505050905090810190601f16801561081a5780820380516001836020036101000a031916815260200191505b50858103845288818151815260200191508051906020019080838360005b83811015610853578082015181840152602081019050610838565b50505050905090810190601f1680156108805780820380516001836020036101000a031916815260200191505b50858103835287818151815260200191508051906020019080838360005b838110156108b957808201518184015260208101905061089e565b50505050905090810190601f1680156108e65780820380516001836020036101000a031916815260200191505b50858103825286818151815260200191508051906020019080838360005b8381101561091f578082015181840152602081019050610904565b50505050905090810190601f16801561094c5780820380516001836020036101000a031916815260200191505b509850505050505050505060405180910390f35b34801561096c57600080fd5b50610ac76004803603606081101561098357600080fd5b8101908080359060200190929190803590602001906401000000008111156109aa57600080fd5b8201836020820111156109bc57600080fd5b803590602001918460018302840111640100000000831117156109de57600080fd5b91908080601f016020809104026020016040519081016040528093929190818152602001838380828437600081840152601f19601f82011690508083019250505050505050919291929080359060200190640100000000811115610a4157600080fd5b820183602082011115610a5357600080fd5b80359060200191846001830284011164010000000083111715610a7557600080fd5b91908080601f016020809104026020016040519081016040528093929190818152602001838380828437600081840152601f19601f82011690508083019250505050505050919291929050505061194d565b005b348015610ad557600080fd5b50610ade611a22565b604051808215151515815260200191505060405180910390f35b348015610b0457600080fd5b50610c5560048036036040811015610b1b57600080fd5b8101908080359060200190640100000000811115610b3857600080fd5b820183602082011115610b4a57600080fd5b80359060200191846001830284011164010000000083111715610b6c57600080fd5b91908080601f016020809104026020016040519081016040528093929190818152602001838380828437600081840152601f19601f82011690508083019250505050505050919291929080359060200190640100000000811115610bcf57600080fd5b820183602082011115610be157600080fd5b80359060200191846001830284011164010000000083111715610c0357600080fd5b91908080601f016020809104026020016040519081016040528093929190818152602001838380828437600081840152601f19601f820116905080830192505050505050509192919290505050611a35565b005b348015610c6357600080fd5b50610c6c611b1f565b005b348015610c7a57600080fd5b50610d3460048036036020811015610c9157600080fd5b8101908080359060200190640100000000811115610cae57600080fd5b820183602082011115610cc057600080fd5b80359060200191846001830284011164010000000083111715610ce257600080fd5b91908080601f016020809104026020016040519081016040528093929190818152602001838380828437600081840152601f19601f820116905080830192505050505050509192919290505050611bb8565b005b348015610d4257600080fd5b50610d4b611bfa565b005b348015610d5957600080fd5b50610d62611d35565b6040518080602001828103825283818151815260200191508051906020019080838360005b83811015610da2578082015181840152602081019050610d87565b50505050905090810190601f168015610dcf5780820380516001836020036101000a031916815260200191505b509250505060405180910390f35b348015610de957600080fd5b50610df2611dd3565b005b348015610e0057600080fd5b50610e0961209d565b604051808273ffffffffffffffffffffffffffffffffffffffff1673ffffffffffffffffffffffffffffffffffffffff16815260200191505060405180910390f35b348015610e5757600080fd5b50610e606120c6565b604051808215151515815260200191505060405180910390f35b348015610e8657600080fd5b50610e8f61211d565b005b348015610e9d57600080fd5b50610ea6612355565b6040518082815260200191505060405180910390f35b348015610ec857600080fd5b50610ed1612362565b6040518082815260200191505060405180910390f35b348015610ef357600080fd5b50610efc61236f565b6040518082815260200191505060405180910390f35b348015610f1e57600080fd5b50610fd860048036036020811015610f3557600080fd5b8101908080359060200190640100000000811115610f5257600080fd5b820183602082011115610f6457600080fd5b80359060200191846001830284011164010000000083111715610f8657600080fd5b91908080601f016020809104026020016040519081016040528093929190818152602001838380828437600081840152601f19601f82011690508083019250505050505050919291929050505061237c565b005b348015610fe657600080fd5b506110a060048036036020811015610ffd57600080fd5b810190808035906020019064010000000081111561101a57600080fd5b82018360208201111561102c57600080fd5b8035906020019184600183028401116401000000008311171561104e57600080fd5b91908080601f016020809104026020016040519081016040528093929190818152602001838380828437600081840152601f19601f820116905080830192505050505050509192919290505050612475565b005b3480156110ae57600080fd5b506110f1600480360360208110156110c557600080fd5b81019080803573ffffffffffffffffffffffffffffffffffffffff16906020019092919050505061256e565b005b3480156110ff57600080fd5b506111086125f6565b604051808273ffffffffffffffffffffffffffffffffffffffff1673ffffffffffffffffffffffffffffffffffffffff16815260200191505060405180910390f35b60048181548110151561115957fe5b906000526020600020016000915090508054600181600116156101000203166002900480601f0160208091040260200160405190810160405280929190818152602001828054600181600116156101000203166002900480156111fd5780601f106111d2576101008083540402835291602001916111fd565b820191906000526020600020905b8154815290600101906020018083116111e057829003601f168201915b505050505081565b60058181548110151561121457fe5b9060005260206000209060040201600091509050806000018054600181600116156101000203166002900480601f0160208091040260200160405190810160405280929190818152602001828054600181600116156101000203166002900480156112c05780601f10611295576101008083540402835291602001916112c0565b820191906000526020600020905b8154815290600101906020018083116112a357829003601f168201915b505050505090806001018054600181600116156101000203166002900480601f01602080910402602001604051908101604052809291908181526020018280546001816001161561010002031660029004801561135e5780601f106113335761010080835404028352916020019161135e565b820191906000526020600020905b81548152906001019060200180831161134157829003601f168201915b505050505090806002018054600181600116156101000203166002900480601f0160208091040260200160405190810160405280929190818152602001828054600181600116156101000203166002900480156113fc5780601f106113d1576101008083540402835291602001916113fc565b820191906000526020600020905b8154815290600101906020018083116113df57829003601f168201915b505050505090806003018054600181600116156101000203166002900480601f01602080910402602001604051908101604052809291908181526020018280546001816001161561010002031660029004801561149a5780601f1061146f5761010080835404028352916020019161149a565b820191906000526020600020905b81548152906001019060200180831161147d57829003601f168201915b5050505050905084565b6114ac6120c6565b1515611520576040517f08c379a00000000000000000000000000000000000000000000000000000000081526004018080602001828103825260208152602001807f4f776e61626c653a2063616c6c6572206973206e6f7420746865206f776e657281525060200191505060405180910390fd5b600060058481548110151561153157fe5b90600052602060002090600402019050828160020190805190602001906115599291906129a5565b50818160030190805190602001906115729291906129a5565b5050505050565b6005608060405190810160405280848152602001838152602001602060405190810160405280600081525081526020016020604051908101604052806000815250815250908060018154018082558091505090600182039060005260206000209060040201600090919290919091506000820151816000019080519060200190611604929190612a25565b506020820151816001019080519060200190611621929190612a25565b50604082015181600201908051906020019061163e929190612a25565b50606082015181600301908051906020019061165b929190612a25565b505050505050565b6000600480549050905090565b60078181548110151561167f57fe5b906000526020600020016000915054906101000a900473ffffffffffffffffffffffffffffffffffffffff1681565b6006818154811015156116bd57fe5b9060005260206000209060040201600091509050806000018054600181600116156101000203166002900480601f0160208091040260200160405190810160405280929190818152602001828054600181600116156101000203166002900480156117695780601f1061173e57610100808354040283529160200191611769565b820191906000526020600020905b81548152906001019060200180831161174c57829003601f168201915b505050505090806001018054600181600116156101000203166002900480601f0160208091040260200160405190810160405280929190818152602001828054600181600116156101000203166002900480156118075780601f106117dc57610100808354040283529160200191611807565b820191906000526020600020905b8154815290600101906020018083116117ea57829003601f168201915b505050505090806002018054600181600116156101000203166002900480601f0160208091040260200160405190810160405280929190818152602001828054600181600116156101000203166002900480156118a55780601f1061187a576101008083540402835291602001916118a5565b820191906000526020600020905b81548152906001019060200180831161188857829003601f168201915b505050505090806003018054600181600116156101000203166002900480601f0160208091040260200160405190810160405280929190818152602001828054600181600116156101000203166002900480156119435780601f1061191857610100808354040283529160200191611943565b820191906000526020600020905b81548152906001019060200180831161192657829003601f168201915b5050505050905084565b6119556120c6565b15156119c9576040517f08c379a00000000000000000000000000000000000000000000000000000000081526004018080602001828103825260208152602001807f4f776e61626c653a2063616c6c6572206973206e6f7420746865206f776e657281525060200191505060405180910390fd5b60006006848154811015156119da57fe5b9060005260206000209060040201905082816002019080519060200190611a029291906129a5565b5081816003019080519060200190611a1b9291906129a5565b5050505050565b600360009054906101000a900460ff1681565b6006608060405190810160405280848152602001838152602001602060405190810160405280600081525081526020016020604051908101604052806000815250815250908060018154018082558091505090600182039060005260206000209060040201600090919290919091506000820151816000019080519060200190611ac0929190612a25565b506020820151816001019080519060200190611add929190612a25565b506040820151816002019080519060200190611afa929190612a25565b506060820151816003019080519060200190611b17929190612a25565b505050505050565b611b276120c6565b1515611b9b576040517f08c379a00000000000000000000000000000000000000000000000000000000081526004018080602001828103825260208152602001807f4f776e61626c653a2063616c6c6572206973206e6f7420746865206f776e657281525060200191505060405180910390fd5b6001600360006101000a81548160ff021916908315150217905550565b6004819080600181540180825580915050906001820390600052602060002001600090919290919091509080519060200190611bf59291906129a5565b505050565b611c026120c6565b1515611c76576040517f08c379a00000000000000000000000000000000000000000000000000000000081526004018080602001828103825260208152602001807f4f776e61626c653a2063616c6c6572206973206e6f7420746865206f776e657281525060200191505060405180910390fd5b600073ffffffffffffffffffffffffffffffffffffffff166000809054906101000a900473ffffffffffffffffffffffffffffffffffffffff1673ffffffffffffffffffffffffffffffffffffffff167f8be0079c531659141344cd1fd0a4f28419497f9722a3daafe3b4186f6b6457e060405160405180910390a360008060006101000a81548173ffffffffffffffffffffffffffffffffffffffff021916908373ffffffffffffffffffffffffffffffffffffffff160217905550565b60028054600181600116156101000203166002900480601f016020809104026020016040519081016040528092919081815260200182805460018160011615610100020316600290048015611dcb5780601f10611da057610100808354040283529160200191611dcb565b820191906000526020600020905b815481529060010190602001808311611dae57829003601f168201915b505050505081565b600360009054906101000a900460ff161515611e7d576040517f08c379a00000000000000000000000000000000000000000000000000000000081526004018080602001828103825260278152602001807f5468652062696464696e6720706572696f6420686173206e6f7420737461727481526020017f6564207965742e0000000000000000000000000000000000000000000000000081525060400191505060405180910390fd5b611e9133600161261c90919063ffffffff16565b151515611f06576040517f08c379a000000000000000000000000000000000000000000000000000000000815260040180806020018281038252601a8152602001807f56656e646f7220616c72656164792075706c6f6164206269642e00000000000081525060200191505060405180910390fd5b6000611f1061209d565b611f18612aa5565b808273ffffffffffffffffffffffffffffffffffffffff1673ffffffffffffffffffffffffffffffffffffffff168152602001915050604051809103906000f080158015611f6a573d6000803e3d6000fd5b5090508073ffffffffffffffffffffffffffffffffffffffff1663f2fde38b336040518263ffffffff167c0100000000000000000000000000000000000000000000000000000000028152600401808273ffffffffffffffffffffffffffffffffffffffff1673ffffffffffffffffffffffffffffffffffffffff168152602001915050600060405180830381600087803b15801561200857600080fd5b505af115801561201c573d6000803e3d6000fd5b5050505060078190806001815401808255809150509060018203906000526020600020016000909192909190916101000a81548173ffffffffffffffffffffffffffffffffffffffff021916908373ffffffffffffffffffffffffffffffffffffffff1602179055505061209a33600161273f90919063ffffffff16565b50565b60008060009054906101000a900473ffffffffffffffffffffffffffffffffffffffff16905090565b60008060009054906101000a900473ffffffffffffffffffffffffffffffffffffffff1673ffffffffffffffffffffffffffffffffffffffff163373ffffffffffffffffffffffffffffffffffffffff1614905090565b6121256120c6565b1515612199576040517f08c379a00000000000000000000000000000000000000000000000000000000081526004018080602001828103825260208152602001807f4f776e61626c653a2063616c6c6572206973206e6f7420746865206f776e657281525060200191505060405180910390fd5b600060078054905011151561223c576040517f08c379a00000000000000000000000000000000000000000000000000000000081526004018080602001828103825260398152602001807f54686520617265206e6f20706f737369626c652077696e6e6572732c2073696e81526020017f636520746865726520617265206e6f7420616e7920626964730000000000000081525060400191505060405180910390fd5b6007600081548110151561224c57fe5b9060005260206000200160009054906101000a900473ffffffffffffffffffffffffffffffffffffffff1673ffffffffffffffffffffffffffffffffffffffff16638da5cb5b6040518163ffffffff167c010000000000000000000000000000000000000000000000000000000002815260040160206040518083038186803b1580156122d857600080fd5b505afa1580156122ec573d6000803e3d6000fd5b505050506040513d602081101561230257600080fd5b8101908080519060200190929190505050600360016101000a81548173ffffffffffffffffffffffffffffffffffffffff021916908373ffffffffffffffffffffffffffffffffffffffff160217905550565b6000600580549050905090565b6000600780549050905090565b6000600680549050905090565b600660806040519081016040528083815260200160206040519081016040528060008152508152602001602060405190810160405280600081525081526020016020604051908101604052806000815250815250908060018154018082558091505090600182039060005260206000209060040201600090919290919091506000820151816000019080519060200190612417929190612a25565b506020820151816001019080519060200190612434929190612a25565b506040820151816002019080519060200190612451929190612a25565b50606082015181600301908051906020019061246e929190612a25565b5050505050565b600560806040519081016040528083815260200160206040519081016040528060008152508152602001602060405190810160405280600081525081526020016020604051908101604052806000815250815250908060018154018082558091505090600182039060005260206000209060040201600090919290919091506000820151816000019080519060200190612510929190612a25565b50602082015181600101908051906020019061252d929190612a25565b50604082015181600201908051906020019061254a929190612a25565b506060820151816003019080519060200190612567929190612a25565b5050505050565b6125766120c6565b15156125ea576040517f08c379a00000000000000000000000000000000000000000000000000000000081526004018080602001828103825260208152602001807f4f776e61626c653a2063616c6c6572206973206e6f7420746865206f776e657281525060200191505060405180910390fd5b6125f38161281c565b50565b600360019054906101000a900473ffffffffffffffffffffffffffffffffffffffff1681565b60008073ffffffffffffffffffffffffffffffffffffffff168273ffffffffffffffffffffffffffffffffffffffff16141515156126e8576040517f08c379a00000000000000000000000000000000000000000000000000000000081526004018080602001828103825260228152602001807f526f6c65733a206163636f756e7420697320746865207a65726f20616464726581526020017f737300000000000000000000000000000000000000000000000000000000000081525060400191505060405180910390fd5b8260000160008373ffffffffffffffffffffffffffffffffffffffff1673ffffffffffffffffffffffffffffffffffffffff16815260200190815260200160002060009054906101000a900460ff16905092915050565b612749828261261c565b1515156127be576040517f08c379a000000000000000000000000000000000000000000000000000000000815260040180806020018281038252601f8152602001807f526f6c65733a206163636f756e7420616c72656164792068617320726f6c650081525060200191505060405180910390fd5b60018260000160008373ffffffffffffffffffffffffffffffffffffffff1673ffffffffffffffffffffffffffffffffffffffff16815260200190815260200160002060006101000a81548160ff0219169083151502179055505050565b600073ffffffffffffffffffffffffffffffffffffffff168173ffffffffffffffffffffffffffffffffffffffff16141515156128e7576040517f08c379a00000000000000000000000000000000000000000000000000000000081526004018080602001828103825260268152602001807f4f776e61626c653a206e6577206f776e657220697320746865207a65726f206181526020017f646472657373000000000000000000000000000000000000000000000000000081525060400191505060405180910390fd5b8073ffffffffffffffffffffffffffffffffffffffff166000809054906101000a900473ffffffffffffffffffffffffffffffffffffffff1673ffffffffffffffffffffffffffffffffffffffff167f8be0079c531659141344cd1fd0a4f28419497f9722a3daafe3b4186f6b6457e060405160405180910390a3806000806101000a81548173ffffffffffffffffffffffffffffffffffffffff021916908373ffffffffffffffffffffffffffffffffffffffff16021790555050565b828054600181600116156101000203166002900490600052602060002090601f016020900481019282601f106129e657805160ff1916838001178555612a14565b82800160010185558215612a14579182015b82811115612a135782518255916020019190600101906129f8565b5b509050612a219190612ab5565b5090565b828054600181600116156101000203166002900490600052602060002090601f016020900481019282601f10612a6657805160ff1916838001178555612a94565b82800160010185558215612a94579182015b82811115612a93578251825591602001919060010190612a78565b5b509050612aa19190612ab5565b5090565b604051611fac80612adb83390190565b612ad791905b80821115612ad3576000816000905550600101612abb565b5090565b9056fe608060405234801561001057600080fd5b50604051602080611fac8339810180604052602081101561003057600080fd5b8101908080519060200190929190505050336000806101000a81548173ffffffffffffffffffffffffffffffffffffffff021916908373ffffffffffffffffffffffffffffffffffffffff1602179055506000809054906101000a900473ffffffffffffffffffffffffffffffffffffffff1673ffffffffffffffffffffffffffffffffffffffff16600073ffffffffffffffffffffffffffffffffffffffff167f8be0079c531659141344cd1fd0a4f28419497f9722a3daafe3b4186f6b6457e060405160405180910390a380600160006101000a81548173ffffffffffffffffffffffffffffffffffffffff021916908373ffffffffffffffffffffffffffffffffffffffff16021790555050611e5e8061014e6000396000f3fe6080604052600436106100f1576000357c0100000000000000000000000000000000000000000000000000000000900463ffffffff168063252c09d7146100f65780632c519bc4146102ee5780632ca5f37f146104575780633b02a2681461051f578063715018a61461067e5780638da5cb5b146106955780638f32d59b146106ec5780639986ab941461071b578063cae017d214610913578063d71501801461094e578063e7974fef14610979578063efedc669146109d0578063f07ee225146109fb578063f132617514610b5a578063f211128314610cc3578063f288f50514610d8b578063f2fde38b14610db6575b600080fd5b34801561010257600080fd5b5061012f6004803603602081101561011957600080fd5b8101908080359060200190929190505050610e07565b6040518080602001806020018060200180602001858103855289818151815260200191508051906020019080838360005b8381101561017b578082015181840152602081019050610160565b50505050905090810190601f1680156101a85780820380516001836020036101000a031916815260200191505b50858103845288818151815260200191508051906020019080838360005b838110156101e15780820151818401526020810190506101c6565b50505050905090810190601f16801561020e5780820380516001836020036101000a031916815260200191505b50858103835287818151815260200191508051906020019080838360005b8381101561024757808201518184015260208101905061022c565b50505050905090810190601f1680156102745780820380516001836020036101000a031916815260200191505b50858103825286818151815260200191508051906020019080838360005b838110156102ad578082015181840152602081019050610292565b50505050905090810190601f1680156102da5780820380516001836020036101000a031916815260200191505b509850505050505050505060405180910390f35b3480156102fa57600080fd5b506104556004803603606081101561031157600080fd5b81019080803590602001909291908035906020019064010000000081111561033857600080fd5b82018360208201111561034a57600080fd5b8035906020019184600183028401116401000000008311171561036c57600080fd5b91908080601f016020809104026020016040519081016040528093929190818152602001838380828437600081840152601f19601f820116905080830192505050505050509192919290803590602001906401000000008111156103cf57600080fd5b8201836020820111156103e157600080fd5b8035906020019184600183028401116401000000008311171561040357600080fd5b91908080601f016020809104026020016040519081016040528093929190818152602001838380828437600081840152601f19601f8201169050808301925050505050505091929192905050506110a6565b005b34801561046357600080fd5b5061051d6004803603602081101561047a57600080fd5b810190808035906020019064010000000081111561049757600080fd5b8201836020820111156104a957600080fd5b803590602001918460018302840111640100000000831117156104cb57600080fd5b91908080601f016020809104026020016040519081016040528093929190818152602001838380828437600081840152601f19601f82011690508083019250505050505050919291929050505061117b565b005b34801561052b57600080fd5b5061067c6004803603604081101561054257600080fd5b810190808035906020019064010000000081111561055f57600080fd5b82018360208201111561057157600080fd5b8035906020019184600183028401116401000000008311171561059357600080fd5b91908080601f016020809104026020016040519081016040528093929190818152602001838380828437600081840152601f19601f820116905080830192505050505050509192919290803590602001906401000000008111156105f657600080fd5b82018360208201111561060857600080fd5b8035906020019184600183028401116401000000008311171561062a57600080fd5b91908080601f016020809104026020016040519081016040528093929190818152602001838380828437600081840152601f19601f820116905080830192505050505050509192919290505050611274565b005b34801561068a57600080fd5b5061069361135e565b005b3480156106a157600080fd5b506106aa611499565b604051808273ffffffffffffffffffffffffffffffffffffffff1673ffffffffffffffffffffffffffffffffffffffff16815260200191505060405180910390f35b3480156106f857600080fd5b506107016114c2565b604051808215151515815260200191505060405180910390f35b34801561072757600080fd5b506107546004803603602081101561073e57600080fd5b8101908080359060200190929190505050611519565b6040518080602001806020018060200180602001858103855289818151815260200191508051906020019080838360005b838110156107a0578082015181840152602081019050610785565b50505050905090810190601f1680156107cd5780820380516001836020036101000a031916815260200191505b50858103845288818151815260200191508051906020019080838360005b838110156108065780820151818401526020810190506107eb565b50505050905090810190601f1680156108335780820380516001836020036101000a031916815260200191505b50858103835287818151815260200191508051906020019080838360005b8381101561086c578082015181840152602081019050610851565b50505050905090810190601f1680156108995780820380516001836020036101000a031916815260200191505b50858103825286818151815260200191508051906020019080838360005b838110156108d25780820151818401526020810190506108b7565b50505050905090810190601f1680156108ff5780820380516001836020036101000a031916815260200191505b509850505050505050505060405180910390f35b34801561091f57600080fd5b5061094c6004803603602081101561093657600080fd5b81019080803590602001909291905050506117b8565b005b34801561095a57600080fd5b5061096361181e565b6040518082815260200191505060405180910390f35b34801561098557600080fd5b5061098e61182b565b604051808273ffffffffffffffffffffffffffffffffffffffff1673ffffffffffffffffffffffffffffffffffffffff16815260200191505060405180910390f35b3480156109dc57600080fd5b506109e5611851565b6040518082815260200191505060405180910390f35b348015610a0757600080fd5b50610b5860048036036040811015610a1e57600080fd5b8101908080359060200190640100000000811115610a3b57600080fd5b820183602082011115610a4d57600080fd5b80359060200191846001830284011164010000000083111715610a6f57600080fd5b91908080601f016020809104026020016040519081016040528093929190818152602001838380828437600081840152601f19601f82011690508083019250505050505050919291929080359060200190640100000000811115610ad257600080fd5b820183602082011115610ae457600080fd5b80359060200191846001830284011164010000000083111715610b0657600080fd5b91908080601f016020809104026020016040519081016040528093929190818152602001838380828437600081840152601f19601f820116905080830192505050505050509192919290505050611857565b005b348015610b6657600080fd5b50610cc160048036036060811015610b7d57600080fd5b810190808035906020019092919080359060200190640100000000811115610ba457600080fd5b820183602082011115610bb657600080fd5b80359060200191846001830284011164010000000083111715610bd857600080fd5b91908080601f016020809104026020016040519081016040528093929190818152602001838380828437600081840152601f19601f82011690508083019250505050505050919291929080359060200190640100000000811115610c3b57600080fd5b820183602082011115610c4d57600080fd5b80359060200191846001830284011164010000000083111715610c6f57600080fd5b91908080601f016020809104026020016040519081016040528093929190818152602001838380828437600081840152601f19601f820116905080830192505050505050509192919290505050611941565b005b348015610ccf57600080fd5b50610d8960048036036020811015610ce657600080fd5b8101908080359060200190640100000000811115610d0357600080fd5b820183602082011115610d1557600080fd5b80359060200191846001830284011164010000000083111715610d3757600080fd5b91908080601f016020809104026020016040519081016040528093929190818152602001838380828437600081840152601f19601f8201169050808301925050505050505091929192905050506119f6565b005b348015610d9757600080fd5b50610da0611aef565b6040518082815260200191505060405180910390f35b348015610dc257600080fd5b50610e0560048036036020811015610dd957600080fd5b81019080803573ffffffffffffffffffffffffffffffffffffffff169060200190929190505050611afc565b005b600381815481101515610e1657fe5b9060005260206000209060040201600091509050806000018054600181600116156101000203166002900480601f016020809104026020016040519081016040528092919081815260200182805460018160011615610100020316600290048015610ec25780601f10610e9757610100808354040283529160200191610ec2565b820191906000526020600020905b815481529060010190602001808311610ea557829003601f168201915b505050505090806001018054600181600116156101000203166002900480601f016020809104026020016040519081016040528092919081815260200182805460018160011615610100020316600290048015610f605780601f10610f3557610100808354040283529160200191610f60565b820191906000526020600020905b815481529060010190602001808311610f4357829003601f168201915b505050505090806002018054600181600116156101000203166002900480601f016020809104026020016040519081016040528092919081815260200182805460018160011615610100020316600290048015610ffe5780601f10610fd357610100808354040283529160200191610ffe565b820191906000526020600020905b815481529060010190602001808311610fe157829003601f168201915b505050505090806003018054600181600116156101000203166002900480601f01602080910402602001604051908101604052809291908181526020018280546001816001161561010002031660029004801561109c5780601f106110715761010080835404028352916020019161109c565b820191906000526020600020905b81548152906001019060200180831161107f57829003601f168201915b5050505050905084565b6110ae6114c2565b1515611122576040517f08c379a00000000000000000000000000000000000000000000000000000000081526004018080602001828103825260208152602001807f4f776e61626c653a2063616c6c6572206973206e6f7420746865206f776e657281525060200191505060405180910390fd5b600060038481548110151561113357fe5b906000526020600020906004020190508281600201908051906020019061115b929190611d0d565b5081816003019080519060200190611174929190611d0d565b5050505050565b600460806040519081016040528083815260200160206040519081016040528060008152508152602001602060405190810160405280600081525081526020016020604051908101604052806000815250815250908060018154018082558091505090600182039060005260206000209060040201600090919290919091506000820151816000019080519060200190611216929190611d8d565b506020820151816001019080519060200190611233929190611d8d565b506040820151816002019080519060200190611250929190611d8d565b50606082015181600301908051906020019061126d929190611d8d565b5050505050565b60036080604051908101604052808481526020018381526020016020604051908101604052806000815250815260200160206040519081016040528060008152508152509080600181540180825580915050906001820390600052602060002090600402016000909192909190915060008201518160000190805190602001906112ff929190611d8d565b50602082015181600101908051906020019061131c929190611d8d565b506040820151816002019080519060200190611339929190611d8d565b506060820151816003019080519060200190611356929190611d8d565b505050505050565b6113666114c2565b15156113da576040517f08c379a00000000000000000000000000000000000000000000000000000000081526004018080602001828103825260208152602001807f4f776e61626c653a2063616c6c6572206973206e6f7420746865206f776e657281525060200191505060405180910390fd5b600073ffffffffffffffffffffffffffffffffffffffff166000809054906101000a900473ffffffffffffffffffffffffffffffffffffffff1673ffffffffffffffffffffffffffffffffffffffff167f8be0079c531659141344cd1fd0a4f28419497f9722a3daafe3b4186f6b6457e060405160405180910390a360008060006101000a81548173ffffffffffffffffffffffffffffffffffffffff021916908373ffffffffffffffffffffffffffffffffffffffff160217905550565b60008060009054906101000a900473ffffffffffffffffffffffffffffffffffffffff16905090565b60008060009054906101000a900473ffffffffffffffffffffffffffffffffffffffff1673ffffffffffffffffffffffffffffffffffffffff163373ffffffffffffffffffffffffffffffffffffffff1614905090565b60048181548110151561152857fe5b9060005260206000209060040201600091509050806000018054600181600116156101000203166002900480601f0160208091040260200160405190810160405280929190818152602001828054600181600116156101000203166002900480156115d45780601f106115a9576101008083540402835291602001916115d4565b820191906000526020600020905b8154815290600101906020018083116115b757829003601f168201915b505050505090806001018054600181600116156101000203166002900480601f0160208091040260200160405190810160405280929190818152602001828054600181600116156101000203166002900480156116725780601f1061164757610100808354040283529160200191611672565b820191906000526020600020905b81548152906001019060200180831161165557829003601f168201915b505050505090806002018054600181600116156101000203166002900480601f0160208091040260200160405190810160405280929190818152602001828054600181600116156101000203166002900480156117105780601f106116e557610100808354040283529160200191611710565b820191906000526020600020905b8154815290600101906020018083116116f357829003601f168201915b505050505090806003018054600181600116156101000203166002900480601f0160208091040260200160405190810160405280929190818152602001828054600181600116156101000203166002900480156117ae5780601f10611783576101008083540402835291602001916117ae565b820191906000526020600020905b81548152906001019060200180831161179157829003601f168201915b5050505050905084565b600160009054906101000a900473ffffffffffffffffffffffffffffffffffffffff1673ffffffffffffffffffffffffffffffffffffffff163373ffffffffffffffffffffffffffffffffffffffff1614151561181457600080fd5b8060028190555050565b6000600380549050905090565b600160009054906101000a900473ffffffffffffffffffffffffffffffffffffffff1681565b60025481565b60046080604051908101604052808481526020018381526020016020604051908101604052806000815250815260200160206040519081016040528060008152508152509080600181540180825580915050906001820390600052602060002090600402016000909192909190915060008201518160000190805190602001906118e2929190611d8d565b5060208201518160010190805190602001906118ff929190611d8d565b50604082015181600201908051906020019061191c929190611d8d565b506060820151816003019080519060200190611939929190611d8d565b505050505050565b600160009054906101000a900473ffffffffffffffffffffffffffffffffffffffff1673ffffffffffffffffffffffffffffffffffffffff163373ffffffffffffffffffffffffffffffffffffffff1614151561199d57600080fd5b60006004848154811015156119ae57fe5b90600052602060002090600402019050828160020190805190602001906119d6929190611d0d565b50818160030190805190602001906119ef929190611d0d565b5050505050565b600360806040519081016040528083815260200160206040519081016040528060008152508152602001602060405190810160405280600081525081526020016020604051908101604052806000815250815250908060018154018082558091505090600182039060005260206000209060040201600090919290919091506000820151816000019080519060200190611a91929190611d8d565b506020820151816001019080519060200190611aae929190611d8d565b506040820151816002019080519060200190611acb929190611d8d565b506060820151816003019080519060200190611ae8929190611d8d565b5050505050565b6000600480549050905090565b611b046114c2565b1515611b78576040517f08c379a00000000000000000000000000000000000000000000000000000000081526004018080602001828103825260208152602001807f4f776e61626c653a2063616c6c6572206973206e6f7420746865206f776e657281525060200191505060405180910390fd5b611b8181611b84565b50565b600073ffffffffffffffffffffffffffffffffffffffff168173ffffffffffffffffffffffffffffffffffffffff1614151515611c4f576040517f08c379a00000000000000000000000000000000000000000000000000000000081526004018080602001828103825260268152602001807f4f776e61626c653a206e6577206f776e657220697320746865207a65726f206181526020017f646472657373000000000000000000000000000000000000000000000000000081525060400191505060405180910390fd5b8073ffffffffffffffffffffffffffffffffffffffff166000809054906101000a900473ffffffffffffffffffffffffffffffffffffffff1673ffffffffffffffffffffffffffffffffffffffff167f8be0079c531659141344cd1fd0a4f28419497f9722a3daafe3b4186f6b6457e060405160405180910390a3806000806101000a81548173ffffffffffffffffffffffffffffffffffffffff021916908373ffffffffffffffffffffffffffffffffffffffff16021790555050565b828054600181600116156101000203166002900490600052602060002090601f016020900481019282601f10611d4e57805160ff1916838001178555611d7c565b82800160010185558215611d7c579182015b82811115611d7b578251825591602001919060010190611d60565b5b509050611d899190611e0d565b5090565b828054600181600116156101000203166002900490600052602060002090601f016020900481019282601f10611dce57805160ff1916838001178555611dfc565b82800160010185558215611dfc579182015b82811115611dfb578251825591602001919060010190611de0565b5b509050611e099190611e0d565b5090565b611e2f91905b80821115611e2b576000816000905550600101611e13565b5090565b9056fea165627a7a723058203b043260bb9291ebf1b466a5b0c429fa941921f0c8ce435e74bad4b424b684c60029a165627a7a72305820ea68c8d34d83a98a87e5f5b029c3862fa68704ee889635308e08bbf44b39c4f70029",
  "source": "pragma solidity >=0.4.23 <0.6.0;\n\nimport 'openzeppelin-solidity/contracts/ownership/Ownable.sol';\nimport 'openzeppelin-solidity/contracts/access/Roles.sol';\nimport 'contracts/Bid.sol';\n\ncontract Tender is Ownable {\n  using Roles for Roles.Role;\n\n  Roles.Role private vendors;\n\n  string public description;\n  bool public biddingPeriod;\n  address public winningVendor;\n  string[] public messages;\n  Observation[] public observations;\n  Observation[] public winnerObservations;\n  Bid[] public bids;\n\n  event TenderCreated(address indexed _owner, string _description);\n\n  struct Observation {\n    string plain;\n    string hash;\n    string resPlain;\n    string resHash;\n  }\n\n  constructor() public {\n    description = \"Tender contract\";\n    biddingPeriod = false;\n    emit TenderCreated(msg.sender, description);\n  }\n\n  function submitObservation(string memory _plain) public {\n    observations.push(Observation({plain: _plain, hash: \"\", resPlain: \"\", resHash: \"\"}));\n  }\n\n  function submitObservation(string memory _plain, string memory _hash) public {\n    observations.push(Observation({plain: _plain, hash: _hash, resPlain: \"\", resHash: \"\"}));\n  }\n\n  function respondObservation(uint _idx, string memory _plain, string memory _hash) public onlyOwner {\n    Observation storage obs = observations[_idx];\n    obs.resPlain = _plain;\n    obs.resHash = _hash;\n  }\n\n  function submitWinnerObservation(string memory _plain) public {\n    winnerObservations.push(Observation({plain: _plain, hash: \"\", resPlain: \"\", resHash: \"\"}));\n  }\n\n  function submitWinnerObservation(string memory _plain, string memory _hash) public {\n    winnerObservations.push(Observation({plain: _plain, hash: _hash, resPlain: \"\", resHash: \"\"}));\n  }\n\n  function respondWinnerObservation(uint _idx, string memory _plain, string memory _hash) public onlyOwner {\n    Observation storage obs = winnerObservations[_idx];\n    obs.resPlain = _plain;\n    obs.resHash = _hash;\n  }\n\n  function getObservationsLength() public view returns(uint) {\n    return observations.length;\n  }\n\n  function submitMessage(string memory _message) public {\n    messages.push(_message);\n  }\n\n  function getMessagesLength() public view returns(uint) {\n    return messages.length;\n  }\n\n\n  function getWinnerObservationsLength() public view returns(uint) {\n    return winnerObservations.length;\n  }\n\n  function createBid() public {\n    require(biddingPeriod,\"The bidding period has not started yet.\");\n    require(!vendors.has(msg.sender), \"Vendor already upload bid.\");\n    Bid bid = new Bid(owner());\n    bid.transferOwnership(msg.sender);\n    bids.push(bid);\n    vendors.add(msg.sender);\n  }\n\n  function getBidsLength() public view returns(uint) {\n    return bids.length;\n  }\n\n  function startAuction() public onlyOwner {\n    biddingPeriod = true;\n  }\n  function setWinningVendor() public onlyOwner {\n    require(bids.length > 0, \"The are no possible winners, since there are not any bids\");\n    winningVendor = bids[0].owner();\n  }\n}\n",
  "sourcePath": "/home/lemartinp/Documents/contracts/contracts/Tender.sol",
  "compiler": {
    "name": "solc",
    "version": "0.5.0+commit.1d4f565a.Emscripten.clang"
  },
  "schemaVersion": "3.0.5",
  "updatedAt": "2019-10-22T17:00:51.325Z",
  "devdoc": {
    "methods": {
      "isOwner()": {
        "details": "Returns true if the caller is the current owner."
      },
      "owner()": {
        "details": "Returns the address of the current owner."
      },
      "renounceOwnership()": {
        "details": "Leaves the contract without owner. It will not be possible to call `onlyOwner` functions anymore. Can only be called by the current owner.     * > Note: Renouncing ownership will leave the contract without an owner, thereby removing any functionality that is only available to the owner."
      },
      "transferOwnership(address)": {
        "details": "Transfers ownership of the contract to a new account (`newOwner`). Can only be called by the current owner."
      }
    }
  },
  "userdoc": {
    "methods": {}
  }
}