{
  "contractName": "Tender",
  "abi": [
    {
      "inputs": [
        {
          "internalType": "uint256",
          "name": "_number",
          "type": "uint256"
        },
        {
          "internalType": "uint256",
          "name": "_basePrice",
          "type": "uint256"
        },
        {
          "internalType": "string",
          "name": "_office",
          "type": "string"
        },
        {
          "internalType": "string",
          "name": "_name",
          "type": "string"
        },
        {
          "internalType": "string",
          "name": "_description",
          "type": "string"
        },
        {
          "internalType": "string",
          "name": "_procedureTeam",
          "type": "string"
        },
        {
          "internalType": "bytes17[]",
          "name": "_publicKey",
          "type": "bytes17[]"
        },
        {
          "internalType": "bytes32[]",
          "name": "_ipfsHashes",
          "type": "bytes32[]"
        },
        {
          "internalType": "uint256[]",
          "name": "_scheduleDates",
          "type": "uint256[]"
        },
        {
          "internalType": "uint256[]",
          "name": "_unspsc",
          "type": "uint256[]"
        },
        {
          "internalType": "uint256[]",
          "name": "_contractInfo",
          "type": "uint256[]"
        },
        {
          "internalType": "uint256[]",
          "name": "_generalInfoValues",
          "type": "uint256[]"
        },
        {
          "internalType": "bool[]",
          "name": "_generalInfoFlags",
          "type": "bool[]"
        }
      ],
      "payable": false,
      "stateMutability": "nonpayable",
      "type": "constructor"
    },
    {
      "anonymous": false,
      "inputs": [
        {
          "indexed": true,
          "internalType": "address",
          "name": "previousOwner",
          "type": "address"
        },
        {
          "indexed": true,
          "internalType": "address",
          "name": "newOwner",
          "type": "address"
        }
      ],
      "name": "OwnershipTransferred",
      "type": "event"
    },
    {
      "anonymous": false,
      "inputs": [
        {
          "indexed": true,
          "internalType": "address",
          "name": "_owner",
          "type": "address"
        },
        {
          "indexed": false,
          "internalType": "string",
          "name": "_name",
          "type": "string"
        }
      ],
      "name": "TenderCreated",
      "type": "event"
    },
    {
      "constant": true,
      "inputs": [],
      "name": "basePrice",
      "outputs": [
        {
          "internalType": "uint256",
          "name": "",
          "type": "uint256"
        }
      ],
      "payable": false,
      "stateMutability": "view",
      "type": "function"
    },
    {
      "constant": true,
      "inputs": [],
      "name": "biddingPeriod",
      "outputs": [
        {
          "internalType": "bool",
          "name": "",
          "type": "bool"
        }
      ],
      "payable": false,
      "stateMutability": "view",
      "type": "function"
    },
    {
      "constant": true,
      "inputs": [
        {
          "internalType": "uint256",
          "name": "",
          "type": "uint256"
        }
      ],
      "name": "contractInfo",
      "outputs": [
        {
          "internalType": "uint256",
          "name": "",
          "type": "uint256"
        }
      ],
      "payable": false,
      "stateMutability": "view",
      "type": "function"
    },
    {
      "constant": true,
      "inputs": [],
      "name": "description",
      "outputs": [
        {
          "internalType": "string",
          "name": "",
          "type": "string"
        }
      ],
      "payable": false,
      "stateMutability": "view",
      "type": "function"
    },
    {
      "constant": true,
      "inputs": [
        {
          "internalType": "uint256",
          "name": "",
          "type": "uint256"
        }
      ],
      "name": "generalInfoFlags",
      "outputs": [
        {
          "internalType": "bool",
          "name": "",
          "type": "bool"
        }
      ],
      "payable": false,
      "stateMutability": "view",
      "type": "function"
    },
    {
      "constant": true,
      "inputs": [
        {
          "internalType": "uint256",
          "name": "",
          "type": "uint256"
        }
      ],
      "name": "generalInfoValues",
      "outputs": [
        {
          "internalType": "uint256",
          "name": "",
          "type": "uint256"
        }
      ],
      "payable": false,
      "stateMutability": "view",
      "type": "function"
    },
    {
      "constant": true,
      "inputs": [
        {
          "internalType": "uint256",
          "name": "",
          "type": "uint256"
        }
      ],
      "name": "ipfsHashes",
      "outputs": [
        {
          "internalType": "bytes32",
          "name": "",
          "type": "bytes32"
        }
      ],
      "payable": false,
      "stateMutability": "view",
      "type": "function"
    },
    {
      "constant": true,
      "inputs": [],
      "name": "isOwner",
      "outputs": [
        {
          "internalType": "bool",
          "name": "",
          "type": "bool"
        }
      ],
      "payable": false,
      "stateMutability": "view",
      "type": "function"
    },
    {
      "constant": true,
      "inputs": [
        {
          "internalType": "uint256",
          "name": "",
          "type": "uint256"
        }
      ],
      "name": "messages",
      "outputs": [
        {
          "internalType": "string",
          "name": "",
          "type": "string"
        }
      ],
      "payable": false,
      "stateMutability": "view",
      "type": "function"
    },
    {
      "constant": true,
      "inputs": [],
      "name": "name",
      "outputs": [
        {
          "internalType": "string",
          "name": "",
          "type": "string"
        }
      ],
      "payable": false,
      "stateMutability": "view",
      "type": "function"
    },
    {
      "constant": true,
      "inputs": [],
      "name": "number",
      "outputs": [
        {
          "internalType": "uint256",
          "name": "",
          "type": "uint256"
        }
      ],
      "payable": false,
      "stateMutability": "view",
      "type": "function"
    },
    {
      "constant": true,
      "inputs": [
        {
          "internalType": "uint256",
          "name": "",
          "type": "uint256"
        }
      ],
      "name": "observations",
      "outputs": [
        {
          "internalType": "string",
          "name": "plain",
          "type": "string"
        },
        {
          "internalType": "string",
          "name": "hash",
          "type": "string"
        },
        {
          "internalType": "string",
          "name": "resPlain",
          "type": "string"
        },
        {
          "internalType": "string",
          "name": "resHash",
          "type": "string"
        }
      ],
      "payable": false,
      "stateMutability": "view",
      "type": "function"
    },
    {
      "constant": true,
      "inputs": [],
      "name": "office",
      "outputs": [
        {
          "internalType": "string",
          "name": "",
          "type": "string"
        }
      ],
      "payable": false,
      "stateMutability": "view",
      "type": "function"
    },
    {
      "constant": true,
      "inputs": [],
      "name": "owner",
      "outputs": [
        {
          "internalType": "address",
          "name": "",
          "type": "address"
        }
      ],
      "payable": false,
      "stateMutability": "view",
      "type": "function"
    },
    {
      "constant": true,
      "inputs": [],
      "name": "procedureTeam",
      "outputs": [
        {
          "internalType": "string",
          "name": "",
          "type": "string"
        }
      ],
      "payable": false,
      "stateMutability": "view",
      "type": "function"
    },
    {
      "constant": true,
      "inputs": [],
      "name": "publicKey",
      "outputs": [
        {
          "internalType": "bytes17",
          "name": "r",
          "type": "bytes17"
        },
        {
          "internalType": "bytes17",
          "name": "s",
          "type": "bytes17"
        }
      ],
      "payable": false,
      "stateMutability": "view",
      "type": "function"
    },
    {
      "constant": false,
      "inputs": [],
      "name": "renounceOwnership",
      "outputs": [],
      "payable": false,
      "stateMutability": "nonpayable",
      "type": "function"
    },
    {
      "constant": true,
      "inputs": [
        {
          "internalType": "uint256",
          "name": "",
          "type": "uint256"
        }
      ],
      "name": "scheduleDates",
      "outputs": [
        {
          "internalType": "uint256",
          "name": "",
          "type": "uint256"
        }
      ],
      "payable": false,
      "stateMutability": "view",
      "type": "function"
    },
    {
      "constant": false,
      "inputs": [
        {
          "internalType": "address",
          "name": "newOwner",
          "type": "address"
        }
      ],
      "name": "transferOwnership",
      "outputs": [],
      "payable": false,
      "stateMutability": "nonpayable",
      "type": "function"
    },
    {
      "constant": true,
      "inputs": [
        {
          "internalType": "uint256",
          "name": "",
          "type": "uint256"
        }
      ],
      "name": "unspsc",
      "outputs": [
        {
          "internalType": "uint256",
          "name": "",
          "type": "uint256"
        }
      ],
      "payable": false,
      "stateMutability": "view",
      "type": "function"
    },
    {
      "constant": true,
      "inputs": [
        {
          "internalType": "uint256",
          "name": "",
          "type": "uint256"
        }
      ],
      "name": "winnerObservations",
      "outputs": [
        {
          "internalType": "string",
          "name": "plain",
          "type": "string"
        },
        {
          "internalType": "string",
          "name": "hash",
          "type": "string"
        },
        {
          "internalType": "string",
          "name": "resPlain",
          "type": "string"
        },
        {
          "internalType": "string",
          "name": "resHash",
          "type": "string"
        }
      ],
      "payable": false,
      "stateMutability": "view",
      "type": "function"
    },
    {
      "constant": true,
      "inputs": [],
      "name": "winningVendor",
      "outputs": [
        {
          "internalType": "address",
          "name": "",
          "type": "address"
        }
      ],
      "payable": false,
      "stateMutability": "view",
      "type": "function"
    },
    {
      "constant": false,
      "inputs": [
        {
          "internalType": "string",
          "name": "_plain",
          "type": "string"
        },
        {
          "internalType": "string",
          "name": "_hash",
          "type": "string"
        }
      ],
      "name": "submitObservation",
      "outputs": [],
      "payable": false,
      "stateMutability": "nonpayable",
      "type": "function"
    },
    {
      "constant": false,
      "inputs": [
        {
          "internalType": "string",
          "name": "_plain",
          "type": "string"
        }
      ],
      "name": "submitObservation",
      "outputs": [],
      "payable": false,
      "stateMutability": "nonpayable",
      "type": "function"
    },
    {
      "constant": false,
      "inputs": [
        {
          "internalType": "uint256",
          "name": "_idx",
          "type": "uint256"
        },
        {
          "internalType": "string",
          "name": "_plain",
          "type": "string"
        },
        {
          "internalType": "string",
          "name": "_hash",
          "type": "string"
        }
      ],
      "name": "respondObservation",
      "outputs": [],
      "payable": false,
      "stateMutability": "nonpayable",
      "type": "function"
    },
    {
      "constant": false,
      "inputs": [
        {
          "internalType": "string",
          "name": "_plain",
          "type": "string"
        }
      ],
      "name": "submitWinnerObservation",
      "outputs": [],
      "payable": false,
      "stateMutability": "nonpayable",
      "type": "function"
    },
    {
      "constant": false,
      "inputs": [
        {
          "internalType": "string",
          "name": "_plain",
          "type": "string"
        },
        {
          "internalType": "string",
          "name": "_hash",
          "type": "string"
        }
      ],
      "name": "submitWinnerObservation",
      "outputs": [],
      "payable": false,
      "stateMutability": "nonpayable",
      "type": "function"
    },
    {
      "constant": false,
      "inputs": [
        {
          "internalType": "uint256",
          "name": "_idx",
          "type": "uint256"
        },
        {
          "internalType": "string",
          "name": "_plain",
          "type": "string"
        },
        {
          "internalType": "string",
          "name": "_hash",
          "type": "string"
        }
      ],
      "name": "respondWinnerObservation",
      "outputs": [],
      "payable": false,
      "stateMutability": "nonpayable",
      "type": "function"
    },
    {
      "constant": true,
      "inputs": [],
      "name": "getObservationsLength",
      "outputs": [
        {
          "internalType": "uint256",
          "name": "",
          "type": "uint256"
        }
      ],
      "payable": false,
      "stateMutability": "view",
      "type": "function"
    },
    {
      "constant": false,
      "inputs": [
        {
          "internalType": "string",
          "name": "_message",
          "type": "string"
        }
      ],
      "name": "submitMessage",
      "outputs": [],
      "payable": false,
      "stateMutability": "nonpayable",
      "type": "function"
    },
    {
      "constant": true,
      "inputs": [],
      "name": "getMessagesLength",
      "outputs": [
        {
          "internalType": "uint256",
          "name": "",
          "type": "uint256"
        }
      ],
      "payable": false,
      "stateMutability": "view",
      "type": "function"
    },
    {
      "constant": true,
      "inputs": [],
      "name": "getWinnerObservationsLength",
      "outputs": [
        {
          "internalType": "uint256",
          "name": "",
          "type": "uint256"
        }
      ],
      "payable": false,
      "stateMutability": "view",
      "type": "function"
    },
    {
      "constant": false,
      "inputs": [],
      "name": "startAuction",
      "outputs": [],
      "payable": false,
      "stateMutability": "nonpayable",
      "type": "function"
    }
  ],
  "bytecode": "0x60806040523480156200001157600080fd5b50604051620036503803806200365083398181016040526101a08110156200003857600080fd5b810190808051906020019092919080519060200190929190805160405193929190846401000000008211156200006d57600080fd5b838201915060208201858111156200008457600080fd5b8251866001820283011164010000000082111715620000a257600080fd5b8083526020830192505050908051906020019080838360005b83811015620000d8578082015181840152602081019050620000bb565b50505050905090810190601f168015620001065780820380516001836020036101000a031916815260200191505b50604052602001805160405193929190846401000000008211156200012a57600080fd5b838201915060208201858111156200014157600080fd5b82518660018202830111640100000000821117156200015f57600080fd5b8083526020830192505050908051906020019080838360005b838110156200019557808201518184015260208101905062000178565b50505050905090810190601f168015620001c35780820380516001836020036101000a031916815260200191505b5060405260200180516040519392919084640100000000821115620001e757600080fd5b83820191506020820185811115620001fe57600080fd5b82518660018202830111640100000000821117156200021c57600080fd5b8083526020830192505050908051906020019080838360005b838110156200025257808201518184015260208101905062000235565b50505050905090810190601f168015620002805780820380516001836020036101000a031916815260200191505b5060405260200180516040519392919084640100000000821115620002a457600080fd5b83820191506020820185811115620002bb57600080fd5b8251866001820283011164010000000082111715620002d957600080fd5b8083526020830192505050908051906020019080838360005b838110156200030f578082015181840152602081019050620002f2565b50505050905090810190601f1680156200033d5780820380516001836020036101000a031916815260200191505b50604052602001805160405193929190846401000000008211156200036157600080fd5b838201915060208201858111156200037857600080fd5b82518660208202830111640100000000821117156200039657600080fd5b8083526020830192505050908051906020019060200280838360005b83811015620003cf578082015181840152602081019050620003b2565b5050505090500160405260200180516040519392919084640100000000821115620003f957600080fd5b838201915060208201858111156200041057600080fd5b82518660208202830111640100000000821117156200042e57600080fd5b8083526020830192505050908051906020019060200280838360005b83811015620004675780820151818401526020810190506200044a565b50505050905001604052602001805160405193929190846401000000008211156200049157600080fd5b83820191506020820185811115620004a857600080fd5b8251866020820283011164010000000082111715620004c657600080fd5b8083526020830192505050908051906020019060200280838360005b83811015620004ff578082015181840152602081019050620004e2565b50505050905001604052602001805160405193929190846401000000008211156200052957600080fd5b838201915060208201858111156200054057600080fd5b82518660208202830111640100000000821117156200055e57600080fd5b8083526020830192505050908051906020019060200280838360005b83811015620005975780820151818401526020810190506200057a565b5050505090500160405260200180516040519392919084640100000000821115620005c157600080fd5b83820191506020820185811115620005d857600080fd5b8251866020820283011164010000000082111715620005f657600080fd5b8083526020830192505050908051906020019060200280838360005b838110156200062f57808201518184015260208101905062000612565b50505050905001604052602001805160405193929190846401000000008211156200065957600080fd5b838201915060208201858111156200067057600080fd5b82518660208202830111640100000000821117156200068e57600080fd5b8083526020830192505050908051906020019060200280838360005b83811015620006c7578082015181840152602081019050620006aa565b5050505090500160405260200180516040519392919084640100000000821115620006f157600080fd5b838201915060208201858111156200070857600080fd5b82518660208202830111640100000000821117156200072657600080fd5b8083526020830192505050908051906020019060200280838360005b838110156200075f57808201518184015260208101905062000742565b50505050905001604052505050336000806101000a81548173ffffffffffffffffffffffffffffffffffffffff021916908373ffffffffffffffffffffffffffffffffffffffff1602179055506000809054906101000a900473ffffffffffffffffffffffffffffffffffffffff1673ffffffffffffffffffffffffffffffffffffffff16600073ffffffffffffffffffffffffffffffffffffffff167f8be0079c531659141344cd1fd0a4f28419497f9722a3daafe3b4186f6b6457e060405160405180910390a38c6003819055508b6004819055508a600b90805190602001906200084e92919062000afd565b5089600c90805190602001906200086792919062000afd565b5088600d90805190602001906200088092919062000afd565b5087600e90805190602001906200089992919062000afd565b50604051806040016040528088600081518110620008b357fe5b60200260200101516effffffffffffffffffffffffffffff1916815260200188600181518110620008e057fe5b60200260200101516effffffffffffffffffffffffffffff1916815250601260008201518160000160006101000a81548170ffffffffffffffffffffffffffffffffff021916908360781c021790555060208201518160010160006101000a81548170ffffffffffffffffffffffffffffffffff021916908360781c021790555090505085600a90805190602001906200097c92919062000b84565b5084600590805190602001906200099592919062000bd6565b508360069080519060200190620009ae92919062000bd6565b508260079080519060200190620009c792919062000bd6565b508160089080519060200190620009e092919062000bd6565b508060099080519060200190620009f992919062000c28565b506000600260006101000a81548160ff0219169083151502179055503373ffffffffffffffffffffffffffffffffffffffff167f6bef222ff9e3d6c66b6a6430c3a81f86b81bd1c855771b79c71998c4765785f5600c604051808060200182810382528381815460018160011615610100020316600290048152602001915080546001816001161561010002031660029004801562000adc5780601f1062000ab05761010080835404028352916020019162000adc565b820191906000526020600020905b81548152906001019060200180831162000abe57829003601f168201915b50509250505060405180910390a25050505050505050505050505062000d58565b828054600181600116156101000203166002900490600052602060002090601f016020900481019282601f1062000b4057805160ff191683800117855562000b71565b8280016001018555821562000b71579182015b8281111562000b7057825182559160200191906001019062000b53565b5b50905062000b80919062000cd5565b5090565b82805482825590600052602060002090810192821562000bc3579160200282015b8281111562000bc257825182559160200191906001019062000ba5565b5b50905062000bd2919062000cfd565b5090565b82805482825590600052602060002090810192821562000c15579160200282015b8281111562000c1457825182559160200191906001019062000bf7565b5b50905062000c24919062000cd5565b5090565b82805482825590600052602060002090601f0160209004810192821562000cc25791602002820160005b8382111562000c9157835183826101000a81548160ff021916908315150217905550926020019260010160208160000104928301926001030262000c52565b801562000cc05782816101000a81549060ff021916905560010160208160000104928301926001030262000c91565b505b50905062000cd1919062000d25565b5090565b62000cfa91905b8082111562000cf657600081600090555060010162000cdc565b5090565b90565b62000d2291905b8082111562000d1e57600081600090555060010162000d04565b5090565b90565b62000d5591905b8082111562000d5157600081816101000a81549060ff02191690555060010162000d2c565b5090565b90565b6128e88062000d686000396000f3fe608060405234801561001057600080fd5b50600436106101fb5760003560e01c80637284e4161161011a578063b30608e3116100ad578063de32172e1161007c578063de32172e146111b7578063de5dd4da146111d5578063f211128314611290578063f2fde38b1461134b578063f5eecce21461138f576101fb565b8063b30608e3146110b6578063b3d444b8146110f8578063c7876ea41461117b578063d715018014611199576101fb565b806386efbd33116100e957806386efbd3314610fc65780638da5cb5b146110085780638f32d59b14611052578063a4de2f5c14611074576101fb565b80637284e41614610ea15780637798477714610f245780638381f58a14610f665780638410b68014610f84576101fb565b8063486c968d1161019257806363ffab311161016157806363ffab3114610d655780636b64c76914610dd2578063708b34fe14610ddc578063715018a614610e97576101fb565b8063486c968d14610a1257806352edbb7814610b6e5780635f8909bd14610bf157806361fd308514610c13576101fb565b80632c519bc4116101ce5780632c519bc41461055b5780633b02a268146106b75780633bb32d541461080957806345c02d5214610827576101fb565b806306fdde03146102005780630d80fefd1461028357806311a12bdd1461032a578063252c09d714610370575b600080fd5b6102086113d9565b6040518080602001828103825283818151815260200191508051906020019080838360005b8381101561024857808201518184015260208101905061022d565b50505050905090810190601f1680156102755780820380516001836020036101000a031916815260200191505b509250505060405180910390f35b6102af6004803603602081101561029957600080fd5b8101908080359060200190929190505050611477565b6040518080602001828103825283818151815260200191508051906020019080838360005b838110156102ef5780820151818401526020810190506102d4565b50505050905090810190601f16801561031c5780820380516001836020036101000a031916815260200191505b509250505060405180910390f35b6103566004803603602081101561034057600080fd5b8101908080359060200190929190505050611530565b604051808215151515815260200191505060405180910390f35b61039c6004803603602081101561038657600080fd5b8101908080359060200190929190505050611561565b6040518080602001806020018060200180602001858103855289818151815260200191508051906020019080838360005b838110156103e85780820151818401526020810190506103cd565b50505050905090810190601f1680156104155780820380516001836020036101000a031916815260200191505b50858103845288818151815260200191508051906020019080838360005b8381101561044e578082015181840152602081019050610433565b50505050905090810190601f16801561047b5780820380516001836020036101000a031916815260200191505b50858103835287818151815260200191508051906020019080838360005b838110156104b4578082015181840152602081019050610499565b50505050905090810190601f1680156104e15780820380516001836020036101000a031916815260200191505b50858103825286818151815260200191508051906020019080838360005b8381101561051a5780820151818401526020810190506104ff565b50505050905090810190601f1680156105475780820380516001836020036101000a031916815260200191505b509850505050505050505060405180910390f35b6106b56004803603606081101561057157600080fd5b81019080803590602001909291908035906020019064010000000081111561059857600080fd5b8201836020820111156105aa57600080fd5b803590602001918460018302840111640100000000831117156105cc57600080fd5b91908080601f016020809104026020016040519081016040528093929190818152602001838380828437600081840152601f19601f8201169050808301925050505050505091929192908035906020019064010000000081111561062f57600080fd5b82018360208201111561064157600080fd5b8035906020019184600183028401116401000000008311171561066357600080fd5b91908080601f016020809104026020016040519081016040528093929190818152602001838380828437600081840152601f19601f8201169050808301925050505050505091929192905050506117fe565b005b610807600480360360408110156106cd57600080fd5b81019080803590602001906401000000008111156106ea57600080fd5b8201836020820111156106fc57600080fd5b8035906020019184600183028401116401000000008311171561071e57600080fd5b91908080601f016020809104026020016040519081016040528093929190818152602001838380828437600081840152601f19601f8201169050808301925050505050505091929192908035906020019064010000000081111561078157600080fd5b82018360208201111561079357600080fd5b803590602001918460018302840111640100000000831117156107b557600080fd5b91908080601f016020809104026020016040519081016040528093929190818152602001838380828437600081840152601f19601f8201169050808301925050505050505091929192905050506118cf565b005b6108116119b6565b6040518082815260200191505060405180910390f35b6108536004803603602081101561083d57600080fd5b81019080803590602001909291905050506119c3565b6040518080602001806020018060200180602001858103855289818151815260200191508051906020019080838360005b8381101561089f578082015181840152602081019050610884565b50505050905090810190601f1680156108cc5780820380516001836020036101000a031916815260200191505b50858103845288818151815260200191508051906020019080838360005b838110156109055780820151818401526020810190506108ea565b50505050905090810190601f1680156109325780820380516001836020036101000a031916815260200191505b50858103835287818151815260200191508051906020019080838360005b8381101561096b578082015181840152602081019050610950565b50505050905090810190601f1680156109985780820380516001836020036101000a031916815260200191505b50858103825286818151815260200191508051906020019080838360005b838110156109d15780820151818401526020810190506109b6565b50505050905090810190601f1680156109fe5780820380516001836020036101000a031916815260200191505b509850505050505050505060405180910390f35b610b6c60048036036060811015610a2857600080fd5b810190808035906020019092919080359060200190640100000000811115610a4f57600080fd5b820183602082011115610a6157600080fd5b80359060200191846001830284011164010000000083111715610a8357600080fd5b91908080601f016020809104026020016040519081016040528093929190818152602001838380828437600081840152601f19601f82011690508083019250505050505050919291929080359060200190640100000000811115610ae657600080fd5b820183602082011115610af857600080fd5b80359060200191846001830284011164010000000083111715610b1a57600080fd5b91908080601f016020809104026020016040519081016040528093929190818152602001838380828437600081840152601f19601f820116905080830192505050505050509192919290505050611c60565b005b610b76611d31565b6040518080602001828103825283818151815260200191508051906020019080838360005b83811015610bb6578082015181840152602081019050610b9b565b50505050905090810190601f168015610be35780820380516001836020036101000a031916815260200191505b509250505060405180910390f35b610bf9611dcf565b604051808215151515815260200191505060405180910390f35b610d6360048036036040811015610c2957600080fd5b8101908080359060200190640100000000811115610c4657600080fd5b820183602082011115610c5857600080fd5b80359060200191846001830284011164010000000083111715610c7a57600080fd5b91908080601f016020809104026020016040519081016040528093929190818152602001838380828437600081840152601f19601f82011690508083019250505050505050919291929080359060200190640100000000811115610cdd57600080fd5b820183602082011115610cef57600080fd5b80359060200191846001830284011164010000000083111715610d1157600080fd5b91908080601f016020809104026020016040519081016040528093929190818152602001838380828437600081840152601f19601f820116905080830192505050505050509192919290505050611de2565b005b610d6d611ec9565b60405180836effffffffffffffffffffffffffffff19166effffffffffffffffffffffffffffff19168152602001826effffffffffffffffffffffffffffff19166effffffffffffffffffffffffffffff191681526020019250505060405180910390f35b610dda611ef5565b005b610e9560048036036020811015610df257600080fd5b8101908080359060200190640100000000811115610e0f57600080fd5b820183602082011115610e2157600080fd5b80359060200191846001830284011164010000000083111715610e4357600080fd5b91908080601f016020809104026020016040519081016040528093929190818152602001838380828437600081840152601f19601f820116905080830192505050505050509192919290505050611f8c565b005b610e9f611fce565b005b610ea9612107565b6040518080602001828103825283818151815260200191508051906020019080838360005b83811015610ee9578082015181840152602081019050610ece565b50505050905090810190601f168015610f165780820380516001836020036101000a031916815260200191505b509250505060405180910390f35b610f5060048036036020811015610f3a57600080fd5b81019080803590602001909291905050506121a5565b6040518082815260200191505060405180910390f35b610f6e6121c6565b6040518082815260200191505060405180910390f35b610fb060048036036020811015610f9a57600080fd5b81019080803590602001909291905050506121cc565b6040518082815260200191505060405180910390f35b610ff260048036036020811015610fdc57600080fd5b81019080803590602001909291905050506121ed565b6040518082815260200191505060405180910390f35b61101061220e565b604051808273ffffffffffffffffffffffffffffffffffffffff1673ffffffffffffffffffffffffffffffffffffffff16815260200191505060405180910390f35b61105a612237565b604051808215151515815260200191505060405180910390f35b6110a06004803603602081101561108a57600080fd5b810190808035906020019092919050505061228e565b6040518082815260200191505060405180910390f35b6110e2600480360360208110156110cc57600080fd5b81019080803590602001909291905050506122af565b6040518082815260200191505060405180910390f35b6111006122d0565b6040518080602001828103825283818151815260200191508051906020019080838360005b83811015611140578082015181840152602081019050611125565b50505050905090810190601f16801561116d5780820380516001836020036101000a031916815260200191505b509250505060405180910390f35b61118361236e565b6040518082815260200191505060405180910390f35b6111a1612374565b6040518082815260200191505060405180910390f35b6111bf612381565b6040518082815260200191505060405180910390f35b61128e600480360360208110156111eb57600080fd5b810190808035906020019064010000000081111561120857600080fd5b82018360208201111561121a57600080fd5b8035906020019184600183028401116401000000008311171561123c57600080fd5b91908080601f016020809104026020016040519081016040528093929190818152602001838380828437600081840152601f19601f82011690508083019250505050505050919291929050505061238e565b005b611349600480360360208110156112a657600080fd5b81019080803590602001906401000000008111156112c357600080fd5b8201836020820111156112d557600080fd5b803590602001918460018302840111640100000000831117156112f757600080fd5b91908080601f016020809104026020016040519081016040528093929190818152602001838380828437600081840152601f19601f820116905080830192505050505050509192919290505050612483565b005b61138d6004803603602081101561136157600080fd5b81019080803573ffffffffffffffffffffffffffffffffffffffff169060200190929190505050612578565b005b6113976125fe565b604051808273ffffffffffffffffffffffffffffffffffffffff1673ffffffffffffffffffffffffffffffffffffffff16815260200191505060405180910390f35b600c8054600181600116156101000203166002900480601f01602080910402602001604051908101604052809291908181526020018280546001816001161561010002031660029004801561146f5780601f106114445761010080835404028352916020019161146f565b820191906000526020600020905b81548152906001019060200180831161145257829003601f168201915b505050505081565b600f818154811061148457fe5b906000526020600020016000915090508054600181600116156101000203166002900480601f0160208091040260200160405190810160405280929190818152602001828054600181600116156101000203166002900480156115285780601f106114fd57610100808354040283529160200191611528565b820191906000526020600020905b81548152906001019060200180831161150b57829003601f168201915b505050505081565b6009818154811061153d57fe5b9060005260206000209060209182820401919006915054906101000a900460ff1681565b6010818154811061156e57fe5b9060005260206000209060040201600091509050806000018054600181600116156101000203166002900480601f01602080910402602001604051908101604052809291908181526020018280546001816001161561010002031660029004801561161a5780601f106115ef5761010080835404028352916020019161161a565b820191906000526020600020905b8154815290600101906020018083116115fd57829003601f168201915b505050505090806001018054600181600116156101000203166002900480601f0160208091040260200160405190810160405280929190818152602001828054600181600116156101000203166002900480156116b85780601f1061168d576101008083540402835291602001916116b8565b820191906000526020600020905b81548152906001019060200180831161169b57829003601f168201915b505050505090806002018054600181600116156101000203166002900480601f0160208091040260200160405190810160405280929190818152602001828054600181600116156101000203166002900480156117565780601f1061172b57610100808354040283529160200191611756565b820191906000526020600020905b81548152906001019060200180831161173957829003601f168201915b505050505090806003018054600181600116156101000203166002900480601f0160208091040260200160405190810160405280929190818152602001828054600181600116156101000203166002900480156117f45780601f106117c9576101008083540402835291602001916117f4565b820191906000526020600020905b8154815290600101906020018083116117d757829003601f168201915b5050505050905084565b611806612237565b611878576040517f08c379a00000000000000000000000000000000000000000000000000000000081526004018080602001828103825260208152602001807f4f776e61626c653a2063616c6c6572206973206e6f7420746865206f776e657281525060200191505060405180910390fd5b60006010848154811061188757fe5b90600052602060002090600402019050828160020190805190602001906118af929190612768565b50818160030190805190602001906118c8929190612768565b5050505050565b60106040518060800160405280848152602001838152602001604051806020016040528060008152508152602001604051806020016040528060008152508152509080600181540180825580915050906001820390600052602060002090600402016000909192909190915060008201518160000190805190602001906119579291906127e8565b5060208201518160010190805190602001906119749291906127e8565b5060408201518160020190805190602001906119919291906127e8565b5060608201518160030190805190602001906119ae9291906127e8565b505050505050565b6000600f80549050905090565b601181815481106119d057fe5b9060005260206000209060040201600091509050806000018054600181600116156101000203166002900480601f016020809104026020016040519081016040528092919081815260200182805460018160011615610100020316600290048015611a7c5780601f10611a5157610100808354040283529160200191611a7c565b820191906000526020600020905b815481529060010190602001808311611a5f57829003601f168201915b505050505090806001018054600181600116156101000203166002900480601f016020809104026020016040519081016040528092919081815260200182805460018160011615610100020316600290048015611b1a5780601f10611aef57610100808354040283529160200191611b1a565b820191906000526020600020905b815481529060010190602001808311611afd57829003601f168201915b505050505090806002018054600181600116156101000203166002900480601f016020809104026020016040519081016040528092919081815260200182805460018160011615610100020316600290048015611bb85780601f10611b8d57610100808354040283529160200191611bb8565b820191906000526020600020905b815481529060010190602001808311611b9b57829003601f168201915b505050505090806003018054600181600116156101000203166002900480601f016020809104026020016040519081016040528092919081815260200182805460018160011615610100020316600290048015611c565780601f10611c2b57610100808354040283529160200191611c56565b820191906000526020600020905b815481529060010190602001808311611c3957829003601f168201915b5050505050905084565b611c68612237565b611cda576040517f08c379a00000000000000000000000000000000000000000000000000000000081526004018080602001828103825260208152602001807f4f776e61626c653a2063616c6c6572206973206e6f7420746865206f776e657281525060200191505060405180910390fd5b600060118481548110611ce957fe5b9060005260206000209060040201905082816002019080519060200190611d11929190612768565b5081816003019080519060200190611d2a929190612768565b5050505050565b600b8054600181600116156101000203166002900480601f016020809104026020016040519081016040528092919081815260200182805460018160011615610100020316600290048015611dc75780601f10611d9c57610100808354040283529160200191611dc7565b820191906000526020600020905b815481529060010190602001808311611daa57829003601f168201915b505050505081565b600260009054906101000a900460ff1681565b6011604051806080016040528084815260200183815260200160405180602001604052806000815250815260200160405180602001604052806000815250815250908060018154018082558091505090600182039060005260206000209060040201600090919290919091506000820151816000019080519060200190611e6a9291906127e8565b506020820151816001019080519060200190611e879291906127e8565b506040820151816002019080519060200190611ea49291906127e8565b506060820151816003019080519060200190611ec19291906127e8565b505050505050565b60128060000160009054906101000a900460781b908060010160009054906101000a900460781b905082565b611efd612237565b611f6f576040517f08c379a00000000000000000000000000000000000000000000000000000000081526004018080602001828103825260208152602001807f4f776e61626c653a2063616c6c6572206973206e6f7420746865206f776e657281525060200191505060405180910390fd5b6001600260006101000a81548160ff021916908315150217905550565b600f819080600181540180825580915050906001820390600052602060002001600090919290919091509080519060200190611fc9929190612768565b505050565b611fd6612237565b612048576040517f08c379a00000000000000000000000000000000000000000000000000000000081526004018080602001828103825260208152602001807f4f776e61626c653a2063616c6c6572206973206e6f7420746865206f776e657281525060200191505060405180910390fd5b600073ffffffffffffffffffffffffffffffffffffffff166000809054906101000a900473ffffffffffffffffffffffffffffffffffffffff1673ffffffffffffffffffffffffffffffffffffffff167f8be0079c531659141344cd1fd0a4f28419497f9722a3daafe3b4186f6b6457e060405160405180910390a360008060006101000a81548173ffffffffffffffffffffffffffffffffffffffff021916908373ffffffffffffffffffffffffffffffffffffffff160217905550565b600d8054600181600116156101000203166002900480601f01602080910402602001604051908101604052809291908181526020018280546001816001161561010002031660029004801561219d5780601f106121725761010080835404028352916020019161219d565b820191906000526020600020905b81548152906001019060200180831161218057829003601f168201915b505050505081565b600881815481106121b257fe5b906000526020600020016000915090505481565b60035481565b600681815481106121d957fe5b906000526020600020016000915090505481565b600781815481106121fa57fe5b906000526020600020016000915090505481565b60008060009054906101000a900473ffffffffffffffffffffffffffffffffffffffff16905090565b60008060009054906101000a900473ffffffffffffffffffffffffffffffffffffffff1673ffffffffffffffffffffffffffffffffffffffff163373ffffffffffffffffffffffffffffffffffffffff1614905090565b600a818154811061229b57fe5b906000526020600020016000915090505481565b600581815481106122bc57fe5b906000526020600020016000915090505481565b600e8054600181600116156101000203166002900480601f0160208091040260200160405190810160405280929190818152602001828054600181600116156101000203166002900480156123665780601f1061233b57610100808354040283529160200191612366565b820191906000526020600020905b81548152906001019060200180831161234957829003601f168201915b505050505081565b60045481565b6000601080549050905090565b6000601180549050905090565b60116040518060800160405280838152602001604051806020016040528060008152508152602001604051806020016040528060008152508152602001604051806020016040528060008152508152509080600181540180825580915050906001820390600052602060002090600402016000909192909190915060008201518160000190805190602001906124259291906127e8565b5060208201518160010190805190602001906124429291906127e8565b50604082015181600201908051906020019061245f9291906127e8565b50606082015181600301908051906020019061247c9291906127e8565b5050505050565b601060405180608001604052808381526020016040518060200160405280600081525081526020016040518060200160405280600081525081526020016040518060200160405280600081525081525090806001815401808255809150509060018203906000526020600020906004020160009091929091909150600082015181600001908051906020019061251a9291906127e8565b5060208201518160010190805190602001906125379291906127e8565b5060408201518160020190805190602001906125549291906127e8565b5060608201518160030190805190602001906125719291906127e8565b5050505050565b612580612237565b6125f2576040517f08c379a00000000000000000000000000000000000000000000000000000000081526004018080602001828103825260208152602001807f4f776e61626c653a2063616c6c6572206973206e6f7420746865206f776e657281525060200191505060405180910390fd5b6125fb81612624565b50565b600260019054906101000a900473ffffffffffffffffffffffffffffffffffffffff1681565b600073ffffffffffffffffffffffffffffffffffffffff168173ffffffffffffffffffffffffffffffffffffffff1614156126aa576040517f08c379a000000000000000000000000000000000000000000000000000000000815260040180806020018281038252602681526020018061288e6026913960400191505060405180910390fd5b8073ffffffffffffffffffffffffffffffffffffffff166000809054906101000a900473ffffffffffffffffffffffffffffffffffffffff1673ffffffffffffffffffffffffffffffffffffffff167f8be0079c531659141344cd1fd0a4f28419497f9722a3daafe3b4186f6b6457e060405160405180910390a3806000806101000a81548173ffffffffffffffffffffffffffffffffffffffff021916908373ffffffffffffffffffffffffffffffffffffffff16021790555050565b828054600181600116156101000203166002900490600052602060002090601f016020900481019282601f106127a957805160ff19168380011785556127d7565b828001600101855582156127d7579182015b828111156127d65782518255916020019190600101906127bb565b5b5090506127e49190612868565b5090565b828054600181600116156101000203166002900490600052602060002090601f016020900481019282601f1061282957805160ff1916838001178555612857565b82800160010185558215612857579182015b8281111561285657825182559160200191906001019061283b565b5b5090506128649190612868565b5090565b61288a91905b8082111561288657600081600090555060010161286e565b5090565b9056fe4f776e61626c653a206e6577206f776e657220697320746865207a65726f2061646472657373a265627a7a7231582021ceba32fb2ebfb7d0d17db92ab106849503c2f6ee1c4942cf98da216c5b6f6e64736f6c634300050c0032",
  "source": "pragma solidity >=0.4.23 <0.6.0;\n\nimport 'openzeppelin-solidity/contracts/ownership/Ownable.sol';\nimport 'openzeppelin-solidity/contracts/access/Roles.sol';\n\ncontract Tender is Ownable {\n  using Roles for Roles.Role;\n\n  Roles.Role private vendors;\n\n  bool public biddingPeriod;\n  address public winningVendor;\n  uint public number;\n  uint public basePrice;\n  uint[] public scheduleDates;\n  uint[] public unspsc;\n  uint[] public contractInfo;\n  uint[] public generalInfoValues;\n  bool[] public generalInfoFlags;\n  bytes32[] public ipfsHashes;\n  string public office;\n  string public name;\n  string public description;\n  string public procedureTeam;\n  string[] public messages;\n  Observation[] public observations;\n  Observation[] public winnerObservations;\n  PublicKey public publicKey;\n\n  event TenderCreated(address indexed _owner, string _name);\n\n  struct Observation {\n    string plain;\n    string hash;\n    string resPlain;\n    string resHash;\n  }\n\n  struct PublicKey {\n    bytes17 r;\n    bytes17 s;\n  }\n\n  constructor(\n    uint _number                    ,\n    uint _basePrice                 ,\n    string memory _office           ,\n    string memory _name             ,\n    string memory _description      ,\n    string memory _procedureTeam    ,\n    bytes17[] memory _publicKey     ,\n    bytes32[] memory _ipfsHashes    ,\n    uint[] memory _scheduleDates    ,\n    uint[] memory _unspsc           ,\n    uint[] memory _contractInfo     ,\n    uint[] memory _generalInfoValues,\n    bool[] memory _generalInfoFlags\n  ) public {\n    number = _number;\n    basePrice = _basePrice;\n    office =  _office;\n    name = _name;\n    description = _description;\n    procedureTeam = _procedureTeam;\n    publicKey = PublicKey({ r: _publicKey[0], s: _publicKey[1] });\n    ipfsHashes = _ipfsHashes;\n    scheduleDates = _scheduleDates;\n    unspsc = _unspsc;\n    contractInfo = _contractInfo;\n    generalInfoValues = _generalInfoValues;\n    generalInfoFlags = _generalInfoFlags;\n    biddingPeriod = false;\n    emit TenderCreated(msg.sender, name);\n  }\n\n  function submitObservation(string memory _plain) public {\n    observations.push(Observation({plain: _plain, hash: \"\", resPlain: \"\", resHash: \"\"}));\n  }\n\n  function submitObservation(string memory _plain, string memory _hash) public {\n    observations.push(Observation({plain: _plain, hash: _hash, resPlain: \"\", resHash: \"\"}));\n  }\n\n  function respondObservation(uint _idx, string memory _plain, string memory _hash) public onlyOwner {\n    Observation storage obs = observations[_idx];\n    obs.resPlain = _plain;\n    obs.resHash = _hash;\n  }\n\n  function submitWinnerObservation(string memory _plain) public {\n    winnerObservations.push(Observation({plain: _plain, hash: \"\", resPlain: \"\", resHash: \"\"}));\n  }\n\n  function submitWinnerObservation(string memory _plain, string memory _hash) public {\n    winnerObservations.push(Observation({plain: _plain, hash: _hash, resPlain: \"\", resHash: \"\"}));\n  }\n\n  function respondWinnerObservation(uint _idx, string memory _plain, string memory _hash) public onlyOwner {\n    Observation storage obs = winnerObservations[_idx];\n    obs.resPlain = _plain;\n    obs.resHash = _hash;\n  }\n\n  function getObservationsLength() public view returns(uint) {\n    return observations.length;\n  }\n\n  function submitMessage(string memory _message) public {\n    messages.push(_message);\n  }\n\n  function getMessagesLength() public view returns(uint) {\n    return messages.length;\n  }\n\n\n  function getWinnerObservationsLength() public view returns(uint) {\n    return winnerObservations.length;\n  }\n\n  function startAuction() public onlyOwner {\n    biddingPeriod = true;\n  }\n}\n",
  "sourcePath": "/home/mesi/Projects/ViveLab/IGNWEF/contracts/contracts/Tender.sol",
  "compiler": {
    "name": "solc",
    "version": "0.5.12+commit.7709ece9.Emscripten.clang"
  },
  "schemaVersion": "3.0.19",
  "updatedAt": "2019-11-29T17:01:02.403Z",
  "devdoc": {
    "methods": {
      "isOwner()": {
        "details": "Returns true if the caller is the current owner."
      },
      "owner()": {
        "details": "Returns the address of the current owner."
      },
      "renounceOwnership()": {
        "details": "Leaves the contract without owner. It will not be possible to call `onlyOwner` functions anymore. Can only be called by the current owner.     * > Note: Renouncing ownership will leave the contract without an owner, thereby removing any functionality that is only available to the owner."
      },
      "transferOwnership(address)": {
        "details": "Transfers ownership of the contract to a new account (`newOwner`). Can only be called by the current owner."
      }
    }
  },
  "userdoc": {
    "methods": {}
  }
}