{
  "contractName": "Tender",
  "abi": [
    {
      "inputs": [
        {
          "internalType": "uint256",
          "name": "_number",
          "type": "uint256"
        },
        {
          "internalType": "string",
          "name": "_office",
          "type": "string"
        },
        {
          "internalType": "string",
          "name": "_name",
          "type": "string"
        },
        {
          "internalType": "string",
          "name": "_description",
          "type": "string"
        },
        {
          "internalType": "uint256",
          "name": "_enablingScore",
          "type": "uint256"
        },
        {
          "internalType": "bytes17[]",
          "name": "_publicKey",
          "type": "bytes17[]"
        },
        {
          "internalType": "bytes32[]",
          "name": "_ipfsHashes",
          "type": "bytes32[]"
        },
        {
          "internalType": "bytes32[]",
          "name": "_questionnaires",
          "type": "bytes32[]"
        },
        {
          "internalType": "uint256",
          "name": "_basePrice",
          "type": "uint256"
        },
        {
          "internalType": "uint256[]",
          "name": "_scheduleDates",
          "type": "uint256[]"
        }
      ],
      "payable": false,
      "stateMutability": "nonpayable",
      "type": "constructor"
    },
    {
      "anonymous": false,
      "inputs": [
        {
          "indexed": true,
          "internalType": "address",
          "name": "previousOwner",
          "type": "address"
        },
        {
          "indexed": true,
          "internalType": "address",
          "name": "newOwner",
          "type": "address"
        }
      ],
      "name": "OwnershipTransferred",
      "type": "event"
    },
    {
      "anonymous": false,
      "inputs": [
        {
          "indexed": true,
          "internalType": "address",
          "name": "_owner",
          "type": "address"
        },
        {
          "indexed": false,
          "internalType": "string",
          "name": "_name",
          "type": "string"
        }
      ],
      "name": "TenderCreated",
      "type": "event"
    },
    {
      "constant": true,
      "inputs": [],
      "name": "basePrice",
      "outputs": [
        {
          "internalType": "uint256",
          "name": "",
          "type": "uint256"
        }
      ],
      "payable": false,
      "stateMutability": "view",
      "type": "function"
    },
    {
      "constant": true,
      "inputs": [],
      "name": "biddingPeriod",
      "outputs": [
        {
          "internalType": "bool",
          "name": "",
          "type": "bool"
        }
      ],
      "payable": false,
      "stateMutability": "view",
      "type": "function"
    },
    {
      "constant": true,
      "inputs": [
        {
          "internalType": "uint256",
          "name": "",
          "type": "uint256"
        }
      ],
      "name": "bids",
      "outputs": [
        {
          "internalType": "contract Bid",
          "name": "",
          "type": "address"
        }
      ],
      "payable": false,
      "stateMutability": "view",
      "type": "function"
    },
    {
      "constant": true,
      "inputs": [],
      "name": "description",
      "outputs": [
        {
          "internalType": "string",
          "name": "",
          "type": "string"
        }
      ],
      "payable": false,
      "stateMutability": "view",
      "type": "function"
    },
    {
      "constant": true,
      "inputs": [],
      "name": "enablingScore",
      "outputs": [
        {
          "internalType": "uint256",
          "name": "",
          "type": "uint256"
        }
      ],
      "payable": false,
      "stateMutability": "view",
      "type": "function"
    },
    {
      "constant": true,
      "inputs": [
        {
          "internalType": "uint256",
          "name": "",
          "type": "uint256"
        }
      ],
      "name": "ipfsHashes",
      "outputs": [
        {
          "internalType": "bytes32",
          "name": "",
          "type": "bytes32"
        }
      ],
      "payable": false,
      "stateMutability": "view",
      "type": "function"
    },
    {
      "constant": true,
      "inputs": [],
      "name": "isOwner",
      "outputs": [
        {
          "internalType": "bool",
          "name": "",
          "type": "bool"
        }
      ],
      "payable": false,
      "stateMutability": "view",
      "type": "function"
    },
    {
      "constant": true,
      "inputs": [
        {
          "internalType": "uint256",
          "name": "",
          "type": "uint256"
        }
      ],
      "name": "messages",
      "outputs": [
        {
          "internalType": "string",
          "name": "",
          "type": "string"
        }
      ],
      "payable": false,
      "stateMutability": "view",
      "type": "function"
    },
    {
      "constant": true,
      "inputs": [],
      "name": "name",
      "outputs": [
        {
          "internalType": "string",
          "name": "",
          "type": "string"
        }
      ],
      "payable": false,
      "stateMutability": "view",
      "type": "function"
    },
    {
      "constant": true,
      "inputs": [],
      "name": "number",
      "outputs": [
        {
          "internalType": "uint256",
          "name": "",
          "type": "uint256"
        }
      ],
      "payable": false,
      "stateMutability": "view",
      "type": "function"
    },
    {
      "constant": true,
      "inputs": [
        {
          "internalType": "uint256",
          "name": "",
          "type": "uint256"
        }
      ],
      "name": "observations",
      "outputs": [
        {
          "internalType": "string",
          "name": "plain",
          "type": "string"
        },
        {
          "internalType": "string",
          "name": "hash",
          "type": "string"
        },
        {
          "internalType": "string",
          "name": "resPlain",
          "type": "string"
        },
        {
          "internalType": "string",
          "name": "resHash",
          "type": "string"
        }
      ],
      "payable": false,
      "stateMutability": "view",
      "type": "function"
    },
    {
      "constant": true,
      "inputs": [],
      "name": "office",
      "outputs": [
        {
          "internalType": "string",
          "name": "",
          "type": "string"
        }
      ],
      "payable": false,
      "stateMutability": "view",
      "type": "function"
    },
    {
      "constant": true,
      "inputs": [],
      "name": "owner",
      "outputs": [
        {
          "internalType": "address",
          "name": "",
          "type": "address"
        }
      ],
      "payable": false,
      "stateMutability": "view",
      "type": "function"
    },
    {
      "constant": true,
      "inputs": [],
      "name": "publicKey",
      "outputs": [
        {
          "internalType": "bytes17",
          "name": "r",
          "type": "bytes17"
        },
        {
          "internalType": "bytes17",
          "name": "s",
          "type": "bytes17"
        }
      ],
      "payable": false,
      "stateMutability": "view",
      "type": "function"
    },
    {
      "constant": true,
      "inputs": [
        {
          "internalType": "uint256",
          "name": "",
          "type": "uint256"
        }
      ],
      "name": "questionnaires",
      "outputs": [
        {
          "internalType": "bytes32",
          "name": "",
          "type": "bytes32"
        }
      ],
      "payable": false,
      "stateMutability": "view",
      "type": "function"
    },
    {
      "constant": false,
      "inputs": [],
      "name": "renounceOwnership",
      "outputs": [],
      "payable": false,
      "stateMutability": "nonpayable",
      "type": "function"
    },
    {
      "constant": true,
      "inputs": [
        {
          "internalType": "uint256",
          "name": "",
          "type": "uint256"
        }
      ],
      "name": "scheduleDates",
      "outputs": [
        {
          "internalType": "uint256",
          "name": "",
          "type": "uint256"
        }
      ],
      "payable": false,
      "stateMutability": "view",
      "type": "function"
    },
    {
      "constant": false,
      "inputs": [
        {
          "internalType": "address",
          "name": "newOwner",
          "type": "address"
        }
      ],
      "name": "transferOwnership",
      "outputs": [],
      "payable": false,
      "stateMutability": "nonpayable",
      "type": "function"
    },
    {
      "constant": true,
      "inputs": [
        {
          "internalType": "uint256",
          "name": "",
          "type": "uint256"
        }
      ],
      "name": "winnerObservations",
      "outputs": [
        {
          "internalType": "string",
          "name": "plain",
          "type": "string"
        },
        {
          "internalType": "string",
          "name": "hash",
          "type": "string"
        },
        {
          "internalType": "string",
          "name": "resPlain",
          "type": "string"
        },
        {
          "internalType": "string",
          "name": "resHash",
          "type": "string"
        }
      ],
      "payable": false,
      "stateMutability": "view",
      "type": "function"
    },
    {
      "constant": true,
      "inputs": [],
      "name": "winningVendor",
      "outputs": [
        {
          "internalType": "address",
          "name": "",
          "type": "address"
        }
      ],
      "payable": false,
      "stateMutability": "view",
      "type": "function"
    },
    {
      "constant": false,
      "inputs": [
        {
          "internalType": "string",
          "name": "_plain",
          "type": "string"
        }
      ],
      "name": "submitObservation",
      "outputs": [],
      "payable": false,
      "stateMutability": "nonpayable",
      "type": "function"
    },
    {
      "constant": false,
      "inputs": [
        {
          "internalType": "string",
          "name": "_plain",
          "type": "string"
        },
        {
          "internalType": "string",
          "name": "_hash",
          "type": "string"
        }
      ],
      "name": "submitObservation",
      "outputs": [],
      "payable": false,
      "stateMutability": "nonpayable",
      "type": "function"
    },
    {
      "constant": false,
      "inputs": [
        {
          "internalType": "uint256",
          "name": "_idx",
          "type": "uint256"
        },
        {
          "internalType": "string",
          "name": "_plain",
          "type": "string"
        },
        {
          "internalType": "string",
          "name": "_hash",
          "type": "string"
        }
      ],
      "name": "respondObservation",
      "outputs": [],
      "payable": false,
      "stateMutability": "nonpayable",
      "type": "function"
    },
    {
      "constant": false,
      "inputs": [
        {
          "internalType": "string",
          "name": "_plain",
          "type": "string"
        }
      ],
      "name": "submitWinnerObservation",
      "outputs": [],
      "payable": false,
      "stateMutability": "nonpayable",
      "type": "function"
    },
    {
      "constant": false,
      "inputs": [
        {
          "internalType": "string",
          "name": "_plain",
          "type": "string"
        },
        {
          "internalType": "string",
          "name": "_hash",
          "type": "string"
        }
      ],
      "name": "submitWinnerObservation",
      "outputs": [],
      "payable": false,
      "stateMutability": "nonpayable",
      "type": "function"
    },
    {
      "constant": false,
      "inputs": [
        {
          "internalType": "uint256",
          "name": "_idx",
          "type": "uint256"
        },
        {
          "internalType": "string",
          "name": "_plain",
          "type": "string"
        },
        {
          "internalType": "string",
          "name": "_hash",
          "type": "string"
        }
      ],
      "name": "respondWinnerObservation",
      "outputs": [],
      "payable": false,
      "stateMutability": "nonpayable",
      "type": "function"
    },
    {
      "constant": true,
      "inputs": [],
      "name": "getObservationsLength",
      "outputs": [
        {
          "internalType": "uint256",
          "name": "",
          "type": "uint256"
        }
      ],
      "payable": false,
      "stateMutability": "view",
      "type": "function"
    },
    {
      "constant": false,
      "inputs": [
        {
          "internalType": "string",
          "name": "_message",
          "type": "string"
        }
      ],
      "name": "submitMessage",
      "outputs": [],
      "payable": false,
      "stateMutability": "nonpayable",
      "type": "function"
    },
    {
      "constant": true,
      "inputs": [],
      "name": "getMessagesLength",
      "outputs": [
        {
          "internalType": "uint256",
          "name": "",
          "type": "uint256"
        }
      ],
      "payable": false,
      "stateMutability": "view",
      "type": "function"
    },
    {
      "constant": true,
      "inputs": [],
      "name": "getWinnerObservationsLength",
      "outputs": [
        {
          "internalType": "uint256",
          "name": "",
          "type": "uint256"
        }
      ],
      "payable": false,
      "stateMutability": "view",
      "type": "function"
    },
    {
      "constant": true,
      "inputs": [],
      "name": "getQuestionnaireLength",
      "outputs": [
        {
          "internalType": "uint256",
          "name": "",
          "type": "uint256"
        }
      ],
      "payable": false,
      "stateMutability": "view",
      "type": "function"
    },
    {
      "constant": false,
      "inputs": [],
      "name": "createBid",
      "outputs": [],
      "payable": false,
      "stateMutability": "nonpayable",
      "type": "function"
    },
    {
      "constant": true,
      "inputs": [],
      "name": "getBidsLength",
      "outputs": [
        {
          "internalType": "uint256",
          "name": "",
          "type": "uint256"
        }
      ],
      "payable": false,
      "stateMutability": "view",
      "type": "function"
    },
    {
      "constant": false,
      "inputs": [],
      "name": "startAuction",
      "outputs": [],
      "payable": false,
      "stateMutability": "nonpayable",
      "type": "function"
    },
    {
      "constant": false,
      "inputs": [],
      "name": "setWinningVendor",
      "outputs": [],
      "payable": false,
      "stateMutability": "nonpayable",
      "type": "function"
    }
  ],
  "bytecode": "0x60806040523480156200001157600080fd5b50604051620058833803806200588383398181016040526101408110156200003857600080fd5b8101908080519060200190929190805160405193929190846401000000008211156200006357600080fd5b838201915060208201858111156200007a57600080fd5b82518660018202830111640100000000821117156200009857600080fd5b8083526020830192505050908051906020019080838360005b83811015620000ce578082015181840152602081019050620000b1565b50505050905090810190601f168015620000fc5780820380516001836020036101000a031916815260200191505b50604052602001805160405193929190846401000000008211156200012057600080fd5b838201915060208201858111156200013757600080fd5b82518660018202830111640100000000821117156200015557600080fd5b8083526020830192505050908051906020019080838360005b838110156200018b5780820151818401526020810190506200016e565b50505050905090810190601f168015620001b95780820380516001836020036101000a031916815260200191505b5060405260200180516040519392919084640100000000821115620001dd57600080fd5b83820191506020820185811115620001f457600080fd5b82518660018202830111640100000000821117156200021257600080fd5b8083526020830192505050908051906020019080838360005b83811015620002485780820151818401526020810190506200022b565b50505050905090810190601f168015620002765780820380516001836020036101000a031916815260200191505b506040526020018051906020019092919080516040519392919084640100000000821115620002a457600080fd5b83820191506020820185811115620002bb57600080fd5b8251866020820283011164010000000082111715620002d957600080fd5b8083526020830192505050908051906020019060200280838360005b8381101562000312578082015181840152602081019050620002f5565b50505050905001604052602001805160405193929190846401000000008211156200033c57600080fd5b838201915060208201858111156200035357600080fd5b82518660208202830111640100000000821117156200037157600080fd5b8083526020830192505050908051906020019060200280838360005b83811015620003aa5780820151818401526020810190506200038d565b5050505090500160405260200180516040519392919084640100000000821115620003d457600080fd5b83820191506020820185811115620003eb57600080fd5b82518660208202830111640100000000821117156200040957600080fd5b8083526020830192505050908051906020019060200280838360005b838110156200044257808201518184015260208101905062000425565b5050505090500160405260200180519060200190929190805160405193929190846401000000008211156200047657600080fd5b838201915060208201858111156200048d57600080fd5b8251866020820283011164010000000082111715620004ab57600080fd5b8083526020830192505050908051906020019060200280838360005b83811015620004e4578082015181840152602081019050620004c7565b50505050905001604052505050620005016200083160201b60201c565b6000806101000a81548173ffffffffffffffffffffffffffffffffffffffff021916908373ffffffffffffffffffffffffffffffffffffffff1602179055506000809054906101000a900473ffffffffffffffffffffffffffffffffffffffff1673ffffffffffffffffffffffffffffffffffffffff16600073ffffffffffffffffffffffffffffffffffffffff167f8be0079c531659141344cd1fd0a4f28419497f9722a3daafe3b4186f6b6457e060405160405180910390a386600b9080519060200190620005d492919062000839565b506000600260006101000a81548160ff0219169083151502179055508960038190555088600990805190602001906200060f92919062000839565b5087600a90805190602001906200062892919062000839565b50856004819055506040518060400160405280866000815181106200064957fe5b60200260200101516effffffffffffffffffffffffffffff19168152602001866001815181106200067657fe5b60200260200101516effffffffffffffffffffffffffffff1916815250601060008201518160000160006101000a81548170ffffffffffffffffffffffffffffffffff021916908360781c021790555060208201518160010160006101000a81548170ffffffffffffffffffffffffffffffffff021916908360781c0217905550905050836007908051906020019062000712929190620008c0565b5082600890805190602001906200072b929190620008c0565b508160058190555080600690805190602001906200074b92919062000912565b503373ffffffffffffffffffffffffffffffffffffffff167f6bef222ff9e3d6c66b6a6430c3a81f86b81bd1c855771b79c71998c4765785f5600a6040518080602001828103825283818154600181600116156101000203166002900481526020019150805460018160011615610100020316600290048015620008135780601f10620007e75761010080835404028352916020019162000813565b820191906000526020600020905b815481529060010190602001808311620007f557829003601f168201915b50509250505060405180910390a250505050505050505050620009b4565b600033905090565b828054600181600116156101000203166002900490600052602060002090601f016020900481019282601f106200087c57805160ff1916838001178555620008ad565b82800160010185558215620008ad579182015b82811115620008ac5782518255916020019190600101906200088f565b5b509050620008bc919062000964565b5090565b828054828255906000526020600020908101928215620008ff579160200282015b82811115620008fe578251825591602001919060010190620008e1565b5b5090506200090e91906200098c565b5090565b82805482825590600052602060002090810192821562000951579160200282015b828111156200095057825182559160200191906001019062000933565b5b50905062000960919062000964565b5090565b6200098991905b80821115620009855760008160009055506001016200096b565b5090565b90565b620009b191905b80821115620009ad57600081600090555060010162000993565b5090565b90565b614ebf80620009c46000396000f3fe60806040523480156200001157600080fd5b5060043610620002445760003560e01c8063836240741162000141578063b30608e311620000bd578063de32172e1162000087578063de32172e1462001216578063de5dd4da1462001236578063f211128314620012f7578063f2fde38b14620013b8578063f5eecce214620013ff5762000244565b8063b30608e31462001171578063c7876ea414620011b6578063d715018014620011d6578063d879914a14620011f65762000244565b80638f32d59b116200010b5780638f32d59b14620010bc5780638f64b43c14620010e05780639517878e1462001100578063a4de2f5c1462001120578063acb79a2b14620011655762000244565b8063836240741462000fff5780638381f58a146200100b5780638da5cb5b146200102b5780638daad50814620010775762000244565b8063486c968d11620001d157806363ffab31116200019b57806363ffab311462000e2f5780636b64c7691462000e9e578063708b34fe1462000eaa578063715018a61462000f6b5780637284e4161462000f775762000244565b8063486c968d1462000ac357806352edbb781462000c285780635f8909bd1462000cb057806361fd30851462000cd45762000244565b80633b02a26811620002135780633b02a26814620006dd5780633bb32d5414620008385780634423c5f1146200085857806345c02d5214620008c95762000244565b806306fdde0314620002495780630d80fefd14620002d1578063252c09d7146200037e5780632c519bc41462000578575b600080fd5b620002536200144b565b6040518080602001828103825283818151815260200191508051906020019080838360005b838110156200029557808201518184015260208101905062000278565b50505050905090810190601f168015620002c35780820380516001836020036101000a031916815260200191505b509250505060405180910390f35b6200030060048036036020811015620002e957600080fd5b8101908080359060200190929190505050620014ed565b6040518080602001828103825283818151815260200191508051906020019080838360005b838110156200034257808201518184015260208101905062000325565b50505050905090810190601f168015620003705780820380516001836020036101000a031916815260200191505b509250505060405180910390f35b620003ad600480360360208110156200039657600080fd5b8101908080359060200190929190505050620015ab565b6040518080602001806020018060200180602001858103855289818151815260200191508051906020019080838360005b83811015620003fb578082015181840152602081019050620003de565b50505050905090810190601f168015620004295780820380516001836020036101000a031916815260200191505b50858103845288818151815260200191508051906020019080838360005b838110156200046457808201518184015260208101905062000447565b50505050905090810190601f168015620004925780820380516001836020036101000a031916815260200191505b50858103835287818151815260200191508051906020019080838360005b83811015620004cd578082015181840152602081019050620004b0565b50505050905090810190601f168015620004fb5780820380516001836020036101000a031916815260200191505b50858103825286818151815260200191508051906020019080838360005b838110156200053657808201518184015260208101905062000519565b50505050905090810190601f168015620005645780820380516001836020036101000a031916815260200191505b509850505050505050505060405180910390f35b620006db600480360360608110156200059057600080fd5b810190808035906020019092919080359060200190640100000000811115620005b857600080fd5b820183602082011115620005cb57600080fd5b80359060200191846001830284011164010000000083111715620005ee57600080fd5b91908080601f016020809104026020016040519081016040528093929190818152602001838380828437600081840152601f19601f820116905080830192505050505050509192919290803590602001906401000000008111156200065257600080fd5b8201836020820111156200066557600080fd5b803590602001918460018302840111640100000000831117156200068857600080fd5b91908080601f016020809104026020016040519081016040528093929190818152602001838380828437600081840152601f19601f82011690508083019250505050505050919291929050505062001859565b005b6200083660048036036040811015620006f557600080fd5b81019080803590602001906401000000008111156200071357600080fd5b8201836020820111156200072657600080fd5b803590602001918460018302840111640100000000831117156200074957600080fd5b91908080601f016020809104026020016040519081016040528093929190818152602001838380828437600081840152601f19601f82011690508083019250505050505050919291929080359060200190640100000000811115620007ad57600080fd5b820183602082011115620007c057600080fd5b80359060200191846001830284011164010000000083111715620007e357600080fd5b91908080601f016020809104026020016040519081016040528093929190818152602001838380828437600081840152601f19601f82011690508083019250505050505050919291929050505062001932565b005b6200084262001a21565b6040518082815260200191505060405180910390f35b62000887600480360360208110156200087057600080fd5b810190808035906020019092919050505062001a2e565b604051808273ffffffffffffffffffffffffffffffffffffffff1673ffffffffffffffffffffffffffffffffffffffff16815260200191505060405180910390f35b620008f860048036036020811015620008e157600080fd5b810190808035906020019092919050505062001a6b565b6040518080602001806020018060200180602001858103855289818151815260200191508051906020019080838360005b838110156200094657808201518184015260208101905062000929565b50505050905090810190601f168015620009745780820380516001836020036101000a031916815260200191505b50858103845288818151815260200191508051906020019080838360005b83811015620009af57808201518184015260208101905062000992565b50505050905090810190601f168015620009dd5780820380516001836020036101000a031916815260200191505b50858103835287818151815260200191508051906020019080838360005b8381101562000a18578082015181840152602081019050620009fb565b50505050905090810190601f16801562000a465780820380516001836020036101000a031916815260200191505b50858103825286818151815260200191508051906020019080838360005b8381101562000a8157808201518184015260208101905062000a64565b50505050905090810190601f16801562000aaf5780820380516001836020036101000a031916815260200191505b509850505050505050505060405180910390f35b62000c266004803603606081101562000adb57600080fd5b81019080803590602001909291908035906020019064010000000081111562000b0357600080fd5b82018360208201111562000b1657600080fd5b8035906020019184600183028401116401000000008311171562000b3957600080fd5b91908080601f016020809104026020016040519081016040528093929190818152602001838380828437600081840152601f19601f8201169050808301925050505050505091929192908035906020019064010000000081111562000b9d57600080fd5b82018360208201111562000bb057600080fd5b8035906020019184600183028401116401000000008311171562000bd357600080fd5b91908080601f016020809104026020016040519081016040528093929190818152602001838380828437600081840152601f19601f82011690508083019250505050505050919291929050505062001d19565b005b62000c3262001df2565b6040518080602001828103825283818151815260200191508051906020019080838360005b8381101562000c7457808201518184015260208101905062000c57565b50505050905090810190601f16801562000ca25780820380516001836020036101000a031916815260200191505b509250505060405180910390f35b62000cba62001e94565b604051808215151515815260200191505060405180910390f35b62000e2d6004803603604081101562000cec57600080fd5b810190808035906020019064010000000081111562000d0a57600080fd5b82018360208201111562000d1d57600080fd5b8035906020019184600183028401116401000000008311171562000d4057600080fd5b91908080601f016020809104026020016040519081016040528093929190818152602001838380828437600081840152601f19601f8201169050808301925050505050505091929192908035906020019064010000000081111562000da457600080fd5b82018360208201111562000db757600080fd5b8035906020019184600183028401116401000000008311171562000dda57600080fd5b91908080601f016020809104026020016040519081016040528093929190818152602001838380828437600081840152601f19601f82011690508083019250505050505050919291929050505062001ea7565b005b62000e3962001f96565b60405180836effffffffffffffffffffffffffffff19166effffffffffffffffffffffffffffff19168152602001826effffffffffffffffffffffffffffff19166effffffffffffffffffffffffffffff191681526020019250505060405180910390f35b62000ea862001fc2565b005b62000f696004803603602081101562000ec257600080fd5b810190808035906020019064010000000081111562000ee057600080fd5b82018360208201111562000ef357600080fd5b8035906020019184600183028401116401000000008311171562000f1657600080fd5b91908080601f016020809104026020016040519081016040528093929190818152602001838380828437600081840152601f19601f8201169050808301925050505050505091929192905050506200205c565b005b62000f75620020a0565b005b62000f81620021dc565b6040518080602001828103825283818151815260200191508051906020019080838360005b8381101562000fc357808201518184015260208101905062000fa6565b50505050905090810190601f16801562000ff15780820380516001836020036101000a031916815260200191505b509250505060405180910390f35b620010096200227e565b005b62001015620024f7565b6040518082815260200191505060405180910390f35b62001035620024fd565b604051808273ffffffffffffffffffffffffffffffffffffffff1673ffffffffffffffffffffffffffffffffffffffff16815260200191505060405180910390f35b620010a6600480360360208110156200108f57600080fd5b810190808035906020019092919050505062002526565b6040518082815260200191505060405180910390f35b620010c662002548565b604051808215151515815260200191505060405180910390f35b620010ea620025a8565b6040518082815260200191505060405180910390f35b6200110a620025b5565b6040518082815260200191505060405180910390f35b6200114f600480360360208110156200113857600080fd5b8101908080359060200190929190505050620025bb565b6040518082815260200191505060405180910390f35b6200116f620025dd565b005b620011a0600480360360208110156200118957600080fd5b8101908080359060200190929190505050620027b9565b6040518082815260200191505060405180910390f35b620011c0620027db565b6040518082815260200191505060405180910390f35b620011e0620027e1565b6040518082815260200191505060405180910390f35b62001200620027ee565b6040518082815260200191505060405180910390f35b62001220620027fb565b6040518082815260200191505060405180910390f35b620012f5600480360360208110156200124e57600080fd5b81019080803590602001906401000000008111156200126c57600080fd5b8201836020820111156200127f57600080fd5b80359060200191846001830284011164010000000083111715620012a257600080fd5b91908080601f016020809104026020016040519081016040528093929190818152602001838380828437600081840152601f19601f82011690508083019250505050505050919291929050505062002808565b005b620013b6600480360360208110156200130f57600080fd5b81019080803590602001906401000000008111156200132d57600080fd5b8201836020820111156200134057600080fd5b803590602001918460018302840111640100000000831117156200136357600080fd5b91908080601f016020809104026020016040519081016040528093929190818152602001838380828437600081840152601f19601f82011690508083019250505050505050919291929050505062002905565b005b620013fd60048036036020811015620013d057600080fd5b81019080803573ffffffffffffffffffffffffffffffffffffffff16906020019092919050505062002a02565b005b6200140962002a8d565b604051808273ffffffffffffffffffffffffffffffffffffffff1673ffffffffffffffffffffffffffffffffffffffff16815260200191505060405180910390f35b600a8054600181600116156101000203166002900480601f016020809104026020016040519081016040528092919081815260200182805460018160011615610100020316600290048015620014e55780601f10620014b957610100808354040283529160200191620014e5565b820191906000526020600020905b815481529060010190602001808311620014c757829003601f168201915b505050505081565b600c8181548110620014fb57fe5b906000526020600020016000915090508054600181600116156101000203166002900480601f016020809104026020016040519081016040528092919081815260200182805460018160011615610100020316600290048015620015a35780601f106200157757610100808354040283529160200191620015a3565b820191906000526020600020905b8154815290600101906020018083116200158557829003601f168201915b505050505081565b600d8181548110620015b957fe5b9060005260206000209060040201600091509050806000018054600181600116156101000203166002900480601f016020809104026020016040519081016040528092919081815260200182805460018160011615610100020316600290048015620016695780601f106200163d5761010080835404028352916020019162001669565b820191906000526020600020905b8154815290600101906020018083116200164b57829003601f168201915b505050505090806001018054600181600116156101000203166002900480601f0160208091040260200160405190810160405280929190818152602001828054600181600116156101000203166002900480156200170b5780601f10620016df576101008083540402835291602001916200170b565b820191906000526020600020905b815481529060010190602001808311620016ed57829003601f168201915b505050505090806002018054600181600116156101000203166002900480601f016020809104026020016040519081016040528092919081815260200182805460018160011615610100020316600290048015620017ad5780601f106200178157610100808354040283529160200191620017ad565b820191906000526020600020905b8154815290600101906020018083116200178f57829003601f168201915b505050505090806003018054600181600116156101000203166002900480601f0160208091040260200160405190810160405280929190818152602001828054600181600116156101000203166002900480156200184f5780601f1062001823576101008083540402835291602001916200184f565b820191906000526020600020905b8154815290600101906020018083116200183157829003601f168201915b5050505050905084565b6200186362002548565b620018d6576040517f08c379a00000000000000000000000000000000000000000000000000000000081526004018080602001828103825260208152602001807f4f776e61626c653a2063616c6c6572206973206e6f7420746865206f776e657281525060200191505060405180910390fd5b6000600d8481548110620018e657fe5b90600052602060002090600402019050828160020190805190602001906200191092919062002dbf565b50818160030190805190602001906200192b92919062002dbf565b5050505050565b600d604051806080016040528084815260200183815260200160405180602001604052806000815250815260200160405180602001604052806000815250815250908060018154018082558091505090600182039060005260206000209060040201600090919290919091506000820151816000019080519060200190620019bc92919062002e46565b506020820151816001019080519060200190620019db92919062002e46565b506040820151816002019080519060200190620019fa92919062002e46565b50606082015181600301908051906020019062001a1992919062002e46565b505050505050565b6000600c80549050905090565b600f818154811062001a3c57fe5b906000526020600020016000915054906101000a900473ffffffffffffffffffffffffffffffffffffffff1681565b600e818154811062001a7957fe5b9060005260206000209060040201600091509050806000018054600181600116156101000203166002900480601f01602080910402602001604051908101604052809291908181526020018280546001816001161561010002031660029004801562001b295780601f1062001afd5761010080835404028352916020019162001b29565b820191906000526020600020905b81548152906001019060200180831162001b0b57829003601f168201915b505050505090806001018054600181600116156101000203166002900480601f01602080910402602001604051908101604052809291908181526020018280546001816001161561010002031660029004801562001bcb5780601f1062001b9f5761010080835404028352916020019162001bcb565b820191906000526020600020905b81548152906001019060200180831162001bad57829003601f168201915b505050505090806002018054600181600116156101000203166002900480601f01602080910402602001604051908101604052809291908181526020018280546001816001161561010002031660029004801562001c6d5780601f1062001c415761010080835404028352916020019162001c6d565b820191906000526020600020905b81548152906001019060200180831162001c4f57829003601f168201915b505050505090806003018054600181600116156101000203166002900480601f01602080910402602001604051908101604052809291908181526020018280546001816001161561010002031660029004801562001d0f5780601f1062001ce35761010080835404028352916020019162001d0f565b820191906000526020600020905b81548152906001019060200180831162001cf157829003601f168201915b5050505050905084565b62001d2362002548565b62001d96576040517f08c379a00000000000000000000000000000000000000000000000000000000081526004018080602001828103825260208152602001807f4f776e61626c653a2063616c6c6572206973206e6f7420746865206f776e657281525060200191505060405180910390fd5b6000600e848154811062001da657fe5b906000526020600020906004020190508281600201908051906020019062001dd092919062002dbf565b508181600301908051906020019062001deb92919062002dbf565b5050505050565b60098054600181600116156101000203166002900480601f01602080910402602001604051908101604052809291908181526020018280546001816001161561010002031660029004801562001e8c5780601f1062001e605761010080835404028352916020019162001e8c565b820191906000526020600020905b81548152906001019060200180831162001e6e57829003601f168201915b505050505081565b600260009054906101000a900460ff1681565b600e60405180608001604052808481526020018381526020016040518060200160405280600081525081526020016040518060200160405280600081525081525090806001815401808255809150509060018203906000526020600020906004020160009091929091909150600082015181600001908051906020019062001f3192919062002e46565b50602082015181600101908051906020019062001f5092919062002e46565b50604082015181600201908051906020019062001f6f92919062002e46565b50606082015181600301908051906020019062001f8e92919062002e46565b505050505050565b60108060000160009054906101000a900460781b908060010160009054906101000a900460781b905082565b62001fcc62002548565b6200203f576040517f08c379a00000000000000000000000000000000000000000000000000000000081526004018080602001828103825260208152602001807f4f776e61626c653a2063616c6c6572206973206e6f7420746865206f776e657281525060200191505060405180910390fd5b6001600260006101000a81548160ff021916908315150217905550565b600c8190806001815401808255809150509060018203906000526020600020016000909192909190915090805190602001906200209b92919062002dbf565b505050565b620020aa62002548565b6200211d576040517f08c379a00000000000000000000000000000000000000000000000000000000081526004018080602001828103825260208152602001807f4f776e61626c653a2063616c6c6572206973206e6f7420746865206f776e657281525060200191505060405180910390fd5b600073ffffffffffffffffffffffffffffffffffffffff166000809054906101000a900473ffffffffffffffffffffffffffffffffffffffff1673ffffffffffffffffffffffffffffffffffffffff167f8be0079c531659141344cd1fd0a4f28419497f9722a3daafe3b4186f6b6457e060405160405180910390a360008060006101000a81548173ffffffffffffffffffffffffffffffffffffffff021916908373ffffffffffffffffffffffffffffffffffffffff160217905550565b600b8054600181600116156101000203166002900480601f016020809104026020016040519081016040528092919081815260200182805460018160011615610100020316600290048015620022765780601f106200224a5761010080835404028352916020019162002276565b820191906000526020600020905b8154815290600101906020018083116200225857829003601f168201915b505050505081565b600260009054906101000a900460ff16620022e5576040517f08c379a000000000000000000000000000000000000000000000000000000000815260040180806020018281038252602781526020018062004e096027913960400191505060405180910390fd5b620022fb33600162002ab390919063ffffffff16565b156200236f576040517f08c379a000000000000000000000000000000000000000000000000000000000815260040180806020018281038252601a8152602001807f56656e646f7220616c72656164792075706c6f6164206269642e00000000000081525060200191505060405180910390fd5b60006200237b620024fd565b604051620023899062002ecd565b808273ffffffffffffffffffffffffffffffffffffffff1673ffffffffffffffffffffffffffffffffffffffff168152602001915050604051809103906000f080158015620023dc573d6000803e3d6000fd5b5090508073ffffffffffffffffffffffffffffffffffffffff1663f2fde38b336040518263ffffffff1660e01b8152600401808273ffffffffffffffffffffffffffffffffffffffff1673ffffffffffffffffffffffffffffffffffffffff168152602001915050600060405180830381600087803b1580156200245f57600080fd5b505af115801562002474573d6000803e3d6000fd5b50505050600f8190806001815401808255809150509060018203906000526020600020016000909192909190916101000a81548173ffffffffffffffffffffffffffffffffffffffff021916908373ffffffffffffffffffffffffffffffffffffffff16021790555050620024f433600162002b9390919063ffffffff16565b50565b60035481565b60008060009054906101000a900473ffffffffffffffffffffffffffffffffffffffff16905090565b600881815481106200253457fe5b906000526020600020016000915090505481565b60008060009054906101000a900473ffffffffffffffffffffffffffffffffffffffff1673ffffffffffffffffffffffffffffffffffffffff166200258c62002c71565b73ffffffffffffffffffffffffffffffffffffffff1614905090565b6000600880549050905090565b60045481565b60078181548110620025c957fe5b906000526020600020016000915090505481565b620025e762002548565b6200265a576040517f08c379a00000000000000000000000000000000000000000000000000000000081526004018080602001828103825260208152602001807f4f776e61626c653a2063616c6c6572206973206e6f7420746865206f776e657281525060200191505060405180910390fd5b6000600f8054905011620026ba576040517f08c379a000000000000000000000000000000000000000000000000000000000815260040180806020018281038252603981526020018062004e526039913960400191505060405180910390fd5b600f600081548110620026c957fe5b9060005260206000200160009054906101000a900473ffffffffffffffffffffffffffffffffffffffff1673ffffffffffffffffffffffffffffffffffffffff16638da5cb5b6040518163ffffffff1660e01b815260040160206040518083038186803b1580156200273a57600080fd5b505afa1580156200274f573d6000803e3d6000fd5b505050506040513d60208110156200276657600080fd5b8101908080519060200190929190505050600260016101000a81548173ffffffffffffffffffffffffffffffffffffffff021916908373ffffffffffffffffffffffffffffffffffffffff160217905550565b60068181548110620027c757fe5b906000526020600020016000915090505481565b60055481565b6000600d80549050905090565b6000600f80549050905090565b6000600e80549050905090565b600e604051806080016040528083815260200160405180602001604052806000815250815260200160405180602001604052806000815250815260200160405180602001604052806000815250815250908060018154018082558091505090600182039060005260206000209060040201600090919290919091506000820151816000019080519060200190620028a192919062002e46565b506020820151816001019080519060200190620028c092919062002e46565b506040820151816002019080519060200190620028df92919062002e46565b506060820151816003019080519060200190620028fe92919062002e46565b5050505050565b600d6040518060800160405280838152602001604051806020016040528060008152508152602001604051806020016040528060008152508152602001604051806020016040528060008152508152509080600181540180825580915050906001820390600052602060002090600402016000909192909190915060008201518160000190805190602001906200299e92919062002e46565b506020820151816001019080519060200190620029bd92919062002e46565b506040820151816002019080519060200190620029dc92919062002e46565b506060820151816003019080519060200190620029fb92919062002e46565b5050505050565b62002a0c62002548565b62002a7f576040517f08c379a00000000000000000000000000000000000000000000000000000000081526004018080602001828103825260208152602001807f4f776e61626c653a2063616c6c6572206973206e6f7420746865206f776e657281525060200191505060405180910390fd5b62002a8a8162002c79565b50565b600260019054906101000a900473ffffffffffffffffffffffffffffffffffffffff1681565b60008073ffffffffffffffffffffffffffffffffffffffff168273ffffffffffffffffffffffffffffffffffffffff16141562002b3c576040517f08c379a000000000000000000000000000000000000000000000000000000000815260040180806020018281038252602281526020018062004e306022913960400191505060405180910390fd5b8260000160008373ffffffffffffffffffffffffffffffffffffffff1673ffffffffffffffffffffffffffffffffffffffff16815260200190815260200160002060009054906101000a900460ff16905092915050565b62002b9f828262002ab3565b1562002c13576040517f08c379a000000000000000000000000000000000000000000000000000000000815260040180806020018281038252601f8152602001807f526f6c65733a206163636f756e7420616c72656164792068617320726f6c650081525060200191505060405180910390fd5b60018260000160008373ffffffffffffffffffffffffffffffffffffffff1673ffffffffffffffffffffffffffffffffffffffff16815260200190815260200160002060006101000a81548160ff0219169083151502179055505050565b600033905090565b600073ffffffffffffffffffffffffffffffffffffffff168173ffffffffffffffffffffffffffffffffffffffff16141562002d01576040517f08c379a000000000000000000000000000000000000000000000000000000000815260040180806020018281038252602681526020018062004de36026913960400191505060405180910390fd5b8073ffffffffffffffffffffffffffffffffffffffff166000809054906101000a900473ffffffffffffffffffffffffffffffffffffffff1673ffffffffffffffffffffffffffffffffffffffff167f8be0079c531659141344cd1fd0a4f28419497f9722a3daafe3b4186f6b6457e060405160405180910390a3806000806101000a81548173ffffffffffffffffffffffffffffffffffffffff021916908373ffffffffffffffffffffffffffffffffffffffff16021790555050565b828054600181600116156101000203166002900490600052602060002090601f016020900481019282601f1062002e0257805160ff191683800117855562002e33565b8280016001018555821562002e33579182015b8281111562002e3257825182559160200191906001019062002e15565b5b50905062002e42919062002edb565b5090565b828054600181600116156101000203166002900490600052602060002090601f016020900481019282601f1062002e8957805160ff191683800117855562002eba565b8280016001018555821562002eba579182015b8281111562002eb957825182559160200191906001019062002e9c565b5b50905062002ec9919062002edb565b5090565b611edf8062002f0483390190565b62002f0091905b8082111562002efc57600081600090555060010162002ee2565b5090565b9056fe608060405234801561001057600080fd5b50604051611edf380380611edf8339818101604052602081101561003357600080fd5b810190808051906020019092919050505061005261015460201b60201c565b6000806101000a81548173ffffffffffffffffffffffffffffffffffffffff021916908373ffffffffffffffffffffffffffffffffffffffff1602179055506000809054906101000a900473ffffffffffffffffffffffffffffffffffffffff1673ffffffffffffffffffffffffffffffffffffffff16600073ffffffffffffffffffffffffffffffffffffffff167f8be0079c531659141344cd1fd0a4f28419497f9722a3daafe3b4186f6b6457e060405160405180910390a380600160006101000a81548173ffffffffffffffffffffffffffffffffffffffff021916908373ffffffffffffffffffffffffffffffffffffffff1602179055505061015c565b600033905090565b611d748061016b6000396000f3fe608060405234801561001057600080fd5b506004361061010b5760003560e01c8063cae017d2116100a2578063f07ee22511610071578063f07ee22514610979578063f132617514610acb578063f211128314610c27578063f288f50514610ce2578063f2fde38b14610d005761010b565b8063cae017d2146108c5578063d7150180146108f3578063e7974fef14610911578063efedc6691461095b5761010b565b8063715018a6116100de578063715018a6146106645780638da5cb5b1461066e5780638f32d59b146106b85780639986ab94146106da5761010b565b8063252c09d7146101105780632c519bc4146102fb5780632ca5f37f146104575780633b02a26814610512575b600080fd5b61013c6004803603602081101561012657600080fd5b8101908080359060200190929190505050610d44565b6040518080602001806020018060200180602001858103855289818151815260200191508051906020019080838360005b8381101561018857808201518184015260208101905061016d565b50505050905090810190601f1680156101b55780820380516001836020036101000a031916815260200191505b50858103845288818151815260200191508051906020019080838360005b838110156101ee5780820151818401526020810190506101d3565b50505050905090810190601f16801561021b5780820380516001836020036101000a031916815260200191505b50858103835287818151815260200191508051906020019080838360005b83811015610254578082015181840152602081019050610239565b50505050905090810190601f1680156102815780820380516001836020036101000a031916815260200191505b50858103825286818151815260200191508051906020019080838360005b838110156102ba57808201518184015260208101905061029f565b50505050905090810190601f1680156102e75780820380516001836020036101000a031916815260200191505b509850505050505050505060405180910390f35b6104556004803603606081101561031157600080fd5b81019080803590602001909291908035906020019064010000000081111561033857600080fd5b82018360208201111561034a57600080fd5b8035906020019184600183028401116401000000008311171561036c57600080fd5b91908080601f016020809104026020016040519081016040528093929190818152602001838380828437600081840152601f19601f820116905080830192505050505050509192919290803590602001906401000000008111156103cf57600080fd5b8201836020820111156103e157600080fd5b8035906020019184600183028401116401000000008311171561040357600080fd5b91908080601f016020809104026020016040519081016040528093929190818152602001838380828437600081840152601f19601f820116905080830192505050505050509192919290505050610fe1565b005b6105106004803603602081101561046d57600080fd5b810190808035906020019064010000000081111561048a57600080fd5b82018360208201111561049c57600080fd5b803590602001918460018302840111640100000000831117156104be57600080fd5b91908080601f016020809104026020016040519081016040528093929190818152602001838380828437600081840152601f19601f8201169050808301925050505050505091929192905050506110b2565b005b6106626004803603604081101561052857600080fd5b810190808035906020019064010000000081111561054557600080fd5b82018360208201111561055757600080fd5b8035906020019184600183028401116401000000008311171561057957600080fd5b91908080601f016020809104026020016040519081016040528093929190818152602001838380828437600081840152601f19601f820116905080830192505050505050509192919290803590602001906401000000008111156105dc57600080fd5b8201836020820111156105ee57600080fd5b8035906020019184600183028401116401000000008311171561061057600080fd5b91908080601f016020809104026020016040519081016040528093929190818152602001838380828437600081840152601f19601f8201169050808301925050505050505091929192905050506111a7565b005b61066c61128e565b005b6106766113c7565b604051808273ffffffffffffffffffffffffffffffffffffffff1673ffffffffffffffffffffffffffffffffffffffff16815260200191505060405180910390f35b6106c06113f0565b604051808215151515815260200191505060405180910390f35b610706600480360360208110156106f057600080fd5b810190808035906020019092919050505061144e565b6040518080602001806020018060200180602001858103855289818151815260200191508051906020019080838360005b83811015610752578082015181840152602081019050610737565b50505050905090810190601f16801561077f5780820380516001836020036101000a031916815260200191505b50858103845288818151815260200191508051906020019080838360005b838110156107b857808201518184015260208101905061079d565b50505050905090810190601f1680156107e55780820380516001836020036101000a031916815260200191505b50858103835287818151815260200191508051906020019080838360005b8381101561081e578082015181840152602081019050610803565b50505050905090810190601f16801561084b5780820380516001836020036101000a031916815260200191505b50858103825286818151815260200191508051906020019080838360005b83811015610884578082015181840152602081019050610869565b50505050905090810190601f1680156108b15780820380516001836020036101000a031916815260200191505b509850505050505050505060405180910390f35b6108f1600480360360208110156108db57600080fd5b81019080803590602001909291905050506116eb565b005b6108fb61174f565b6040518082815260200191505060405180910390f35b61091961175c565b604051808273ffffffffffffffffffffffffffffffffffffffff1673ffffffffffffffffffffffffffffffffffffffff16815260200191505060405180910390f35b610963611782565b6040518082815260200191505060405180910390f35b610ac96004803603604081101561098f57600080fd5b81019080803590602001906401000000008111156109ac57600080fd5b8201836020820111156109be57600080fd5b803590602001918460018302840111640100000000831117156109e057600080fd5b91908080601f016020809104026020016040519081016040528093929190818152602001838380828437600081840152601f19601f82011690508083019250505050505050919291929080359060200190640100000000811115610a4357600080fd5b820183602082011115610a5557600080fd5b80359060200191846001830284011164010000000083111715610a7757600080fd5b91908080601f016020809104026020016040519081016040528093929190818152602001838380828437600081840152601f19601f820116905080830192505050505050509192919290505050611788565b005b610c2560048036036060811015610ae157600080fd5b810190808035906020019092919080359060200190640100000000811115610b0857600080fd5b820183602082011115610b1a57600080fd5b80359060200191846001830284011164010000000083111715610b3c57600080fd5b91908080601f016020809104026020016040519081016040528093929190818152602001838380828437600081840152601f19601f82011690508083019250505050505050919291929080359060200190640100000000811115610b9f57600080fd5b820183602082011115610bb157600080fd5b80359060200191846001830284011164010000000083111715610bd357600080fd5b91908080601f016020809104026020016040519081016040528093929190818152602001838380828437600081840152601f19601f82011690508083019250505050505050919291929050505061186f565b005b610ce060048036036020811015610c3d57600080fd5b8101908080359060200190640100000000811115610c5a57600080fd5b820183602082011115610c6c57600080fd5b80359060200191846001830284011164010000000083111715610c8e57600080fd5b91908080601f016020809104026020016040519081016040528093929190818152602001838380828437600081840152601f19601f820116905080830192505050505050509192919290505050611920565b005b610cea611a15565b6040518082815260200191505060405180910390f35b610d4260048036036020811015610d1657600080fd5b81019080803573ffffffffffffffffffffffffffffffffffffffff169060200190929190505050611a22565b005b60038181548110610d5157fe5b9060005260206000209060040201600091509050806000018054600181600116156101000203166002900480601f016020809104026020016040519081016040528092919081815260200182805460018160011615610100020316600290048015610dfd5780601f10610dd257610100808354040283529160200191610dfd565b820191906000526020600020905b815481529060010190602001808311610de057829003601f168201915b505050505090806001018054600181600116156101000203166002900480601f016020809104026020016040519081016040528092919081815260200182805460018160011615610100020316600290048015610e9b5780601f10610e7057610100808354040283529160200191610e9b565b820191906000526020600020905b815481529060010190602001808311610e7e57829003601f168201915b505050505090806002018054600181600116156101000203166002900480601f016020809104026020016040519081016040528092919081815260200182805460018160011615610100020316600290048015610f395780601f10610f0e57610100808354040283529160200191610f39565b820191906000526020600020905b815481529060010190602001808311610f1c57829003601f168201915b505050505090806003018054600181600116156101000203166002900480601f016020809104026020016040519081016040528092919081815260200182805460018160011615610100020316600290048015610fd75780601f10610fac57610100808354040283529160200191610fd7565b820191906000526020600020905b815481529060010190602001808311610fba57829003601f168201915b5050505050905084565b610fe96113f0565b61105b576040517f08c379a00000000000000000000000000000000000000000000000000000000081526004018080602001828103825260208152602001807f4f776e61626c653a2063616c6c6572206973206e6f7420746865206f776e657281525060200191505060405180910390fd5b60006003848154811061106a57fe5b9060005260206000209060040201905082816002019080519060200190611092929190611bf4565b50818160030190805190602001906110ab929190611bf4565b5050505050565b6004604051806080016040528083815260200160405180602001604052806000815250815260200160405180602001604052806000815250815260200160405180602001604052806000815250815250908060018154018082558091505090600182039060005260206000209060040201600090919290919091506000820151816000019080519060200190611149929190611c74565b506020820151816001019080519060200190611166929190611c74565b506040820151816002019080519060200190611183929190611c74565b5060608201518160030190805190602001906111a0929190611c74565b5050505050565b600360405180608001604052808481526020018381526020016040518060200160405280600081525081526020016040518060200160405280600081525081525090806001815401808255809150509060018203906000526020600020906004020160009091929091909150600082015181600001908051906020019061122f929190611c74565b50602082015181600101908051906020019061124c929190611c74565b506040820151816002019080519060200190611269929190611c74565b506060820151816003019080519060200190611286929190611c74565b505050505050565b6112966113f0565b611308576040517f08c379a00000000000000000000000000000000000000000000000000000000081526004018080602001828103825260208152602001807f4f776e61626c653a2063616c6c6572206973206e6f7420746865206f776e657281525060200191505060405180910390fd5b600073ffffffffffffffffffffffffffffffffffffffff166000809054906101000a900473ffffffffffffffffffffffffffffffffffffffff1673ffffffffffffffffffffffffffffffffffffffff167f8be0079c531659141344cd1fd0a4f28419497f9722a3daafe3b4186f6b6457e060405160405180910390a360008060006101000a81548173ffffffffffffffffffffffffffffffffffffffff021916908373ffffffffffffffffffffffffffffffffffffffff160217905550565b60008060009054906101000a900473ffffffffffffffffffffffffffffffffffffffff16905090565b60008060009054906101000a900473ffffffffffffffffffffffffffffffffffffffff1673ffffffffffffffffffffffffffffffffffffffff16611432611aa8565b73ffffffffffffffffffffffffffffffffffffffff1614905090565b6004818154811061145b57fe5b9060005260206000209060040201600091509050806000018054600181600116156101000203166002900480601f0160208091040260200160405190810160405280929190818152602001828054600181600116156101000203166002900480156115075780601f106114dc57610100808354040283529160200191611507565b820191906000526020600020905b8154815290600101906020018083116114ea57829003601f168201915b505050505090806001018054600181600116156101000203166002900480601f0160208091040260200160405190810160405280929190818152602001828054600181600116156101000203166002900480156115a55780601f1061157a576101008083540402835291602001916115a5565b820191906000526020600020905b81548152906001019060200180831161158857829003601f168201915b505050505090806002018054600181600116156101000203166002900480601f0160208091040260200160405190810160405280929190818152602001828054600181600116156101000203166002900480156116435780601f1061161857610100808354040283529160200191611643565b820191906000526020600020905b81548152906001019060200180831161162657829003601f168201915b505050505090806003018054600181600116156101000203166002900480601f0160208091040260200160405190810160405280929190818152602001828054600181600116156101000203166002900480156116e15780601f106116b6576101008083540402835291602001916116e1565b820191906000526020600020905b8154815290600101906020018083116116c457829003601f168201915b5050505050905084565b600160009054906101000a900473ffffffffffffffffffffffffffffffffffffffff1673ffffffffffffffffffffffffffffffffffffffff163373ffffffffffffffffffffffffffffffffffffffff161461174557600080fd5b8060028190555050565b6000600380549050905090565b600160009054906101000a900473ffffffffffffffffffffffffffffffffffffffff1681565b60025481565b6004604051806080016040528084815260200183815260200160405180602001604052806000815250815260200160405180602001604052806000815250815250908060018154018082558091505090600182039060005260206000209060040201600090919290919091506000820151816000019080519060200190611810929190611c74565b50602082015181600101908051906020019061182d929190611c74565b50604082015181600201908051906020019061184a929190611c74565b506060820151816003019080519060200190611867929190611c74565b505050505050565b600160009054906101000a900473ffffffffffffffffffffffffffffffffffffffff1673ffffffffffffffffffffffffffffffffffffffff163373ffffffffffffffffffffffffffffffffffffffff16146118c957600080fd5b6000600484815481106118d857fe5b9060005260206000209060040201905082816002019080519060200190611900929190611bf4565b5081816003019080519060200190611919929190611bf4565b5050505050565b60036040518060800160405280838152602001604051806020016040528060008152508152602001604051806020016040528060008152508152602001604051806020016040528060008152508152509080600181540180825580915050906001820390600052602060002090600402016000909192909190915060008201518160000190805190602001906119b7929190611c74565b5060208201518160010190805190602001906119d4929190611c74565b5060408201518160020190805190602001906119f1929190611c74565b506060820151816003019080519060200190611a0e929190611c74565b5050505050565b6000600480549050905090565b611a2a6113f0565b611a9c576040517f08c379a00000000000000000000000000000000000000000000000000000000081526004018080602001828103825260208152602001807f4f776e61626c653a2063616c6c6572206973206e6f7420746865206f776e657281525060200191505060405180910390fd5b611aa581611ab0565b50565b600033905090565b600073ffffffffffffffffffffffffffffffffffffffff168173ffffffffffffffffffffffffffffffffffffffff161415611b36576040517f08c379a0000000000000000000000000000000000000000000000000000000008152600401808060200182810382526026815260200180611d1a6026913960400191505060405180910390fd5b8073ffffffffffffffffffffffffffffffffffffffff166000809054906101000a900473ffffffffffffffffffffffffffffffffffffffff1673ffffffffffffffffffffffffffffffffffffffff167f8be0079c531659141344cd1fd0a4f28419497f9722a3daafe3b4186f6b6457e060405160405180910390a3806000806101000a81548173ffffffffffffffffffffffffffffffffffffffff021916908373ffffffffffffffffffffffffffffffffffffffff16021790555050565b828054600181600116156101000203166002900490600052602060002090601f016020900481019282601f10611c3557805160ff1916838001178555611c63565b82800160010185558215611c63579182015b82811115611c62578251825591602001919060010190611c47565b5b509050611c709190611cf4565b5090565b828054600181600116156101000203166002900490600052602060002090601f016020900481019282601f10611cb557805160ff1916838001178555611ce3565b82800160010185558215611ce3579182015b82811115611ce2578251825591602001919060010190611cc7565b5b509050611cf09190611cf4565b5090565b611d1691905b80821115611d12576000816000905550600101611cfa565b5090565b9056fe4f776e61626c653a206e6577206f776e657220697320746865207a65726f2061646472657373a265627a7a723158203e1d001d60773097a561f1757f576bdc1b17acbbdf9370cf723c66b823de0db364736f6c634300050c00324f776e61626c653a206e6577206f776e657220697320746865207a65726f20616464726573735468652062696464696e6720706572696f6420686173206e6f742073746172746564207965742e526f6c65733a206163636f756e7420697320746865207a65726f206164647265737354686520617265206e6f20706f737369626c652077696e6e6572732c2073696e636520746865726520617265206e6f7420616e792062696473a265627a7a723158204ec8d11b2b522f6c7b6644814d01243b7f27a03a1485066212fb34bbdae8089064736f6c634300050c0032",
  "source": "pragma solidity >=0.4.23 <0.6.0;\n\nimport 'openzeppelin-solidity/contracts/ownership/Ownable.sol';\nimport 'openzeppelin-solidity/contracts/access/Roles.sol';\nimport 'contracts/Bid.sol';\n\ncontract Tender is Ownable {\n  using Roles for Roles.Role;\n\n  Roles.Role private vendors;\n\n  bool public biddingPeriod;\n  address public winningVendor;\n  uint public number;\n  uint public enablingScore;\n  uint public basePrice;\n  uint[] public scheduleDates;\n  bytes32[] public ipfsHashes;\n  bytes32[] public questionnaires;\n  string public office;\n  string public name;\n  string public description;\n  string[] public messages;\n  Observation[] public observations;\n  Observation[] public winnerObservations;\n  Bid[] public bids;\n  PublicKey public publicKey;\n\n  event TenderCreated(address indexed _owner, string _name);\n\n  struct Observation {\n    string plain;\n    string hash;\n    string resPlain;\n    string resHash;\n  }\n\n  struct PublicKey {\n    bytes17 r;\n    bytes17 s;\n  }\n\n  constructor(\n    uint _number                    ,\n    string memory _office           ,\n    string memory _name             ,\n    string memory _description      ,\n    uint _enablingScore             ,\n    bytes17[] memory _publicKey     ,\n    bytes32[] memory _ipfsHashes    ,\n    bytes32[] memory _questionnaires,\n    uint _basePrice                 ,\n    uint[] memory _scheduleDates\n  ) public {\n    description = _description;\n    biddingPeriod = false;\n    number = _number;\n    office =  _office;\n    name = _name;\n    enablingScore = _enablingScore;\n    publicKey = PublicKey({ r: _publicKey[0], s: _publicKey[1] });\n    ipfsHashes = _ipfsHashes;\n    questionnaires = _questionnaires;\n    basePrice = _basePrice;\n    scheduleDates = _scheduleDates;\n    emit TenderCreated(msg.sender, name);\n  }\n\n  function submitObservation(string memory _plain) public {\n    observations.push(Observation({plain: _plain, hash: \"\", resPlain: \"\", resHash: \"\"}));\n  }\n\n  function submitObservation(string memory _plain, string memory _hash) public {\n    observations.push(Observation({plain: _plain, hash: _hash, resPlain: \"\", resHash: \"\"}));\n  }\n\n  function respondObservation(uint _idx, string memory _plain, string memory _hash) public onlyOwner {\n    Observation storage obs = observations[_idx];\n    obs.resPlain = _plain;\n    obs.resHash = _hash;\n  }\n\n  function submitWinnerObservation(string memory _plain) public {\n    winnerObservations.push(Observation({plain: _plain, hash: \"\", resPlain: \"\", resHash: \"\"}));\n  }\n\n  function submitWinnerObservation(string memory _plain, string memory _hash) public {\n    winnerObservations.push(Observation({plain: _plain, hash: _hash, resPlain: \"\", resHash: \"\"}));\n  }\n\n  function respondWinnerObservation(uint _idx, string memory _plain, string memory _hash) public onlyOwner {\n    Observation storage obs = winnerObservations[_idx];\n    obs.resPlain = _plain;\n    obs.resHash = _hash;\n  }\n\n  function getObservationsLength() public view returns(uint) {\n    return observations.length;\n  }\n\n  function submitMessage(string memory _message) public {\n    messages.push(_message);\n  }\n\n  function getMessagesLength() public view returns(uint) {\n    return messages.length;\n  }\n\n\n  function getWinnerObservationsLength() public view returns(uint) {\n    return winnerObservations.length;\n  }\n\n  function getQuestionnaireLength() public view returns (uint) {\n    return questionnaires.length;\n  }\n\n  function createBid() public {\n    require(biddingPeriod,\"The bidding period has not started yet.\");\n    require(!vendors.has(msg.sender), \"Vendor already upload bid.\");\n    Bid bid = new Bid(owner());\n    bid.transferOwnership(msg.sender);\n    bids.push(bid);\n    vendors.add(msg.sender);\n  }\n\n  function getBidsLength() public view returns(uint) {\n    return bids.length;\n  }\n\n  function startAuction() public onlyOwner {\n    biddingPeriod = true;\n  }\n  function setWinningVendor() public onlyOwner {\n    require(bids.length > 0, \"The are no possible winners, since there are not any bids\");\n    winningVendor = bids[0].owner();\n  }\n}\n",
  "sourcePath": "/home/luis/Documents/BlockchainStuff/Proyecto/contracts/contracts/Tender.sol",
  "compiler": {
    "name": "solc",
    "version": "0.5.12+commit.7709ece9.Emscripten.clang"
  },
  "schemaVersion": "3.0.19",
  "updatedAt": "2019-11-22T21:06:42.813Z",
  "devdoc": {
    "methods": {
      "isOwner()": {
        "details": "Returns true if the caller is the current owner."
      },
      "owner()": {
        "details": "Returns the address of the current owner."
      },
      "renounceOwnership()": {
        "details": "Leaves the contract without owner. It will not be possible to call `onlyOwner` functions anymore. Can only be called by the current owner.     * NOTE: Renouncing ownership will leave the contract without an owner, thereby removing any functionality that is only available to the owner."
      },
      "transferOwnership(address)": {
        "details": "Transfers ownership of the contract to a new account (`newOwner`). Can only be called by the current owner."
      }
    }
  },
  "userdoc": {
    "methods": {}
  }
}