{
  "contractName": "Tender",
  "abi": [
    {
      "inputs": [
        {
          "internalType": "uint256",
          "name": "_number",
          "type": "uint256"
        },
        {
          "internalType": "uint256",
          "name": "_basePrice",
          "type": "uint256"
        },
        {
          "internalType": "string",
          "name": "_office",
          "type": "string"
        },
        {
          "internalType": "string",
          "name": "_name",
          "type": "string"
        },
        {
          "internalType": "string",
          "name": "_description",
          "type": "string"
        },
        {
          "internalType": "string",
          "name": "_procedureTeam",
          "type": "string"
        },
        {
          "internalType": "bytes17[]",
          "name": "_publicKey",
          "type": "bytes17[]"
        },
        {
          "internalType": "bytes32[]",
          "name": "_ipfsHashes",
          "type": "bytes32[]"
        },
        {
          "internalType": "uint256[]",
          "name": "_scheduleDates",
          "type": "uint256[]"
        },
        {
          "internalType": "uint256[]",
          "name": "_unspsc",
          "type": "uint256[]"
        },
        {
          "internalType": "uint256[]",
          "name": "_contractInfo",
          "type": "uint256[]"
        },
        {
          "internalType": "uint256[]",
          "name": "_generalInfoValues",
          "type": "uint256[]"
        },
        {
          "internalType": "bool[]",
          "name": "_generalInfoFlags",
          "type": "bool[]"
        }
      ],
      "payable": false,
      "stateMutability": "nonpayable",
      "type": "constructor"
    },
    {
      "anonymous": false,
      "inputs": [
        {
          "indexed": true,
          "internalType": "address",
          "name": "previousOwner",
          "type": "address"
        },
        {
          "indexed": true,
          "internalType": "address",
          "name": "newOwner",
          "type": "address"
        }
      ],
      "name": "OwnershipTransferred",
      "type": "event"
    },
    {
      "anonymous": false,
      "inputs": [
        {
          "indexed": true,
          "internalType": "address",
          "name": "_owner",
          "type": "address"
        },
        {
          "indexed": false,
          "internalType": "string",
          "name": "_name",
          "type": "string"
        }
      ],
      "name": "TenderCreated",
      "type": "event"
    },
    {
      "constant": true,
      "inputs": [],
      "name": "basePrice",
      "outputs": [
        {
          "internalType": "uint256",
          "name": "",
          "type": "uint256"
        }
      ],
      "payable": false,
      "stateMutability": "view",
      "type": "function"
    },
    {
      "constant": true,
      "inputs": [],
      "name": "biddingPeriod",
      "outputs": [
        {
          "internalType": "bool",
          "name": "",
          "type": "bool"
        }
      ],
      "payable": false,
      "stateMutability": "view",
      "type": "function"
    },
    {
      "constant": true,
      "inputs": [
        {
          "internalType": "uint256",
          "name": "",
          "type": "uint256"
        }
      ],
      "name": "contractInfo",
      "outputs": [
        {
          "internalType": "uint256",
          "name": "",
          "type": "uint256"
        }
      ],
      "payable": false,
      "stateMutability": "view",
      "type": "function"
    },
    {
      "constant": true,
      "inputs": [],
      "name": "description",
      "outputs": [
        {
          "internalType": "string",
          "name": "",
          "type": "string"
        }
      ],
      "payable": false,
      "stateMutability": "view",
      "type": "function"
    },
    {
      "constant": true,
      "inputs": [
        {
          "internalType": "uint256",
          "name": "",
          "type": "uint256"
        }
      ],
      "name": "generalInfoFlags",
      "outputs": [
        {
          "internalType": "bool",
          "name": "",
          "type": "bool"
        }
      ],
      "payable": false,
      "stateMutability": "view",
      "type": "function"
    },
    {
      "constant": true,
      "inputs": [
        {
          "internalType": "uint256",
          "name": "",
          "type": "uint256"
        }
      ],
      "name": "generalInfoValues",
      "outputs": [
        {
          "internalType": "uint256",
          "name": "",
          "type": "uint256"
        }
      ],
      "payable": false,
      "stateMutability": "view",
      "type": "function"
    },
    {
      "constant": true,
      "inputs": [
        {
          "internalType": "uint256",
          "name": "",
          "type": "uint256"
        }
      ],
      "name": "ipfsHashes",
      "outputs": [
        {
          "internalType": "bytes32",
          "name": "",
          "type": "bytes32"
        }
      ],
      "payable": false,
      "stateMutability": "view",
      "type": "function"
    },
    {
      "constant": true,
      "inputs": [],
      "name": "isOwner",
      "outputs": [
        {
          "internalType": "bool",
          "name": "",
          "type": "bool"
        }
      ],
      "payable": false,
      "stateMutability": "view",
      "type": "function"
    },
    {
      "constant": true,
      "inputs": [
        {
          "internalType": "uint256",
          "name": "",
          "type": "uint256"
        }
      ],
      "name": "messages",
      "outputs": [
        {
          "internalType": "string",
          "name": "",
          "type": "string"
        }
      ],
      "payable": false,
      "stateMutability": "view",
      "type": "function"
    },
    {
      "constant": true,
      "inputs": [],
      "name": "name",
      "outputs": [
        {
          "internalType": "string",
          "name": "",
          "type": "string"
        }
      ],
      "payable": false,
      "stateMutability": "view",
      "type": "function"
    },
    {
      "constant": true,
      "inputs": [],
      "name": "number",
      "outputs": [
        {
          "internalType": "uint256",
          "name": "",
          "type": "uint256"
        }
      ],
      "payable": false,
      "stateMutability": "view",
      "type": "function"
    },
    {
      "constant": true,
      "inputs": [
        {
          "internalType": "uint256",
          "name": "",
          "type": "uint256"
        }
      ],
      "name": "observations",
      "outputs": [
        {
          "internalType": "string",
          "name": "plain",
          "type": "string"
        },
        {
          "internalType": "string",
          "name": "hash",
          "type": "string"
        },
        {
          "internalType": "string",
          "name": "resPlain",
          "type": "string"
        },
        {
          "internalType": "string",
          "name": "resHash",
          "type": "string"
        }
      ],
      "payable": false,
      "stateMutability": "view",
      "type": "function"
    },
    {
      "constant": true,
      "inputs": [],
      "name": "office",
      "outputs": [
        {
          "internalType": "string",
          "name": "",
          "type": "string"
        }
      ],
      "payable": false,
      "stateMutability": "view",
      "type": "function"
    },
    {
      "constant": true,
      "inputs": [],
      "name": "owner",
      "outputs": [
        {
          "internalType": "address",
          "name": "",
          "type": "address"
        }
      ],
      "payable": false,
      "stateMutability": "view",
      "type": "function"
    },
    {
      "constant": true,
      "inputs": [],
      "name": "procedureTeam",
      "outputs": [
        {
          "internalType": "string",
          "name": "",
          "type": "string"
        }
      ],
      "payable": false,
      "stateMutability": "view",
      "type": "function"
    },
    {
      "constant": true,
      "inputs": [],
      "name": "publicKey",
      "outputs": [
        {
          "internalType": "bytes17",
          "name": "r",
          "type": "bytes17"
        },
        {
          "internalType": "bytes17",
          "name": "s",
          "type": "bytes17"
        }
      ],
      "payable": false,
      "stateMutability": "view",
      "type": "function"
    },
    {
      "constant": false,
      "inputs": [],
      "name": "renounceOwnership",
      "outputs": [],
      "payable": false,
      "stateMutability": "nonpayable",
      "type": "function"
    },
    {
      "constant": true,
      "inputs": [
        {
          "internalType": "uint256",
          "name": "",
          "type": "uint256"
        }
      ],
      "name": "scheduleDates",
      "outputs": [
        {
          "internalType": "uint256",
          "name": "",
          "type": "uint256"
        }
      ],
      "payable": false,
      "stateMutability": "view",
      "type": "function"
    },
    {
      "constant": false,
      "inputs": [
        {
          "internalType": "address",
          "name": "newOwner",
          "type": "address"
        }
      ],
      "name": "transferOwnership",
      "outputs": [],
      "payable": false,
      "stateMutability": "nonpayable",
      "type": "function"
    },
    {
      "constant": true,
      "inputs": [
        {
          "internalType": "uint256",
          "name": "",
          "type": "uint256"
        }
      ],
      "name": "unspsc",
      "outputs": [
        {
          "internalType": "uint256",
          "name": "",
          "type": "uint256"
        }
      ],
      "payable": false,
      "stateMutability": "view",
      "type": "function"
    },
    {
      "constant": true,
      "inputs": [
        {
          "internalType": "uint256",
          "name": "",
          "type": "uint256"
        }
      ],
      "name": "winnerObservations",
      "outputs": [
        {
          "internalType": "string",
          "name": "plain",
          "type": "string"
        },
        {
          "internalType": "string",
          "name": "hash",
          "type": "string"
        },
        {
          "internalType": "string",
          "name": "resPlain",
          "type": "string"
        },
        {
          "internalType": "string",
          "name": "resHash",
          "type": "string"
        }
      ],
      "payable": false,
      "stateMutability": "view",
      "type": "function"
    },
    {
      "constant": true,
      "inputs": [],
      "name": "winningVendor",
      "outputs": [
        {
          "internalType": "address",
          "name": "",
          "type": "address"
        }
      ],
      "payable": false,
      "stateMutability": "view",
      "type": "function"
    },
    {
      "constant": false,
      "inputs": [
        {
          "internalType": "string",
          "name": "_plain",
          "type": "string"
        }
      ],
      "name": "submitObservation",
      "outputs": [],
      "payable": false,
      "stateMutability": "nonpayable",
      "type": "function"
    },
    {
      "constant": false,
      "inputs": [
        {
          "internalType": "string",
          "name": "_plain",
          "type": "string"
        },
        {
          "internalType": "string",
          "name": "_hash",
          "type": "string"
        }
      ],
      "name": "submitObservation",
      "outputs": [],
      "payable": false,
      "stateMutability": "nonpayable",
      "type": "function"
    },
    {
      "constant": false,
      "inputs": [
        {
          "internalType": "uint256",
          "name": "_idx",
          "type": "uint256"
        },
        {
          "internalType": "string",
          "name": "_plain",
          "type": "string"
        },
        {
          "internalType": "string",
          "name": "_hash",
          "type": "string"
        }
      ],
      "name": "respondObservation",
      "outputs": [],
      "payable": false,
      "stateMutability": "nonpayable",
      "type": "function"
    },
    {
      "constant": false,
      "inputs": [
        {
          "internalType": "string",
          "name": "_plain",
          "type": "string"
        }
      ],
      "name": "submitWinnerObservation",
      "outputs": [],
      "payable": false,
      "stateMutability": "nonpayable",
      "type": "function"
    },
    {
      "constant": false,
      "inputs": [
        {
          "internalType": "string",
          "name": "_plain",
          "type": "string"
        },
        {
          "internalType": "string",
          "name": "_hash",
          "type": "string"
        }
      ],
      "name": "submitWinnerObservation",
      "outputs": [],
      "payable": false,
      "stateMutability": "nonpayable",
      "type": "function"
    },
    {
      "constant": false,
      "inputs": [
        {
          "internalType": "uint256",
          "name": "_idx",
          "type": "uint256"
        },
        {
          "internalType": "string",
          "name": "_plain",
          "type": "string"
        },
        {
          "internalType": "string",
          "name": "_hash",
          "type": "string"
        }
      ],
      "name": "respondWinnerObservation",
      "outputs": [],
      "payable": false,
      "stateMutability": "nonpayable",
      "type": "function"
    },
    {
      "constant": true,
      "inputs": [],
      "name": "getObservationsLength",
      "outputs": [
        {
          "internalType": "uint256",
          "name": "",
          "type": "uint256"
        }
      ],
      "payable": false,
      "stateMutability": "view",
      "type": "function"
    },
    {
      "constant": false,
      "inputs": [
        {
          "internalType": "string",
          "name": "_message",
          "type": "string"
        }
      ],
      "name": "submitMessage",
      "outputs": [],
      "payable": false,
      "stateMutability": "nonpayable",
      "type": "function"
    },
    {
      "constant": true,
      "inputs": [],
      "name": "getMessagesLength",
      "outputs": [
        {
          "internalType": "uint256",
          "name": "",
          "type": "uint256"
        }
      ],
      "payable": false,
      "stateMutability": "view",
      "type": "function"
    },
    {
      "constant": true,
      "inputs": [],
      "name": "getWinnerObservationsLength",
      "outputs": [
        {
          "internalType": "uint256",
          "name": "",
          "type": "uint256"
        }
      ],
      "payable": false,
      "stateMutability": "view",
      "type": "function"
    },
    {
      "constant": false,
      "inputs": [],
      "name": "startAuction",
      "outputs": [],
      "payable": false,
      "stateMutability": "nonpayable",
      "type": "function"
    },
    {
      "constant": false,
      "inputs": [
        {
          "internalType": "address",
          "name": "_contractAddress",
          "type": "address"
        }
      ],
      "name": "registerBid",
      "outputs": [],
      "payable": false,
      "stateMutability": "nonpayable",
      "type": "function"
    },
    {
      "constant": true,
      "inputs": [],
      "name": "getBidsSize",
      "outputs": [
        {
          "internalType": "uint256",
          "name": "",
          "type": "uint256"
        }
      ],
      "payable": false,
      "stateMutability": "view",
      "type": "function"
    },
    {
      "constant": true,
      "inputs": [
        {
          "internalType": "uint256",
          "name": "_bidIdx",
          "type": "uint256"
        }
      ],
      "name": "getBid",
      "outputs": [
        {
          "internalType": "address",
          "name": "",
          "type": "address"
        }
      ],
      "payable": false,
      "stateMutability": "view",
      "type": "function"
    },
    {
      "constant": true,
      "inputs": [],
      "name": "getBidAddress",
      "outputs": [
        {
          "internalType": "address",
          "name": "",
          "type": "address"
        }
      ],
      "payable": false,
      "stateMutability": "view",
      "type": "function"
    }
  ],
  "bytecode": "0x60806040523480156200001157600080fd5b5060405162003b9b38038062003b9b83398181016040526101a08110156200003857600080fd5b810190808051906020019092919080519060200190929190805160405193929190846401000000008211156200006d57600080fd5b838201915060208201858111156200008457600080fd5b8251866001820283011164010000000082111715620000a257600080fd5b8083526020830192505050908051906020019080838360005b83811015620000d8578082015181840152602081019050620000bb565b50505050905090810190601f168015620001065780820380516001836020036101000a031916815260200191505b50604052602001805160405193929190846401000000008211156200012a57600080fd5b838201915060208201858111156200014157600080fd5b82518660018202830111640100000000821117156200015f57600080fd5b8083526020830192505050908051906020019080838360005b838110156200019557808201518184015260208101905062000178565b50505050905090810190601f168015620001c35780820380516001836020036101000a031916815260200191505b5060405260200180516040519392919084640100000000821115620001e757600080fd5b83820191506020820185811115620001fe57600080fd5b82518660018202830111640100000000821117156200021c57600080fd5b8083526020830192505050908051906020019080838360005b838110156200025257808201518184015260208101905062000235565b50505050905090810190601f168015620002805780820380516001836020036101000a031916815260200191505b5060405260200180516040519392919084640100000000821115620002a457600080fd5b83820191506020820185811115620002bb57600080fd5b8251866001820283011164010000000082111715620002d957600080fd5b8083526020830192505050908051906020019080838360005b838110156200030f578082015181840152602081019050620002f2565b50505050905090810190601f1680156200033d5780820380516001836020036101000a031916815260200191505b50604052602001805160405193929190846401000000008211156200036157600080fd5b838201915060208201858111156200037857600080fd5b82518660208202830111640100000000821117156200039657600080fd5b8083526020830192505050908051906020019060200280838360005b83811015620003cf578082015181840152602081019050620003b2565b5050505090500160405260200180516040519392919084640100000000821115620003f957600080fd5b838201915060208201858111156200041057600080fd5b82518660208202830111640100000000821117156200042e57600080fd5b8083526020830192505050908051906020019060200280838360005b83811015620004675780820151818401526020810190506200044a565b50505050905001604052602001805160405193929190846401000000008211156200049157600080fd5b83820191506020820185811115620004a857600080fd5b8251866020820283011164010000000082111715620004c657600080fd5b8083526020830192505050908051906020019060200280838360005b83811015620004ff578082015181840152602081019050620004e2565b50505050905001604052602001805160405193929190846401000000008211156200052957600080fd5b838201915060208201858111156200054057600080fd5b82518660208202830111640100000000821117156200055e57600080fd5b8083526020830192505050908051906020019060200280838360005b83811015620005975780820151818401526020810190506200057a565b5050505090500160405260200180516040519392919084640100000000821115620005c157600080fd5b83820191506020820185811115620005d857600080fd5b8251866020820283011164010000000082111715620005f657600080fd5b8083526020830192505050908051906020019060200280838360005b838110156200062f57808201518184015260208101905062000612565b50505050905001604052602001805160405193929190846401000000008211156200065957600080fd5b838201915060208201858111156200067057600080fd5b82518660208202830111640100000000821117156200068e57600080fd5b8083526020830192505050908051906020019060200280838360005b83811015620006c7578082015181840152602081019050620006aa565b5050505090500160405260200180516040519392919084640100000000821115620006f157600080fd5b838201915060208201858111156200070857600080fd5b82518660208202830111640100000000821117156200072657600080fd5b8083526020830192505050908051906020019060200280838360005b838110156200075f57808201518184015260208101905062000742565b50505050905001604052505050336000806101000a81548173ffffffffffffffffffffffffffffffffffffffff021916908373ffffffffffffffffffffffffffffffffffffffff1602179055506000809054906101000a900473ffffffffffffffffffffffffffffffffffffffff1673ffffffffffffffffffffffffffffffffffffffff16600073ffffffffffffffffffffffffffffffffffffffff167f8be0079c531659141344cd1fd0a4f28419497f9722a3daafe3b4186f6b6457e060405160405180910390a38c6004819055508b6005819055508a600c90805190602001906200084e92919062000afd565b5089600d90805190602001906200086792919062000afd565b5088600e90805190602001906200088092919062000afd565b5087600f90805190602001906200089992919062000afd565b50604051806040016040528088600081518110620008b357fe5b60200260200101516effffffffffffffffffffffffffffff1916815260200188600181518110620008e057fe5b60200260200101516effffffffffffffffffffffffffffff1916815250601360008201518160000160006101000a81548170ffffffffffffffffffffffffffffffffff021916908360781c021790555060208201518160010160006101000a81548170ffffffffffffffffffffffffffffffffff021916908360781c021790555090505085600b90805190602001906200097c92919062000b84565b5084600690805190602001906200099592919062000bd6565b508360079080519060200190620009ae92919062000bd6565b508260089080519060200190620009c792919062000bd6565b508160099080519060200190620009e092919062000bd6565b5080600a9080519060200190620009f992919062000c28565b506000600260006101000a81548160ff0219169083151502179055503373ffffffffffffffffffffffffffffffffffffffff167f6bef222ff9e3d6c66b6a6430c3a81f86b81bd1c855771b79c71998c4765785f5600d604051808060200182810382528381815460018160011615610100020316600290048152602001915080546001816001161561010002031660029004801562000adc5780601f1062000ab05761010080835404028352916020019162000adc565b820191906000526020600020905b81548152906001019060200180831162000abe57829003601f168201915b50509250505060405180910390a25050505050505050505050505062000d58565b828054600181600116156101000203166002900490600052602060002090601f016020900481019282601f1062000b4057805160ff191683800117855562000b71565b8280016001018555821562000b71579182015b8281111562000b7057825182559160200191906001019062000b53565b5b50905062000b80919062000cd5565b5090565b82805482825590600052602060002090810192821562000bc3579160200282015b8281111562000bc257825182559160200191906001019062000ba5565b5b50905062000bd2919062000cfd565b5090565b82805482825590600052602060002090810192821562000c15579160200282015b8281111562000c1457825182559160200191906001019062000bf7565b5b50905062000c24919062000cd5565b5090565b82805482825590600052602060002090601f0160209004810192821562000cc25791602002820160005b8382111562000c9157835183826101000a81548160ff021916908315150217905550926020019260010160208160000104928301926001030262000c52565b801562000cc05782816101000a81549060ff021916905560010160208160000104928301926001030262000c91565b505b50905062000cd1919062000d25565b5090565b62000cfa91905b8082111562000cf657600081600090555060010162000cdc565b5090565b90565b62000d2291905b8082111562000d1e57600081600090555060010162000d04565b5090565b90565b62000d5591905b8082111562000d5157600081816101000a81549060ff02191690555060010162000d2c565b5090565b90565b612e338062000d686000396000f3fe608060405234801561001057600080fd5b50600436106102275760003560e01c80637284e41611610130578063b3d444b8116100b8578063de5dd4da1161007c578063de5dd4da146112d1578063ee9b99ed1461138c578063f2111283146113d6578063f2fde38b14611491578063f5eecce2146114d557610227565b8063b3d444b8146111d6578063c66531cf14611259578063c7876ea414611277578063d715018014611295578063de32172e146112b357610227565b806386efbd33116100ff57806386efbd33146110a45780638da5cb5b146110e65780638f32d59b14611130578063a4de2f5c14611152578063b30608e31461119457610227565b80637284e41614610f7f57806377984777146110025780638381f58a146110445780638410b6801461106257610227565b8063486c968d116101b357806361fd30851161018257806361fd308514610cf157806363ffab3114610e435780636b64c76914610eb0578063708b34fe14610eba578063715018a614610f7557610227565b8063486c968d14610aac57806352edbb7814610c08578063574916f114610c8b5780635f8909bd14610ccf57610227565b80632c519bc4116101fa5780632c519bc4146105875780633b02a268146106e35780633bb32d54146108355780633c889e6f1461085357806345c02d52146108c157610227565b806306fdde031461022c5780630d80fefd146102af57806311a12bdd14610356578063252c09d71461039c575b600080fd5b61023461151f565b6040518080602001828103825283818151815260200191508051906020019080838360005b83811015610274578082015181840152602081019050610259565b50505050905090810190601f1680156102a15780820380516001836020036101000a031916815260200191505b509250505060405180910390f35b6102db600480360360208110156102c557600080fd5b81019080803590602001909291905050506115bd565b6040518080602001828103825283818151815260200191508051906020019080838360005b8381101561031b578082015181840152602081019050610300565b50505050905090810190601f1680156103485780820380516001836020036101000a031916815260200191505b509250505060405180910390f35b6103826004803603602081101561036c57600080fd5b8101908080359060200190929190505050611676565b604051808215151515815260200191505060405180910390f35b6103c8600480360360208110156103b257600080fd5b81019080803590602001909291905050506116a7565b6040518080602001806020018060200180602001858103855289818151815260200191508051906020019080838360005b838110156104145780820151818401526020810190506103f9565b50505050905090810190601f1680156104415780820380516001836020036101000a031916815260200191505b50858103845288818151815260200191508051906020019080838360005b8381101561047a57808201518184015260208101905061045f565b50505050905090810190601f1680156104a75780820380516001836020036101000a031916815260200191505b50858103835287818151815260200191508051906020019080838360005b838110156104e05780820151818401526020810190506104c5565b50505050905090810190601f16801561050d5780820380516001836020036101000a031916815260200191505b50858103825286818151815260200191508051906020019080838360005b8381101561054657808201518184015260208101905061052b565b50505050905090810190601f1680156105735780820380516001836020036101000a031916815260200191505b509850505050505050505060405180910390f35b6106e16004803603606081101561059d57600080fd5b8101908080359060200190929190803590602001906401000000008111156105c457600080fd5b8201836020820111156105d657600080fd5b803590602001918460018302840111640100000000831117156105f857600080fd5b91908080601f016020809104026020016040519081016040528093929190818152602001838380828437600081840152601f19601f8201169050808301925050505050505091929192908035906020019064010000000081111561065b57600080fd5b82018360208201111561066d57600080fd5b8035906020019184600183028401116401000000008311171561068f57600080fd5b91908080601f016020809104026020016040519081016040528093929190818152602001838380828437600081840152601f19601f820116905080830192505050505050509192919290505050611944565b005b610833600480360360408110156106f957600080fd5b810190808035906020019064010000000081111561071657600080fd5b82018360208201111561072857600080fd5b8035906020019184600183028401116401000000008311171561074a57600080fd5b91908080601f016020809104026020016040519081016040528093929190818152602001838380828437600081840152601f19601f820116905080830192505050505050509192919290803590602001906401000000008111156107ad57600080fd5b8201836020820111156107bf57600080fd5b803590602001918460018302840111640100000000831117156107e157600080fd5b91908080601f016020809104026020016040519081016040528093929190818152602001838380828437600081840152601f19601f820116905080830192505050505050509192919290505050611a15565b005b61083d611afc565b6040518082815260200191505060405180910390f35b61087f6004803603602081101561086957600080fd5b8101908080359060200190929190505050611b09565b604051808273ffffffffffffffffffffffffffffffffffffffff1673ffffffffffffffffffffffffffffffffffffffff16815260200191505060405180910390f35b6108ed600480360360208110156108d757600080fd5b8101908080359060200190929190505050611d1f565b6040518080602001806020018060200180602001858103855289818151815260200191508051906020019080838360005b8381101561093957808201518184015260208101905061091e565b50505050905090810190601f1680156109665780820380516001836020036101000a031916815260200191505b50858103845288818151815260200191508051906020019080838360005b8381101561099f578082015181840152602081019050610984565b50505050905090810190601f1680156109cc5780820380516001836020036101000a031916815260200191505b50858103835287818151815260200191508051906020019080838360005b83811015610a055780820151818401526020810190506109ea565b50505050905090810190601f168015610a325780820380516001836020036101000a031916815260200191505b50858103825286818151815260200191508051906020019080838360005b83811015610a6b578082015181840152602081019050610a50565b50505050905090810190601f168015610a985780820380516001836020036101000a031916815260200191505b509850505050505050505060405180910390f35b610c0660048036036060811015610ac257600080fd5b810190808035906020019092919080359060200190640100000000811115610ae957600080fd5b820183602082011115610afb57600080fd5b80359060200191846001830284011164010000000083111715610b1d57600080fd5b91908080601f016020809104026020016040519081016040528093929190818152602001838380828437600081840152601f19601f82011690508083019250505050505050919291929080359060200190640100000000811115610b8057600080fd5b820183602082011115610b9257600080fd5b80359060200191846001830284011164010000000083111715610bb457600080fd5b91908080601f016020809104026020016040519081016040528093929190818152602001838380828437600081840152601f19601f820116905080830192505050505050509192919290505050611fbc565b005b610c1061208d565b6040518080602001828103825283818151815260200191508051906020019080838360005b83811015610c50578082015181840152602081019050610c35565b50505050905090810190601f168015610c7d5780820380516001836020036101000a031916815260200191505b509250505060405180910390f35b610ccd60048036036020811015610ca157600080fd5b81019080803573ffffffffffffffffffffffffffffffffffffffff16906020019092919050505061212b565b005b610cd7612237565b604051808215151515815260200191505060405180910390f35b610e4160048036036040811015610d0757600080fd5b8101908080359060200190640100000000811115610d2457600080fd5b820183602082011115610d3657600080fd5b80359060200191846001830284011164010000000083111715610d5857600080fd5b91908080601f016020809104026020016040519081016040528093929190818152602001838380828437600081840152601f19601f82011690508083019250505050505050919291929080359060200190640100000000811115610dbb57600080fd5b820183602082011115610dcd57600080fd5b80359060200191846001830284011164010000000083111715610def57600080fd5b91908080601f016020809104026020016040519081016040528093929190818152602001838380828437600081840152601f19601f82011690508083019250505050505050919291929050505061224a565b005b610e4b612331565b60405180836effffffffffffffffffffffffffffff19166effffffffffffffffffffffffffffff19168152602001826effffffffffffffffffffffffffffff19166effffffffffffffffffffffffffffff191681526020019250505060405180910390f35b610eb861235d565b005b610f7360048036036020811015610ed057600080fd5b8101908080359060200190640100000000811115610eed57600080fd5b820183602082011115610eff57600080fd5b80359060200191846001830284011164010000000083111715610f2157600080fd5b91908080601f016020809104026020016040519081016040528093929190818152602001838380828437600081840152601f19601f8201169050808301925050505050505091929192905050506123f4565b005b610f7d612436565b005b610f8761256f565b6040518080602001828103825283818151815260200191508051906020019080838360005b83811015610fc7578082015181840152602081019050610fac565b50505050905090810190601f168015610ff45780820380516001836020036101000a031916815260200191505b509250505060405180910390f35b61102e6004803603602081101561101857600080fd5b810190808035906020019092919050505061260d565b6040518082815260200191505060405180910390f35b61104c61262e565b6040518082815260200191505060405180910390f35b61108e6004803603602081101561107857600080fd5b8101908080359060200190929190505050612634565b6040518082815260200191505060405180910390f35b6110d0600480360360208110156110ba57600080fd5b8101908080359060200190929190505050612655565b6040518082815260200191505060405180910390f35b6110ee612676565b604051808273ffffffffffffffffffffffffffffffffffffffff1673ffffffffffffffffffffffffffffffffffffffff16815260200191505060405180910390f35b61113861269f565b604051808215151515815260200191505060405180910390f35b61117e6004803603602081101561116857600080fd5b81019080803590602001909291905050506126f6565b6040518082815260200191505060405180910390f35b6111c0600480360360208110156111aa57600080fd5b8101908080359060200190929190505050612717565b6040518082815260200191505060405180910390f35b6111de612738565b6040518080602001828103825283818151815260200191508051906020019080838360005b8381101561121e578082015181840152602081019050611203565b50505050905090810190601f16801561124b5780820380516001836020036101000a031916815260200191505b509250505060405180910390f35b6112616127d6565b6040518082815260200191505060405180910390f35b61127f61283c565b6040518082815260200191505060405180910390f35b61129d612842565b6040518082815260200191505060405180910390f35b6112bb61284f565b6040518082815260200191505060405180910390f35b61138a600480360360208110156112e757600080fd5b810190808035906020019064010000000081111561130457600080fd5b82018360208201111561131657600080fd5b8035906020019184600183028401116401000000008311171561133857600080fd5b91908080601f016020809104026020016040519081016040528093929190818152602001838380828437600081840152601f19601f82011690508083019250505050505050919291929050505061285c565b005b611394612951565b604051808273ffffffffffffffffffffffffffffffffffffffff1673ffffffffffffffffffffffffffffffffffffffff16815260200191505060405180910390f35b61148f600480360360208110156113ec57600080fd5b810190808035906020019064010000000081111561140957600080fd5b82018360208201111561141b57600080fd5b8035906020019184600183028401116401000000008311171561143d57600080fd5b91908080601f016020809104026020016040519081016040528093929190818152602001838380828437600081840152601f19601f8201169050808301925050505050505091929192905050506129ce565b005b6114d3600480360360208110156114a757600080fd5b81019080803573ffffffffffffffffffffffffffffffffffffffff169060200190929190505050612ac3565b005b6114dd612b49565b604051808273ffffffffffffffffffffffffffffffffffffffff1673ffffffffffffffffffffffffffffffffffffffff16815260200191505060405180910390f35b600d8054600181600116156101000203166002900480601f0160208091040260200160405190810160405280929190818152602001828054600181600116156101000203166002900480156115b55780601f1061158a576101008083540402835291602001916115b5565b820191906000526020600020905b81548152906001019060200180831161159857829003601f168201915b505050505081565b601081815481106115ca57fe5b906000526020600020016000915090508054600181600116156101000203166002900480601f01602080910402602001604051908101604052809291908181526020018280546001816001161561010002031660029004801561166e5780601f106116435761010080835404028352916020019161166e565b820191906000526020600020905b81548152906001019060200180831161165157829003601f168201915b505050505081565b600a818154811061168357fe5b9060005260206000209060209182820401919006915054906101000a900460ff1681565b601181815481106116b457fe5b9060005260206000209060040201600091509050806000018054600181600116156101000203166002900480601f0160208091040260200160405190810160405280929190818152602001828054600181600116156101000203166002900480156117605780601f1061173557610100808354040283529160200191611760565b820191906000526020600020905b81548152906001019060200180831161174357829003601f168201915b505050505090806001018054600181600116156101000203166002900480601f0160208091040260200160405190810160405280929190818152602001828054600181600116156101000203166002900480156117fe5780601f106117d3576101008083540402835291602001916117fe565b820191906000526020600020905b8154815290600101906020018083116117e157829003601f168201915b505050505090806002018054600181600116156101000203166002900480601f01602080910402602001604051908101604052809291908181526020018280546001816001161561010002031660029004801561189c5780601f106118715761010080835404028352916020019161189c565b820191906000526020600020905b81548152906001019060200180831161187f57829003601f168201915b505050505090806003018054600181600116156101000203166002900480601f01602080910402602001604051908101604052809291908181526020018280546001816001161561010002031660029004801561193a5780601f1061190f5761010080835404028352916020019161193a565b820191906000526020600020905b81548152906001019060200180831161191d57829003601f168201915b5050505050905084565b61194c61269f565b6119be576040517f08c379a00000000000000000000000000000000000000000000000000000000081526004018080602001828103825260208152602001807f4f776e61626c653a2063616c6c6572206973206e6f7420746865206f776e657281525060200191505060405180910390fd5b6000601184815481106119cd57fe5b90600052602060002090600402019050828160020190805190602001906119f5929190612cb3565b5081816003019080519060200190611a0e929190612cb3565b5050505050565b6011604051806080016040528084815260200183815260200160405180602001604052806000815250815260200160405180602001604052806000815250815250908060018154018082558091505090600182039060005260206000209060040201600090919290919091506000820151816000019080519060200190611a9d929190612d33565b506020820151816001019080519060200190611aba929190612d33565b506040820151816002019080519060200190611ad7929190612d33565b506060820151816003019080519060200190611af4929190612d33565b505050505050565b6000601080549050905090565b6000611b1361269f565b611b85576040517f08c379a00000000000000000000000000000000000000000000000000000000081526004018080602001828103825260208152602001807f4f776e61626c653a2063616c6c6572206973206e6f7420746865206f776e657281525060200191505060405180910390fd5b426006600981548110611b9457fe5b906000526020600020015410611c12576040517f08c379a000000000000000000000000000000000000000000000000000000000815260040180806020018281038252600e8152602001807f43414e275420564945572059455400000000000000000000000000000000000081525060200191505060405180910390fd5b6000601560003373ffffffffffffffffffffffffffffffffffffffff1673ffffffffffffffffffffffffffffffffffffffff16815260200190815260200160002080549050905060008114611cde57601560003373ffffffffffffffffffffffffffffffffffffffff1673ffffffffffffffffffffffffffffffffffffffff1681526020019081526020016000208381548110611cab57fe5b9060005260206000200160009054906101000a900473ffffffffffffffffffffffffffffffffffffffff16915050611d1a565b60038381548110611ceb57fe5b9060005260206000200160009054906101000a900473ffffffffffffffffffffffffffffffffffffffff169150505b919050565b60128181548110611d2c57fe5b9060005260206000209060040201600091509050806000018054600181600116156101000203166002900480601f016020809104026020016040519081016040528092919081815260200182805460018160011615610100020316600290048015611dd85780601f10611dad57610100808354040283529160200191611dd8565b820191906000526020600020905b815481529060010190602001808311611dbb57829003601f168201915b505050505090806001018054600181600116156101000203166002900480601f016020809104026020016040519081016040528092919081815260200182805460018160011615610100020316600290048015611e765780601f10611e4b57610100808354040283529160200191611e76565b820191906000526020600020905b815481529060010190602001808311611e5957829003601f168201915b505050505090806002018054600181600116156101000203166002900480601f016020809104026020016040519081016040528092919081815260200182805460018160011615610100020316600290048015611f145780601f10611ee957610100808354040283529160200191611f14565b820191906000526020600020905b815481529060010190602001808311611ef757829003601f168201915b505050505090806003018054600181600116156101000203166002900480601f016020809104026020016040519081016040528092919081815260200182805460018160011615610100020316600290048015611fb25780601f10611f8757610100808354040283529160200191611fb2565b820191906000526020600020905b815481529060010190602001808311611f9557829003601f168201915b5050505050905084565b611fc461269f565b612036576040517f08c379a00000000000000000000000000000000000000000000000000000000081526004018080602001828103825260208152602001807f4f776e61626c653a2063616c6c6572206973206e6f7420746865206f776e657281525060200191505060405180910390fd5b60006012848154811061204557fe5b906000526020600020906004020190508281600201908051906020019061206d929190612cb3565b5081816003019080519060200190612086929190612cb3565b5050505050565b600c8054600181600116156101000203166002900480601f0160208091040260200160405190810160405280929190818152602001828054600181600116156101000203166002900480156121235780601f106120f857610100808354040283529160200191612123565b820191906000526020600020905b81548152906001019060200180831161210657829003601f168201915b505050505081565b60038190806001815401808255809150509060018203906000526020600020016000909192909190916101000a81548173ffffffffffffffffffffffffffffffffffffffff021916908373ffffffffffffffffffffffffffffffffffffffff16021790555050601560003373ffffffffffffffffffffffffffffffffffffffff1673ffffffffffffffffffffffffffffffffffffffff1681526020019081526020016000208190806001815401808255809150509060018203906000526020600020016000909192909190916101000a81548173ffffffffffffffffffffffffffffffffffffffff021916908373ffffffffffffffffffffffffffffffffffffffff1602179055505050565b600260009054906101000a900460ff1681565b60126040518060800160405280848152602001838152602001604051806020016040528060008152508152602001604051806020016040528060008152508152509080600181540180825580915050906001820390600052602060002090600402016000909192909190915060008201518160000190805190602001906122d2929190612d33565b5060208201518160010190805190602001906122ef929190612d33565b50604082015181600201908051906020019061230c929190612d33565b506060820151816003019080519060200190612329929190612d33565b505050505050565b60138060000160009054906101000a900460781b908060010160009054906101000a900460781b905082565b61236561269f565b6123d7576040517f08c379a00000000000000000000000000000000000000000000000000000000081526004018080602001828103825260208152602001807f4f776e61626c653a2063616c6c6572206973206e6f7420746865206f776e657281525060200191505060405180910390fd5b6001600260006101000a81548160ff021916908315150217905550565b6010819080600181540180825580915050906001820390600052602060002001600090919290919091509080519060200190612431929190612cb3565b505050565b61243e61269f565b6124b0576040517f08c379a00000000000000000000000000000000000000000000000000000000081526004018080602001828103825260208152602001807f4f776e61626c653a2063616c6c6572206973206e6f7420746865206f776e657281525060200191505060405180910390fd5b600073ffffffffffffffffffffffffffffffffffffffff166000809054906101000a900473ffffffffffffffffffffffffffffffffffffffff1673ffffffffffffffffffffffffffffffffffffffff167f8be0079c531659141344cd1fd0a4f28419497f9722a3daafe3b4186f6b6457e060405160405180910390a360008060006101000a81548173ffffffffffffffffffffffffffffffffffffffff021916908373ffffffffffffffffffffffffffffffffffffffff160217905550565b600e8054600181600116156101000203166002900480601f0160208091040260200160405190810160405280929190818152602001828054600181600116156101000203166002900480156126055780601f106125da57610100808354040283529160200191612605565b820191906000526020600020905b8154815290600101906020018083116125e857829003601f168201915b505050505081565b6009818154811061261a57fe5b906000526020600020016000915090505481565b60045481565b6007818154811061264157fe5b906000526020600020016000915090505481565b6008818154811061266257fe5b906000526020600020016000915090505481565b60008060009054906101000a900473ffffffffffffffffffffffffffffffffffffffff16905090565b60008060009054906101000a900473ffffffffffffffffffffffffffffffffffffffff1673ffffffffffffffffffffffffffffffffffffffff163373ffffffffffffffffffffffffffffffffffffffff1614905090565b600b818154811061270357fe5b906000526020600020016000915090505481565b6006818154811061272457fe5b906000526020600020016000915090505481565b600f8054600181600116156101000203166002900480601f0160208091040260200160405190810160405280929190818152602001828054600181600116156101000203166002900480156127ce5780601f106127a3576101008083540402835291602001916127ce565b820191906000526020600020905b8154815290600101906020018083116127b157829003601f168201915b505050505081565b600080601560003373ffffffffffffffffffffffffffffffffffffffff1673ffffffffffffffffffffffffffffffffffffffff1681526020019081526020016000208054905090506000811461282f5780915050612839565b6003805490509150505b90565b60055481565b6000601180549050905090565b6000601280549050905090565b60126040518060800160405280838152602001604051806020016040528060008152508152602001604051806020016040528060008152508152602001604051806020016040528060008152508152509080600181540180825580915050906001820390600052602060002090600402016000909192909190915060008201518160000190805190602001906128f3929190612d33565b506020820151816001019080519060200190612910929190612d33565b50604082015181600201908051906020019061292d929190612d33565b50606082015181600301908051906020019061294a929190612d33565b5050505050565b6000601560003373ffffffffffffffffffffffffffffffffffffffff1673ffffffffffffffffffffffffffffffffffffffff16815260200190815260200160002060008154811061299e57fe5b9060005260206000200160009054906101000a900473ffffffffffffffffffffffffffffffffffffffff16905090565b6011604051806080016040528083815260200160405180602001604052806000815250815260200160405180602001604052806000815250815260200160405180602001604052806000815250815250908060018154018082558091505090600182039060005260206000209060040201600090919290919091506000820151816000019080519060200190612a65929190612d33565b506020820151816001019080519060200190612a82929190612d33565b506040820151816002019080519060200190612a9f929190612d33565b506060820151816003019080519060200190612abc929190612d33565b5050505050565b612acb61269f565b612b3d576040517f08c379a00000000000000000000000000000000000000000000000000000000081526004018080602001828103825260208152602001807f4f776e61626c653a2063616c6c6572206973206e6f7420746865206f776e657281525060200191505060405180910390fd5b612b4681612b6f565b50565b600260019054906101000a900473ffffffffffffffffffffffffffffffffffffffff1681565b600073ffffffffffffffffffffffffffffffffffffffff168173ffffffffffffffffffffffffffffffffffffffff161415612bf5576040517f08c379a0000000000000000000000000000000000000000000000000000000008152600401808060200182810382526026815260200180612dd96026913960400191505060405180910390fd5b8073ffffffffffffffffffffffffffffffffffffffff166000809054906101000a900473ffffffffffffffffffffffffffffffffffffffff1673ffffffffffffffffffffffffffffffffffffffff167f8be0079c531659141344cd1fd0a4f28419497f9722a3daafe3b4186f6b6457e060405160405180910390a3806000806101000a81548173ffffffffffffffffffffffffffffffffffffffff021916908373ffffffffffffffffffffffffffffffffffffffff16021790555050565b828054600181600116156101000203166002900490600052602060002090601f016020900481019282601f10612cf457805160ff1916838001178555612d22565b82800160010185558215612d22579182015b82811115612d21578251825591602001919060010190612d06565b5b509050612d2f9190612db3565b5090565b828054600181600116156101000203166002900490600052602060002090601f016020900481019282601f10612d7457805160ff1916838001178555612da2565b82800160010185558215612da2579182015b82811115612da1578251825591602001919060010190612d86565b5b509050612daf9190612db3565b5090565b612dd591905b80821115612dd1576000816000905550600101612db9565b5090565b9056fe4f776e61626c653a206e6577206f776e657220697320746865207a65726f2061646472657373a265627a7a72315820b18b749c63de2d509a8c806bf674cf1b2c2b1244d96057051f1566015dfcd50564736f6c634300050c0032",
  "source": "pragma solidity >=0.4.23 <0.6.0;\n\nimport 'openzeppelin-solidity/contracts/ownership/Ownable.sol';\nimport 'openzeppelin-solidity/contracts/access/Roles.sol';\n\ncontract Tender is Ownable {\n  using Roles for Roles.Role;\n\n  Roles.Role private vendors;\n\n  bool public biddingPeriod;\n  address public winningVendor;\n  address[] allBids;\n  uint public number;\n  uint public basePrice;\n  uint[] public scheduleDates;\n  uint[] public unspsc;\n  uint[] public contractInfo;\n  uint[] public generalInfoValues;\n  bool[] public generalInfoFlags;\n  bytes32[] public ipfsHashes;\n  string public office;\n  string public name;\n  string public description;\n  string public procedureTeam;\n  string[] public messages;\n  Observation[] public observations;\n  Observation[] public winnerObservations;\n  PublicKey public publicKey;\n  mapping(address => address[]) bids;\n\n  event TenderCreated(address indexed _owner, string _name);\n\n  struct Observation {\n    string plain;\n    string hash;\n    string resPlain;\n    string resHash;\n  }\n\n  struct PublicKey {\n    bytes17 r;\n    bytes17 s;\n  }\n\n  constructor(\n    uint _number                    ,\n    uint _basePrice                 ,\n    string memory _office           ,\n    string memory _name             ,\n    string memory _description      ,\n    string memory _procedureTeam    ,\n    bytes17[] memory _publicKey     ,\n    bytes32[] memory _ipfsHashes    ,\n    uint[] memory _scheduleDates    ,\n    uint[] memory _unspsc           ,\n    uint[] memory _contractInfo     ,\n    uint[] memory _generalInfoValues,\n    bool[] memory _generalInfoFlags\n  ) public {\n    number = _number;\n    basePrice = _basePrice;\n    office =  _office;\n    name = _name;\n    description = _description;\n    procedureTeam = _procedureTeam;\n    publicKey = PublicKey({ r: _publicKey[0], s: _publicKey[1] });\n    ipfsHashes = _ipfsHashes;\n    scheduleDates = _scheduleDates;\n    unspsc = _unspsc;\n    contractInfo = _contractInfo;\n    generalInfoValues = _generalInfoValues;\n    generalInfoFlags = _generalInfoFlags;\n    biddingPeriod = false;\n    emit TenderCreated(msg.sender, name);\n  }\n\n  function submitObservation(string memory _plain) public {\n    observations.push(Observation({plain: _plain, hash: \"\", resPlain: \"\", resHash: \"\"}));\n  }\n\n  function submitObservation(string memory _plain, string memory _hash) public {\n    observations.push(Observation({plain: _plain, hash: _hash, resPlain: \"\", resHash: \"\"}));\n  }\n\n  function respondObservation(uint _idx, string memory _plain, string memory _hash) public onlyOwner {\n    Observation storage obs = observations[_idx];\n    obs.resPlain = _plain;\n    obs.resHash = _hash;\n  }\n\n  function submitWinnerObservation(string memory _plain) public {\n    winnerObservations.push(Observation({plain: _plain, hash: \"\", resPlain: \"\", resHash: \"\"}));\n  }\n\n  function submitWinnerObservation(string memory _plain, string memory _hash) public {\n    winnerObservations.push(Observation({plain: _plain, hash: _hash, resPlain: \"\", resHash: \"\"}));\n  }\n\n  function respondWinnerObservation(uint _idx, string memory _plain, string memory _hash) public onlyOwner {\n    Observation storage obs = winnerObservations[_idx];\n    obs.resPlain = _plain;\n    obs.resHash = _hash;\n  }\n\n  function getObservationsLength() public view returns(uint) {\n    return observations.length;\n  }\n\n  function submitMessage(string memory _message) public {\n    messages.push(_message);\n  }\n\n  function getMessagesLength() public view returns(uint) {\n    return messages.length;\n  }\n\n\n  function getWinnerObservationsLength() public view returns(uint) {\n    return winnerObservations.length;\n  }\n\n  function startAuction() public onlyOwner {\n    biddingPeriod = true;\n  }\n\n  function registerBid(address _contractAddress) public {\n    allBids.push(_contractAddress);\n    bids[msg.sender].push(_contractAddress);\n  }\n\n  function getBidsSize() public view returns (uint) {\n    uint size = bids[msg.sender].length;\n    if (size != 0) {\n      return size;\n    }\n    return allBids.length;\n  }\n\n  function getBid(uint _bidIdx) public view onlyOwner returns (address) {\n    require(scheduleDates[9] < now, \"CAN'T VIEW YET\");\n    uint size = bids[msg.sender].length;\n    if (size != 0) {\n      return bids[msg.sender][_bidIdx];\n    }\n    return allBids[_bidIdx];\n  }\n\n  function getBidAddress() public view returns(address) {\n    return bids[msg.sender][0];\n  }\n}\n",
  "sourcePath": "/home/mesi/Projects/ViveLab/IGNWEF/contracts/contracts/Tender.sol",
  "compiler": {
    "name": "solc",
    "version": "0.5.12+commit.7709ece9.Emscripten.clang"
  },
  "schemaVersion": "3.0.19",
  "updatedAt": "2020-01-09T02:28:06.001Z",
  "devdoc": {
    "methods": {
      "isOwner()": {
        "details": "Returns true if the caller is the current owner."
      },
      "owner()": {
        "details": "Returns the address of the current owner."
      },
      "renounceOwnership()": {
        "details": "Leaves the contract without owner. It will not be possible to call `onlyOwner` functions anymore. Can only be called by the current owner.     * > Note: Renouncing ownership will leave the contract without an owner, thereby removing any functionality that is only available to the owner."
      },
      "transferOwnership(address)": {
        "details": "Transfers ownership of the contract to a new account (`newOwner`). Can only be called by the current owner."
      }
    }
  },
  "userdoc": {
    "methods": {}
  }
}