{
  "contractName": "Tender",
  "abi": [
    {
      "constant": true,
      "inputs": [
        {
          "name": "",
          "type": "uint256"
        }
      ],
      "name": "messages",
      "outputs": [
        {
          "name": "",
          "type": "string"
        }
      ],
      "payable": false,
      "stateMutability": "view",
      "type": "function"
    },
    {
      "constant": true,
      "inputs": [
        {
          "name": "",
          "type": "uint256"
        }
      ],
      "name": "observations",
      "outputs": [
        {
          "name": "plain",
          "type": "string"
        },
        {
          "name": "hash",
          "type": "string"
        },
        {
          "name": "numResponses",
          "type": "uint256"
        }
      ],
      "payable": false,
      "stateMutability": "view",
      "type": "function"
    },
    {
      "constant": true,
      "inputs": [
        {
          "name": "",
          "type": "uint256"
        }
      ],
      "name": "bids",
      "outputs": [
        {
          "name": "",
          "type": "address"
        }
      ],
      "payable": false,
      "stateMutability": "view",
      "type": "function"
    },
    {
      "constant": true,
      "inputs": [
        {
          "name": "",
          "type": "uint256"
        }
      ],
      "name": "winnerObservations",
      "outputs": [
        {
          "name": "plain",
          "type": "string"
        },
        {
          "name": "hash",
          "type": "string"
        },
        {
          "name": "numResponses",
          "type": "uint256"
        }
      ],
      "payable": false,
      "stateMutability": "view",
      "type": "function"
    },
    {
      "constant": true,
      "inputs": [],
      "name": "biddingPeriod",
      "outputs": [
        {
          "name": "",
          "type": "bool"
        }
      ],
      "payable": false,
      "stateMutability": "view",
      "type": "function"
    },
    {
      "constant": false,
      "inputs": [],
      "name": "renounceOwnership",
      "outputs": [],
      "payable": false,
      "stateMutability": "nonpayable",
      "type": "function"
    },
    {
      "constant": true,
      "inputs": [],
      "name": "description",
      "outputs": [
        {
          "name": "",
          "type": "string"
        }
      ],
      "payable": false,
      "stateMutability": "view",
      "type": "function"
    },
    {
      "constant": true,
      "inputs": [],
      "name": "owner",
      "outputs": [
        {
          "name": "",
          "type": "address"
        }
      ],
      "payable": false,
      "stateMutability": "view",
      "type": "function"
    },
    {
      "constant": true,
      "inputs": [],
      "name": "isOwner",
      "outputs": [
        {
          "name": "",
          "type": "bool"
        }
      ],
      "payable": false,
      "stateMutability": "view",
      "type": "function"
    },
    {
      "constant": true,
      "inputs": [],
      "name": "winnigVendor",
      "outputs": [
        {
          "name": "",
          "type": "address"
        }
      ],
      "payable": false,
      "stateMutability": "view",
      "type": "function"
    },
    {
      "constant": false,
      "inputs": [
        {
          "name": "newOwner",
          "type": "address"
        }
      ],
      "name": "transferOwnership",
      "outputs": [],
      "payable": false,
      "stateMutability": "nonpayable",
      "type": "function"
    },
    {
      "inputs": [],
      "payable": false,
      "stateMutability": "nonpayable",
      "type": "constructor"
    },
    {
      "anonymous": false,
      "inputs": [
        {
          "indexed": true,
          "name": "_owner",
          "type": "address"
        },
        {
          "indexed": false,
          "name": "_description",
          "type": "string"
        }
      ],
      "name": "TenderCreated",
      "type": "event"
    },
    {
      "anonymous": false,
      "inputs": [
        {
          "indexed": true,
          "name": "previousOwner",
          "type": "address"
        },
        {
          "indexed": true,
          "name": "newOwner",
          "type": "address"
        }
      ],
      "name": "OwnershipTransferred",
      "type": "event"
    },
    {
      "constant": false,
      "inputs": [
        {
          "name": "_plain",
          "type": "string"
        }
      ],
      "name": "submitObservation",
      "outputs": [],
      "payable": false,
      "stateMutability": "nonpayable",
      "type": "function"
    },
    {
      "constant": false,
      "inputs": [
        {
          "name": "_plain",
          "type": "string"
        },
        {
          "name": "_hash",
          "type": "string"
        }
      ],
      "name": "submitObservation",
      "outputs": [],
      "payable": false,
      "stateMutability": "nonpayable",
      "type": "function"
    },
    {
      "constant": false,
      "inputs": [
        {
          "name": "_idx",
          "type": "uint256"
        },
        {
          "name": "_plain",
          "type": "string"
        },
        {
          "name": "_hash",
          "type": "string"
        }
      ],
      "name": "respondObservation",
      "outputs": [],
      "payable": false,
      "stateMutability": "nonpayable",
      "type": "function"
    },
    {
      "constant": false,
      "inputs": [
        {
          "name": "_plain",
          "type": "string"
        },
        {
          "name": "_hash",
          "type": "string"
        }
      ],
      "name": "submitWinnerObservation",
      "outputs": [],
      "payable": false,
      "stateMutability": "nonpayable",
      "type": "function"
    },
    {
      "constant": false,
      "inputs": [
        {
          "name": "_plain",
          "type": "string"
        }
      ],
      "name": "submitWinnerObservation",
      "outputs": [],
      "payable": false,
      "stateMutability": "nonpayable",
      "type": "function"
    },
    {
      "constant": false,
      "inputs": [
        {
          "name": "_idx",
          "type": "uint256"
        },
        {
          "name": "_plain",
          "type": "string"
        },
        {
          "name": "_hash",
          "type": "string"
        }
      ],
      "name": "respondWinnerObservation",
      "outputs": [],
      "payable": false,
      "stateMutability": "nonpayable",
      "type": "function"
    },
    {
      "constant": true,
      "inputs": [],
      "name": "getObservationsLength",
      "outputs": [
        {
          "name": "",
          "type": "uint256"
        }
      ],
      "payable": false,
      "stateMutability": "view",
      "type": "function"
    },
    {
      "constant": false,
      "inputs": [
        {
          "name": "_message",
          "type": "string"
        }
      ],
      "name": "submitMessage",
      "outputs": [],
      "payable": false,
      "stateMutability": "nonpayable",
      "type": "function"
    },
    {
      "constant": true,
      "inputs": [],
      "name": "getMessagesLength",
      "outputs": [
        {
          "name": "",
          "type": "uint256"
        }
      ],
      "payable": false,
      "stateMutability": "view",
      "type": "function"
    },
    {
      "constant": true,
      "inputs": [],
      "name": "getWinnerObservationsLength",
      "outputs": [
        {
          "name": "",
          "type": "uint256"
        }
      ],
      "payable": false,
      "stateMutability": "view",
      "type": "function"
    },
    {
      "constant": false,
      "inputs": [],
      "name": "createBid",
      "outputs": [],
      "payable": false,
      "stateMutability": "nonpayable",
      "type": "function"
    },
    {
      "constant": true,
      "inputs": [],
      "name": "getBidsLength",
      "outputs": [
        {
          "name": "",
          "type": "uint256"
        }
      ],
      "payable": false,
      "stateMutability": "view",
      "type": "function"
    },
    {
      "constant": false,
      "inputs": [],
      "name": "startAuction",
      "outputs": [],
      "payable": false,
      "stateMutability": "nonpayable",
      "type": "function"
    },
    {
      "constant": false,
      "inputs": [],
      "name": "setWinnigVendor",
      "outputs": [],
      "payable": false,
      "stateMutability": "nonpayable",
      "type": "function"
    },
    {
      "constant": true,
      "inputs": [
        {
          "name": "_obsIdx",
          "type": "uint256"
        },
        {
          "name": "_resIdx",
          "type": "uint256"
        }
      ],
      "name": "getResponseAt",
      "outputs": [
        {
          "name": "_plain",
          "type": "string"
        },
        {
          "name": "_hash",
          "type": "string"
        }
      ],
      "payable": false,
      "stateMutability": "view",
      "type": "function"
    },
    {
      "constant": true,
      "inputs": [
        {
          "name": "_obsIdx",
          "type": "uint256"
        },
        {
          "name": "_resIdx",
          "type": "uint256"
        }
      ],
      "name": "getWinnerObservationResponseAt",
      "outputs": [
        {
          "name": "_plain",
          "type": "string"
        },
        {
          "name": "_hash",
          "type": "string"
        }
      ],
      "payable": false,
      "stateMutability": "view",
      "type": "function"
    }
  ],
  "bytecode": "0x60806040523480156200001157600080fd5b50336000806101000a81548173ffffffffffffffffffffffffffffffffffffffff021916908373ffffffffffffffffffffffffffffffffffffffff1602179055506000809054906101000a900473ffffffffffffffffffffffffffffffffffffffff1673ffffffffffffffffffffffffffffffffffffffff16600073ffffffffffffffffffffffffffffffffffffffff167f8be0079c531659141344cd1fd0a4f28419497f9722a3daafe3b4186f6b6457e060405160405180910390a36040805190810160405280600f81526020017f54656e64657220636f6e74726163740000000000000000000000000000000000815250600290805190602001906200011b92919062000212565b506000600360006101000a81548160ff0219169083151502179055503373ffffffffffffffffffffffffffffffffffffffff167f6bef222ff9e3d6c66b6a6430c3a81f86b81bd1c855771b79c71998c4765785f560026040518080602001828103825283818154600181600116156101000203166002900481526020019150805460018160011615610100020316600290048015620001fe5780601f10620001d257610100808354040283529160200191620001fe565b820191906000526020600020905b815481529060010190602001808311620001e057829003601f168201915b50509250505060405180910390a2620002c1565b828054600181600116156101000203166002900490600052602060002090601f016020900481019282601f106200025557805160ff191683800117855562000286565b8280016001018555821562000286579182015b828111156200028557825182559160200191906001019062000268565b5b50905062000295919062000299565b5090565b620002be91905b80821115620002ba576000816000905550600101620002a0565b5090565b90565b614bfe80620002d16000396000f3fe60806040526004361061015f576000357c0100000000000000000000000000000000000000000000000000000000900463ffffffff1680630d80fefd146101645780631e17032b14610218578063252c09d7146103425780632c519bc4146104695780633b02a268146105d25780633bb32d54146107315780634423c5f11461075c57806345c02d52146107d7578063486c968d146108fe5780635f8909bd14610a6757806361fd308514610a965780636b64c76914610bf5578063708b34fe14610c0c578063715018a614610cd45780637284e41614610ceb5780638362407414610d7b57806389ce69b414610d925780638da5cb5b14610ebc5780638f32d59b14610f135780639abcb1f114610f42578063c96ffc2614610f99578063d715018014610fb0578063d879914a14610fdb578063de32172e14611006578063de5dd4da14611031578063f2111283146110f9578063f2fde38b146111c1575b600080fd5b34801561017057600080fd5b5061019d6004803603602081101561018757600080fd5b8101908080359060200190929190505050611212565b6040518080602001828103825283818151815260200191508051906020019080838360005b838110156101dd5780820151818401526020810190506101c2565b50505050905090810190601f16801561020a5780820380516001836020036101000a031916815260200191505b509250505060405180910390f35b34801561022457600080fd5b5061025b6004803603604081101561023b57600080fd5b8101908080359060200190929190803590602001909291905050506112cd565b604051808060200180602001838103835285818151815260200191508051906020019080838360005b8381101561029f578082015181840152602081019050610284565b50505050905090810190601f1680156102cc5780820380516001836020036101000a031916815260200191505b50838103825284818151815260200191508051906020019080838360005b838110156103055780820151818401526020810190506102ea565b50505050905090810190601f1680156103325780820380516001836020036101000a031916815260200191505b5094505050505060405180910390f35b34801561034e57600080fd5b5061037b6004803603602081101561036557600080fd5b8101908080359060200190929190505050611475565b604051808060200180602001848152602001838103835286818151815260200191508051906020019080838360005b838110156103c55780820151818401526020810190506103aa565b50505050905090810190601f1680156103f25780820380516001836020036101000a031916815260200191505b50838103825285818151815260200191508051906020019080838360005b8381101561042b578082015181840152602081019050610410565b50505050905090810190601f1680156104585780820380516001836020036101000a031916815260200191505b509550505050505060405180910390f35b34801561047557600080fd5b506105d06004803603606081101561048c57600080fd5b8101908080359060200190929190803590602001906401000000008111156104b357600080fd5b8201836020820111156104c557600080fd5b803590602001918460018302840111640100000000831117156104e757600080fd5b91908080601f016020809104026020016040519081016040528093929190818152602001838380828437600081840152601f19601f8201169050808301925050505050505091929192908035906020019064010000000081111561054a57600080fd5b82018360208201111561055c57600080fd5b8035906020019184600183028401116401000000008311171561057e57600080fd5b91908080601f016020809104026020016040519081016040528093929190818152602001838380828437600081840152601f19601f8201169050808301925050505050505091929192905050506115de565b005b3480156105de57600080fd5b5061072f600480360360408110156105f557600080fd5b810190808035906020019064010000000081111561061257600080fd5b82018360208201111561062457600080fd5b8035906020019184600183028401116401000000008311171561064657600080fd5b91908080601f016020809104026020016040519081016040528093929190818152602001838380828437600081840152601f19601f820116905080830192505050505050509192919290803590602001906401000000008111156106a957600080fd5b8201836020820111156106bb57600080fd5b803590602001918460018302840111640100000000831117156106dd57600080fd5b91908080601f016020809104026020016040519081016040528093929190818152602001838380828437600081840152601f19601f8201169050808301925050505050505091929192905050506116fa565b005b34801561073d57600080fd5b5061074661178f565b6040518082815260200191505060405180910390f35b34801561076857600080fd5b506107956004803603602081101561077f57600080fd5b810190808035906020019092919050505061179c565b604051808273ffffffffffffffffffffffffffffffffffffffff1673ffffffffffffffffffffffffffffffffffffffff16815260200191505060405180910390f35b3480156107e357600080fd5b50610810600480360360208110156107fa57600080fd5b81019080803590602001909291905050506117da565b604051808060200180602001848152602001838103835286818151815260200191508051906020019080838360005b8381101561085a57808201518184015260208101905061083f565b50505050905090810190601f1680156108875780820380516001836020036101000a031916815260200191505b50838103825285818151815260200191508051906020019080838360005b838110156108c05780820151818401526020810190506108a5565b50505050905090810190601f1680156108ed5780820380516001836020036101000a031916815260200191505b509550505050505060405180910390f35b34801561090a57600080fd5b50610a656004803603606081101561092157600080fd5b81019080803590602001909291908035906020019064010000000081111561094857600080fd5b82018360208201111561095a57600080fd5b8035906020019184600183028401116401000000008311171561097c57600080fd5b91908080601f016020809104026020016040519081016040528093929190818152602001838380828437600081840152601f19601f820116905080830192505050505050509192919290803590602001906401000000008111156109df57600080fd5b8201836020820111156109f157600080fd5b80359060200191846001830284011164010000000083111715610a1357600080fd5b91908080601f016020809104026020016040519081016040528093929190818152602001838380828437600081840152601f19601f820116905080830192505050505050509192919290505050611943565b005b348015610a7357600080fd5b50610a7c611a5f565b604051808215151515815260200191505060405180910390f35b348015610aa257600080fd5b50610bf360048036036040811015610ab957600080fd5b8101908080359060200190640100000000811115610ad657600080fd5b820183602082011115610ae857600080fd5b80359060200191846001830284011164010000000083111715610b0a57600080fd5b91908080601f016020809104026020016040519081016040528093929190818152602001838380828437600081840152601f19601f82011690508083019250505050505050919291929080359060200190640100000000811115610b6d57600080fd5b820183602082011115610b7f57600080fd5b80359060200191846001830284011164010000000083111715610ba157600080fd5b91908080601f016020809104026020016040519081016040528093929190818152602001838380828437600081840152601f19601f820116905080830192505050505050509192919290505050611a72565b005b348015610c0157600080fd5b50610c0a611b07565b005b348015610c1857600080fd5b50610cd260048036036020811015610c2f57600080fd5b8101908080359060200190640100000000811115610c4c57600080fd5b820183602082011115610c5e57600080fd5b80359060200191846001830284011164010000000083111715610c8057600080fd5b91908080601f016020809104026020016040519081016040528093929190818152602001838380828437600081840152601f19601f820116905080830192505050505050509192919290505050611ba0565b005b348015610ce057600080fd5b50610ce9611be2565b005b348015610cf757600080fd5b50610d00611d1d565b6040518080602001828103825283818151815260200191508051906020019080838360005b83811015610d40578082015181840152602081019050610d25565b50505050905090810190601f168015610d6d5780820380516001836020036101000a031916815260200191505b509250505060405180910390f35b348015610d8757600080fd5b50610d90611dbb565b005b348015610d9e57600080fd5b50610dd560048036036040811015610db557600080fd5b810190808035906020019092919080359060200190929190505050612085565b604051808060200180602001838103835285818151815260200191508051906020019080838360005b83811015610e19578082015181840152602081019050610dfe565b50505050905090810190601f168015610e465780820380516001836020036101000a031916815260200191505b50838103825284818151815260200191508051906020019080838360005b83811015610e7f578082015181840152602081019050610e64565b50505050905090810190601f168015610eac5780820380516001836020036101000a031916815260200191505b5094505050505060405180910390f35b348015610ec857600080fd5b50610ed161222d565b604051808273ffffffffffffffffffffffffffffffffffffffff1673ffffffffffffffffffffffffffffffffffffffff16815260200191505060405180910390f35b348015610f1f57600080fd5b50610f28612256565b604051808215151515815260200191505060405180910390f35b348015610f4e57600080fd5b50610f576122ad565b604051808273ffffffffffffffffffffffffffffffffffffffff1673ffffffffffffffffffffffffffffffffffffffff16815260200191505060405180910390f35b348015610fa557600080fd5b50610fae6122d3565b005b348015610fbc57600080fd5b50610fc561250b565b6040518082815260200191505060405180910390f35b348015610fe757600080fd5b50610ff0612518565b6040518082815260200191505060405180910390f35b34801561101257600080fd5b5061101b612525565b6040518082815260200191505060405180910390f35b34801561103d57600080fd5b506110f76004803603602081101561105457600080fd5b810190808035906020019064010000000081111561107157600080fd5b82018360208201111561108357600080fd5b803590602001918460018302840111640100000000831117156110a557600080fd5b91908080601f016020809104026020016040519081016040528093929190818152602001838380828437600081840152601f19601f820116905080830192505050505050509192919290505050612532565b005b34801561110557600080fd5b506111bf6004803603602081101561111c57600080fd5b810190808035906020019064010000000081111561113957600080fd5b82018360208201111561114b57600080fd5b8035906020019184600183028401116401000000008311171561116d57600080fd5b91908080601f016020809104026020016040519081016040528093929190818152602001838380828437600081840152601f19601f8201169050808301925050505050505091929192905050506125d6565b005b3480156111cd57600080fd5b50611210600480360360208110156111e457600080fd5b81019080803573ffffffffffffffffffffffffffffffffffffffff16906020019092919050505061267a565b005b60048181548110151561122157fe5b906000526020600020016000915090508054600181600116156101000203166002900480601f0160208091040260200160405190810160405280929190818152602001828054600181600116156101000203166002900480156112c55780601f1061129a576101008083540402835291602001916112c5565b820191906000526020600020905b8154815290600101906020018083116112a857829003601f168201915b505050505081565b6060806005848154811015156112df57fe5b906000526020600020906004020160030160008481526020019081526020016000206000018054600181600116156101000203166002900480601f0160208091040260200160405190810160405280929190818152602001828054600181600116156101000203166002900480156113985780601f1061136d57610100808354040283529160200191611398565b820191906000526020600020905b81548152906001019060200180831161137b57829003601f168201915b505050505091506005848154811015156113ae57fe5b906000526020600020906004020160030160008481526020019081526020016000206001018054600181600116156101000203166002900480601f0160208091040260200160405190810160405280929190818152602001828054600181600116156101000203166002900480156114675780601f1061143c57610100808354040283529160200191611467565b820191906000526020600020905b81548152906001019060200180831161144a57829003601f168201915b505050505090509250929050565b60058181548110151561148457fe5b9060005260206000209060040201600091509050806000018054600181600116156101000203166002900480601f0160208091040260200160405190810160405280929190818152602001828054600181600116156101000203166002900480156115305780601f1061150557610100808354040283529160200191611530565b820191906000526020600020905b81548152906001019060200180831161151357829003601f168201915b505050505090806001018054600181600116156101000203166002900480601f0160208091040260200160405190810160405280929190818152602001828054600181600116156101000203166002900480156115ce5780601f106115a3576101008083540402835291602001916115ce565b820191906000526020600020905b8154815290600101906020018083116115b157829003601f168201915b5050505050908060020154905083565b6115e6612256565b151561165a576040517f08c379a00000000000000000000000000000000000000000000000000000000081526004018080602001828103825260208152602001807f4f776e61626c653a2063616c6c6572206973206e6f7420746865206f776e657281525060200191505060405180910390fd5b600060058481548110151561166b57fe5b9060005260206000209060040201905060408051908101604052808481526020018381525081600301600083600201600081548092919060010191905055815260200190815260200160002060008201518160000190805190602001906116d3929190612a8b565b5060208201518160010190805190602001906116f0929190612a8b565b5090505050505050565b60056060604051908101604052808481526020018381526020016000815250908060018154018082558091505090600182039060005260206000209060040201600090919290919091506000820151816000019080519060200190611760929190612a8b565b50602082015181600101908051906020019061177d929190612a8b565b50604082015181600201555050505050565b6000600480549050905090565b6007818154811015156117ab57fe5b906000526020600020016000915054906101000a900473ffffffffffffffffffffffffffffffffffffffff1681565b6006818154811015156117e957fe5b9060005260206000209060040201600091509050806000018054600181600116156101000203166002900480601f0160208091040260200160405190810160405280929190818152602001828054600181600116156101000203166002900480156118955780601f1061186a57610100808354040283529160200191611895565b820191906000526020600020905b81548152906001019060200180831161187857829003601f168201915b505050505090806001018054600181600116156101000203166002900480601f0160208091040260200160405190810160405280929190818152602001828054600181600116156101000203166002900480156119335780601f1061190857610100808354040283529160200191611933565b820191906000526020600020905b81548152906001019060200180831161191657829003601f168201915b5050505050908060020154905083565b61194b612256565b15156119bf576040517f08c379a00000000000000000000000000000000000000000000000000000000081526004018080602001828103825260208152602001807f4f776e61626c653a2063616c6c6572206973206e6f7420746865206f776e657281525060200191505060405180910390fd5b60006006848154811015156119d057fe5b906000526020600020906004020190506040805190810160405280848152602001838152508160030160008360020160008154809291906001019190505581526020019081526020016000206000820151816000019080519060200190611a38929190612a8b565b506020820151816001019080519060200190611a55929190612a8b565b5090505050505050565b600360009054906101000a900460ff1681565b60066060604051908101604052808481526020018381526020016000815250908060018154018082558091505090600182039060005260206000209060040201600090919290919091506000820151816000019080519060200190611ad8929190612a8b565b506020820151816001019080519060200190611af5929190612a8b565b50604082015181600201555050505050565b611b0f612256565b1515611b83576040517f08c379a00000000000000000000000000000000000000000000000000000000081526004018080602001828103825260208152602001807f4f776e61626c653a2063616c6c6572206973206e6f7420746865206f776e657281525060200191505060405180910390fd5b6001600360006101000a81548160ff021916908315150217905550565b6004819080600181540180825580915050906001820390600052602060002001600090919290919091509080519060200190611bdd929190612b0b565b505050565b611bea612256565b1515611c5e576040517f08c379a00000000000000000000000000000000000000000000000000000000081526004018080602001828103825260208152602001807f4f776e61626c653a2063616c6c6572206973206e6f7420746865206f776e657281525060200191505060405180910390fd5b600073ffffffffffffffffffffffffffffffffffffffff166000809054906101000a900473ffffffffffffffffffffffffffffffffffffffff1673ffffffffffffffffffffffffffffffffffffffff167f8be0079c531659141344cd1fd0a4f28419497f9722a3daafe3b4186f6b6457e060405160405180910390a360008060006101000a81548173ffffffffffffffffffffffffffffffffffffffff021916908373ffffffffffffffffffffffffffffffffffffffff160217905550565b60028054600181600116156101000203166002900480601f016020809104026020016040519081016040528092919081815260200182805460018160011615610100020316600290048015611db35780601f10611d8857610100808354040283529160200191611db3565b820191906000526020600020905b815481529060010190602001808311611d9657829003601f168201915b505050505081565b600360009054906101000a900460ff161515611e65576040517f08c379a00000000000000000000000000000000000000000000000000000000081526004018080602001828103825260278152602001807f5468652062696464696e6720706572696f6420686173206e6f7420737461727481526020017f6564207965742e0000000000000000000000000000000000000000000000000081525060400191505060405180910390fd5b611e7933600161270290919063ffffffff16565b151515611eee576040517f08c379a000000000000000000000000000000000000000000000000000000000815260040180806020018281038252601a8152602001807f56656e646f7220616c72656164792075706c6f6164206269642e00000000000081525060200191505060405180910390fd5b6000611ef861222d565b611f00612b8b565b808273ffffffffffffffffffffffffffffffffffffffff1673ffffffffffffffffffffffffffffffffffffffff168152602001915050604051809103906000f080158015611f52573d6000803e3d6000fd5b5090508073ffffffffffffffffffffffffffffffffffffffff1663f2fde38b336040518263ffffffff167c0100000000000000000000000000000000000000000000000000000000028152600401808273ffffffffffffffffffffffffffffffffffffffff1673ffffffffffffffffffffffffffffffffffffffff168152602001915050600060405180830381600087803b158015611ff057600080fd5b505af1158015612004573d6000803e3d6000fd5b5050505060078190806001815401808255809150509060018203906000526020600020016000909192909190916101000a81548173ffffffffffffffffffffffffffffffffffffffff021916908373ffffffffffffffffffffffffffffffffffffffff1602179055505061208233600161282590919063ffffffff16565b50565b60608060068481548110151561209757fe5b906000526020600020906004020160030160008481526020019081526020016000206000018054600181600116156101000203166002900480601f0160208091040260200160405190810160405280929190818152602001828054600181600116156101000203166002900480156121505780601f1061212557610100808354040283529160200191612150565b820191906000526020600020905b81548152906001019060200180831161213357829003601f168201915b5050505050915060068481548110151561216657fe5b906000526020600020906004020160030160008481526020019081526020016000206001018054600181600116156101000203166002900480601f01602080910402602001604051908101604052809291908181526020018280546001816001161561010002031660029004801561221f5780601f106121f45761010080835404028352916020019161221f565b820191906000526020600020905b81548152906001019060200180831161220257829003601f168201915b505050505090509250929050565b60008060009054906101000a900473ffffffffffffffffffffffffffffffffffffffff16905090565b60008060009054906101000a900473ffffffffffffffffffffffffffffffffffffffff1673ffffffffffffffffffffffffffffffffffffffff163373ffffffffffffffffffffffffffffffffffffffff1614905090565b600360019054906101000a900473ffffffffffffffffffffffffffffffffffffffff1681565b6122db612256565b151561234f576040517f08c379a00000000000000000000000000000000000000000000000000000000081526004018080602001828103825260208152602001807f4f776e61626c653a2063616c6c6572206973206e6f7420746865206f776e657281525060200191505060405180910390fd5b60006007805490501115156123f2576040517f08c379a00000000000000000000000000000000000000000000000000000000081526004018080602001828103825260398152602001807f54686520617265206e6f20706f737369626c652077696e6e6572732c2073696e81526020017f636520746865726520617265206e6f7420616e7920626964730000000000000081525060400191505060405180910390fd5b6007600081548110151561240257fe5b9060005260206000200160009054906101000a900473ffffffffffffffffffffffffffffffffffffffff1673ffffffffffffffffffffffffffffffffffffffff16638da5cb5b6040518163ffffffff167c010000000000000000000000000000000000000000000000000000000002815260040160206040518083038186803b15801561248e57600080fd5b505afa1580156124a2573d6000803e3d6000fd5b505050506040513d60208110156124b857600080fd5b8101908080519060200190929190505050600360016101000a81548173ffffffffffffffffffffffffffffffffffffffff021916908373ffffffffffffffffffffffffffffffffffffffff160217905550565b6000600580549050905090565b6000600780549050905090565b6000600680549050905090565b60066060604051908101604052808381526020016020604051908101604052806000815250815260200160008152509080600181540180825580915050906001820390600052602060002090600402016000909192909190915060008201518160000190805190602001906125a8929190612a8b565b5060208201518160010190805190602001906125c5929190612a8b565b506040820151816002015550505050565b600560606040519081016040528083815260200160206040519081016040528060008152508152602001600081525090806001815401808255809150509060018203906000526020600020906004020160009091929091909150600082015181600001908051906020019061264c929190612a8b565b506020820151816001019080519060200190612669929190612a8b565b506040820151816002015550505050565b612682612256565b15156126f6576040517f08c379a00000000000000000000000000000000000000000000000000000000081526004018080602001828103825260208152602001807f4f776e61626c653a2063616c6c6572206973206e6f7420746865206f776e657281525060200191505060405180910390fd5b6126ff81612902565b50565b60008073ffffffffffffffffffffffffffffffffffffffff168273ffffffffffffffffffffffffffffffffffffffff16141515156127ce576040517f08c379a00000000000000000000000000000000000000000000000000000000081526004018080602001828103825260228152602001807f526f6c65733a206163636f756e7420697320746865207a65726f20616464726581526020017f737300000000000000000000000000000000000000000000000000000000000081525060400191505060405180910390fd5b8260000160008373ffffffffffffffffffffffffffffffffffffffff1673ffffffffffffffffffffffffffffffffffffffff16815260200190815260200160002060009054906101000a900460ff16905092915050565b61282f8282612702565b1515156128a4576040517f08c379a000000000000000000000000000000000000000000000000000000000815260040180806020018281038252601f8152602001807f526f6c65733a206163636f756e7420616c72656164792068617320726f6c650081525060200191505060405180910390fd5b60018260000160008373ffffffffffffffffffffffffffffffffffffffff1673ffffffffffffffffffffffffffffffffffffffff16815260200190815260200160002060006101000a81548160ff0219169083151502179055505050565b600073ffffffffffffffffffffffffffffffffffffffff168173ffffffffffffffffffffffffffffffffffffffff16141515156129cd576040517f08c379a00000000000000000000000000000000000000000000000000000000081526004018080602001828103825260268152602001807f4f776e61626c653a206e6577206f776e657220697320746865207a65726f206181526020017f646472657373000000000000000000000000000000000000000000000000000081525060400191505060405180910390fd5b8073ffffffffffffffffffffffffffffffffffffffff166000809054906101000a900473ffffffffffffffffffffffffffffffffffffffff1673ffffffffffffffffffffffffffffffffffffffff167f8be0079c531659141344cd1fd0a4f28419497f9722a3daafe3b4186f6b6457e060405160405180910390a3806000806101000a81548173ffffffffffffffffffffffffffffffffffffffff021916908373ffffffffffffffffffffffffffffffffffffffff16021790555050565b828054600181600116156101000203166002900490600052602060002090601f016020900481019282601f10612acc57805160ff1916838001178555612afa565b82800160010185558215612afa579182015b82811115612af9578251825591602001919060010190612ade565b5b509050612b079190612b9b565b5090565b828054600181600116156101000203166002900490600052602060002090601f016020900481019282601f10612b4c57805160ff1916838001178555612b7a565b82800160010185558215612b7a579182015b82811115612b79578251825591602001919060010190612b5e565b5b509050612b879190612b9b565b5090565b60405161201280612bc183390190565b612bbd91905b80821115612bb9576000816000905550600101612ba1565b5090565b9056fe608060405234801561001057600080fd5b506040516020806120128339810180604052602081101561003057600080fd5b8101908080519060200190929190505050336000806101000a81548173ffffffffffffffffffffffffffffffffffffffff021916908373ffffffffffffffffffffffffffffffffffffffff1602179055506000809054906101000a900473ffffffffffffffffffffffffffffffffffffffff1673ffffffffffffffffffffffffffffffffffffffff16600073ffffffffffffffffffffffffffffffffffffffff167f8be0079c531659141344cd1fd0a4f28419497f9722a3daafe3b4186f6b6457e060405160405180910390a380600160006101000a81548173ffffffffffffffffffffffffffffffffffffffff021916908373ffffffffffffffffffffffffffffffffffffffff16021790555050611ec48061014e6000396000f3fe608060405260043610610107576000357c0100000000000000000000000000000000000000000000000000000000900463ffffffff1680631e17032b1461010c578063252c09d7146102365780632c519bc41461035d5780632ca5f37f146104c65780633b02a2681461058e57806348d28514146106ed578063715018a6146108175780638da5cb5b1461082e5780638f32d59b146108855780639986ab94146108b4578063cae017d2146109db578063d715018014610a16578063e7974fef14610a41578063efedc66914610a98578063f07ee22514610ac3578063f132617514610c22578063f211128314610d8b578063f288f50514610e53578063f2fde38b14610e7e575b600080fd5b34801561011857600080fd5b5061014f6004803603604081101561012f57600080fd5b810190808035906020019092919080359060200190929190505050610ecf565b604051808060200180602001838103835285818151815260200191508051906020019080838360005b83811015610193578082015181840152602081019050610178565b50505050905090810190601f1680156101c05780820380516001836020036101000a031916815260200191505b50838103825284818151815260200191508051906020019080838360005b838110156101f95780820151818401526020810190506101de565b50505050905090810190601f1680156102265780820380516001836020036101000a031916815260200191505b5094505050505060405180910390f35b34801561024257600080fd5b5061026f6004803603602081101561025957600080fd5b8101908080359060200190929190505050611077565b604051808060200180602001848152602001838103835286818151815260200191508051906020019080838360005b838110156102b957808201518184015260208101905061029e565b50505050905090810190601f1680156102e65780820380516001836020036101000a031916815260200191505b50838103825285818151815260200191508051906020019080838360005b8381101561031f578082015181840152602081019050610304565b50505050905090810190601f16801561034c5780820380516001836020036101000a031916815260200191505b509550505050505060405180910390f35b34801561036957600080fd5b506104c46004803603606081101561038057600080fd5b8101908080359060200190929190803590602001906401000000008111156103a757600080fd5b8201836020820111156103b957600080fd5b803590602001918460018302840111640100000000831117156103db57600080fd5b91908080601f016020809104026020016040519081016040528093929190818152602001838380828437600081840152601f19601f8201169050808301925050505050505091929192908035906020019064010000000081111561043e57600080fd5b82018360208201111561045057600080fd5b8035906020019184600183028401116401000000008311171561047257600080fd5b91908080601f016020809104026020016040519081016040528093929190818152602001838380828437600081840152601f19601f8201169050808301925050505050505091929192905050506111e0565b005b3480156104d257600080fd5b5061058c600480360360208110156104e957600080fd5b810190808035906020019064010000000081111561050657600080fd5b82018360208201111561051857600080fd5b8035906020019184600183028401116401000000008311171561053a57600080fd5b91908080601f016020809104026020016040519081016040528093929190818152602001838380828437600081840152601f19601f8201169050808301925050505050505091929192905050506112fc565b005b34801561059a57600080fd5b506106eb600480360360408110156105b157600080fd5b81019080803590602001906401000000008111156105ce57600080fd5b8201836020820111156105e057600080fd5b8035906020019184600183028401116401000000008311171561060257600080fd5b91908080601f016020809104026020016040519081016040528093929190818152602001838380828437600081840152601f19601f8201169050808301925050505050505091929192908035906020019064010000000081111561066557600080fd5b82018360208201111561067757600080fd5b8035906020019184600183028401116401000000008311171561069957600080fd5b91908080601f016020809104026020016040519081016040528093929190818152602001838380828437600081840152601f19601f8201169050808301925050505050505091929192905050506113a0565b005b3480156106f957600080fd5b506107306004803603604081101561071057600080fd5b810190808035906020019092919080359060200190929190505050611435565b604051808060200180602001838103835285818151815260200191508051906020019080838360005b83811015610774578082015181840152602081019050610759565b50505050905090810190601f1680156107a15780820380516001836020036101000a031916815260200191505b50838103825284818151815260200191508051906020019080838360005b838110156107da5780820151818401526020810190506107bf565b50505050905090810190601f1680156108075780820380516001836020036101000a031916815260200191505b5094505050505060405180910390f35b34801561082357600080fd5b5061082c6115dd565b005b34801561083a57600080fd5b50610843611718565b604051808273ffffffffffffffffffffffffffffffffffffffff1673ffffffffffffffffffffffffffffffffffffffff16815260200191505060405180910390f35b34801561089157600080fd5b5061089a611741565b604051808215151515815260200191505060405180910390f35b3480156108c057600080fd5b506108ed600480360360208110156108d757600080fd5b8101908080359060200190929190505050611798565b604051808060200180602001848152602001838103835286818151815260200191508051906020019080838360005b8381101561093757808201518184015260208101905061091c565b50505050905090810190601f1680156109645780820380516001836020036101000a031916815260200191505b50838103825285818151815260200191508051906020019080838360005b8381101561099d578082015181840152602081019050610982565b50505050905090810190601f1680156109ca5780820380516001836020036101000a031916815260200191505b509550505050505060405180910390f35b3480156109e757600080fd5b50610a14600480360360208110156109fe57600080fd5b8101908080359060200190929190505050611901565b005b348015610a2257600080fd5b50610a2b611967565b6040518082815260200191505060405180910390f35b348015610a4d57600080fd5b50610a56611974565b604051808273ffffffffffffffffffffffffffffffffffffffff1673ffffffffffffffffffffffffffffffffffffffff16815260200191505060405180910390f35b348015610aa457600080fd5b50610aad61199a565b6040518082815260200191505060405180910390f35b348015610acf57600080fd5b50610c2060048036036040811015610ae657600080fd5b8101908080359060200190640100000000811115610b0357600080fd5b820183602082011115610b1557600080fd5b80359060200191846001830284011164010000000083111715610b3757600080fd5b91908080601f016020809104026020016040519081016040528093929190818152602001838380828437600081840152601f19601f82011690508083019250505050505050919291929080359060200190640100000000811115610b9a57600080fd5b820183602082011115610bac57600080fd5b80359060200191846001830284011164010000000083111715610bce57600080fd5b91908080601f016020809104026020016040519081016040528093929190818152602001838380828437600081840152601f19601f8201169050808301925050505050505091929192905050506119a0565b005b348015610c2e57600080fd5b50610d8960048036036060811015610c4557600080fd5b810190808035906020019092919080359060200190640100000000811115610c6c57600080fd5b820183602082011115610c7e57600080fd5b80359060200191846001830284011164010000000083111715610ca057600080fd5b91908080601f016020809104026020016040519081016040528093929190818152602001838380828437600081840152601f19601f82011690508083019250505050505050919291929080359060200190640100000000811115610d0357600080fd5b820183602082011115610d1557600080fd5b80359060200191846001830284011164010000000083111715610d3757600080fd5b91908080601f016020809104026020016040519081016040528093929190818152602001838380828437600081840152601f19601f820116905080830192505050505050509192919290505050611a35565b005b348015610d9757600080fd5b50610e5160048036036020811015610dae57600080fd5b8101908080359060200190640100000000811115610dcb57600080fd5b820183602082011115610ddd57600080fd5b80359060200191846001830284011164010000000083111715610dff57600080fd5b91908080601f016020809104026020016040519081016040528093929190818152602001838380828437600081840152601f19601f820116905080830192505050505050509192919290505050611b31565b005b348015610e5f57600080fd5b50610e68611bd5565b6040518082815260200191505060405180910390f35b348015610e8a57600080fd5b50610ecd60048036036020811015610ea157600080fd5b81019080803573ffffffffffffffffffffffffffffffffffffffff169060200190929190505050611be2565b005b606080600384815481101515610ee157fe5b906000526020600020906004020160030160008481526020019081526020016000206000018054600181600116156101000203166002900480601f016020809104026020016040519081016040528092919081815260200182805460018160011615610100020316600290048015610f9a5780601f10610f6f57610100808354040283529160200191610f9a565b820191906000526020600020905b815481529060010190602001808311610f7d57829003601f168201915b50505050509150600384815481101515610fb057fe5b906000526020600020906004020160030160008481526020019081526020016000206001018054600181600116156101000203166002900480601f0160208091040260200160405190810160405280929190818152602001828054600181600116156101000203166002900480156110695780601f1061103e57610100808354040283529160200191611069565b820191906000526020600020905b81548152906001019060200180831161104c57829003601f168201915b505050505090509250929050565b60038181548110151561108657fe5b9060005260206000209060040201600091509050806000018054600181600116156101000203166002900480601f0160208091040260200160405190810160405280929190818152602001828054600181600116156101000203166002900480156111325780601f1061110757610100808354040283529160200191611132565b820191906000526020600020905b81548152906001019060200180831161111557829003601f168201915b505050505090806001018054600181600116156101000203166002900480601f0160208091040260200160405190810160405280929190818152602001828054600181600116156101000203166002900480156111d05780601f106111a5576101008083540402835291602001916111d0565b820191906000526020600020905b8154815290600101906020018083116111b357829003601f168201915b5050505050908060020154905083565b6111e8611741565b151561125c576040517f08c379a00000000000000000000000000000000000000000000000000000000081526004018080602001828103825260208152602001807f4f776e61626c653a2063616c6c6572206973206e6f7420746865206f776e657281525060200191505060405180910390fd5b600060038481548110151561126d57fe5b9060005260206000209060040201905060408051908101604052808481526020018381525081600301600083600201600081548092919060010191905055815260200190815260200160002060008201518160000190805190602001906112d5929190611df3565b5060208201518160010190805190602001906112f2929190611df3565b5090505050505050565b6004606060405190810160405280838152602001602060405190810160405280600081525081526020016000815250908060018154018082558091505090600182039060005260206000209060040201600090919290919091506000820151816000019080519060200190611372929190611df3565b50602082015181600101908051906020019061138f929190611df3565b506040820151816002015550505050565b60036060604051908101604052808481526020018381526020016000815250908060018154018082558091505090600182039060005260206000209060040201600090919290919091506000820151816000019080519060200190611406929190611df3565b506020820151816001019080519060200190611423929190611df3565b50604082015181600201555050505050565b60608060048481548110151561144757fe5b906000526020600020906004020160030160008481526020019081526020016000206000018054600181600116156101000203166002900480601f0160208091040260200160405190810160405280929190818152602001828054600181600116156101000203166002900480156115005780601f106114d557610100808354040283529160200191611500565b820191906000526020600020905b8154815290600101906020018083116114e357829003601f168201915b5050505050915060048481548110151561151657fe5b906000526020600020906004020160030160008481526020019081526020016000206001018054600181600116156101000203166002900480601f0160208091040260200160405190810160405280929190818152602001828054600181600116156101000203166002900480156115cf5780601f106115a4576101008083540402835291602001916115cf565b820191906000526020600020905b8154815290600101906020018083116115b257829003601f168201915b505050505090509250929050565b6115e5611741565b1515611659576040517f08c379a00000000000000000000000000000000000000000000000000000000081526004018080602001828103825260208152602001807f4f776e61626c653a2063616c6c6572206973206e6f7420746865206f776e657281525060200191505060405180910390fd5b600073ffffffffffffffffffffffffffffffffffffffff166000809054906101000a900473ffffffffffffffffffffffffffffffffffffffff1673ffffffffffffffffffffffffffffffffffffffff167f8be0079c531659141344cd1fd0a4f28419497f9722a3daafe3b4186f6b6457e060405160405180910390a360008060006101000a81548173ffffffffffffffffffffffffffffffffffffffff021916908373ffffffffffffffffffffffffffffffffffffffff160217905550565b60008060009054906101000a900473ffffffffffffffffffffffffffffffffffffffff16905090565b60008060009054906101000a900473ffffffffffffffffffffffffffffffffffffffff1673ffffffffffffffffffffffffffffffffffffffff163373ffffffffffffffffffffffffffffffffffffffff1614905090565b6004818154811015156117a757fe5b9060005260206000209060040201600091509050806000018054600181600116156101000203166002900480601f0160208091040260200160405190810160405280929190818152602001828054600181600116156101000203166002900480156118535780601f1061182857610100808354040283529160200191611853565b820191906000526020600020905b81548152906001019060200180831161183657829003601f168201915b505050505090806001018054600181600116156101000203166002900480601f0160208091040260200160405190810160405280929190818152602001828054600181600116156101000203166002900480156118f15780601f106118c6576101008083540402835291602001916118f1565b820191906000526020600020905b8154815290600101906020018083116118d457829003601f168201915b5050505050908060020154905083565b600160009054906101000a900473ffffffffffffffffffffffffffffffffffffffff1673ffffffffffffffffffffffffffffffffffffffff163373ffffffffffffffffffffffffffffffffffffffff1614151561195d57600080fd5b8060028190555050565b6000600380549050905090565b600160009054906101000a900473ffffffffffffffffffffffffffffffffffffffff1681565b60025481565b60046060604051908101604052808481526020018381526020016000815250908060018154018082558091505090600182039060005260206000209060040201600090919290919091506000820151816000019080519060200190611a06929190611df3565b506020820151816001019080519060200190611a23929190611df3565b50604082015181600201555050505050565b600160009054906101000a900473ffffffffffffffffffffffffffffffffffffffff1673ffffffffffffffffffffffffffffffffffffffff163373ffffffffffffffffffffffffffffffffffffffff16141515611a9157600080fd5b6000600484815481101515611aa257fe5b906000526020600020906004020190506040805190810160405280848152602001838152508160030160008360020160008154809291906001019190505581526020019081526020016000206000820151816000019080519060200190611b0a929190611df3565b506020820151816001019080519060200190611b27929190611df3565b5090505050505050565b6003606060405190810160405280838152602001602060405190810160405280600081525081526020016000815250908060018154018082558091505090600182039060005260206000209060040201600090919290919091506000820151816000019080519060200190611ba7929190611df3565b506020820151816001019080519060200190611bc4929190611df3565b506040820151816002015550505050565b6000600480549050905090565b611bea611741565b1515611c5e576040517f08c379a00000000000000000000000000000000000000000000000000000000081526004018080602001828103825260208152602001807f4f776e61626c653a2063616c6c6572206973206e6f7420746865206f776e657281525060200191505060405180910390fd5b611c6781611c6a565b50565b600073ffffffffffffffffffffffffffffffffffffffff168173ffffffffffffffffffffffffffffffffffffffff1614151515611d35576040517f08c379a00000000000000000000000000000000000000000000000000000000081526004018080602001828103825260268152602001807f4f776e61626c653a206e6577206f776e657220697320746865207a65726f206181526020017f646472657373000000000000000000000000000000000000000000000000000081525060400191505060405180910390fd5b8073ffffffffffffffffffffffffffffffffffffffff166000809054906101000a900473ffffffffffffffffffffffffffffffffffffffff1673ffffffffffffffffffffffffffffffffffffffff167f8be0079c531659141344cd1fd0a4f28419497f9722a3daafe3b4186f6b6457e060405160405180910390a3806000806101000a81548173ffffffffffffffffffffffffffffffffffffffff021916908373ffffffffffffffffffffffffffffffffffffffff16021790555050565b828054600181600116156101000203166002900490600052602060002090601f016020900481019282601f10611e3457805160ff1916838001178555611e62565b82800160010185558215611e62579182015b82811115611e61578251825591602001919060010190611e46565b5b509050611e6f9190611e73565b5090565b611e9591905b80821115611e91576000816000905550600101611e79565b5090565b9056fea165627a7a7230582085073299503d12492c3b6fc2caf8ad369d905104f83c202be41828b5ed113d7f0029a165627a7a723058205183546d3e027e1f0288bb411f9700b7ff16ff4d7023da5f870cc1c1c267e9b60029",
  "source": "pragma solidity >=0.4.23 <0.6.0;\n\nimport 'openzeppelin-solidity/contracts/ownership/Ownable.sol';\nimport 'openzeppelin-solidity/contracts/access/Roles.sol';\nimport 'contracts/Bid.sol';\n\ncontract Tender is Ownable {\n  using Roles for Roles.Role;\n\n  Roles.Role private vendors;\n\n  string public description;\n  bool public biddingPeriod;\n  address public winnigVendor;\n  string[] public messages;\n  Observation[] public observations;\n  Observation[] public winnerObservations;\n  Bid[] public bids;\n\n  event TenderCreated(address indexed _owner, string _description);\n\n  struct Observation {\n    string plain;\n    string hash;\n    uint numResponses;\n    mapping (uint => Response) responses;\n  }\n\n  struct Response {\n    string plain;\n    string hash;\n  }\n\n  constructor() public {\n    description = \"Tender contract\";\n    biddingPeriod = false;\n    emit TenderCreated(msg.sender, description);\n  }\n\n  function submitObservation(string memory _plain) public {\n    observations.push(Observation({plain: _plain, hash: \"\", numResponses: 0}));\n  }\n\n  function submitObservation(string memory _plain, string memory _hash) public {\n    observations.push(Observation({plain: _plain, hash: _hash, numResponses: 0}));\n  }\n\n  function respondObservation(uint _idx, string memory _plain, string memory _hash) public onlyOwner {\n    Observation storage obs = observations[_idx];\n    obs.responses[obs.numResponses++] = Response({plain: _plain, hash: _hash});\n  }\n\n  function submitWinnerObservation(string memory _plain) public {\n    winnerObservations.push(Observation({plain: _plain, hash: \"\", numResponses: 0}));\n  }\n\n  function submitWinnerObservation(string memory _plain, string memory _hash) public {\n    winnerObservations.push(Observation({plain: _plain, hash: _hash, numResponses: 0}));\n  }\n\n  function respondWinnerObservation(uint _idx, string memory _plain, string memory _hash) public onlyOwner {\n    Observation storage obs = winnerObservations[_idx];\n    obs.responses[obs.numResponses++] = Response({plain: _plain, hash: _hash});\n  }\n\n  function getObservationsLength() public view returns(uint) {\n    return observations.length;\n  }\n\n  function submitMessage(string memory _message) public {\n    messages.push(_message);\n  }\n\n  function getMessagesLength() public view returns(uint) {\n    return messages.length;\n  }\n\n\n  function getWinnerObservationsLength() public view returns(uint) {\n    return winnerObservations.length;\n  }\n\n  function createBid() public {\n    require(biddingPeriod,\"The bidding period has not started yet.\");\n    require(!vendors.has(msg.sender), \"Vendor already upload bid.\");\n    Bid bid = new Bid(owner());\n    bid.transferOwnership(msg.sender);\n    bids.push(bid);\n    vendors.add(msg.sender);\n  }\n\n  function getBidsLength() public view returns(uint) {\n    return bids.length;\n  }\n\n  function startAuction() public onlyOwner {\n    biddingPeriod = true;\n  }\n  function setWinnigVendor() public onlyOwner {\n    require(bids.length > 0, \"The are no possible winners, since there are not any bids\");\n    winnigVendor = bids[0].owner();\n  }\n\n  function getResponseAt(uint _obsIdx, uint _resIdx) public view returns (string memory _plain, string memory _hash) {\n    _plain = observations[_obsIdx].responses[_resIdx].plain;\n    _hash = observations[_obsIdx].responses[_resIdx].hash;\n  }\n\n  function getWinnerObservationResponseAt(uint _obsIdx, uint _resIdx) public view returns (string memory _plain, string memory _hash) {\n    _plain = winnerObservations[_obsIdx].responses[_resIdx].plain;\n    _hash = winnerObservations[_obsIdx].responses[_resIdx].hash;\n  }\n}\n",
  "sourcePath": "/home/luis/Documents/BlockchainStuff/Proyecto/contracts/contracts/Tender.sol",
  "compiler": {
    "name": "solc",
    "version": "0.5.0+commit.1d4f565a.Emscripten.clang"
  },
  "schemaVersion": "3.0.5",
  "updatedAt": "2019-11-06T21:08:17.315Z",
  "devdoc": {
    "methods": {
      "isOwner()": {
        "details": "Returns true if the caller is the current owner."
      },
      "owner()": {
        "details": "Returns the address of the current owner."
      },
      "renounceOwnership()": {
        "details": "Leaves the contract without owner. It will not be possible to call `onlyOwner` functions anymore. Can only be called by the current owner.     * > Note: Renouncing ownership will leave the contract without an owner, thereby removing any functionality that is only available to the owner."
      },
      "transferOwnership(address)": {
        "details": "Transfers ownership of the contract to a new account (`newOwner`). Can only be called by the current owner."
      }
    }
  },
  "userdoc": {
    "methods": {}
  }
}