{
  "contractName": "Tender",
  "abi": [
    {
      "inputs": [
        {
          "internalType": "uint256",
          "name": "_number",
          "type": "uint256"
        },
        {
          "internalType": "uint256",
          "name": "_basePrice",
          "type": "uint256"
        },
        {
          "internalType": "string",
          "name": "_office",
          "type": "string"
        },
        {
          "internalType": "string",
          "name": "_name",
          "type": "string"
        },
        {
          "internalType": "string",
          "name": "_description",
          "type": "string"
        },
        {
          "internalType": "string",
          "name": "_procedureTeam",
          "type": "string"
        },
        {
          "internalType": "bytes17[]",
          "name": "_publicKey",
          "type": "bytes17[]"
        },
        {
          "internalType": "bytes32[]",
          "name": "_ipfsHashes",
          "type": "bytes32[]"
        },
        {
          "internalType": "uint256[]",
          "name": "_scheduleDates",
          "type": "uint256[]"
        },
        {
          "internalType": "uint256[]",
          "name": "_unspsc",
          "type": "uint256[]"
        },
        {
          "internalType": "uint256[]",
          "name": "_contractInfo",
          "type": "uint256[]"
        },
        {
          "internalType": "uint256[]",
          "name": "_generalInfoValues",
          "type": "uint256[]"
        },
        {
          "internalType": "bool[]",
          "name": "_generalInfoFlags",
          "type": "bool[]"
        }
      ],
      "payable": false,
      "stateMutability": "nonpayable",
      "type": "constructor"
    },
    {
      "anonymous": false,
      "inputs": [
        {
          "indexed": true,
          "internalType": "address",
          "name": "previousOwner",
          "type": "address"
        },
        {
          "indexed": true,
          "internalType": "address",
          "name": "newOwner",
          "type": "address"
        }
      ],
      "name": "OwnershipTransferred",
      "type": "event"
    },
    {
      "anonymous": false,
      "inputs": [
        {
          "indexed": true,
          "internalType": "address",
          "name": "_owner",
          "type": "address"
        },
        {
          "indexed": false,
          "internalType": "string",
          "name": "_name",
          "type": "string"
        }
      ],
      "name": "TenderCreated",
      "type": "event"
    },
    {
      "constant": true,
      "inputs": [],
      "name": "basePrice",
      "outputs": [
        {
          "internalType": "uint256",
          "name": "",
          "type": "uint256"
        }
      ],
      "payable": false,
      "stateMutability": "view",
      "type": "function"
    },
    {
      "constant": true,
      "inputs": [],
      "name": "biddingPeriod",
      "outputs": [
        {
          "internalType": "bool",
          "name": "",
          "type": "bool"
        }
      ],
      "payable": false,
      "stateMutability": "view",
      "type": "function"
    },
    {
      "constant": true,
      "inputs": [
        {
          "internalType": "uint256",
          "name": "",
          "type": "uint256"
        }
      ],
      "name": "contractInfo",
      "outputs": [
        {
          "internalType": "uint256",
          "name": "",
          "type": "uint256"
        }
      ],
      "payable": false,
      "stateMutability": "view",
      "type": "function"
    },
    {
      "constant": true,
      "inputs": [],
      "name": "description",
      "outputs": [
        {
          "internalType": "string",
          "name": "",
          "type": "string"
        }
      ],
      "payable": false,
      "stateMutability": "view",
      "type": "function"
    },
    {
      "constant": true,
      "inputs": [
        {
          "internalType": "uint256",
          "name": "",
          "type": "uint256"
        }
      ],
      "name": "generalInfoFlags",
      "outputs": [
        {
          "internalType": "bool",
          "name": "",
          "type": "bool"
        }
      ],
      "payable": false,
      "stateMutability": "view",
      "type": "function"
    },
    {
      "constant": true,
      "inputs": [
        {
          "internalType": "uint256",
          "name": "",
          "type": "uint256"
        }
      ],
      "name": "generalInfoValues",
      "outputs": [
        {
          "internalType": "uint256",
          "name": "",
          "type": "uint256"
        }
      ],
      "payable": false,
      "stateMutability": "view",
      "type": "function"
    },
    {
      "constant": true,
      "inputs": [
        {
          "internalType": "uint256",
          "name": "",
          "type": "uint256"
        }
      ],
      "name": "ipfsHashes",
      "outputs": [
        {
          "internalType": "bytes32",
          "name": "",
          "type": "bytes32"
        }
      ],
      "payable": false,
      "stateMutability": "view",
      "type": "function"
    },
    {
      "constant": true,
      "inputs": [],
      "name": "isOwner",
      "outputs": [
        {
          "internalType": "bool",
          "name": "",
          "type": "bool"
        }
      ],
      "payable": false,
      "stateMutability": "view",
      "type": "function"
    },
    {
      "constant": true,
      "inputs": [
        {
          "internalType": "uint256",
          "name": "",
          "type": "uint256"
        }
      ],
      "name": "messages",
      "outputs": [
        {
          "internalType": "string",
          "name": "",
          "type": "string"
        }
      ],
      "payable": false,
      "stateMutability": "view",
      "type": "function"
    },
    {
      "constant": true,
      "inputs": [],
      "name": "name",
      "outputs": [
        {
          "internalType": "string",
          "name": "",
          "type": "string"
        }
      ],
      "payable": false,
      "stateMutability": "view",
      "type": "function"
    },
    {
      "constant": true,
      "inputs": [],
      "name": "number",
      "outputs": [
        {
          "internalType": "uint256",
          "name": "",
          "type": "uint256"
        }
      ],
      "payable": false,
      "stateMutability": "view",
      "type": "function"
    },
    {
      "constant": true,
      "inputs": [
        {
          "internalType": "uint256",
          "name": "",
          "type": "uint256"
        }
      ],
      "name": "observations",
      "outputs": [
        {
          "internalType": "string",
          "name": "plain",
          "type": "string"
        },
        {
          "internalType": "string",
          "name": "hash",
          "type": "string"
        },
        {
          "internalType": "string",
          "name": "resPlain",
          "type": "string"
        },
        {
          "internalType": "string",
          "name": "resHash",
          "type": "string"
        }
      ],
      "payable": false,
      "stateMutability": "view",
      "type": "function"
    },
    {
      "constant": true,
      "inputs": [],
      "name": "office",
      "outputs": [
        {
          "internalType": "string",
          "name": "",
          "type": "string"
        }
      ],
      "payable": false,
      "stateMutability": "view",
      "type": "function"
    },
    {
      "constant": true,
      "inputs": [],
      "name": "owner",
      "outputs": [
        {
          "internalType": "address",
          "name": "",
          "type": "address"
        }
      ],
      "payable": false,
      "stateMutability": "view",
      "type": "function"
    },
    {
      "constant": true,
      "inputs": [],
      "name": "procedureTeam",
      "outputs": [
        {
          "internalType": "string",
          "name": "",
          "type": "string"
        }
      ],
      "payable": false,
      "stateMutability": "view",
      "type": "function"
    },
    {
      "constant": true,
      "inputs": [],
      "name": "publicKey",
      "outputs": [
        {
          "internalType": "bytes17",
          "name": "r",
          "type": "bytes17"
        },
        {
          "internalType": "bytes17",
          "name": "s",
          "type": "bytes17"
        }
      ],
      "payable": false,
      "stateMutability": "view",
      "type": "function"
    },
    {
      "constant": false,
      "inputs": [],
      "name": "renounceOwnership",
      "outputs": [],
      "payable": false,
      "stateMutability": "nonpayable",
      "type": "function"
    },
    {
      "constant": true,
      "inputs": [
        {
          "internalType": "uint256",
          "name": "",
          "type": "uint256"
        }
      ],
      "name": "scheduleDates",
      "outputs": [
        {
          "internalType": "uint256",
          "name": "",
          "type": "uint256"
        }
      ],
      "payable": false,
      "stateMutability": "view",
      "type": "function"
    },
    {
      "constant": false,
      "inputs": [
        {
          "internalType": "address",
          "name": "newOwner",
          "type": "address"
        }
      ],
      "name": "transferOwnership",
      "outputs": [],
      "payable": false,
      "stateMutability": "nonpayable",
      "type": "function"
    },
    {
      "constant": true,
      "inputs": [
        {
          "internalType": "uint256",
          "name": "",
          "type": "uint256"
        }
      ],
      "name": "unspsc",
      "outputs": [
        {
          "internalType": "uint256",
          "name": "",
          "type": "uint256"
        }
      ],
      "payable": false,
      "stateMutability": "view",
      "type": "function"
    },
    {
      "constant": true,
      "inputs": [
        {
          "internalType": "uint256",
          "name": "",
          "type": "uint256"
        }
      ],
      "name": "winnerObservations",
      "outputs": [
        {
          "internalType": "string",
          "name": "plain",
          "type": "string"
        },
        {
          "internalType": "string",
          "name": "hash",
          "type": "string"
        },
        {
          "internalType": "string",
          "name": "resPlain",
          "type": "string"
        },
        {
          "internalType": "string",
          "name": "resHash",
          "type": "string"
        }
      ],
      "payable": false,
      "stateMutability": "view",
      "type": "function"
    },
    {
      "constant": true,
      "inputs": [],
      "name": "winningVendor",
      "outputs": [
        {
          "internalType": "address",
          "name": "",
          "type": "address"
        }
      ],
      "payable": false,
      "stateMutability": "view",
      "type": "function"
    },
    {
      "constant": false,
      "inputs": [
        {
          "internalType": "string",
          "name": "_plain",
          "type": "string"
        }
      ],
      "name": "submitObservation",
      "outputs": [],
      "payable": false,
      "stateMutability": "nonpayable",
      "type": "function"
    },
    {
      "constant": false,
      "inputs": [
        {
          "internalType": "string",
          "name": "_plain",
          "type": "string"
        },
        {
          "internalType": "string",
          "name": "_hash",
          "type": "string"
        }
      ],
      "name": "submitObservation",
      "outputs": [],
      "payable": false,
      "stateMutability": "nonpayable",
      "type": "function"
    },
    {
      "constant": false,
      "inputs": [
        {
          "internalType": "uint256",
          "name": "_idx",
          "type": "uint256"
        },
        {
          "internalType": "string",
          "name": "_plain",
          "type": "string"
        },
        {
          "internalType": "string",
          "name": "_hash",
          "type": "string"
        }
      ],
      "name": "respondObservation",
      "outputs": [],
      "payable": false,
      "stateMutability": "nonpayable",
      "type": "function"
    },
    {
      "constant": false,
      "inputs": [
        {
          "internalType": "string",
          "name": "_plain",
          "type": "string"
        }
      ],
      "name": "submitWinnerObservation",
      "outputs": [],
      "payable": false,
      "stateMutability": "nonpayable",
      "type": "function"
    },
    {
      "constant": false,
      "inputs": [
        {
          "internalType": "string",
          "name": "_plain",
          "type": "string"
        },
        {
          "internalType": "string",
          "name": "_hash",
          "type": "string"
        }
      ],
      "name": "submitWinnerObservation",
      "outputs": [],
      "payable": false,
      "stateMutability": "nonpayable",
      "type": "function"
    },
    {
      "constant": false,
      "inputs": [
        {
          "internalType": "uint256",
          "name": "_idx",
          "type": "uint256"
        },
        {
          "internalType": "string",
          "name": "_plain",
          "type": "string"
        },
        {
          "internalType": "string",
          "name": "_hash",
          "type": "string"
        }
      ],
      "name": "respondWinnerObservation",
      "outputs": [],
      "payable": false,
      "stateMutability": "nonpayable",
      "type": "function"
    },
    {
      "constant": true,
      "inputs": [],
      "name": "getObservationsLength",
      "outputs": [
        {
          "internalType": "uint256",
          "name": "",
          "type": "uint256"
        }
      ],
      "payable": false,
      "stateMutability": "view",
      "type": "function"
    },
    {
      "constant": false,
      "inputs": [
        {
          "internalType": "string",
          "name": "_message",
          "type": "string"
        }
      ],
      "name": "submitMessage",
      "outputs": [],
      "payable": false,
      "stateMutability": "nonpayable",
      "type": "function"
    },
    {
      "constant": true,
      "inputs": [],
      "name": "getMessagesLength",
      "outputs": [
        {
          "internalType": "uint256",
          "name": "",
          "type": "uint256"
        }
      ],
      "payable": false,
      "stateMutability": "view",
      "type": "function"
    },
    {
      "constant": true,
      "inputs": [],
      "name": "getWinnerObservationsLength",
      "outputs": [
        {
          "internalType": "uint256",
          "name": "",
          "type": "uint256"
        }
      ],
      "payable": false,
      "stateMutability": "view",
      "type": "function"
    },
    {
      "constant": false,
      "inputs": [],
      "name": "startAuction",
      "outputs": [],
      "payable": false,
      "stateMutability": "nonpayable",
      "type": "function"
    },
    {
      "constant": false,
      "inputs": [
        {
          "internalType": "address",
          "name": "_contractAddress",
          "type": "address"
        }
      ],
      "name": "registerBid",
      "outputs": [],
      "payable": false,
      "stateMutability": "nonpayable",
      "type": "function"
    },
    {
      "constant": true,
      "inputs": [],
      "name": "getBidsSize",
      "outputs": [
        {
          "internalType": "uint256",
          "name": "",
          "type": "uint256"
        }
      ],
      "payable": false,
      "stateMutability": "view",
      "type": "function"
    },
    {
      "constant": true,
      "inputs": [
        {
          "internalType": "uint256",
          "name": "_bidIdx",
          "type": "uint256"
        }
      ],
      "name": "getBid",
      "outputs": [
        {
          "internalType": "address",
          "name": "",
          "type": "address"
        }
      ],
      "payable": false,
      "stateMutability": "view",
      "type": "function"
    }
  ],
  "bytecode": "0x60806040523480156200001157600080fd5b5060405162003aef38038062003aef83398181016040526101a08110156200003857600080fd5b810190808051906020019092919080519060200190929190805160405193929190846401000000008211156200006d57600080fd5b838201915060208201858111156200008457600080fd5b8251866001820283011164010000000082111715620000a257600080fd5b8083526020830192505050908051906020019080838360005b83811015620000d8578082015181840152602081019050620000bb565b50505050905090810190601f168015620001065780820380516001836020036101000a031916815260200191505b50604052602001805160405193929190846401000000008211156200012a57600080fd5b838201915060208201858111156200014157600080fd5b82518660018202830111640100000000821117156200015f57600080fd5b8083526020830192505050908051906020019080838360005b838110156200019557808201518184015260208101905062000178565b50505050905090810190601f168015620001c35780820380516001836020036101000a031916815260200191505b5060405260200180516040519392919084640100000000821115620001e757600080fd5b83820191506020820185811115620001fe57600080fd5b82518660018202830111640100000000821117156200021c57600080fd5b8083526020830192505050908051906020019080838360005b838110156200025257808201518184015260208101905062000235565b50505050905090810190601f168015620002805780820380516001836020036101000a031916815260200191505b5060405260200180516040519392919084640100000000821115620002a457600080fd5b83820191506020820185811115620002bb57600080fd5b8251866001820283011164010000000082111715620002d957600080fd5b8083526020830192505050908051906020019080838360005b838110156200030f578082015181840152602081019050620002f2565b50505050905090810190601f1680156200033d5780820380516001836020036101000a031916815260200191505b50604052602001805160405193929190846401000000008211156200036157600080fd5b838201915060208201858111156200037857600080fd5b82518660208202830111640100000000821117156200039657600080fd5b8083526020830192505050908051906020019060200280838360005b83811015620003cf578082015181840152602081019050620003b2565b5050505090500160405260200180516040519392919084640100000000821115620003f957600080fd5b838201915060208201858111156200041057600080fd5b82518660208202830111640100000000821117156200042e57600080fd5b8083526020830192505050908051906020019060200280838360005b83811015620004675780820151818401526020810190506200044a565b50505050905001604052602001805160405193929190846401000000008211156200049157600080fd5b83820191506020820185811115620004a857600080fd5b8251866020820283011164010000000082111715620004c657600080fd5b8083526020830192505050908051906020019060200280838360005b83811015620004ff578082015181840152602081019050620004e2565b50505050905001604052602001805160405193929190846401000000008211156200052957600080fd5b838201915060208201858111156200054057600080fd5b82518660208202830111640100000000821117156200055e57600080fd5b8083526020830192505050908051906020019060200280838360005b83811015620005975780820151818401526020810190506200057a565b5050505090500160405260200180516040519392919084640100000000821115620005c157600080fd5b83820191506020820185811115620005d857600080fd5b8251866020820283011164010000000082111715620005f657600080fd5b8083526020830192505050908051906020019060200280838360005b838110156200062f57808201518184015260208101905062000612565b50505050905001604052602001805160405193929190846401000000008211156200065957600080fd5b838201915060208201858111156200067057600080fd5b82518660208202830111640100000000821117156200068e57600080fd5b8083526020830192505050908051906020019060200280838360005b83811015620006c7578082015181840152602081019050620006aa565b5050505090500160405260200180516040519392919084640100000000821115620006f157600080fd5b838201915060208201858111156200070857600080fd5b82518660208202830111640100000000821117156200072657600080fd5b8083526020830192505050908051906020019060200280838360005b838110156200075f57808201518184015260208101905062000742565b505050509050016040525050506200077c62000b0c60201b60201c565b6000806101000a81548173ffffffffffffffffffffffffffffffffffffffff021916908373ffffffffffffffffffffffffffffffffffffffff1602179055506000809054906101000a900473ffffffffffffffffffffffffffffffffffffffff1673ffffffffffffffffffffffffffffffffffffffff16600073ffffffffffffffffffffffffffffffffffffffff167f8be0079c531659141344cd1fd0a4f28419497f9722a3daafe3b4186f6b6457e060405160405180910390a38c6004819055508b6005819055508a600c90805190602001906200085d92919062000b14565b5089600d90805190602001906200087692919062000b14565b5088600e90805190602001906200088f92919062000b14565b5087600f9080519060200190620008a892919062000b14565b50604051806040016040528088600081518110620008c257fe5b60200260200101516effffffffffffffffffffffffffffff1916815260200188600181518110620008ef57fe5b60200260200101516effffffffffffffffffffffffffffff1916815250601360008201518160000160006101000a81548170ffffffffffffffffffffffffffffffffff021916908360781c021790555060208201518160010160006101000a81548170ffffffffffffffffffffffffffffffffff021916908360781c021790555090505085600b90805190602001906200098b92919062000b9b565b508460069080519060200190620009a492919062000bed565b508360079080519060200190620009bd92919062000bed565b508260089080519060200190620009d692919062000bed565b508160099080519060200190620009ef92919062000bed565b5080600a908051906020019062000a0892919062000c3f565b506000600260006101000a81548160ff0219169083151502179055503373ffffffffffffffffffffffffffffffffffffffff167f6bef222ff9e3d6c66b6a6430c3a81f86b81bd1c855771b79c71998c4765785f5600d604051808060200182810382528381815460018160011615610100020316600290048152602001915080546001816001161561010002031660029004801562000aeb5780601f1062000abf5761010080835404028352916020019162000aeb565b820191906000526020600020905b81548152906001019060200180831162000acd57829003601f168201915b50509250505060405180910390a25050505050505050505050505062000d6f565b600033905090565b828054600181600116156101000203166002900490600052602060002090601f016020900481019282601f1062000b5757805160ff191683800117855562000b88565b8280016001018555821562000b88579182015b8281111562000b8757825182559160200191906001019062000b6a565b5b50905062000b97919062000cec565b5090565b82805482825590600052602060002090810192821562000bda579160200282015b8281111562000bd957825182559160200191906001019062000bbc565b5b50905062000be9919062000d14565b5090565b82805482825590600052602060002090810192821562000c2c579160200282015b8281111562000c2b57825182559160200191906001019062000c0e565b5b50905062000c3b919062000cec565b5090565b82805482825590600052602060002090601f0160209004810192821562000cd95791602002820160005b8382111562000ca857835183826101000a81548160ff021916908315150217905550926020019260010160208160000104928301926001030262000c69565b801562000cd75782816101000a81549060ff021916905560010160208160000104928301926001030262000ca8565b505b50905062000ce8919062000d3c565b5090565b62000d1191905b8082111562000d0d57600081600090555060010162000cf3565b5090565b90565b62000d3991905b8082111562000d3557600081600090555060010162000d1b565b5090565b90565b62000d6c91905b8082111562000d6857600081816101000a81549060ff02191690555060010162000d43565b5090565b90565b612d708062000d7f6000396000f3fe608060405234801561001057600080fd5b506004361061021c5760003560e01c80637284e41611610125578063b3d444b8116100ad578063de32172e1161007c578063de32172e146112a8578063de5dd4da146112c6578063f211128314611381578063f2fde38b1461143c578063f5eecce2146114805761021c565b8063b3d444b8146111cb578063c66531cf1461124e578063c7876ea41461126c578063d71501801461128a5761021c565b806386efbd33116100f457806386efbd33146110995780638da5cb5b146110db5780638f32d59b14611125578063a4de2f5c14611147578063b30608e3146111895761021c565b80637284e41614610f745780637798477714610ff75780638381f58a146110395780638410b680146110575761021c565b8063486c968d116101a857806361fd30851161017757806361fd308514610ce657806363ffab3114610e385780636b64c76914610ea5578063708b34fe14610eaf578063715018a614610f6a5761021c565b8063486c968d14610aa157806352edbb7814610bfd578063574916f114610c805780635f8909bd14610cc45761021c565b80632c519bc4116101ef5780632c519bc41461057c5780633b02a268146106d85780633bb32d541461082a5780633c889e6f1461084857806345c02d52146108b65761021c565b806306fdde03146102215780630d80fefd146102a457806311a12bdd1461034b578063252c09d714610391575b600080fd5b6102296114ca565b6040518080602001828103825283818151815260200191508051906020019080838360005b8381101561026957808201518184015260208101905061024e565b50505050905090810190601f1680156102965780820380516001836020036101000a031916815260200191505b509250505060405180910390f35b6102d0600480360360208110156102ba57600080fd5b8101908080359060200190929190505050611568565b6040518080602001828103825283818151815260200191508051906020019080838360005b838110156103105780820151818401526020810190506102f5565b50505050905090810190601f16801561033d5780820380516001836020036101000a031916815260200191505b509250505060405180910390f35b6103776004803603602081101561036157600080fd5b8101908080359060200190929190505050611621565b604051808215151515815260200191505060405180910390f35b6103bd600480360360208110156103a757600080fd5b8101908080359060200190929190505050611652565b6040518080602001806020018060200180602001858103855289818151815260200191508051906020019080838360005b838110156104095780820151818401526020810190506103ee565b50505050905090810190601f1680156104365780820380516001836020036101000a031916815260200191505b50858103845288818151815260200191508051906020019080838360005b8381101561046f578082015181840152602081019050610454565b50505050905090810190601f16801561049c5780820380516001836020036101000a031916815260200191505b50858103835287818151815260200191508051906020019080838360005b838110156104d55780820151818401526020810190506104ba565b50505050905090810190601f1680156105025780820380516001836020036101000a031916815260200191505b50858103825286818151815260200191508051906020019080838360005b8381101561053b578082015181840152602081019050610520565b50505050905090810190601f1680156105685780820380516001836020036101000a031916815260200191505b509850505050505050505060405180910390f35b6106d66004803603606081101561059257600080fd5b8101908080359060200190929190803590602001906401000000008111156105b957600080fd5b8201836020820111156105cb57600080fd5b803590602001918460018302840111640100000000831117156105ed57600080fd5b91908080601f016020809104026020016040519081016040528093929190818152602001838380828437600081840152601f19601f8201169050808301925050505050505091929192908035906020019064010000000081111561065057600080fd5b82018360208201111561066257600080fd5b8035906020019184600183028401116401000000008311171561068457600080fd5b91908080601f016020809104026020016040519081016040528093929190818152602001838380828437600081840152601f19601f8201169050808301925050505050505091929192905050506118ef565b005b610828600480360360408110156106ee57600080fd5b810190808035906020019064010000000081111561070b57600080fd5b82018360208201111561071d57600080fd5b8035906020019184600183028401116401000000008311171561073f57600080fd5b91908080601f016020809104026020016040519081016040528093929190818152602001838380828437600081840152601f19601f820116905080830192505050505050509192919290803590602001906401000000008111156107a257600080fd5b8201836020820111156107b457600080fd5b803590602001918460018302840111640100000000831117156107d657600080fd5b91908080601f016020809104026020016040519081016040528093929190818152602001838380828437600081840152601f19601f8201169050808301925050505050505091929192905050506119c0565b005b610832611aa7565b6040518082815260200191505060405180910390f35b6108746004803603602081101561085e57600080fd5b8101908080359060200190929190505050611ab4565b604051808273ffffffffffffffffffffffffffffffffffffffff1673ffffffffffffffffffffffffffffffffffffffff16815260200191505060405180910390f35b6108e2600480360360208110156108cc57600080fd5b8101908080359060200190929190505050611cca565b6040518080602001806020018060200180602001858103855289818151815260200191508051906020019080838360005b8381101561092e578082015181840152602081019050610913565b50505050905090810190601f16801561095b5780820380516001836020036101000a031916815260200191505b50858103845288818151815260200191508051906020019080838360005b83811015610994578082015181840152602081019050610979565b50505050905090810190601f1680156109c15780820380516001836020036101000a031916815260200191505b50858103835287818151815260200191508051906020019080838360005b838110156109fa5780820151818401526020810190506109df565b50505050905090810190601f168015610a275780820380516001836020036101000a031916815260200191505b50858103825286818151815260200191508051906020019080838360005b83811015610a60578082015181840152602081019050610a45565b50505050905090810190601f168015610a8d5780820380516001836020036101000a031916815260200191505b509850505050505050505060405180910390f35b610bfb60048036036060811015610ab757600080fd5b810190808035906020019092919080359060200190640100000000811115610ade57600080fd5b820183602082011115610af057600080fd5b80359060200191846001830284011164010000000083111715610b1257600080fd5b91908080601f016020809104026020016040519081016040528093929190818152602001838380828437600081840152601f19601f82011690508083019250505050505050919291929080359060200190640100000000811115610b7557600080fd5b820183602082011115610b8757600080fd5b80359060200191846001830284011164010000000083111715610ba957600080fd5b91908080601f016020809104026020016040519081016040528093929190818152602001838380828437600081840152601f19601f820116905080830192505050505050509192919290505050611f67565b005b610c05612038565b6040518080602001828103825283818151815260200191508051906020019080838360005b83811015610c45578082015181840152602081019050610c2a565b50505050905090810190601f168015610c725780820380516001836020036101000a031916815260200191505b509250505060405180910390f35b610cc260048036036020811015610c9657600080fd5b81019080803573ffffffffffffffffffffffffffffffffffffffff1690602001909291905050506120d6565b005b610ccc6121e2565b604051808215151515815260200191505060405180910390f35b610e3660048036036040811015610cfc57600080fd5b8101908080359060200190640100000000811115610d1957600080fd5b820183602082011115610d2b57600080fd5b80359060200191846001830284011164010000000083111715610d4d57600080fd5b91908080601f016020809104026020016040519081016040528093929190818152602001838380828437600081840152601f19601f82011690508083019250505050505050919291929080359060200190640100000000811115610db057600080fd5b820183602082011115610dc257600080fd5b80359060200191846001830284011164010000000083111715610de457600080fd5b91908080601f016020809104026020016040519081016040528093929190818152602001838380828437600081840152601f19601f8201169050808301925050505050505091929192905050506121f5565b005b610e406122dc565b60405180836effffffffffffffffffffffffffffff19166effffffffffffffffffffffffffffff19168152602001826effffffffffffffffffffffffffffff19166effffffffffffffffffffffffffffff191681526020019250505060405180910390f35b610ead612308565b005b610f6860048036036020811015610ec557600080fd5b8101908080359060200190640100000000811115610ee257600080fd5b820183602082011115610ef457600080fd5b80359060200191846001830284011164010000000083111715610f1657600080fd5b91908080601f016020809104026020016040519081016040528093929190818152602001838380828437600081840152601f19601f82011690508083019250505050505050919291929050505061239f565b005b610f726123e1565b005b610f7c61251a565b6040518080602001828103825283818151815260200191508051906020019080838360005b83811015610fbc578082015181840152602081019050610fa1565b50505050905090810190601f168015610fe95780820380516001836020036101000a031916815260200191505b509250505060405180910390f35b6110236004803603602081101561100d57600080fd5b81019080803590602001909291905050506125b8565b6040518082815260200191505060405180910390f35b6110416125d9565b6040518082815260200191505060405180910390f35b6110836004803603602081101561106d57600080fd5b81019080803590602001909291905050506125df565b6040518082815260200191505060405180910390f35b6110c5600480360360208110156110af57600080fd5b8101908080359060200190929190505050612600565b6040518082815260200191505060405180910390f35b6110e3612621565b604051808273ffffffffffffffffffffffffffffffffffffffff1673ffffffffffffffffffffffffffffffffffffffff16815260200191505060405180910390f35b61112d61264a565b604051808215151515815260200191505060405180910390f35b6111736004803603602081101561115d57600080fd5b81019080803590602001909291905050506126a8565b6040518082815260200191505060405180910390f35b6111b56004803603602081101561119f57600080fd5b81019080803590602001909291905050506126c9565b6040518082815260200191505060405180910390f35b6111d36126ea565b6040518080602001828103825283818151815260200191508051906020019080838360005b838110156112135780820151818401526020810190506111f8565b50505050905090810190601f1680156112405780820380516001836020036101000a031916815260200191505b509250505060405180910390f35b611256612788565b6040518082815260200191505060405180910390f35b6112746127ee565b6040518082815260200191505060405180910390f35b6112926127f4565b6040518082815260200191505060405180910390f35b6112b0612801565b6040518082815260200191505060405180910390f35b61137f600480360360208110156112dc57600080fd5b81019080803590602001906401000000008111156112f957600080fd5b82018360208201111561130b57600080fd5b8035906020019184600183028401116401000000008311171561132d57600080fd5b91908080601f016020809104026020016040519081016040528093929190818152602001838380828437600081840152601f19601f82011690508083019250505050505050919291929050505061280e565b005b61143a6004803603602081101561139757600080fd5b81019080803590602001906401000000008111156113b457600080fd5b8201836020820111156113c657600080fd5b803590602001918460018302840111640100000000831117156113e857600080fd5b91908080601f016020809104026020016040519081016040528093929190818152602001838380828437600081840152601f19601f820116905080830192505050505050509192919290505050612903565b005b61147e6004803603602081101561145257600080fd5b81019080803573ffffffffffffffffffffffffffffffffffffffff1690602001909291905050506129f8565b005b611488612a7e565b604051808273ffffffffffffffffffffffffffffffffffffffff1673ffffffffffffffffffffffffffffffffffffffff16815260200191505060405180910390f35b600d8054600181600116156101000203166002900480601f0160208091040260200160405190810160405280929190818152602001828054600181600116156101000203166002900480156115605780601f1061153557610100808354040283529160200191611560565b820191906000526020600020905b81548152906001019060200180831161154357829003601f168201915b505050505081565b6010818154811061157557fe5b906000526020600020016000915090508054600181600116156101000203166002900480601f0160208091040260200160405190810160405280929190818152602001828054600181600116156101000203166002900480156116195780601f106115ee57610100808354040283529160200191611619565b820191906000526020600020905b8154815290600101906020018083116115fc57829003601f168201915b505050505081565b600a818154811061162e57fe5b9060005260206000209060209182820401919006915054906101000a900460ff1681565b6011818154811061165f57fe5b9060005260206000209060040201600091509050806000018054600181600116156101000203166002900480601f01602080910402602001604051908101604052809291908181526020018280546001816001161561010002031660029004801561170b5780601f106116e05761010080835404028352916020019161170b565b820191906000526020600020905b8154815290600101906020018083116116ee57829003601f168201915b505050505090806001018054600181600116156101000203166002900480601f0160208091040260200160405190810160405280929190818152602001828054600181600116156101000203166002900480156117a95780601f1061177e576101008083540402835291602001916117a9565b820191906000526020600020905b81548152906001019060200180831161178c57829003601f168201915b505050505090806002018054600181600116156101000203166002900480601f0160208091040260200160405190810160405280929190818152602001828054600181600116156101000203166002900480156118475780601f1061181c57610100808354040283529160200191611847565b820191906000526020600020905b81548152906001019060200180831161182a57829003601f168201915b505050505090806003018054600181600116156101000203166002900480601f0160208091040260200160405190810160405280929190818152602001828054600181600116156101000203166002900480156118e55780601f106118ba576101008083540402835291602001916118e5565b820191906000526020600020905b8154815290600101906020018083116118c857829003601f168201915b5050505050905084565b6118f761264a565b611969576040517f08c379a00000000000000000000000000000000000000000000000000000000081526004018080602001828103825260208152602001807f4f776e61626c653a2063616c6c6572206973206e6f7420746865206f776e657281525060200191505060405180910390fd5b60006011848154811061197857fe5b90600052602060002090600402019050828160020190805190602001906119a0929190612bf0565b50818160030190805190602001906119b9929190612bf0565b5050505050565b6011604051806080016040528084815260200183815260200160405180602001604052806000815250815260200160405180602001604052806000815250815250908060018154018082558091505090600182039060005260206000209060040201600090919290919091506000820151816000019080519060200190611a48929190612c70565b506020820151816001019080519060200190611a65929190612c70565b506040820151816002019080519060200190611a82929190612c70565b506060820151816003019080519060200190611a9f929190612c70565b505050505050565b6000601080549050905090565b6000611abe61264a565b611b30576040517f08c379a00000000000000000000000000000000000000000000000000000000081526004018080602001828103825260208152602001807f4f776e61626c653a2063616c6c6572206973206e6f7420746865206f776e657281525060200191505060405180910390fd5b426006600981548110611b3f57fe5b906000526020600020015410611bbd576040517f08c379a000000000000000000000000000000000000000000000000000000000815260040180806020018281038252600e8152602001807f43414e275420564945572059455400000000000000000000000000000000000081525060200191505060405180910390fd5b6000601560003373ffffffffffffffffffffffffffffffffffffffff1673ffffffffffffffffffffffffffffffffffffffff16815260200190815260200160002080549050905060008114611c8957601560003373ffffffffffffffffffffffffffffffffffffffff1673ffffffffffffffffffffffffffffffffffffffff1681526020019081526020016000208381548110611c5657fe5b9060005260206000200160009054906101000a900473ffffffffffffffffffffffffffffffffffffffff16915050611cc5565b60038381548110611c9657fe5b9060005260206000200160009054906101000a900473ffffffffffffffffffffffffffffffffffffffff169150505b919050565b60128181548110611cd757fe5b9060005260206000209060040201600091509050806000018054600181600116156101000203166002900480601f016020809104026020016040519081016040528092919081815260200182805460018160011615610100020316600290048015611d835780601f10611d5857610100808354040283529160200191611d83565b820191906000526020600020905b815481529060010190602001808311611d6657829003601f168201915b505050505090806001018054600181600116156101000203166002900480601f016020809104026020016040519081016040528092919081815260200182805460018160011615610100020316600290048015611e215780601f10611df657610100808354040283529160200191611e21565b820191906000526020600020905b815481529060010190602001808311611e0457829003601f168201915b505050505090806002018054600181600116156101000203166002900480601f016020809104026020016040519081016040528092919081815260200182805460018160011615610100020316600290048015611ebf5780601f10611e9457610100808354040283529160200191611ebf565b820191906000526020600020905b815481529060010190602001808311611ea257829003601f168201915b505050505090806003018054600181600116156101000203166002900480601f016020809104026020016040519081016040528092919081815260200182805460018160011615610100020316600290048015611f5d5780601f10611f3257610100808354040283529160200191611f5d565b820191906000526020600020905b815481529060010190602001808311611f4057829003601f168201915b5050505050905084565b611f6f61264a565b611fe1576040517f08c379a00000000000000000000000000000000000000000000000000000000081526004018080602001828103825260208152602001807f4f776e61626c653a2063616c6c6572206973206e6f7420746865206f776e657281525060200191505060405180910390fd5b600060128481548110611ff057fe5b9060005260206000209060040201905082816002019080519060200190612018929190612bf0565b5081816003019080519060200190612031929190612bf0565b5050505050565b600c8054600181600116156101000203166002900480601f0160208091040260200160405190810160405280929190818152602001828054600181600116156101000203166002900480156120ce5780601f106120a3576101008083540402835291602001916120ce565b820191906000526020600020905b8154815290600101906020018083116120b157829003601f168201915b505050505081565b60038190806001815401808255809150509060018203906000526020600020016000909192909190916101000a81548173ffffffffffffffffffffffffffffffffffffffff021916908373ffffffffffffffffffffffffffffffffffffffff16021790555050601560003373ffffffffffffffffffffffffffffffffffffffff1673ffffffffffffffffffffffffffffffffffffffff1681526020019081526020016000208190806001815401808255809150509060018203906000526020600020016000909192909190916101000a81548173ffffffffffffffffffffffffffffffffffffffff021916908373ffffffffffffffffffffffffffffffffffffffff1602179055505050565b600260009054906101000a900460ff1681565b601260405180608001604052808481526020018381526020016040518060200160405280600081525081526020016040518060200160405280600081525081525090806001815401808255809150509060018203906000526020600020906004020160009091929091909150600082015181600001908051906020019061227d929190612c70565b50602082015181600101908051906020019061229a929190612c70565b5060408201518160020190805190602001906122b7929190612c70565b5060608201518160030190805190602001906122d4929190612c70565b505050505050565b60138060000160009054906101000a900460781b908060010160009054906101000a900460781b905082565b61231061264a565b612382576040517f08c379a00000000000000000000000000000000000000000000000000000000081526004018080602001828103825260208152602001807f4f776e61626c653a2063616c6c6572206973206e6f7420746865206f776e657281525060200191505060405180910390fd5b6001600260006101000a81548160ff021916908315150217905550565b60108190806001815401808255809150509060018203906000526020600020016000909192909190915090805190602001906123dc929190612bf0565b505050565b6123e961264a565b61245b576040517f08c379a00000000000000000000000000000000000000000000000000000000081526004018080602001828103825260208152602001807f4f776e61626c653a2063616c6c6572206973206e6f7420746865206f776e657281525060200191505060405180910390fd5b600073ffffffffffffffffffffffffffffffffffffffff166000809054906101000a900473ffffffffffffffffffffffffffffffffffffffff1673ffffffffffffffffffffffffffffffffffffffff167f8be0079c531659141344cd1fd0a4f28419497f9722a3daafe3b4186f6b6457e060405160405180910390a360008060006101000a81548173ffffffffffffffffffffffffffffffffffffffff021916908373ffffffffffffffffffffffffffffffffffffffff160217905550565b600e8054600181600116156101000203166002900480601f0160208091040260200160405190810160405280929190818152602001828054600181600116156101000203166002900480156125b05780601f10612585576101008083540402835291602001916125b0565b820191906000526020600020905b81548152906001019060200180831161259357829003601f168201915b505050505081565b600981815481106125c557fe5b906000526020600020016000915090505481565b60045481565b600781815481106125ec57fe5b906000526020600020016000915090505481565b6008818154811061260d57fe5b906000526020600020016000915090505481565b60008060009054906101000a900473ffffffffffffffffffffffffffffffffffffffff16905090565b60008060009054906101000a900473ffffffffffffffffffffffffffffffffffffffff1673ffffffffffffffffffffffffffffffffffffffff1661268c612aa4565b73ffffffffffffffffffffffffffffffffffffffff1614905090565b600b81815481106126b557fe5b906000526020600020016000915090505481565b600681815481106126d657fe5b906000526020600020016000915090505481565b600f8054600181600116156101000203166002900480601f0160208091040260200160405190810160405280929190818152602001828054600181600116156101000203166002900480156127805780601f1061275557610100808354040283529160200191612780565b820191906000526020600020905b81548152906001019060200180831161276357829003601f168201915b505050505081565b600080601560003373ffffffffffffffffffffffffffffffffffffffff1673ffffffffffffffffffffffffffffffffffffffff168152602001908152602001600020805490509050600081146127e157809150506127eb565b6003805490509150505b90565b60055481565b6000601180549050905090565b6000601280549050905090565b60126040518060800160405280838152602001604051806020016040528060008152508152602001604051806020016040528060008152508152602001604051806020016040528060008152508152509080600181540180825580915050906001820390600052602060002090600402016000909192909190915060008201518160000190805190602001906128a5929190612c70565b5060208201518160010190805190602001906128c2929190612c70565b5060408201518160020190805190602001906128df929190612c70565b5060608201518160030190805190602001906128fc929190612c70565b5050505050565b601160405180608001604052808381526020016040518060200160405280600081525081526020016040518060200160405280600081525081526020016040518060200160405280600081525081525090806001815401808255809150509060018203906000526020600020906004020160009091929091909150600082015181600001908051906020019061299a929190612c70565b5060208201518160010190805190602001906129b7929190612c70565b5060408201518160020190805190602001906129d4929190612c70565b5060608201518160030190805190602001906129f1929190612c70565b5050505050565b612a0061264a565b612a72576040517f08c379a00000000000000000000000000000000000000000000000000000000081526004018080602001828103825260208152602001807f4f776e61626c653a2063616c6c6572206973206e6f7420746865206f776e657281525060200191505060405180910390fd5b612a7b81612aac565b50565b600260019054906101000a900473ffffffffffffffffffffffffffffffffffffffff1681565b600033905090565b600073ffffffffffffffffffffffffffffffffffffffff168173ffffffffffffffffffffffffffffffffffffffff161415612b32576040517f08c379a0000000000000000000000000000000000000000000000000000000008152600401808060200182810382526026815260200180612d166026913960400191505060405180910390fd5b8073ffffffffffffffffffffffffffffffffffffffff166000809054906101000a900473ffffffffffffffffffffffffffffffffffffffff1673ffffffffffffffffffffffffffffffffffffffff167f8be0079c531659141344cd1fd0a4f28419497f9722a3daafe3b4186f6b6457e060405160405180910390a3806000806101000a81548173ffffffffffffffffffffffffffffffffffffffff021916908373ffffffffffffffffffffffffffffffffffffffff16021790555050565b828054600181600116156101000203166002900490600052602060002090601f016020900481019282601f10612c3157805160ff1916838001178555612c5f565b82800160010185558215612c5f579182015b82811115612c5e578251825591602001919060010190612c43565b5b509050612c6c9190612cf0565b5090565b828054600181600116156101000203166002900490600052602060002090601f016020900481019282601f10612cb157805160ff1916838001178555612cdf565b82800160010185558215612cdf579182015b82811115612cde578251825591602001919060010190612cc3565b5b509050612cec9190612cf0565b5090565b612d1291905b80821115612d0e576000816000905550600101612cf6565b5090565b9056fe4f776e61626c653a206e6577206f776e657220697320746865207a65726f2061646472657373a265627a7a72315820eadf6f1139b310be24a0fdccbe1c4a52acc14d403d1222eb159c8cd6a400a37264736f6c634300050c0032",
  "source": "pragma solidity >=0.4.23 <0.6.0;\n\nimport 'openzeppelin-solidity/contracts/ownership/Ownable.sol';\nimport 'openzeppelin-solidity/contracts/access/Roles.sol';\n\ncontract Tender is Ownable {\n  using Roles for Roles.Role;\n\n  Roles.Role private vendors;\n\n  bool public biddingPeriod;\n  address public winningVendor;\n  address[] allBids;\n  uint public number;\n  uint public basePrice;\n  uint[] public scheduleDates;\n  uint[] public unspsc;\n  uint[] public contractInfo;\n  uint[] public generalInfoValues;\n  bool[] public generalInfoFlags;\n  bytes32[] public ipfsHashes;\n  string public office;\n  string public name;\n  string public description;\n  string public procedureTeam;\n  string[] public messages;\n  Observation[] public observations;\n  Observation[] public winnerObservations;\n  PublicKey public publicKey;\n  mapping(address => address[]) bids;\n\n  event TenderCreated(address indexed _owner, string _name);\n\n  struct Observation {\n    string plain;\n    string hash;\n    string resPlain;\n    string resHash;\n  }\n\n  struct PublicKey {\n    bytes17 r;\n    bytes17 s;\n  }\n\n  constructor(\n    uint _number                    ,\n    uint _basePrice                 ,\n    string memory _office           ,\n    string memory _name             ,\n    string memory _description      ,\n    string memory _procedureTeam    ,\n    bytes17[] memory _publicKey     ,\n    bytes32[] memory _ipfsHashes    ,\n    uint[] memory _scheduleDates    ,\n    uint[] memory _unspsc           ,\n    uint[] memory _contractInfo     ,\n    uint[] memory _generalInfoValues,\n    bool[] memory _generalInfoFlags\n  ) public {\n    number = _number;\n    basePrice = _basePrice;\n    office =  _office;\n    name = _name;\n    description = _description;\n    procedureTeam = _procedureTeam;\n    publicKey = PublicKey({ r: _publicKey[0], s: _publicKey[1] });\n    ipfsHashes = _ipfsHashes;\n    scheduleDates = _scheduleDates;\n    unspsc = _unspsc;\n    contractInfo = _contractInfo;\n    generalInfoValues = _generalInfoValues;\n    generalInfoFlags = _generalInfoFlags;\n    biddingPeriod = false;\n    emit TenderCreated(msg.sender, name);\n  }\n\n  function submitObservation(string memory _plain) public {\n    observations.push(Observation({plain: _plain, hash: \"\", resPlain: \"\", resHash: \"\"}));\n  }\n\n  function submitObservation(string memory _plain, string memory _hash) public {\n    observations.push(Observation({plain: _plain, hash: _hash, resPlain: \"\", resHash: \"\"}));\n  }\n\n  function respondObservation(uint _idx, string memory _plain, string memory _hash) public onlyOwner {\n    Observation storage obs = observations[_idx];\n    obs.resPlain = _plain;\n    obs.resHash = _hash;\n  }\n\n  function submitWinnerObservation(string memory _plain) public {\n    winnerObservations.push(Observation({plain: _plain, hash: \"\", resPlain: \"\", resHash: \"\"}));\n  }\n\n  function submitWinnerObservation(string memory _plain, string memory _hash) public {\n    winnerObservations.push(Observation({plain: _plain, hash: _hash, resPlain: \"\", resHash: \"\"}));\n  }\n\n  function respondWinnerObservation(uint _idx, string memory _plain, string memory _hash) public onlyOwner {\n    Observation storage obs = winnerObservations[_idx];\n    obs.resPlain = _plain;\n    obs.resHash = _hash;\n  }\n\n  function getObservationsLength() public view returns(uint) {\n    return observations.length;\n  }\n\n  function submitMessage(string memory _message) public {\n    messages.push(_message);\n  }\n\n  function getMessagesLength() public view returns(uint) {\n    return messages.length;\n  }\n\n\n  function getWinnerObservationsLength() public view returns(uint) {\n    return winnerObservations.length;\n  }\n\n  function startAuction() public onlyOwner {\n    biddingPeriod = true;\n  }\n\n  function registerBid(address _contractAddress) public {\n    allBids.push(_contractAddress);\n    bids[msg.sender].push(_contractAddress);\n  }\n\n  function getBidsSize() public view returns (uint) {\n    uint size = bids[msg.sender].length;\n    if (size != 0) {\n      return size;\n    }\n    return allBids.length;\n  }\n\n  function getBid(uint _bidIdx) public view onlyOwner returns (address) {\n    require(scheduleDates[9] < now, \"CAN'T VIEW YET\");\n    uint size = bids[msg.sender].length;\n    if (size != 0) {\n      return bids[msg.sender][_bidIdx];\n    }\n    return allBids[_bidIdx];\n  }\n}\n",
  "sourcePath": "/home/luis/Documents/BlockchainStuff/Proyecto/contracts/contracts/Tender.sol",
  "compiler": {
    "name": "solc",
    "version": "0.5.12+commit.7709ece9.Emscripten.clang"
  },
  "schemaVersion": "3.0.19",
  "updatedAt": "2019-12-05T18:40:57.801Z",
  "devdoc": {
    "methods": {
      "isOwner()": {
        "details": "Returns true if the caller is the current owner."
      },
      "owner()": {
        "details": "Returns the address of the current owner."
      },
      "renounceOwnership()": {
        "details": "Leaves the contract without owner. It will not be possible to call `onlyOwner` functions anymore. Can only be called by the current owner.     * NOTE: Renouncing ownership will leave the contract without an owner, thereby removing any functionality that is only available to the owner."
      },
      "transferOwnership(address)": {
        "details": "Transfers ownership of the contract to a new account (`newOwner`). Can only be called by the current owner."
      }
    }
  },
  "userdoc": {
    "methods": {}
  }
}